{
	"contracts/CrowdFunding.sol": {
		"CrowdFunding": {
			"abi": [
				{
					"inputs": [
						{
							"internalType": "string",
							"name": "_name",
							"type": "string"
						},
						{
							"internalType": "string",
							"name": "_description",
							"type": "string"
						},
						{
							"internalType": "uint256",
							"name": "_goal",
							"type": "uint256"
						},
						{
							"internalType": "uint256",
							"name": "_durationInDays",
							"type": "uint256"
						}
					],
					"stateMutability": "nonpayable",
					"type": "constructor"
				},
				{
					"inputs": [
						{
							"internalType": "string",
							"name": "_name",
							"type": "string"
						},
						{
							"internalType": "uint256",
							"name": "_amount",
							"type": "uint256"
						}
					],
					"name": "addTier",
					"outputs": [],
					"stateMutability": "nonpayable",
					"type": "function"
				},
				{
					"inputs": [],
					"name": "deadline",
					"outputs": [
						{
							"internalType": "uint256",
							"name": "",
							"type": "uint256"
						}
					],
					"stateMutability": "view",
					"type": "function"
				},
				{
					"inputs": [],
					"name": "description",
					"outputs": [
						{
							"internalType": "string",
							"name": "",
							"type": "string"
						}
					],
					"stateMutability": "view",
					"type": "function"
				},
				{
					"inputs": [
						{
							"internalType": "uint256",
							"name": "_tierIndex",
							"type": "uint256"
						}
					],
					"name": "fund",
					"outputs": [],
					"stateMutability": "payable",
					"type": "function"
				},
				{
					"inputs": [],
					"name": "getContractBalance",
					"outputs": [
						{
							"internalType": "uint256",
							"name": "",
							"type": "uint256"
						}
					],
					"stateMutability": "view",
					"type": "function"
				},
				{
					"inputs": [],
					"name": "goal",
					"outputs": [
						{
							"internalType": "uint256",
							"name": "",
							"type": "uint256"
						}
					],
					"stateMutability": "view",
					"type": "function"
				},
				{
					"inputs": [],
					"name": "name",
					"outputs": [
						{
							"internalType": "string",
							"name": "",
							"type": "string"
						}
					],
					"stateMutability": "view",
					"type": "function"
				},
				{
					"inputs": [],
					"name": "owner",
					"outputs": [
						{
							"internalType": "address",
							"name": "",
							"type": "address"
						}
					],
					"stateMutability": "view",
					"type": "function"
				},
				{
					"inputs": [
						{
							"internalType": "uint256",
							"name": "_index",
							"type": "uint256"
						}
					],
					"name": "removeTier",
					"outputs": [],
					"stateMutability": "nonpayable",
					"type": "function"
				},
				{
					"inputs": [],
					"name": "state",
					"outputs": [
						{
							"internalType": "enum CrowdFunding.CampaignState",
							"name": "",
							"type": "uint8"
						}
					],
					"stateMutability": "view",
					"type": "function"
				},
				{
					"inputs": [
						{
							"internalType": "uint256",
							"name": "",
							"type": "uint256"
						}
					],
					"name": "tiers",
					"outputs": [
						{
							"internalType": "string",
							"name": "name",
							"type": "string"
						},
						{
							"internalType": "uint256",
							"name": "amount",
							"type": "uint256"
						},
						{
							"internalType": "uint256",
							"name": "backers",
							"type": "uint256"
						}
					],
					"stateMutability": "view",
					"type": "function"
				},
				{
					"inputs": [],
					"name": "withdraw",
					"outputs": [],
					"stateMutability": "nonpayable",
					"type": "function"
				}
			],
			"devdoc": {
				"kind": "dev",
				"methods": {},
				"version": 1
			},
			"evm": {
				"assembly": "    /* \"contracts/CrowdFunding.sol\":57:2664  contract CrowdFunding {... */\n  mstore(0x40, 0x80)\n    /* \"contracts/CrowdFunding.sol\":694:1029  constructor(string memory _name,... */\n  callvalue\n  dup1\n  iszero\n  tag_1\n  jumpi\n  0x00\n  dup1\n  revert\ntag_1:\n  pop\n  mload(0x40)\n  sub(codesize, bytecodeSize)\n  dup1\n  bytecodeSize\n  dup4\n  codecopy\n  dup2\n  dup2\n  add\n  0x40\n  mstore\n  dup2\n  add\n  swap1\n  tag_2\n  swap2\n  swap1\n  tag_3\n  jump\t// in\ntag_2:\n    /* \"contracts/CrowdFunding.sol\":828:833  _name */\n  dup4\n    /* \"contracts/CrowdFunding.sol\":821:825  name */\n  0x00\n    /* \"contracts/CrowdFunding.sol\":821:833  name = _name */\n  swap1\n  dup2\n  tag_6\n  swap2\n  swap1\n  tag_7\n  jump\t// in\ntag_6:\n  pop\n    /* \"contracts/CrowdFunding.sol\":857:869  _description */\n  dup3\n    /* \"contracts/CrowdFunding.sol\":843:854  description */\n  0x01\n    /* \"contracts/CrowdFunding.sol\":843:869  description = _description */\n  swap1\n  dup2\n  tag_8\n  swap2\n  swap1\n  tag_7\n  jump\t// in\ntag_8:\n  pop\n    /* \"contracts/CrowdFunding.sol\":886:891  _goal */\n  dup2\n    /* \"contracts/CrowdFunding.sol\":879:883  goal */\n  0x02\n    /* \"contracts/CrowdFunding.sol\":879:891  goal = _goal */\n  dup2\n  swap1\n  sstore\n  pop\n    /* \"contracts/CrowdFunding.sol\":949:955  1 days */\n  0x015180\n    /* \"contracts/CrowdFunding.sol\":931:946  _durationInDays */\n  dup2\n    /* \"contracts/CrowdFunding.sol\":931:955  _durationInDays * 1 days */\n  tag_9\n  swap2\n  swap1\n  tag_10\n  jump\t// in\ntag_9:\n    /* \"contracts/CrowdFunding.sol\":912:927  block.timestamp */\n  timestamp\n    /* \"contracts/CrowdFunding.sol\":912:956  block.timestamp + (_durationInDays * 1 days) */\n  tag_11\n  swap2\n  swap1\n  tag_12\n  jump\t// in\ntag_11:\n    /* \"contracts/CrowdFunding.sol\":901:909  deadline */\n  0x03\n    /* \"contracts/CrowdFunding.sol\":901:956  deadline = block.timestamp + (_durationInDays * 1 days) */\n  dup2\n  swap1\n  sstore\n  pop\n    /* \"contracts/CrowdFunding.sol\":974:984  msg.sender */\n  caller\n    /* \"contracts/CrowdFunding.sol\":966:971  owner */\n  0x04\n  0x00\n    /* \"contracts/CrowdFunding.sol\":966:984  owner = msg.sender */\n  0x0100\n  exp\n  dup2\n  sload\n  dup2\n  0xffffffffffffffffffffffffffffffffffffffff\n  mul\n  not\n  and\n  swap1\n  dup4\n  0xffffffffffffffffffffffffffffffffffffffff\n  and\n  mul\n  or\n  swap1\n  sstore\n  pop\n    /* \"contracts/CrowdFunding.sol\":1002:1022  CampaignState.Active */\n  0x00\n    /* \"contracts/CrowdFunding.sol\":994:999  state */\n  0x04\n  0x14\n    /* \"contracts/CrowdFunding.sol\":994:1022  state = CampaignState.Active */\n  0x0100\n  exp\n  dup2\n  sload\n  dup2\n  0xff\n  mul\n  not\n  and\n  swap1\n  dup4\n  0x02\n  dup2\n  gt\n  iszero\n  tag_13\n  jumpi\n  tag_14\n  tag_15\n  jump\t// in\ntag_14:\ntag_13:\n  mul\n  or\n  swap1\n  sstore\n  pop\n    /* \"contracts/CrowdFunding.sol\":694:1029  constructor(string memory _name,... */\n  pop\n  pop\n  pop\n  pop\n    /* \"contracts/CrowdFunding.sol\":57:2664  contract CrowdFunding {... */\n  jump(tag_16)\n    /* \"#utility.yul\":7:82   */\ntag_17:\n    /* \"#utility.yul\":40:46   */\n  0x00\n    /* \"#utility.yul\":73:75   */\n  0x40\n    /* \"#utility.yul\":67:76   */\n  mload\n    /* \"#utility.yul\":57:76   */\n  swap1\n  pop\n    /* \"#utility.yul\":7:82   */\n  swap1\n  jump\t// out\n    /* \"#utility.yul\":88:205   */\ntag_18:\n    /* \"#utility.yul\":197:198   */\n  0x00\n    /* \"#utility.yul\":194:195   */\n  dup1\n    /* \"#utility.yul\":187:199   */\n  revert\n    /* \"#utility.yul\":211:328   */\ntag_19:\n    /* \"#utility.yul\":320:321   */\n  0x00\n    /* \"#utility.yul\":317:318   */\n  dup1\n    /* \"#utility.yul\":310:322   */\n  revert\n    /* \"#utility.yul\":334:451   */\ntag_20:\n    /* \"#utility.yul\":443:444   */\n  0x00\n    /* \"#utility.yul\":440:441   */\n  dup1\n    /* \"#utility.yul\":433:445   */\n  revert\n    /* \"#utility.yul\":457:574   */\ntag_21:\n    /* \"#utility.yul\":566:567   */\n  0x00\n    /* \"#utility.yul\":563:564   */\n  dup1\n    /* \"#utility.yul\":556:568   */\n  revert\n    /* \"#utility.yul\":580:682   */\ntag_22:\n    /* \"#utility.yul\":621:627   */\n  0x00\n    /* \"#utility.yul\":672:674   */\n  0x1f\n    /* \"#utility.yul\":668:675   */\n  not\n    /* \"#utility.yul\":663:665   */\n  0x1f\n    /* \"#utility.yul\":656:661   */\n  dup4\n    /* \"#utility.yul\":652:666   */\n  add\n    /* \"#utility.yul\":648:676   */\n  and\n    /* \"#utility.yul\":638:676   */\n  swap1\n  pop\n    /* \"#utility.yul\":580:682   */\n  swap2\n  swap1\n  pop\n  jump\t// out\n    /* \"#utility.yul\":688:868   */\ntag_23:\n    /* \"#utility.yul\":736:813   */\n  0x4e487b7100000000000000000000000000000000000000000000000000000000\n    /* \"#utility.yul\":733:734   */\n  0x00\n    /* \"#utility.yul\":726:814   */\n  mstore\n    /* \"#utility.yul\":833:837   */\n  0x41\n    /* \"#utility.yul\":830:831   */\n  0x04\n    /* \"#utility.yul\":823:838   */\n  mstore\n    /* \"#utility.yul\":857:861   */\n  0x24\n    /* \"#utility.yul\":854:855   */\n  0x00\n    /* \"#utility.yul\":847:862   */\n  revert\n    /* \"#utility.yul\":874:1155   */\ntag_24:\n    /* \"#utility.yul\":957:984   */\n  tag_61\n    /* \"#utility.yul\":979:983   */\n  dup3\n    /* \"#utility.yul\":957:984   */\n  tag_22\n  jump\t// in\ntag_61:\n    /* \"#utility.yul\":949:955   */\n  dup2\n    /* \"#utility.yul\":945:985   */\n  add\n    /* \"#utility.yul\":1087:1093   */\n  dup2\n    /* \"#utility.yul\":1075:1085   */\n  dup2\n    /* \"#utility.yul\":1072:1094   */\n  lt\n    /* \"#utility.yul\":1051:1069   */\n  0xffffffffffffffff\n    /* \"#utility.yul\":1039:1049   */\n  dup3\n    /* \"#utility.yul\":1036:1070   */\n  gt\n    /* \"#utility.yul\":1033:1095   */\n  or\n    /* \"#utility.yul\":1030:1118   */\n  iszero\n  tag_62\n  jumpi\n    /* \"#utility.yul\":1098:1116   */\n  tag_63\n  tag_23\n  jump\t// in\ntag_63:\n    /* \"#utility.yul\":1030:1118   */\ntag_62:\n    /* \"#utility.yul\":1138:1148   */\n  dup1\n    /* \"#utility.yul\":1134:1136   */\n  0x40\n    /* \"#utility.yul\":1127:1149   */\n  mstore\n    /* \"#utility.yul\":917:1155   */\n  pop\n    /* \"#utility.yul\":874:1155   */\n  pop\n  pop\n  jump\t// out\n    /* \"#utility.yul\":1161:1290   */\ntag_25:\n    /* \"#utility.yul\":1195:1201   */\n  0x00\n    /* \"#utility.yul\":1222:1242   */\n  tag_65\n  tag_17\n  jump\t// in\ntag_65:\n    /* \"#utility.yul\":1212:1242   */\n  swap1\n  pop\n    /* \"#utility.yul\":1251:1284   */\n  tag_66\n    /* \"#utility.yul\":1279:1283   */\n  dup3\n    /* \"#utility.yul\":1271:1277   */\n  dup3\n    /* \"#utility.yul\":1251:1284   */\n  tag_24\n  jump\t// in\ntag_66:\n    /* \"#utility.yul\":1161:1290   */\n  swap2\n  swap1\n  pop\n  jump\t// out\n    /* \"#utility.yul\":1296:1604   */\ntag_26:\n    /* \"#utility.yul\":1358:1362   */\n  0x00\n    /* \"#utility.yul\":1448:1466   */\n  0xffffffffffffffff\n    /* \"#utility.yul\":1440:1446   */\n  dup3\n    /* \"#utility.yul\":1437:1467   */\n  gt\n    /* \"#utility.yul\":1434:1490   */\n  iszero\n  tag_68\n  jumpi\n    /* \"#utility.yul\":1470:1488   */\n  tag_69\n  tag_23\n  jump\t// in\ntag_69:\n    /* \"#utility.yul\":1434:1490   */\ntag_68:\n    /* \"#utility.yul\":1508:1537   */\n  tag_70\n    /* \"#utility.yul\":1530:1536   */\n  dup3\n    /* \"#utility.yul\":1508:1537   */\n  tag_22\n  jump\t// in\ntag_70:\n    /* \"#utility.yul\":1500:1537   */\n  swap1\n  pop\n    /* \"#utility.yul\":1592:1596   */\n  0x20\n    /* \"#utility.yul\":1586:1590   */\n  dup2\n    /* \"#utility.yul\":1582:1597   */\n  add\n    /* \"#utility.yul\":1574:1597   */\n  swap1\n  pop\n    /* \"#utility.yul\":1296:1604   */\n  swap2\n  swap1\n  pop\n  jump\t// out\n    /* \"#utility.yul\":1610:1856   */\ntag_27:\n    /* \"#utility.yul\":1691:1692   */\n  0x00\n    /* \"#utility.yul\":1701:1814   */\ntag_72:\n    /* \"#utility.yul\":1715:1721   */\n  dup4\n    /* \"#utility.yul\":1712:1713   */\n  dup2\n    /* \"#utility.yul\":1709:1722   */\n  lt\n    /* \"#utility.yul\":1701:1814   */\n  iszero\n  tag_74\n  jumpi\n    /* \"#utility.yul\":1800:1801   */\n  dup1\n    /* \"#utility.yul\":1795:1798   */\n  dup3\n    /* \"#utility.yul\":1791:1802   */\n  add\n    /* \"#utility.yul\":1785:1803   */\n  mload\n    /* \"#utility.yul\":1781:1782   */\n  dup2\n    /* \"#utility.yul\":1776:1779   */\n  dup5\n    /* \"#utility.yul\":1772:1783   */\n  add\n    /* \"#utility.yul\":1765:1804   */\n  mstore\n    /* \"#utility.yul\":1737:1739   */\n  0x20\n    /* \"#utility.yul\":1734:1735   */\n  dup2\n    /* \"#utility.yul\":1730:1740   */\n  add\n    /* \"#utility.yul\":1725:1740   */\n  swap1\n  pop\n    /* \"#utility.yul\":1701:1814   */\n  jump(tag_72)\ntag_74:\n    /* \"#utility.yul\":1848:1849   */\n  0x00\n    /* \"#utility.yul\":1839:1845   */\n  dup5\n    /* \"#utility.yul\":1834:1837   */\n  dup5\n    /* \"#utility.yul\":1830:1846   */\n  add\n    /* \"#utility.yul\":1823:1850   */\n  mstore\n    /* \"#utility.yul\":1672:1856   */\n  pop\n    /* \"#utility.yul\":1610:1856   */\n  pop\n  pop\n  pop\n  jump\t// out\n    /* \"#utility.yul\":1862:2296   */\ntag_28:\n    /* \"#utility.yul\":1951:1956   */\n  0x00\n    /* \"#utility.yul\":1976:2042   */\n  tag_76\n    /* \"#utility.yul\":1992:2041   */\n  tag_77\n    /* \"#utility.yul\":2034:2040   */\n  dup5\n    /* \"#utility.yul\":1992:2041   */\n  tag_26\n  jump\t// in\ntag_77:\n    /* \"#utility.yul\":1976:2042   */\n  tag_25\n  jump\t// in\ntag_76:\n    /* \"#utility.yul\":1967:2042   */\n  swap1\n  pop\n    /* \"#utility.yul\":2065:2071   */\n  dup3\n    /* \"#utility.yul\":2058:2063   */\n  dup2\n    /* \"#utility.yul\":2051:2072   */\n  mstore\n    /* \"#utility.yul\":2103:2107   */\n  0x20\n    /* \"#utility.yul\":2096:2101   */\n  dup2\n    /* \"#utility.yul\":2092:2108   */\n  add\n    /* \"#utility.yul\":2141:2144   */\n  dup5\n    /* \"#utility.yul\":2132:2138   */\n  dup5\n    /* \"#utility.yul\":2127:2130   */\n  dup5\n    /* \"#utility.yul\":2123:2139   */\n  add\n    /* \"#utility.yul\":2120:2145   */\n  gt\n    /* \"#utility.yul\":2117:2229   */\n  iszero\n  tag_78\n  jumpi\n    /* \"#utility.yul\":2148:2227   */\n  tag_79\n  tag_21\n  jump\t// in\ntag_79:\n    /* \"#utility.yul\":2117:2229   */\ntag_78:\n    /* \"#utility.yul\":2238:2290   */\n  tag_80\n    /* \"#utility.yul\":2283:2289   */\n  dup5\n    /* \"#utility.yul\":2278:2281   */\n  dup3\n    /* \"#utility.yul\":2273:2276   */\n  dup6\n    /* \"#utility.yul\":2238:2290   */\n  tag_27\n  jump\t// in\ntag_80:\n    /* \"#utility.yul\":1957:2296   */\n  pop\n    /* \"#utility.yul\":1862:2296   */\n  swap4\n  swap3\n  pop\n  pop\n  pop\n  jump\t// out\n    /* \"#utility.yul\":2316:2671   */\ntag_29:\n    /* \"#utility.yul\":2383:2388   */\n  0x00\n    /* \"#utility.yul\":2432:2435   */\n  dup3\n    /* \"#utility.yul\":2425:2429   */\n  0x1f\n    /* \"#utility.yul\":2417:2423   */\n  dup4\n    /* \"#utility.yul\":2413:2430   */\n  add\n    /* \"#utility.yul\":2409:2436   */\n  slt\n    /* \"#utility.yul\":2399:2521   */\n  tag_82\n  jumpi\n    /* \"#utility.yul\":2440:2519   */\n  tag_83\n  tag_20\n  jump\t// in\ntag_83:\n    /* \"#utility.yul\":2399:2521   */\ntag_82:\n    /* \"#utility.yul\":2550:2556   */\n  dup2\n    /* \"#utility.yul\":2544:2557   */\n  mload\n    /* \"#utility.yul\":2575:2665   */\n  tag_84\n    /* \"#utility.yul\":2661:2664   */\n  dup5\n    /* \"#utility.yul\":2653:2659   */\n  dup3\n    /* \"#utility.yul\":2646:2650   */\n  0x20\n    /* \"#utility.yul\":2638:2644   */\n  dup7\n    /* \"#utility.yul\":2634:2651   */\n  add\n    /* \"#utility.yul\":2575:2665   */\n  tag_28\n  jump\t// in\ntag_84:\n    /* \"#utility.yul\":2566:2665   */\n  swap2\n  pop\n    /* \"#utility.yul\":2389:2671   */\n  pop\n    /* \"#utility.yul\":2316:2671   */\n  swap3\n  swap2\n  pop\n  pop\n  jump\t// out\n    /* \"#utility.yul\":2677:2754   */\ntag_30:\n    /* \"#utility.yul\":2714:2721   */\n  0x00\n    /* \"#utility.yul\":2743:2748   */\n  dup2\n    /* \"#utility.yul\":2732:2748   */\n  swap1\n  pop\n    /* \"#utility.yul\":2677:2754   */\n  swap2\n  swap1\n  pop\n  jump\t// out\n    /* \"#utility.yul\":2760:2882   */\ntag_31:\n    /* \"#utility.yul\":2833:2857   */\n  tag_87\n    /* \"#utility.yul\":2851:2856   */\n  dup2\n    /* \"#utility.yul\":2833:2857   */\n  tag_30\n  jump\t// in\ntag_87:\n    /* \"#utility.yul\":2826:2831   */\n  dup2\n    /* \"#utility.yul\":2823:2858   */\n  eq\n    /* \"#utility.yul\":2813:2876   */\n  tag_88\n  jumpi\n    /* \"#utility.yul\":2872:2873   */\n  0x00\n    /* \"#utility.yul\":2869:2870   */\n  dup1\n    /* \"#utility.yul\":2862:2874   */\n  revert\n    /* \"#utility.yul\":2813:2876   */\ntag_88:\n    /* \"#utility.yul\":2760:2882   */\n  pop\n  jump\t// out\n    /* \"#utility.yul\":2888:3031   */\ntag_32:\n    /* \"#utility.yul\":2945:2950   */\n  0x00\n    /* \"#utility.yul\":2976:2982   */\n  dup2\n    /* \"#utility.yul\":2970:2983   */\n  mload\n    /* \"#utility.yul\":2961:2983   */\n  swap1\n  pop\n    /* \"#utility.yul\":2992:3025   */\n  tag_90\n    /* \"#utility.yul\":3019:3024   */\n  dup2\n    /* \"#utility.yul\":2992:3025   */\n  tag_31\n  jump\t// in\ntag_90:\n    /* \"#utility.yul\":2888:3031   */\n  swap3\n  swap2\n  pop\n  pop\n  jump\t// out\n    /* \"#utility.yul\":3037:4203   */\ntag_3:\n    /* \"#utility.yul\":3154:3160   */\n  0x00\n    /* \"#utility.yul\":3162:3168   */\n  dup1\n    /* \"#utility.yul\":3170:3176   */\n  0x00\n    /* \"#utility.yul\":3178:3184   */\n  dup1\n    /* \"#utility.yul\":3227:3230   */\n  0x80\n    /* \"#utility.yul\":3215:3224   */\n  dup6\n    /* \"#utility.yul\":3206:3213   */\n  dup8\n    /* \"#utility.yul\":3202:3225   */\n  sub\n    /* \"#utility.yul\":3198:3231   */\n  slt\n    /* \"#utility.yul\":3195:3315   */\n  iszero\n  tag_92\n  jumpi\n    /* \"#utility.yul\":3234:3313   */\n  tag_93\n  tag_18\n  jump\t// in\ntag_93:\n    /* \"#utility.yul\":3195:3315   */\ntag_92:\n    /* \"#utility.yul\":3375:3376   */\n  0x00\n    /* \"#utility.yul\":3364:3373   */\n  dup6\n    /* \"#utility.yul\":3360:3377   */\n  add\n    /* \"#utility.yul\":3354:3378   */\n  mload\n    /* \"#utility.yul\":3405:3423   */\n  0xffffffffffffffff\n    /* \"#utility.yul\":3397:3403   */\n  dup2\n    /* \"#utility.yul\":3394:3424   */\n  gt\n    /* \"#utility.yul\":3391:3508   */\n  iszero\n  tag_94\n  jumpi\n    /* \"#utility.yul\":3427:3506   */\n  tag_95\n  tag_19\n  jump\t// in\ntag_95:\n    /* \"#utility.yul\":3391:3508   */\ntag_94:\n    /* \"#utility.yul\":3532:3606   */\n  tag_96\n    /* \"#utility.yul\":3598:3605   */\n  dup8\n    /* \"#utility.yul\":3589:3595   */\n  dup3\n    /* \"#utility.yul\":3578:3587   */\n  dup9\n    /* \"#utility.yul\":3574:3596   */\n  add\n    /* \"#utility.yul\":3532:3606   */\n  tag_29\n  jump\t// in\ntag_96:\n    /* \"#utility.yul\":3522:3606   */\n  swap5\n  pop\n    /* \"#utility.yul\":3325:3616   */\n  pop\n    /* \"#utility.yul\":3676:3678   */\n  0x20\n    /* \"#utility.yul\":3665:3674   */\n  dup6\n    /* \"#utility.yul\":3661:3679   */\n  add\n    /* \"#utility.yul\":3655:3680   */\n  mload\n    /* \"#utility.yul\":3707:3725   */\n  0xffffffffffffffff\n    /* \"#utility.yul\":3699:3705   */\n  dup2\n    /* \"#utility.yul\":3696:3726   */\n  gt\n    /* \"#utility.yul\":3693:3810   */\n  iszero\n  tag_97\n  jumpi\n    /* \"#utility.yul\":3729:3808   */\n  tag_98\n  tag_19\n  jump\t// in\ntag_98:\n    /* \"#utility.yul\":3693:3810   */\ntag_97:\n    /* \"#utility.yul\":3834:3908   */\n  tag_99\n    /* \"#utility.yul\":3900:3907   */\n  dup8\n    /* \"#utility.yul\":3891:3897   */\n  dup3\n    /* \"#utility.yul\":3880:3889   */\n  dup9\n    /* \"#utility.yul\":3876:3898   */\n  add\n    /* \"#utility.yul\":3834:3908   */\n  tag_29\n  jump\t// in\ntag_99:\n    /* \"#utility.yul\":3824:3908   */\n  swap4\n  pop\n    /* \"#utility.yul\":3626:3918   */\n  pop\n    /* \"#utility.yul\":3957:3959   */\n  0x40\n    /* \"#utility.yul\":3983:4047   */\n  tag_100\n    /* \"#utility.yul\":4039:4046   */\n  dup8\n    /* \"#utility.yul\":4030:4036   */\n  dup3\n    /* \"#utility.yul\":4019:4028   */\n  dup9\n    /* \"#utility.yul\":4015:4037   */\n  add\n    /* \"#utility.yul\":3983:4047   */\n  tag_32\n  jump\t// in\ntag_100:\n    /* \"#utility.yul\":3973:4047   */\n  swap3\n  pop\n    /* \"#utility.yul\":3928:4057   */\n  pop\n    /* \"#utility.yul\":4096:4098   */\n  0x60\n    /* \"#utility.yul\":4122:4186   */\n  tag_101\n    /* \"#utility.yul\":4178:4185   */\n  dup8\n    /* \"#utility.yul\":4169:4175   */\n  dup3\n    /* \"#utility.yul\":4158:4167   */\n  dup9\n    /* \"#utility.yul\":4154:4176   */\n  add\n    /* \"#utility.yul\":4122:4186   */\n  tag_32\n  jump\t// in\ntag_101:\n    /* \"#utility.yul\":4112:4186   */\n  swap2\n  pop\n    /* \"#utility.yul\":4067:4196   */\n  pop\n    /* \"#utility.yul\":3037:4203   */\n  swap3\n  swap6\n  swap2\n  swap5\n  pop\n  swap3\n  pop\n  jump\t// out\n    /* \"#utility.yul\":4209:4308   */\ntag_33:\n    /* \"#utility.yul\":4261:4267   */\n  0x00\n    /* \"#utility.yul\":4295:4300   */\n  dup2\n    /* \"#utility.yul\":4289:4301   */\n  mload\n    /* \"#utility.yul\":4279:4301   */\n  swap1\n  pop\n    /* \"#utility.yul\":4209:4308   */\n  swap2\n  swap1\n  pop\n  jump\t// out\n    /* \"#utility.yul\":4314:4494   */\ntag_34:\n    /* \"#utility.yul\":4362:4439   */\n  0x4e487b7100000000000000000000000000000000000000000000000000000000\n    /* \"#utility.yul\":4359:4360   */\n  0x00\n    /* \"#utility.yul\":4352:4440   */\n  mstore\n    /* \"#utility.yul\":4459:4463   */\n  0x22\n    /* \"#utility.yul\":4456:4457   */\n  0x04\n    /* \"#utility.yul\":4449:4464   */\n  mstore\n    /* \"#utility.yul\":4483:4487   */\n  0x24\n    /* \"#utility.yul\":4480:4481   */\n  0x00\n    /* \"#utility.yul\":4473:4488   */\n  revert\n    /* \"#utility.yul\":4500:4820   */\ntag_35:\n    /* \"#utility.yul\":4544:4550   */\n  0x00\n    /* \"#utility.yul\":4581:4582   */\n  0x02\n    /* \"#utility.yul\":4575:4579   */\n  dup3\n    /* \"#utility.yul\":4571:4583   */\n  div\n    /* \"#utility.yul\":4561:4583   */\n  swap1\n  pop\n    /* \"#utility.yul\":4628:4629   */\n  0x01\n    /* \"#utility.yul\":4622:4626   */\n  dup3\n    /* \"#utility.yul\":4618:4630   */\n  and\n    /* \"#utility.yul\":4649:4667   */\n  dup1\n    /* \"#utility.yul\":4639:4720   */\n  tag_105\n  jumpi\n    /* \"#utility.yul\":4705:4709   */\n  0x7f\n    /* \"#utility.yul\":4697:4703   */\n  dup3\n    /* \"#utility.yul\":4693:4710   */\n  and\n    /* \"#utility.yul\":4683:4710   */\n  swap2\n  pop\n    /* \"#utility.yul\":4639:4720   */\ntag_105:\n    /* \"#utility.yul\":4767:4769   */\n  0x20\n    /* \"#utility.yul\":4759:4765   */\n  dup3\n    /* \"#utility.yul\":4756:4770   */\n  lt\n    /* \"#utility.yul\":4736:4754   */\n  dup2\n    /* \"#utility.yul\":4733:4771   */\n  sub\n    /* \"#utility.yul\":4730:4814   */\n  tag_106\n  jumpi\n    /* \"#utility.yul\":4786:4804   */\n  tag_107\n  tag_34\n  jump\t// in\ntag_107:\n    /* \"#utility.yul\":4730:4814   */\ntag_106:\n    /* \"#utility.yul\":4551:4820   */\n  pop\n    /* \"#utility.yul\":4500:4820   */\n  swap2\n  swap1\n  pop\n  jump\t// out\n    /* \"#utility.yul\":4826:4967   */\ntag_36:\n    /* \"#utility.yul\":4875:4879   */\n  0x00\n    /* \"#utility.yul\":4898:4901   */\n  dup2\n    /* \"#utility.yul\":4890:4901   */\n  swap1\n  pop\n    /* \"#utility.yul\":4921:4924   */\n  dup2\n    /* \"#utility.yul\":4918:4919   */\n  0x00\n    /* \"#utility.yul\":4911:4925   */\n  mstore\n    /* \"#utility.yul\":4955:4959   */\n  0x20\n    /* \"#utility.yul\":4952:4953   */\n  0x00\n    /* \"#utility.yul\":4942:4960   */\n  keccak256\n    /* \"#utility.yul\":4934:4960   */\n  swap1\n  pop\n    /* \"#utility.yul\":4826:4967   */\n  swap2\n  swap1\n  pop\n  jump\t// out\n    /* \"#utility.yul\":4973:5066   */\ntag_37:\n    /* \"#utility.yul\":5010:5016   */\n  0x00\n    /* \"#utility.yul\":5057:5059   */\n  0x20\n    /* \"#utility.yul\":5052:5054   */\n  0x1f\n    /* \"#utility.yul\":5045:5050   */\n  dup4\n    /* \"#utility.yul\":5041:5055   */\n  add\n    /* \"#utility.yul\":5037:5060   */\n  div\n    /* \"#utility.yul\":5027:5060   */\n  swap1\n  pop\n    /* \"#utility.yul\":4973:5066   */\n  swap2\n  swap1\n  pop\n  jump\t// out\n    /* \"#utility.yul\":5072:5179   */\ntag_38:\n    /* \"#utility.yul\":5116:5124   */\n  0x00\n    /* \"#utility.yul\":5166:5171   */\n  dup3\n    /* \"#utility.yul\":5160:5164   */\n  dup3\n    /* \"#utility.yul\":5156:5172   */\n  shl\n    /* \"#utility.yul\":5135:5172   */\n  swap1\n  pop\n    /* \"#utility.yul\":5072:5179   */\n  swap3\n  swap2\n  pop\n  pop\n  jump\t// out\n    /* \"#utility.yul\":5185:5578   */\ntag_39:\n    /* \"#utility.yul\":5254:5260   */\n  0x00\n    /* \"#utility.yul\":5304:5305   */\n  0x08\n    /* \"#utility.yul\":5292:5302   */\n  dup4\n    /* \"#utility.yul\":5288:5306   */\n  mul\n    /* \"#utility.yul\":5327:5424   */\n  tag_112\n    /* \"#utility.yul\":5357:5423   */\n  0xffffffffffffffffffffffffffffffffffffffffffffffffffffffffffffffff\n    /* \"#utility.yul\":5346:5355   */\n  dup3\n    /* \"#utility.yul\":5327:5424   */\n  tag_38\n  jump\t// in\ntag_112:\n    /* \"#utility.yul\":5445:5484   */\n  tag_113\n    /* \"#utility.yul\":5475:5483   */\n  dup7\n    /* \"#utility.yul\":5464:5473   */\n  dup4\n    /* \"#utility.yul\":5445:5484   */\n  tag_38\n  jump\t// in\ntag_113:\n    /* \"#utility.yul\":5433:5484   */\n  swap6\n  pop\n    /* \"#utility.yul\":5517:5521   */\n  dup1\n    /* \"#utility.yul\":5513:5522   */\n  not\n    /* \"#utility.yul\":5506:5511   */\n  dup5\n    /* \"#utility.yul\":5502:5523   */\n  and\n    /* \"#utility.yul\":5493:5523   */\n  swap4\n  pop\n    /* \"#utility.yul\":5566:5570   */\n  dup1\n    /* \"#utility.yul\":5556:5564   */\n  dup7\n    /* \"#utility.yul\":5552:5571   */\n  and\n    /* \"#utility.yul\":5545:5550   */\n  dup5\n    /* \"#utility.yul\":5542:5572   */\n  or\n    /* \"#utility.yul\":5532:5572   */\n  swap3\n  pop\n    /* \"#utility.yul\":5261:5578   */\n  pop\n  pop\n    /* \"#utility.yul\":5185:5578   */\n  swap4\n  swap3\n  pop\n  pop\n  pop\n  jump\t// out\n    /* \"#utility.yul\":5584:5644   */\ntag_40:\n    /* \"#utility.yul\":5612:5615   */\n  0x00\n    /* \"#utility.yul\":5633:5638   */\n  dup2\n    /* \"#utility.yul\":5626:5638   */\n  swap1\n  pop\n    /* \"#utility.yul\":5584:5644   */\n  swap2\n  swap1\n  pop\n  jump\t// out\n    /* \"#utility.yul\":5650:5792   */\ntag_41:\n    /* \"#utility.yul\":5700:5709   */\n  0x00\n    /* \"#utility.yul\":5733:5786   */\n  tag_116\n    /* \"#utility.yul\":5751:5785   */\n  tag_117\n    /* \"#utility.yul\":5760:5784   */\n  tag_118\n    /* \"#utility.yul\":5778:5783   */\n  dup5\n    /* \"#utility.yul\":5760:5784   */\n  tag_30\n  jump\t// in\ntag_118:\n    /* \"#utility.yul\":5751:5785   */\n  tag_40\n  jump\t// in\ntag_117:\n    /* \"#utility.yul\":5733:5786   */\n  tag_30\n  jump\t// in\ntag_116:\n    /* \"#utility.yul\":5720:5786   */\n  swap1\n  pop\n    /* \"#utility.yul\":5650:5792   */\n  swap2\n  swap1\n  pop\n  jump\t// out\n    /* \"#utility.yul\":5798:5873   */\ntag_42:\n    /* \"#utility.yul\":5841:5844   */\n  0x00\n    /* \"#utility.yul\":5862:5867   */\n  dup2\n    /* \"#utility.yul\":5855:5867   */\n  swap1\n  pop\n    /* \"#utility.yul\":5798:5873   */\n  swap2\n  swap1\n  pop\n  jump\t// out\n    /* \"#utility.yul\":5879:6148   */\ntag_43:\n    /* \"#utility.yul\":5989:6028   */\n  tag_121\n    /* \"#utility.yul\":6020:6027   */\n  dup4\n    /* \"#utility.yul\":5989:6028   */\n  tag_41\n  jump\t// in\ntag_121:\n    /* \"#utility.yul\":6050:6141   */\n  tag_122\n    /* \"#utility.yul\":6099:6140   */\n  tag_123\n    /* \"#utility.yul\":6123:6139   */\n  dup3\n    /* \"#utility.yul\":6099:6140   */\n  tag_42\n  jump\t// in\ntag_123:\n    /* \"#utility.yul\":6091:6097   */\n  dup5\n    /* \"#utility.yul\":6084:6088   */\n  dup5\n    /* \"#utility.yul\":6078:6089   */\n  sload\n    /* \"#utility.yul\":6050:6141   */\n  tag_39\n  jump\t// in\ntag_122:\n    /* \"#utility.yul\":6044:6048   */\n  dup3\n    /* \"#utility.yul\":6037:6142   */\n  sstore\n    /* \"#utility.yul\":5955:6148   */\n  pop\n    /* \"#utility.yul\":5879:6148   */\n  pop\n  pop\n  pop\n  jump\t// out\n    /* \"#utility.yul\":6154:6227   */\ntag_44:\n    /* \"#utility.yul\":6199:6202   */\n  0x00\n    /* \"#utility.yul\":6154:6227   */\n  swap1\n  jump\t// out\n    /* \"#utility.yul\":6233:6422   */\ntag_45:\n    /* \"#utility.yul\":6310:6342   */\n  tag_126\n  tag_44\n  jump\t// in\ntag_126:\n    /* \"#utility.yul\":6351:6416   */\n  tag_127\n    /* \"#utility.yul\":6409:6415   */\n  dup2\n    /* \"#utility.yul\":6401:6407   */\n  dup5\n    /* \"#utility.yul\":6395:6399   */\n  dup5\n    /* \"#utility.yul\":6351:6416   */\n  tag_43\n  jump\t// in\ntag_127:\n    /* \"#utility.yul\":6286:6422   */\n  pop\n    /* \"#utility.yul\":6233:6422   */\n  pop\n  pop\n  jump\t// out\n    /* \"#utility.yul\":6428:6614   */\ntag_46:\n    /* \"#utility.yul\":6488:6608   */\ntag_129:\n    /* \"#utility.yul\":6505:6508   */\n  dup2\n    /* \"#utility.yul\":6498:6503   */\n  dup2\n    /* \"#utility.yul\":6495:6509   */\n  lt\n    /* \"#utility.yul\":6488:6608   */\n  iszero\n  tag_131\n  jumpi\n    /* \"#utility.yul\":6559:6598   */\n  tag_132\n    /* \"#utility.yul\":6596:6597   */\n  0x00\n    /* \"#utility.yul\":6589:6594   */\n  dup3\n    /* \"#utility.yul\":6559:6598   */\n  tag_45\n  jump\t// in\ntag_132:\n    /* \"#utility.yul\":6532:6533   */\n  0x01\n    /* \"#utility.yul\":6525:6530   */\n  dup2\n    /* \"#utility.yul\":6521:6534   */\n  add\n    /* \"#utility.yul\":6512:6534   */\n  swap1\n  pop\n    /* \"#utility.yul\":6488:6608   */\n  jump(tag_129)\ntag_131:\n    /* \"#utility.yul\":6428:6614   */\n  pop\n  pop\n  jump\t// out\n    /* \"#utility.yul\":6620:7163   */\ntag_47:\n    /* \"#utility.yul\":6721:6723   */\n  0x1f\n    /* \"#utility.yul\":6716:6719   */\n  dup3\n    /* \"#utility.yul\":6713:6724   */\n  gt\n    /* \"#utility.yul\":6710:7156   */\n  iszero\n  tag_134\n  jumpi\n    /* \"#utility.yul\":6755:6793   */\n  tag_135\n    /* \"#utility.yul\":6787:6792   */\n  dup2\n    /* \"#utility.yul\":6755:6793   */\n  tag_36\n  jump\t// in\ntag_135:\n    /* \"#utility.yul\":6839:6868   */\n  tag_136\n    /* \"#utility.yul\":6857:6867   */\n  dup5\n    /* \"#utility.yul\":6839:6868   */\n  tag_37\n  jump\t// in\ntag_136:\n    /* \"#utility.yul\":6829:6837   */\n  dup2\n    /* \"#utility.yul\":6825:6869   */\n  add\n    /* \"#utility.yul\":7022:7024   */\n  0x20\n    /* \"#utility.yul\":7010:7020   */\n  dup6\n    /* \"#utility.yul\":7007:7025   */\n  lt\n    /* \"#utility.yul\":7004:7053   */\n  iszero\n  tag_137\n  jumpi\n    /* \"#utility.yul\":7043:7051   */\n  dup2\n    /* \"#utility.yul\":7028:7051   */\n  swap1\n  pop\n    /* \"#utility.yul\":7004:7053   */\ntag_137:\n    /* \"#utility.yul\":7066:7146   */\n  tag_138\n    /* \"#utility.yul\":7122:7144   */\n  tag_139\n    /* \"#utility.yul\":7140:7143   */\n  dup6\n    /* \"#utility.yul\":7122:7144   */\n  tag_37\n  jump\t// in\ntag_139:\n    /* \"#utility.yul\":7112:7120   */\n  dup4\n    /* \"#utility.yul\":7108:7145   */\n  add\n    /* \"#utility.yul\":7095:7106   */\n  dup3\n    /* \"#utility.yul\":7066:7146   */\n  tag_46\n  jump\t// in\ntag_138:\n    /* \"#utility.yul\":6725:7156   */\n  pop\n  pop\n    /* \"#utility.yul\":6710:7156   */\ntag_134:\n    /* \"#utility.yul\":6620:7163   */\n  pop\n  pop\n  pop\n  jump\t// out\n    /* \"#utility.yul\":7169:7286   */\ntag_48:\n    /* \"#utility.yul\":7223:7231   */\n  0x00\n    /* \"#utility.yul\":7273:7278   */\n  dup3\n    /* \"#utility.yul\":7267:7271   */\n  dup3\n    /* \"#utility.yul\":7263:7279   */\n  shr\n    /* \"#utility.yul\":7242:7279   */\n  swap1\n  pop\n    /* \"#utility.yul\":7169:7286   */\n  swap3\n  swap2\n  pop\n  pop\n  jump\t// out\n    /* \"#utility.yul\":7292:7461   */\ntag_49:\n    /* \"#utility.yul\":7336:7342   */\n  0x00\n    /* \"#utility.yul\":7369:7420   */\n  tag_142\n    /* \"#utility.yul\":7417:7418   */\n  0x00\n    /* \"#utility.yul\":7413:7419   */\n  not\n    /* \"#utility.yul\":7405:7410   */\n  dup5\n    /* \"#utility.yul\":7402:7403   */\n  0x08\n    /* \"#utility.yul\":7398:7411   */\n  mul\n    /* \"#utility.yul\":7369:7420   */\n  tag_48\n  jump\t// in\ntag_142:\n    /* \"#utility.yul\":7365:7421   */\n  not\n    /* \"#utility.yul\":7450:7454   */\n  dup1\n    /* \"#utility.yul\":7444:7448   */\n  dup4\n    /* \"#utility.yul\":7440:7455   */\n  and\n    /* \"#utility.yul\":7430:7455   */\n  swap2\n  pop\n    /* \"#utility.yul\":7343:7461   */\n  pop\n    /* \"#utility.yul\":7292:7461   */\n  swap3\n  swap2\n  pop\n  pop\n  jump\t// out\n    /* \"#utility.yul\":7466:7761   */\ntag_50:\n    /* \"#utility.yul\":7542:7546   */\n  0x00\n    /* \"#utility.yul\":7688:7717   */\n  tag_144\n    /* \"#utility.yul\":7713:7716   */\n  dup4\n    /* \"#utility.yul\":7707:7711   */\n  dup4\n    /* \"#utility.yul\":7688:7717   */\n  tag_49\n  jump\t// in\ntag_144:\n    /* \"#utility.yul\":7680:7717   */\n  swap2\n  pop\n    /* \"#utility.yul\":7750:7753   */\n  dup3\n    /* \"#utility.yul\":7747:7748   */\n  0x02\n    /* \"#utility.yul\":7743:7754   */\n  mul\n    /* \"#utility.yul\":7737:7741   */\n  dup3\n    /* \"#utility.yul\":7734:7755   */\n  or\n    /* \"#utility.yul\":7726:7755   */\n  swap1\n  pop\n    /* \"#utility.yul\":7466:7761   */\n  swap3\n  swap2\n  pop\n  pop\n  jump\t// out\n    /* \"#utility.yul\":7766:9161   */\ntag_7:\n    /* \"#utility.yul\":7883:7920   */\n  tag_146\n    /* \"#utility.yul\":7916:7919   */\n  dup3\n    /* \"#utility.yul\":7883:7920   */\n  tag_33\n  jump\t// in\ntag_146:\n    /* \"#utility.yul\":7985:8003   */\n  0xffffffffffffffff\n    /* \"#utility.yul\":7977:7983   */\n  dup2\n    /* \"#utility.yul\":7974:8004   */\n  gt\n    /* \"#utility.yul\":7971:8027   */\n  iszero\n  tag_147\n  jumpi\n    /* \"#utility.yul\":8007:8025   */\n  tag_148\n  tag_23\n  jump\t// in\ntag_148:\n    /* \"#utility.yul\":7971:8027   */\ntag_147:\n    /* \"#utility.yul\":8051:8089   */\n  tag_149\n    /* \"#utility.yul\":8083:8087   */\n  dup3\n    /* \"#utility.yul\":8077:8088   */\n  sload\n    /* \"#utility.yul\":8051:8089   */\n  tag_35\n  jump\t// in\ntag_149:\n    /* \"#utility.yul\":8136:8203   */\n  tag_150\n    /* \"#utility.yul\":8196:8202   */\n  dup3\n    /* \"#utility.yul\":8188:8194   */\n  dup3\n    /* \"#utility.yul\":8182:8186   */\n  dup6\n    /* \"#utility.yul\":8136:8203   */\n  tag_47\n  jump\t// in\ntag_150:\n    /* \"#utility.yul\":8230:8231   */\n  0x00\n    /* \"#utility.yul\":8254:8258   */\n  0x20\n    /* \"#utility.yul\":8241:8258   */\n  swap1\n  pop\n    /* \"#utility.yul\":8286:8288   */\n  0x1f\n    /* \"#utility.yul\":8278:8284   */\n  dup4\n    /* \"#utility.yul\":8275:8289   */\n  gt\n    /* \"#utility.yul\":8303:8304   */\n  0x01\n    /* \"#utility.yul\":8298:8916   */\n  dup2\n  eq\n  tag_152\n  jumpi\n    /* \"#utility.yul\":8960:8961   */\n  0x00\n    /* \"#utility.yul\":8977:8983   */\n  dup5\n    /* \"#utility.yul\":8974:9051   */\n  iszero\n  tag_153\n  jumpi\n    /* \"#utility.yul\":9026:9035   */\n  dup3\n    /* \"#utility.yul\":9021:9024   */\n  dup8\n    /* \"#utility.yul\":9017:9036   */\n  add\n    /* \"#utility.yul\":9011:9037   */\n  mload\n    /* \"#utility.yul\":9002:9037   */\n  swap1\n  pop\n    /* \"#utility.yul\":8974:9051   */\ntag_153:\n    /* \"#utility.yul\":9077:9144   */\n  tag_154\n    /* \"#utility.yul\":9137:9143   */\n  dup6\n    /* \"#utility.yul\":9130:9135   */\n  dup3\n    /* \"#utility.yul\":9077:9144   */\n  tag_50\n  jump\t// in\ntag_154:\n    /* \"#utility.yul\":9071:9075   */\n  dup7\n    /* \"#utility.yul\":9064:9145   */\n  sstore\n    /* \"#utility.yul\":8933:9155   */\n  pop\n    /* \"#utility.yul\":8268:9155   */\n  jump(tag_151)\n    /* \"#utility.yul\":8298:8916   */\ntag_152:\n    /* \"#utility.yul\":8350:8354   */\n  0x1f\n    /* \"#utility.yul\":8346:8355   */\n  not\n    /* \"#utility.yul\":8338:8344   */\n  dup5\n    /* \"#utility.yul\":8334:8356   */\n  and\n    /* \"#utility.yul\":8384:8421   */\n  tag_155\n    /* \"#utility.yul\":8416:8420   */\n  dup7\n    /* \"#utility.yul\":8384:8421   */\n  tag_36\n  jump\t// in\ntag_155:\n    /* \"#utility.yul\":8443:8444   */\n  0x00\n    /* \"#utility.yul\":8457:8665   */\ntag_156:\n    /* \"#utility.yul\":8471:8478   */\n  dup3\n    /* \"#utility.yul\":8468:8469   */\n  dup2\n    /* \"#utility.yul\":8465:8479   */\n  lt\n    /* \"#utility.yul\":8457:8665   */\n  iszero\n  tag_158\n  jumpi\n    /* \"#utility.yul\":8550:8559   */\n  dup5\n    /* \"#utility.yul\":8545:8548   */\n  dup10\n    /* \"#utility.yul\":8541:8560   */\n  add\n    /* \"#utility.yul\":8535:8561   */\n  mload\n    /* \"#utility.yul\":8527:8533   */\n  dup3\n    /* \"#utility.yul\":8520:8562   */\n  sstore\n    /* \"#utility.yul\":8601:8602   */\n  0x01\n    /* \"#utility.yul\":8593:8599   */\n  dup3\n    /* \"#utility.yul\":8589:8603   */\n  add\n    /* \"#utility.yul\":8579:8603   */\n  swap2\n  pop\n    /* \"#utility.yul\":8648:8650   */\n  0x20\n    /* \"#utility.yul\":8637:8646   */\n  dup6\n    /* \"#utility.yul\":8633:8651   */\n  add\n    /* \"#utility.yul\":8620:8651   */\n  swap5\n  pop\n    /* \"#utility.yul\":8494:8498   */\n  0x20\n    /* \"#utility.yul\":8491:8492   */\n  dup2\n    /* \"#utility.yul\":8487:8499   */\n  add\n    /* \"#utility.yul\":8482:8499   */\n  swap1\n  pop\n    /* \"#utility.yul\":8457:8665   */\n  jump(tag_156)\ntag_158:\n    /* \"#utility.yul\":8693:8699   */\n  dup7\n    /* \"#utility.yul\":8684:8691   */\n  dup4\n    /* \"#utility.yul\":8681:8700   */\n  lt\n    /* \"#utility.yul\":8678:8857   */\n  iszero\n  tag_159\n  jumpi\n    /* \"#utility.yul\":8751:8760   */\n  dup5\n    /* \"#utility.yul\":8746:8749   */\n  dup10\n    /* \"#utility.yul\":8742:8761   */\n  add\n    /* \"#utility.yul\":8736:8762   */\n  mload\n    /* \"#utility.yul\":8794:8842   */\n  tag_160\n    /* \"#utility.yul\":8836:8840   */\n  0x1f\n    /* \"#utility.yul\":8828:8834   */\n  dup10\n    /* \"#utility.yul\":8824:8841   */\n  and\n    /* \"#utility.yul\":8813:8822   */\n  dup3\n    /* \"#utility.yul\":8794:8842   */\n  tag_49\n  jump\t// in\ntag_160:\n    /* \"#utility.yul\":8786:8792   */\n  dup4\n    /* \"#utility.yul\":8779:8843   */\n  sstore\n    /* \"#utility.yul\":8701:8857   */\n  pop\n    /* \"#utility.yul\":8678:8857   */\ntag_159:\n    /* \"#utility.yul\":8903:8904   */\n  0x01\n    /* \"#utility.yul\":8899:8900   */\n  0x02\n    /* \"#utility.yul\":8891:8897   */\n  dup9\n    /* \"#utility.yul\":8887:8901   */\n  mul\n    /* \"#utility.yul\":8883:8905   */\n  add\n    /* \"#utility.yul\":8877:8881   */\n  dup9\n    /* \"#utility.yul\":8870:8906   */\n  sstore\n    /* \"#utility.yul\":8305:8916   */\n  pop\n  pop\n  pop\n    /* \"#utility.yul\":8268:9155   */\ntag_151:\n  pop\n    /* \"#utility.yul\":7858:9161   */\n  pop\n  pop\n  pop\n    /* \"#utility.yul\":7766:9161   */\n  pop\n  pop\n  jump\t// out\n    /* \"#utility.yul\":9167:9347   */\ntag_51:\n    /* \"#utility.yul\":9215:9292   */\n  0x4e487b7100000000000000000000000000000000000000000000000000000000\n    /* \"#utility.yul\":9212:9213   */\n  0x00\n    /* \"#utility.yul\":9205:9293   */\n  mstore\n    /* \"#utility.yul\":9312:9316   */\n  0x11\n    /* \"#utility.yul\":9309:9310   */\n  0x04\n    /* \"#utility.yul\":9302:9317   */\n  mstore\n    /* \"#utility.yul\":9336:9340   */\n  0x24\n    /* \"#utility.yul\":9333:9334   */\n  0x00\n    /* \"#utility.yul\":9326:9341   */\n  revert\n    /* \"#utility.yul\":9353:9763   */\ntag_10:\n    /* \"#utility.yul\":9393:9400   */\n  0x00\n    /* \"#utility.yul\":9416:9436   */\n  tag_163\n    /* \"#utility.yul\":9434:9435   */\n  dup3\n    /* \"#utility.yul\":9416:9436   */\n  tag_30\n  jump\t// in\ntag_163:\n    /* \"#utility.yul\":9411:9436   */\n  swap2\n  pop\n    /* \"#utility.yul\":9450:9470   */\n  tag_164\n    /* \"#utility.yul\":9468:9469   */\n  dup4\n    /* \"#utility.yul\":9450:9470   */\n  tag_30\n  jump\t// in\ntag_164:\n    /* \"#utility.yul\":9445:9470   */\n  swap3\n  pop\n    /* \"#utility.yul\":9505:9506   */\n  dup3\n    /* \"#utility.yul\":9502:9503   */\n  dup3\n    /* \"#utility.yul\":9498:9507   */\n  mul\n    /* \"#utility.yul\":9527:9557   */\n  tag_165\n    /* \"#utility.yul\":9545:9556   */\n  dup2\n    /* \"#utility.yul\":9527:9557   */\n  tag_30\n  jump\t// in\ntag_165:\n    /* \"#utility.yul\":9516:9557   */\n  swap2\n  pop\n    /* \"#utility.yul\":9706:9707   */\n  dup3\n    /* \"#utility.yul\":9697:9704   */\n  dup3\n    /* \"#utility.yul\":9693:9708   */\n  div\n    /* \"#utility.yul\":9690:9691   */\n  dup5\n    /* \"#utility.yul\":9687:9709   */\n  eq\n    /* \"#utility.yul\":9667:9668   */\n  dup4\n    /* \"#utility.yul\":9660:9669   */\n  iszero\n    /* \"#utility.yul\":9640:9723   */\n  or\n    /* \"#utility.yul\":9617:9756   */\n  tag_166\n  jumpi\n    /* \"#utility.yul\":9736:9754   */\n  tag_167\n  tag_51\n  jump\t// in\ntag_167:\n    /* \"#utility.yul\":9617:9756   */\ntag_166:\n    /* \"#utility.yul\":9401:9763   */\n  pop\n    /* \"#utility.yul\":9353:9763   */\n  swap3\n  swap2\n  pop\n  pop\n  jump\t// out\n    /* \"#utility.yul\":9769:9960   */\ntag_12:\n    /* \"#utility.yul\":9809:9812   */\n  0x00\n    /* \"#utility.yul\":9828:9848   */\n  tag_169\n    /* \"#utility.yul\":9846:9847   */\n  dup3\n    /* \"#utility.yul\":9828:9848   */\n  tag_30\n  jump\t// in\ntag_169:\n    /* \"#utility.yul\":9823:9848   */\n  swap2\n  pop\n    /* \"#utility.yul\":9862:9882   */\n  tag_170\n    /* \"#utility.yul\":9880:9881   */\n  dup4\n    /* \"#utility.yul\":9862:9882   */\n  tag_30\n  jump\t// in\ntag_170:\n    /* \"#utility.yul\":9857:9882   */\n  swap3\n  pop\n    /* \"#utility.yul\":9905:9906   */\n  dup3\n    /* \"#utility.yul\":9902:9903   */\n  dup3\n    /* \"#utility.yul\":9898:9907   */\n  add\n    /* \"#utility.yul\":9891:9907   */\n  swap1\n  pop\n    /* \"#utility.yul\":9926:9929   */\n  dup1\n    /* \"#utility.yul\":9923:9924   */\n  dup3\n    /* \"#utility.yul\":9920:9930   */\n  gt\n    /* \"#utility.yul\":9917:9953   */\n  iszero\n  tag_171\n  jumpi\n    /* \"#utility.yul\":9933:9951   */\n  tag_172\n  tag_51\n  jump\t// in\ntag_172:\n    /* \"#utility.yul\":9917:9953   */\ntag_171:\n    /* \"#utility.yul\":9769:9960   */\n  swap3\n  swap2\n  pop\n  pop\n  jump\t// out\n    /* \"#utility.yul\":9966:10146   */\ntag_15:\n    /* \"#utility.yul\":10014:10091   */\n  0x4e487b7100000000000000000000000000000000000000000000000000000000\n    /* \"#utility.yul\":10011:10012   */\n  0x00\n    /* \"#utility.yul\":10004:10092   */\n  mstore\n    /* \"#utility.yul\":10111:10115   */\n  0x21\n    /* \"#utility.yul\":10108:10109   */\n  0x04\n    /* \"#utility.yul\":10101:10116   */\n  mstore\n    /* \"#utility.yul\":10135:10139   */\n  0x24\n    /* \"#utility.yul\":10132:10133   */\n  0x00\n    /* \"#utility.yul\":10125:10140   */\n  revert\n    /* \"contracts/CrowdFunding.sol\":57:2664  contract CrowdFunding {... */\ntag_16:\n  dataSize(sub_0)\n  dup1\n  dataOffset(sub_0)\n  0x00\n  codecopy\n  0x00\n  return\nstop\n\nsub_0: assembly {\n        /* \"contracts/CrowdFunding.sol\":57:2664  contract CrowdFunding {... */\n      mstore(0x40, 0x80)\n      jumpi(tag_1, lt(calldatasize, 0x04))\n      shr(0xe0, calldataload(0x00))\n      dup1\n      0x7284e416\n      gt\n      tag_14\n      jumpi\n      dup1\n      0x7284e416\n      eq\n      tag_8\n      jumpi\n      dup1\n      0x7497211b\n      eq\n      tag_9\n      jumpi\n      dup1\n      0x8da5cb5b\n      eq\n      tag_10\n      jumpi\n      dup1\n      0x8ece7b91\n      eq\n      tag_11\n      jumpi\n      dup1\n      0xc19d93fb\n      eq\n      tag_12\n      jumpi\n      dup1\n      0xca1d209d\n      eq\n      tag_13\n      jumpi\n      jump(tag_1)\n    tag_14:\n      dup1\n      0x039af9eb\n      eq\n      tag_2\n      jumpi\n      dup1\n      0x06fdde03\n      eq\n      tag_3\n      jumpi\n      dup1\n      0x29dcb0cf\n      eq\n      tag_4\n      jumpi\n      dup1\n      0x3ccfd60b\n      eq\n      tag_5\n      jumpi\n      dup1\n      0x40193883\n      eq\n      tag_6\n      jumpi\n      dup1\n      0x6f9fb98a\n      eq\n      tag_7\n      jumpi\n    tag_1:\n      0x00\n      dup1\n      revert\n        /* \"contracts/CrowdFunding.sol\":431:450  Tier[] public tiers */\n    tag_2:\n      callvalue\n      dup1\n      iszero\n      tag_15\n      jumpi\n      0x00\n      dup1\n      revert\n    tag_15:\n      pop\n      tag_16\n      0x04\n      dup1\n      calldatasize\n      sub\n      dup2\n      add\n      swap1\n      tag_17\n      swap2\n      swap1\n      tag_18\n      jump\t// in\n    tag_17:\n      tag_19\n      jump\t// in\n    tag_16:\n      mload(0x40)\n      tag_20\n      swap4\n      swap3\n      swap2\n      swap1\n      tag_21\n      jump\t// in\n    tag_20:\n      mload(0x40)\n      dup1\n      swap2\n      sub\n      swap1\n      return\n        /* \"contracts/CrowdFunding.sol\":85:103  string public name */\n    tag_3:\n      callvalue\n      dup1\n      iszero\n      tag_22\n      jumpi\n      0x00\n      dup1\n      revert\n    tag_22:\n      pop\n      tag_23\n      tag_24\n      jump\t// in\n    tag_23:\n      mload(0x40)\n      tag_25\n      swap2\n      swap1\n      tag_26\n      jump\t// in\n    tag_25:\n      mload(0x40)\n      dup1\n      swap2\n      sub\n      swap1\n      return\n        /* \"contracts/CrowdFunding.sol\":165:188  uint256 public deadline */\n    tag_4:\n      callvalue\n      dup1\n      iszero\n      tag_27\n      jumpi\n      0x00\n      dup1\n      revert\n    tag_27:\n      pop\n      tag_28\n      tag_29\n      jump\t// in\n    tag_28:\n      mload(0x40)\n      tag_30\n      swap2\n      swap1\n      tag_31\n      jump\t// in\n    tag_30:\n      mload(0x40)\n      dup1\n      swap2\n      sub\n      swap1\n      return\n        /* \"contracts/CrowdFunding.sol\":2239:2553  function withdraw()public onlyOwner {... */\n    tag_5:\n      callvalue\n      dup1\n      iszero\n      tag_32\n      jumpi\n      0x00\n      dup1\n      revert\n    tag_32:\n      pop\n      tag_33\n      tag_34\n      jump\t// in\n    tag_33:\n      stop\n        /* \"contracts/CrowdFunding.sol\":140:159  uint256 public goal */\n    tag_6:\n      callvalue\n      dup1\n      iszero\n      tag_35\n      jumpi\n      0x00\n      dup1\n      revert\n    tag_35:\n      pop\n      tag_36\n      tag_37\n      jump\t// in\n    tag_36:\n      mload(0x40)\n      tag_38\n      swap2\n      swap1\n      tag_31\n      jump\t// in\n    tag_38:\n      mload(0x40)\n      dup1\n      swap2\n      sub\n      swap1\n      return\n        /* \"contracts/CrowdFunding.sol\":2559:2662  function getContractBalance()public view returns(uint256) {... */\n    tag_7:\n      callvalue\n      dup1\n      iszero\n      tag_39\n      jumpi\n      0x00\n      dup1\n      revert\n    tag_39:\n      pop\n      tag_40\n      tag_41\n      jump\t// in\n    tag_40:\n      mload(0x40)\n      tag_42\n      swap2\n      swap1\n      tag_31\n      jump\t// in\n    tag_42:\n      mload(0x40)\n      dup1\n      swap2\n      sub\n      swap1\n      return\n        /* \"contracts/CrowdFunding.sol\":109:134  string public description */\n    tag_8:\n      callvalue\n      dup1\n      iszero\n      tag_43\n      jumpi\n      0x00\n      dup1\n      revert\n    tag_43:\n      pop\n      tag_44\n      tag_45\n      jump\t// in\n    tag_44:\n      mload(0x40)\n      tag_46\n      swap2\n      swap1\n      tag_26\n      jump\t// in\n    tag_46:\n      mload(0x40)\n      dup1\n      swap2\n      sub\n      swap1\n      return\n        /* \"contracts/CrowdFunding.sol\":2043:2233  function removeTier(uint256 _index)public onlyOwner{... */\n    tag_9:\n      callvalue\n      dup1\n      iszero\n      tag_47\n      jumpi\n      0x00\n      dup1\n      revert\n    tag_47:\n      pop\n      tag_48\n      0x04\n      dup1\n      calldatasize\n      sub\n      dup2\n      add\n      swap1\n      tag_49\n      swap2\n      swap1\n      tag_18\n      jump\t// in\n    tag_49:\n      tag_50\n      jump\t// in\n    tag_48:\n      stop\n        /* \"contracts/CrowdFunding.sol\":195:215  address public owner */\n    tag_10:\n      callvalue\n      dup1\n      iszero\n      tag_51\n      jumpi\n      0x00\n      dup1\n      revert\n    tag_51:\n      pop\n      tag_52\n      tag_53\n      jump\t// in\n    tag_52:\n      mload(0x40)\n      tag_54\n      swap2\n      swap1\n      tag_55\n      jump\t// in\n    tag_54:\n      mload(0x40)\n      dup1\n      swap2\n      sub\n      swap1\n      return\n        /* \"contracts/CrowdFunding.sol\":1746:2018  function addTier(... */\n    tag_11:\n      callvalue\n      dup1\n      iszero\n      tag_56\n      jumpi\n      0x00\n      dup1\n      revert\n    tag_56:\n      pop\n      tag_57\n      0x04\n      dup1\n      calldatasize\n      sub\n      dup2\n      add\n      swap1\n      tag_58\n      swap2\n      swap1\n      tag_59\n      jump\t// in\n    tag_58:\n      tag_60\n      jump\t// in\n    tag_57:\n      stop\n        /* \"contracts/CrowdFunding.sol\":304:330  CampaignState public state */\n    tag_12:\n      callvalue\n      dup1\n      iszero\n      tag_61\n      jumpi\n      0x00\n      dup1\n      revert\n    tag_61:\n      pop\n      tag_62\n      tag_63\n      jump\t// in\n    tag_62:\n      mload(0x40)\n      tag_64\n      swap2\n      swap1\n      tag_65\n      jump\t// in\n    tag_64:\n      mload(0x40)\n      dup1\n      swap2\n      sub\n      swap1\n      return\n        /* \"contracts/CrowdFunding.sol\":1439:1724  function fund(uint256 _tierIndex) public campaignOpen payable {... */\n    tag_13:\n      tag_66\n      0x04\n      dup1\n      calldatasize\n      sub\n      dup2\n      add\n      swap1\n      tag_67\n      swap2\n      swap1\n      tag_18\n      jump\t// in\n    tag_67:\n      tag_68\n      jump\t// in\n    tag_66:\n      stop\n        /* \"contracts/CrowdFunding.sol\":431:450  Tier[] public tiers */\n    tag_19:\n      0x05\n      dup2\n      dup2\n      sload\n      dup2\n      lt\n      tag_69\n      jumpi\n      0x00\n      dup1\n      revert\n    tag_69:\n      swap1\n      0x00\n      mstore\n      keccak256(0x00, 0x20)\n      swap1\n      0x03\n      mul\n      add\n      0x00\n      swap2\n      pop\n      swap1\n      pop\n      dup1\n      0x00\n      add\n      dup1\n      sload\n      tag_71\n      swap1\n      tag_72\n      jump\t// in\n    tag_71:\n      dup1\n      0x1f\n      add\n      0x20\n      dup1\n      swap2\n      div\n      mul\n      0x20\n      add\n      mload(0x40)\n      swap1\n      dup2\n      add\n      0x40\n      mstore\n      dup1\n      swap3\n      swap2\n      swap1\n      dup2\n      dup2\n      mstore\n      0x20\n      add\n      dup3\n      dup1\n      sload\n      tag_73\n      swap1\n      tag_72\n      jump\t// in\n    tag_73:\n      dup1\n      iszero\n      tag_74\n      jumpi\n      dup1\n      0x1f\n      lt\n      tag_75\n      jumpi\n      0x0100\n      dup1\n      dup4\n      sload\n      div\n      mul\n      dup4\n      mstore\n      swap2\n      0x20\n      add\n      swap2\n      jump(tag_74)\n    tag_75:\n      dup3\n      add\n      swap2\n      swap1\n      0x00\n      mstore\n      keccak256(0x00, 0x20)\n      swap1\n    tag_76:\n      dup2\n      sload\n      dup2\n      mstore\n      swap1\n      0x01\n      add\n      swap1\n      0x20\n      add\n      dup1\n      dup4\n      gt\n      tag_76\n      jumpi\n      dup3\n      swap1\n      sub\n      0x1f\n      and\n      dup3\n      add\n      swap2\n    tag_74:\n      pop\n      pop\n      pop\n      pop\n      pop\n      swap1\n      dup1\n      0x01\n      add\n      sload\n      swap1\n      dup1\n      0x02\n      add\n      sload\n      swap1\n      pop\n      dup4\n      jump\t// out\n        /* \"contracts/CrowdFunding.sol\":85:103  string public name */\n    tag_24:\n      0x00\n      dup1\n      sload\n      tag_77\n      swap1\n      tag_72\n      jump\t// in\n    tag_77:\n      dup1\n      0x1f\n      add\n      0x20\n      dup1\n      swap2\n      div\n      mul\n      0x20\n      add\n      mload(0x40)\n      swap1\n      dup2\n      add\n      0x40\n      mstore\n      dup1\n      swap3\n      swap2\n      swap1\n      dup2\n      dup2\n      mstore\n      0x20\n      add\n      dup3\n      dup1\n      sload\n      tag_78\n      swap1\n      tag_72\n      jump\t// in\n    tag_78:\n      dup1\n      iszero\n      tag_79\n      jumpi\n      dup1\n      0x1f\n      lt\n      tag_80\n      jumpi\n      0x0100\n      dup1\n      dup4\n      sload\n      div\n      mul\n      dup4\n      mstore\n      swap2\n      0x20\n      add\n      swap2\n      jump(tag_79)\n    tag_80:\n      dup3\n      add\n      swap2\n      swap1\n      0x00\n      mstore\n      keccak256(0x00, 0x20)\n      swap1\n    tag_81:\n      dup2\n      sload\n      dup2\n      mstore\n      swap1\n      0x01\n      add\n      swap1\n      0x20\n      add\n      dup1\n      dup4\n      gt\n      tag_81\n      jumpi\n      dup3\n      swap1\n      sub\n      0x1f\n      and\n      dup3\n      add\n      swap2\n    tag_79:\n      pop\n      pop\n      pop\n      pop\n      pop\n      dup2\n      jump\t// out\n        /* \"contracts/CrowdFunding.sol\":165:188  uint256 public deadline */\n    tag_29:\n      sload(0x03)\n      dup2\n      jump\t// out\n        /* \"contracts/CrowdFunding.sol\":2239:2553  function withdraw()public onlyOwner {... */\n    tag_34:\n        /* \"contracts/CrowdFunding.sol\":526:531  owner */\n      0x04\n      0x00\n      swap1\n      sload\n      swap1\n      0x0100\n      exp\n      swap1\n      div\n      0xffffffffffffffffffffffffffffffffffffffff\n      and\n        /* \"contracts/CrowdFunding.sol\":512:531  msg.sender == owner */\n      0xffffffffffffffffffffffffffffffffffffffff\n      and\n        /* \"contracts/CrowdFunding.sol\":512:522  msg.sender */\n      caller\n        /* \"contracts/CrowdFunding.sol\":512:531  msg.sender == owner */\n      0xffffffffffffffffffffffffffffffffffffffff\n      and\n      eq\n        /* \"contracts/CrowdFunding.sol\":504:549  require(msg.sender == owner, \"Not the owner\") */\n      tag_83\n      jumpi\n      mload(0x40)\n      0x08c379a000000000000000000000000000000000000000000000000000000000\n      dup2\n      mstore\n      0x04\n      add\n      tag_84\n      swap1\n      tag_85\n      jump\t// in\n    tag_84:\n      mload(0x40)\n      dup1\n      swap2\n      sub\n      swap1\n      revert\n    tag_83:\n        /* \"contracts/CrowdFunding.sol\":2285:2314  checkAndUpdateCampaignState() */\n      tag_87\n        /* \"contracts/CrowdFunding.sol\":2285:2312  checkAndUpdateCampaignState */\n      tag_88\n        /* \"contracts/CrowdFunding.sol\":2285:2314  checkAndUpdateCampaignState() */\n      jump\t// in\n    tag_87:\n        /* \"contracts/CrowdFunding.sol\":2341:2365  CampaignState.Successful */\n      0x01\n        /* \"contracts/CrowdFunding.sol\":2332:2365  state == CampaignState.Successful */\n      0x02\n      dup2\n      gt\n      iszero\n      tag_89\n      jumpi\n      tag_90\n      tag_91\n      jump\t// in\n    tag_90:\n    tag_89:\n        /* \"contracts/CrowdFunding.sol\":2332:2337  state */\n      0x04\n      0x14\n      swap1\n      sload\n      swap1\n      0x0100\n      exp\n      swap1\n      div\n      0xff\n      and\n        /* \"contracts/CrowdFunding.sol\":2332:2365  state == CampaignState.Successful */\n      0x02\n      dup2\n      gt\n      iszero\n      tag_92\n      jumpi\n      tag_93\n      tag_91\n      jump\t// in\n    tag_93:\n    tag_92:\n      eq\n        /* \"contracts/CrowdFunding.sol\":2324:2397  require(state == CampaignState.Successful, \"Campaign not successful yet\") */\n      tag_94\n      jumpi\n      mload(0x40)\n      0x08c379a000000000000000000000000000000000000000000000000000000000\n      dup2\n      mstore\n      0x04\n      add\n      tag_95\n      swap1\n      tag_96\n      jump\t// in\n    tag_95:\n      mload(0x40)\n      dup1\n      swap2\n      sub\n      swap1\n      revert\n    tag_94:\n        /* \"contracts/CrowdFunding.sol\":2408:2423  uint256 balance */\n      0x00\n        /* \"contracts/CrowdFunding.sol\":2426:2447  address(this).balance */\n      selfbalance\n        /* \"contracts/CrowdFunding.sol\":2408:2447  uint256 balance = address(this).balance */\n      swap1\n      pop\n        /* \"contracts/CrowdFunding.sol\":2475:2476  0 */\n      0x00\n        /* \"contracts/CrowdFunding.sol\":2465:2472  balance */\n      dup2\n        /* \"contracts/CrowdFunding.sol\":2465:2476  balance > 0 */\n      gt\n        /* \"contracts/CrowdFunding.sol\":2457:2503  require(balance > 0, \"No balance to withdraw\") */\n      tag_97\n      jumpi\n      mload(0x40)\n      0x08c379a000000000000000000000000000000000000000000000000000000000\n      dup2\n      mstore\n      0x04\n      add\n      tag_98\n      swap1\n      tag_99\n      jump\t// in\n    tag_98:\n      mload(0x40)\n      dup1\n      swap2\n      sub\n      swap1\n      revert\n    tag_97:\n        /* \"contracts/CrowdFunding.sol\":2522:2527  owner */\n      0x04\n      0x00\n      swap1\n      sload\n      swap1\n      0x0100\n      exp\n      swap1\n      div\n      0xffffffffffffffffffffffffffffffffffffffff\n      and\n        /* \"contracts/CrowdFunding.sol\":2514:2537  payable(owner).transfer */\n      0xffffffffffffffffffffffffffffffffffffffff\n      and\n        /* \"contracts/CrowdFunding.sol\":2514:2546  payable(owner).transfer(balance) */\n      0x08fc\n        /* \"contracts/CrowdFunding.sol\":2538:2545  balance */\n      dup3\n        /* \"contracts/CrowdFunding.sol\":2514:2546  payable(owner).transfer(balance) */\n      swap1\n      dup2\n      iszero\n      mul\n      swap1\n      mload(0x40)\n      0x00\n      mload(0x40)\n      dup1\n      dup4\n      sub\n      dup2\n      dup6\n      dup9\n      dup9\n      call\n      swap4\n      pop\n      pop\n      pop\n      pop\n      iszero\n      dup1\n      iszero\n      tag_101\n      jumpi\n      returndatasize\n      0x00\n      dup1\n      returndatacopy\n      revert(0x00, returndatasize)\n    tag_101:\n      pop\n        /* \"contracts/CrowdFunding.sol\":2275:2553  {... */\n      pop\n        /* \"contracts/CrowdFunding.sol\":2239:2553  function withdraw()public onlyOwner {... */\n      jump\t// out\n        /* \"contracts/CrowdFunding.sol\":140:159  uint256 public goal */\n    tag_37:\n      sload(0x02)\n      dup2\n      jump\t// out\n        /* \"contracts/CrowdFunding.sol\":2559:2662  function getContractBalance()public view returns(uint256) {... */\n    tag_41:\n        /* \"contracts/CrowdFunding.sol\":2608:2615  uint256 */\n      0x00\n        /* \"contracts/CrowdFunding.sol\":2634:2655  address(this).balance */\n      selfbalance\n        /* \"contracts/CrowdFunding.sol\":2627:2655  return address(this).balance */\n      swap1\n      pop\n        /* \"contracts/CrowdFunding.sol\":2559:2662  function getContractBalance()public view returns(uint256) {... */\n      swap1\n      jump\t// out\n        /* \"contracts/CrowdFunding.sol\":109:134  string public description */\n    tag_45:\n      0x01\n      dup1\n      sload\n      tag_103\n      swap1\n      tag_72\n      jump\t// in\n    tag_103:\n      dup1\n      0x1f\n      add\n      0x20\n      dup1\n      swap2\n      div\n      mul\n      0x20\n      add\n      mload(0x40)\n      swap1\n      dup2\n      add\n      0x40\n      mstore\n      dup1\n      swap3\n      swap2\n      swap1\n      dup2\n      dup2\n      mstore\n      0x20\n      add\n      dup3\n      dup1\n      sload\n      tag_104\n      swap1\n      tag_72\n      jump\t// in\n    tag_104:\n      dup1\n      iszero\n      tag_105\n      jumpi\n      dup1\n      0x1f\n      lt\n      tag_106\n      jumpi\n      0x0100\n      dup1\n      dup4\n      sload\n      div\n      mul\n      dup4\n      mstore\n      swap2\n      0x20\n      add\n      swap2\n      jump(tag_105)\n    tag_106:\n      dup3\n      add\n      swap2\n      swap1\n      0x00\n      mstore\n      keccak256(0x00, 0x20)\n      swap1\n    tag_107:\n      dup2\n      sload\n      dup2\n      mstore\n      swap1\n      0x01\n      add\n      swap1\n      0x20\n      add\n      dup1\n      dup4\n      gt\n      tag_107\n      jumpi\n      dup3\n      swap1\n      sub\n      0x1f\n      and\n      dup3\n      add\n      swap2\n    tag_105:\n      pop\n      pop\n      pop\n      pop\n      pop\n      dup2\n      jump\t// out\n        /* \"contracts/CrowdFunding.sol\":2043:2233  function removeTier(uint256 _index)public onlyOwner{... */\n    tag_50:\n        /* \"contracts/CrowdFunding.sol\":526:531  owner */\n      0x04\n      0x00\n      swap1\n      sload\n      swap1\n      0x0100\n      exp\n      swap1\n      div\n      0xffffffffffffffffffffffffffffffffffffffff\n      and\n        /* \"contracts/CrowdFunding.sol\":512:531  msg.sender == owner */\n      0xffffffffffffffffffffffffffffffffffffffff\n      and\n        /* \"contracts/CrowdFunding.sol\":512:522  msg.sender */\n      caller\n        /* \"contracts/CrowdFunding.sol\":512:531  msg.sender == owner */\n      0xffffffffffffffffffffffffffffffffffffffff\n      and\n      eq\n        /* \"contracts/CrowdFunding.sol\":504:549  require(msg.sender == owner, \"Not the owner\") */\n      tag_109\n      jumpi\n      mload(0x40)\n      0x08c379a000000000000000000000000000000000000000000000000000000000\n      dup2\n      mstore\n      0x04\n      add\n      tag_110\n      swap1\n      tag_85\n      jump\t// in\n    tag_110:\n      mload(0x40)\n      dup1\n      swap2\n      sub\n      swap1\n      revert\n    tag_109:\n        /* \"contracts/CrowdFunding.sol\":2121:2126  tiers */\n      0x05\n        /* \"contracts/CrowdFunding.sol\":2121:2133  tiers.length */\n      dup1\n      sload\n      swap1\n      pop\n        /* \"contracts/CrowdFunding.sol\":2112:2118  _index */\n      dup2\n        /* \"contracts/CrowdFunding.sol\":2112:2133  _index < tiers.length */\n      lt\n        /* \"contracts/CrowdFunding.sol\":2104:2157  require(_index < tiers.length, \"Tier does not exist\") */\n      tag_112\n      jumpi\n      mload(0x40)\n      0x08c379a000000000000000000000000000000000000000000000000000000000\n      dup2\n      mstore\n      0x04\n      add\n      tag_113\n      swap1\n      tag_114\n      jump\t// in\n    tag_113:\n      mload(0x40)\n      dup1\n      swap2\n      sub\n      swap1\n      revert\n    tag_112:\n        /* \"contracts/CrowdFunding.sol\":2183:2188  tiers */\n      0x05\n        /* \"contracts/CrowdFunding.sol\":2202:2203  1 */\n      0x01\n        /* \"contracts/CrowdFunding.sol\":2189:2194  tiers */\n      0x05\n        /* \"contracts/CrowdFunding.sol\":2189:2201  tiers.length */\n      dup1\n      sload\n      swap1\n      pop\n        /* \"contracts/CrowdFunding.sol\":2189:2203  tiers.length-1 */\n      tag_115\n      swap2\n      swap1\n      tag_116\n      jump\t// in\n    tag_115:\n        /* \"contracts/CrowdFunding.sol\":2183:2204  tiers[tiers.length-1] */\n      dup2\n      sload\n      dup2\n      lt\n      tag_117\n      jumpi\n      tag_118\n      tag_119\n      jump\t// in\n    tag_118:\n    tag_117:\n      swap1\n      0x00\n      mstore\n      keccak256(0x00, 0x20)\n      swap1\n      0x03\n      mul\n      add\n        /* \"contracts/CrowdFunding.sol\":2167:2172  tiers */\n      0x05\n        /* \"contracts/CrowdFunding.sol\":2173:2179  _index */\n      dup3\n        /* \"contracts/CrowdFunding.sol\":2167:2180  tiers[_index] */\n      dup2\n      sload\n      dup2\n      lt\n      tag_121\n      jumpi\n      tag_122\n      tag_119\n      jump\t// in\n    tag_122:\n    tag_121:\n      swap1\n      0x00\n      mstore\n      keccak256(0x00, 0x20)\n      swap1\n      0x03\n      mul\n      add\n        /* \"contracts/CrowdFunding.sol\":2167:2204  tiers[_index] = tiers[tiers.length-1] */\n      0x00\n      dup3\n      add\n      dup2\n      0x00\n      add\n      swap1\n      dup2\n      tag_124\n      swap2\n      swap1\n      tag_125\n      jump\t// in\n    tag_124:\n      pop\n      0x01\n      dup3\n      add\n      sload\n      dup2\n      0x01\n      add\n      sstore\n      0x02\n      dup3\n      add\n      sload\n      dup2\n      0x02\n      add\n      sstore\n      swap1\n      pop\n      pop\n        /* \"contracts/CrowdFunding.sol\":2214:2219  tiers */\n      0x05\n        /* \"contracts/CrowdFunding.sol\":2214:2225  tiers.pop() */\n      dup1\n      sload\n      dup1\n      tag_126\n      jumpi\n      tag_127\n      tag_128\n      jump\t// in\n    tag_127:\n    tag_126:\n      0x01\n      swap1\n      sub\n      dup2\n      dup2\n      swap1\n      0x00\n      mstore\n      keccak256(0x00, 0x20)\n      swap1\n      0x03\n      mul\n      add\n      0x00\n      dup1\n      dup3\n      add\n      0x00\n      tag_130\n      swap2\n      swap1\n      tag_131\n      jump\t// in\n    tag_130:\n      0x01\n      dup3\n      add\n      0x00\n      swap1\n      sstore\n      0x02\n      dup3\n      add\n      0x00\n      swap1\n      sstore\n      pop\n      pop\n      swap1\n      sstore\n        /* \"contracts/CrowdFunding.sol\":2043:2233  function removeTier(uint256 _index)public onlyOwner{... */\n      pop\n      jump\t// out\n        /* \"contracts/CrowdFunding.sol\":195:215  address public owner */\n    tag_53:\n      0x04\n      0x00\n      swap1\n      sload\n      swap1\n      0x0100\n      exp\n      swap1\n      div\n      0xffffffffffffffffffffffffffffffffffffffff\n      and\n      dup2\n      jump\t// out\n        /* \"contracts/CrowdFunding.sol\":1746:2018  function addTier(... */\n    tag_60:\n        /* \"contracts/CrowdFunding.sol\":526:531  owner */\n      0x04\n      0x00\n      swap1\n      sload\n      swap1\n      0x0100\n      exp\n      swap1\n      div\n      0xffffffffffffffffffffffffffffffffffffffff\n      and\n        /* \"contracts/CrowdFunding.sol\":512:531  msg.sender == owner */\n      0xffffffffffffffffffffffffffffffffffffffff\n      and\n        /* \"contracts/CrowdFunding.sol\":512:522  msg.sender */\n      caller\n        /* \"contracts/CrowdFunding.sol\":512:531  msg.sender == owner */\n      0xffffffffffffffffffffffffffffffffffffffff\n      and\n      eq\n        /* \"contracts/CrowdFunding.sol\":504:549  require(msg.sender == owner, \"Not the owner\") */\n      tag_133\n      jumpi\n      mload(0x40)\n      0x08c379a000000000000000000000000000000000000000000000000000000000\n      dup2\n      mstore\n      0x04\n      add\n      tag_134\n      swap1\n      tag_85\n      jump\t// in\n    tag_134:\n      mload(0x40)\n      dup1\n      swap2\n      sub\n      swap1\n      revert\n    tag_133:\n        /* \"contracts/CrowdFunding.sol\":1862:1863  0 */\n      0x00\n        /* \"contracts/CrowdFunding.sol\":1852:1859  _amount */\n      dup2\n        /* \"contracts/CrowdFunding.sol\":1852:1863  _amount > 0 */\n      gt\n        /* \"contracts/CrowdFunding.sol\":1844:1898  require(_amount > 0, \"Amount must be greater than 0.\") */\n      tag_136\n      jumpi\n      mload(0x40)\n      0x08c379a000000000000000000000000000000000000000000000000000000000\n      dup2\n      mstore\n      0x04\n      add\n      tag_137\n      swap1\n      tag_138\n      jump\t// in\n    tag_137:\n      mload(0x40)\n      dup1\n      swap2\n      sub\n      swap1\n      revert\n    tag_136:\n        /* \"contracts/CrowdFunding.sol\":1938:1939  0 */\n      0x00\n        /* \"contracts/CrowdFunding.sol\":1922:1927  _name */\n      dup3\n        /* \"contracts/CrowdFunding.sol\":1916:1935  bytes(_name).length */\n      mload\n        /* \"contracts/CrowdFunding.sol\":1916:1939  bytes(_name).length > 0 */\n      gt\n        /* \"contracts/CrowdFunding.sol\":1908:1961  require(bytes(_name).length > 0, \"Name is required.\") */\n      tag_139\n      jumpi\n      mload(0x40)\n      0x08c379a000000000000000000000000000000000000000000000000000000000\n      dup2\n      mstore\n      0x04\n      add\n      tag_140\n      swap1\n      tag_141\n      jump\t// in\n    tag_140:\n      mload(0x40)\n      dup1\n      swap2\n      sub\n      swap1\n      revert\n    tag_139:\n        /* \"contracts/CrowdFunding.sol\":1971:1976  tiers */\n      0x05\n        /* \"contracts/CrowdFunding.sol\":1982:2005  Tier(_name, _amount, 0) */\n      mload(0x40)\n      dup1\n      0x60\n      add\n      0x40\n      mstore\n      dup1\n        /* \"contracts/CrowdFunding.sol\":1987:1992  _name */\n      dup5\n        /* \"contracts/CrowdFunding.sol\":1982:2005  Tier(_name, _amount, 0) */\n      dup2\n      mstore\n      0x20\n      add\n        /* \"contracts/CrowdFunding.sol\":1994:2001  _amount */\n      dup4\n        /* \"contracts/CrowdFunding.sol\":1982:2005  Tier(_name, _amount, 0) */\n      dup2\n      mstore\n      0x20\n      add\n        /* \"contracts/CrowdFunding.sol\":2003:2004  0 */\n      0x00\n        /* \"contracts/CrowdFunding.sol\":1982:2005  Tier(_name, _amount, 0) */\n      dup2\n      mstore\n      pop\n        /* \"contracts/CrowdFunding.sol\":1971:2006  tiers.push(Tier(_name, _amount, 0)) */\n      swap1\n      dup1\n      0x01\n      dup2\n      sload\n      add\n      dup1\n      dup3\n      sstore\n      dup1\n      swap2\n      pop\n      pop\n      0x01\n      swap1\n      sub\n      swap1\n      0x00\n      mstore\n      keccak256(0x00, 0x20)\n      swap1\n      0x03\n      mul\n      add\n      0x00\n      swap1\n      swap2\n      swap1\n      swap2\n      swap1\n      swap2\n      pop\n      0x00\n      dup3\n      add\n      mload\n      dup2\n      0x00\n      add\n      swap1\n      dup2\n      tag_143\n      swap2\n      swap1\n      tag_144\n      jump\t// in\n    tag_143:\n      pop\n      0x20\n      dup3\n      add\n      mload\n      dup2\n      0x01\n      add\n      sstore\n      0x40\n      dup3\n      add\n      mload\n      dup2\n      0x02\n      add\n      sstore\n      pop\n      pop\n        /* \"contracts/CrowdFunding.sol\":1746:2018  function addTier(... */\n      pop\n      pop\n      jump\t// out\n        /* \"contracts/CrowdFunding.sol\":304:330  CampaignState public state */\n    tag_63:\n      0x04\n      0x14\n      swap1\n      sload\n      swap1\n      0x0100\n      exp\n      swap1\n      div\n      0xff\n      and\n      dup2\n      jump\t// out\n        /* \"contracts/CrowdFunding.sol\":1439:1724  function fund(uint256 _tierIndex) public campaignOpen payable {... */\n    tag_68:\n        /* \"contracts/CrowdFunding.sol\":623:643  CampaignState.Active */\n      0x00\n        /* \"contracts/CrowdFunding.sol\":614:643  state == CampaignState.Active */\n      0x02\n      dup2\n      gt\n      iszero\n      tag_146\n      jumpi\n      tag_147\n      tag_91\n      jump\t// in\n    tag_147:\n    tag_146:\n        /* \"contracts/CrowdFunding.sol\":614:619  state */\n      0x04\n      0x14\n      swap1\n      sload\n      swap1\n      0x0100\n      exp\n      swap1\n      div\n      0xff\n      and\n        /* \"contracts/CrowdFunding.sol\":614:643  state == CampaignState.Active */\n      0x02\n      dup2\n      gt\n      iszero\n      tag_148\n      jumpi\n      tag_149\n      tag_91\n      jump\t// in\n    tag_149:\n    tag_148:\n      eq\n        /* \"contracts/CrowdFunding.sol\":606:670  require(state == CampaignState.Active, \"Campaign is not active\") */\n      tag_150\n      jumpi\n      mload(0x40)\n      0x08c379a000000000000000000000000000000000000000000000000000000000\n      dup2\n      mstore\n      0x04\n      add\n      tag_151\n      swap1\n      tag_152\n      jump\t// in\n    tag_151:\n      mload(0x40)\n      dup1\n      swap2\n      sub\n      swap1\n      revert\n    tag_150:\n        /* \"contracts/CrowdFunding.sol\":1532:1537  tiers */\n      0x05\n        /* \"contracts/CrowdFunding.sol\":1532:1544  tiers.length */\n      dup1\n      sload\n      swap1\n      pop\n        /* \"contracts/CrowdFunding.sol\":1519:1529  _tierIndex */\n      dup2\n        /* \"contracts/CrowdFunding.sol\":1519:1544  _tierIndex < tiers.length */\n      lt\n        /* \"contracts/CrowdFunding.sol\":1511:1562  require(_tierIndex < tiers.length, \"Invalid tier.\") */\n      tag_154\n      jumpi\n      mload(0x40)\n      0x08c379a000000000000000000000000000000000000000000000000000000000\n      dup2\n      mstore\n      0x04\n      add\n      tag_155\n      swap1\n      tag_156\n      jump\t// in\n    tag_155:\n      mload(0x40)\n      dup1\n      swap2\n      sub\n      swap1\n      revert\n    tag_154:\n        /* \"contracts/CrowdFunding.sol\":1593:1598  tiers */\n      0x05\n        /* \"contracts/CrowdFunding.sol\":1599:1609  _tierIndex */\n      dup2\n        /* \"contracts/CrowdFunding.sol\":1593:1610  tiers[_tierIndex] */\n      dup2\n      sload\n      dup2\n      lt\n      tag_157\n      jumpi\n      tag_158\n      tag_119\n      jump\t// in\n    tag_158:\n    tag_157:\n      swap1\n      0x00\n      mstore\n      keccak256(0x00, 0x20)\n      swap1\n      0x03\n      mul\n      add\n        /* \"contracts/CrowdFunding.sol\":1593:1617  tiers[_tierIndex].amount */\n      0x01\n      add\n      sload\n        /* \"contracts/CrowdFunding.sol\":1580:1589  msg.value */\n      callvalue\n        /* \"contracts/CrowdFunding.sol\":1580:1617  msg.value == tiers[_tierIndex].amount */\n      eq\n        /* \"contracts/CrowdFunding.sol\":1572:1639  require(msg.value == tiers[_tierIndex].amount, \"Incorrect amount.\") */\n      tag_160\n      jumpi\n      mload(0x40)\n      0x08c379a000000000000000000000000000000000000000000000000000000000\n      dup2\n      mstore\n      0x04\n      add\n      tag_161\n      swap1\n      tag_162\n      jump\t// in\n    tag_161:\n      mload(0x40)\n      dup1\n      swap2\n      sub\n      swap1\n      revert\n    tag_160:\n        /* \"contracts/CrowdFunding.sol\":1650:1655  tiers */\n      0x05\n        /* \"contracts/CrowdFunding.sol\":1656:1666  _tierIndex */\n      dup2\n        /* \"contracts/CrowdFunding.sol\":1650:1667  tiers[_tierIndex] */\n      dup2\n      sload\n      dup2\n      lt\n      tag_163\n      jumpi\n      tag_164\n      tag_119\n      jump\t// in\n    tag_164:\n    tag_163:\n      swap1\n      0x00\n      mstore\n      keccak256(0x00, 0x20)\n      swap1\n      0x03\n      mul\n      add\n        /* \"contracts/CrowdFunding.sol\":1650:1675  tiers[_tierIndex].backers */\n      0x02\n      add\n      0x00\n        /* \"contracts/CrowdFunding.sol\":1650:1677  tiers[_tierIndex].backers++ */\n      dup2\n      sload\n      dup1\n      swap3\n      swap2\n      swap1\n      tag_166\n      swap1\n      tag_167\n      jump\t// in\n    tag_166:\n      swap2\n      swap1\n      pop\n      sstore\n      pop\n        /* \"contracts/CrowdFunding.sol\":1688:1717  checkAndUpdateCampaignState() */\n      tag_168\n        /* \"contracts/CrowdFunding.sol\":1688:1715  checkAndUpdateCampaignState */\n      tag_88\n        /* \"contracts/CrowdFunding.sol\":1688:1717  checkAndUpdateCampaignState() */\n      jump\t// in\n    tag_168:\n        /* \"contracts/CrowdFunding.sol\":1439:1724  function fund(uint256 _tierIndex) public campaignOpen payable {... */\n      pop\n      jump\t// out\n        /* \"contracts/CrowdFunding.sol\":1035:1433  function checkAndUpdateCampaignState() internal{... */\n    tag_88:\n        /* \"contracts/CrowdFunding.sol\":1104:1124  CampaignState.Active */\n      0x00\n        /* \"contracts/CrowdFunding.sol\":1095:1124  state == CampaignState.Active */\n      0x02\n      dup2\n      gt\n      iszero\n      tag_170\n      jumpi\n      tag_171\n      tag_91\n      jump\t// in\n    tag_171:\n    tag_170:\n        /* \"contracts/CrowdFunding.sol\":1095:1100  state */\n      0x04\n      0x14\n      swap1\n      sload\n      swap1\n      0x0100\n      exp\n      swap1\n      div\n      0xff\n      and\n        /* \"contracts/CrowdFunding.sol\":1095:1124  state == CampaignState.Active */\n      0x02\n      dup2\n      gt\n      iszero\n      tag_172\n      jumpi\n      tag_173\n      tag_91\n      jump\t// in\n    tag_173:\n    tag_172:\n      sub\n        /* \"contracts/CrowdFunding.sol\":1092:1426  if(state == CampaignState.Active){... */\n      tag_174\n      jumpi\n        /* \"contracts/CrowdFunding.sol\":1161:1169  deadline */\n      sload(0x03)\n        /* \"contracts/CrowdFunding.sol\":1142:1157  block.timestamp */\n      timestamp\n        /* \"contracts/CrowdFunding.sol\":1142:1169  block.timestamp >= deadline */\n      lt\n        /* \"contracts/CrowdFunding.sol\":1139:1416  if(block.timestamp >= deadline){... */\n      tag_175\n      jumpi\n        /* \"contracts/CrowdFunding.sol\":1221:1225  goal */\n      sload(0x02)\n        /* \"contracts/CrowdFunding.sol\":1196:1217  address(this).balance */\n      selfbalance\n        /* \"contracts/CrowdFunding.sol\":1196:1225  address(this).balance >= goal */\n      lt\n      iszero\n        /* \"contracts/CrowdFunding.sol\":1196:1275  address(this).balance >= goal ? CampaignState.Successful : CampaignState.Failed */\n      tag_176\n      jumpi\n        /* \"contracts/CrowdFunding.sol\":1255:1275  CampaignState.Failed */\n      0x02\n        /* \"contracts/CrowdFunding.sol\":1196:1275  address(this).balance >= goal ? CampaignState.Successful : CampaignState.Failed */\n      jump(tag_177)\n    tag_176:\n        /* \"contracts/CrowdFunding.sol\":1228:1252  CampaignState.Successful */\n      0x01\n        /* \"contracts/CrowdFunding.sol\":1196:1275  address(this).balance >= goal ? CampaignState.Successful : CampaignState.Failed */\n    tag_177:\n        /* \"contracts/CrowdFunding.sol\":1188:1193  state */\n      0x04\n      0x14\n        /* \"contracts/CrowdFunding.sol\":1188:1275  state = address(this).balance >= goal ? CampaignState.Successful : CampaignState.Failed */\n      0x0100\n      exp\n      dup2\n      sload\n      dup2\n      0xff\n      mul\n      not\n      and\n      swap1\n      dup4\n      0x02\n      dup2\n      gt\n      iszero\n      tag_178\n      jumpi\n      tag_179\n      tag_91\n      jump\t// in\n    tag_179:\n    tag_178:\n      mul\n      or\n      swap1\n      sstore\n      pop\n        /* \"contracts/CrowdFunding.sol\":1139:1416  if(block.timestamp >= deadline){... */\n      jump(tag_180)\n    tag_175:\n        /* \"contracts/CrowdFunding.sol\":1347:1351  goal */\n      sload(0x02)\n        /* \"contracts/CrowdFunding.sol\":1322:1343  address(this).balance */\n      selfbalance\n        /* \"contracts/CrowdFunding.sol\":1322:1351  address(this).balance >= goal */\n      lt\n      iszero\n        /* \"contracts/CrowdFunding.sol\":1322:1401  address(this).balance >= goal ? CampaignState.Successful : CampaignState.Active */\n      tag_181\n      jumpi\n        /* \"contracts/CrowdFunding.sol\":1381:1401  CampaignState.Active */\n      0x00\n        /* \"contracts/CrowdFunding.sol\":1322:1401  address(this).balance >= goal ? CampaignState.Successful : CampaignState.Active */\n      jump(tag_182)\n    tag_181:\n        /* \"contracts/CrowdFunding.sol\":1354:1378  CampaignState.Successful */\n      0x01\n        /* \"contracts/CrowdFunding.sol\":1322:1401  address(this).balance >= goal ? CampaignState.Successful : CampaignState.Active */\n    tag_182:\n        /* \"contracts/CrowdFunding.sol\":1314:1319  state */\n      0x04\n      0x14\n        /* \"contracts/CrowdFunding.sol\":1314:1401  state = address(this).balance >= goal ? CampaignState.Successful : CampaignState.Active */\n      0x0100\n      exp\n      dup2\n      sload\n      dup2\n      0xff\n      mul\n      not\n      and\n      swap1\n      dup4\n      0x02\n      dup2\n      gt\n      iszero\n      tag_183\n      jumpi\n      tag_184\n      tag_91\n      jump\t// in\n    tag_184:\n    tag_183:\n      mul\n      or\n      swap1\n      sstore\n      pop\n        /* \"contracts/CrowdFunding.sol\":1139:1416  if(block.timestamp >= deadline){... */\n    tag_180:\n        /* \"contracts/CrowdFunding.sol\":1092:1426  if(state == CampaignState.Active){... */\n    tag_174:\n        /* \"contracts/CrowdFunding.sol\":1035:1433  function checkAndUpdateCampaignState() internal{... */\n      jump\t// out\n    tag_131:\n      pop\n      dup1\n      sload\n      tag_185\n      swap1\n      tag_72\n      jump\t// in\n    tag_185:\n      0x00\n      dup3\n      sstore\n      dup1\n      0x1f\n      lt\n      tag_187\n      jumpi\n      pop\n      jump(tag_186)\n    tag_187:\n      0x1f\n      add\n      0x20\n      swap1\n      div\n      swap1\n      0x00\n      mstore\n      keccak256(0x00, 0x20)\n      swap1\n      dup2\n      add\n      swap1\n      tag_188\n      swap2\n      swap1\n      tag_189\n      jump\t// in\n    tag_188:\n    tag_186:\n      pop\n      jump\t// out\n    tag_189:\n    tag_190:\n      dup1\n      dup3\n      gt\n      iszero\n      tag_191\n      jumpi\n      0x00\n      dup2\n      0x00\n      swap1\n      sstore\n      pop\n      0x01\n      add\n      jump(tag_190)\n    tag_191:\n      pop\n      swap1\n      jump\t// out\n        /* \"#utility.yul\":7:82   */\n    tag_192:\n        /* \"#utility.yul\":40:46   */\n      0x00\n        /* \"#utility.yul\":73:75   */\n      0x40\n        /* \"#utility.yul\":67:76   */\n      mload\n        /* \"#utility.yul\":57:76   */\n      swap1\n      pop\n        /* \"#utility.yul\":7:82   */\n      swap1\n      jump\t// out\n        /* \"#utility.yul\":88:205   */\n    tag_193:\n        /* \"#utility.yul\":197:198   */\n      0x00\n        /* \"#utility.yul\":194:195   */\n      dup1\n        /* \"#utility.yul\":187:199   */\n      revert\n        /* \"#utility.yul\":211:328   */\n    tag_194:\n        /* \"#utility.yul\":320:321   */\n      0x00\n        /* \"#utility.yul\":317:318   */\n      dup1\n        /* \"#utility.yul\":310:322   */\n      revert\n        /* \"#utility.yul\":334:411   */\n    tag_195:\n        /* \"#utility.yul\":371:378   */\n      0x00\n        /* \"#utility.yul\":400:405   */\n      dup2\n        /* \"#utility.yul\":389:405   */\n      swap1\n      pop\n        /* \"#utility.yul\":334:411   */\n      swap2\n      swap1\n      pop\n      jump\t// out\n        /* \"#utility.yul\":417:539   */\n    tag_196:\n        /* \"#utility.yul\":490:514   */\n      tag_262\n        /* \"#utility.yul\":508:513   */\n      dup2\n        /* \"#utility.yul\":490:514   */\n      tag_195\n      jump\t// in\n    tag_262:\n        /* \"#utility.yul\":483:488   */\n      dup2\n        /* \"#utility.yul\":480:515   */\n      eq\n        /* \"#utility.yul\":470:533   */\n      tag_263\n      jumpi\n        /* \"#utility.yul\":529:530   */\n      0x00\n        /* \"#utility.yul\":526:527   */\n      dup1\n        /* \"#utility.yul\":519:531   */\n      revert\n        /* \"#utility.yul\":470:533   */\n    tag_263:\n        /* \"#utility.yul\":417:539   */\n      pop\n      jump\t// out\n        /* \"#utility.yul\":545:684   */\n    tag_197:\n        /* \"#utility.yul\":591:596   */\n      0x00\n        /* \"#utility.yul\":629:635   */\n      dup2\n        /* \"#utility.yul\":616:636   */\n      calldataload\n        /* \"#utility.yul\":607:636   */\n      swap1\n      pop\n        /* \"#utility.yul\":645:678   */\n      tag_265\n        /* \"#utility.yul\":672:677   */\n      dup2\n        /* \"#utility.yul\":645:678   */\n      tag_196\n      jump\t// in\n    tag_265:\n        /* \"#utility.yul\":545:684   */\n      swap3\n      swap2\n      pop\n      pop\n      jump\t// out\n        /* \"#utility.yul\":690:1019   */\n    tag_18:\n        /* \"#utility.yul\":749:755   */\n      0x00\n        /* \"#utility.yul\":798:800   */\n      0x20\n        /* \"#utility.yul\":786:795   */\n      dup3\n        /* \"#utility.yul\":777:784   */\n      dup5\n        /* \"#utility.yul\":773:796   */\n      sub\n        /* \"#utility.yul\":769:801   */\n      slt\n        /* \"#utility.yul\":766:885   */\n      iszero\n      tag_267\n      jumpi\n        /* \"#utility.yul\":804:883   */\n      tag_268\n      tag_193\n      jump\t// in\n    tag_268:\n        /* \"#utility.yul\":766:885   */\n    tag_267:\n        /* \"#utility.yul\":924:925   */\n      0x00\n        /* \"#utility.yul\":949:1002   */\n      tag_269\n        /* \"#utility.yul\":994:1001   */\n      dup5\n        /* \"#utility.yul\":985:991   */\n      dup3\n        /* \"#utility.yul\":974:983   */\n      dup6\n        /* \"#utility.yul\":970:992   */\n      add\n        /* \"#utility.yul\":949:1002   */\n      tag_197\n      jump\t// in\n    tag_269:\n        /* \"#utility.yul\":939:1002   */\n      swap2\n      pop\n        /* \"#utility.yul\":895:1012   */\n      pop\n        /* \"#utility.yul\":690:1019   */\n      swap3\n      swap2\n      pop\n      pop\n      jump\t// out\n        /* \"#utility.yul\":1025:1124   */\n    tag_198:\n        /* \"#utility.yul\":1077:1083   */\n      0x00\n        /* \"#utility.yul\":1111:1116   */\n      dup2\n        /* \"#utility.yul\":1105:1117   */\n      mload\n        /* \"#utility.yul\":1095:1117   */\n      swap1\n      pop\n        /* \"#utility.yul\":1025:1124   */\n      swap2\n      swap1\n      pop\n      jump\t// out\n        /* \"#utility.yul\":1130:1299   */\n    tag_199:\n        /* \"#utility.yul\":1214:1225   */\n      0x00\n        /* \"#utility.yul\":1248:1254   */\n      dup3\n        /* \"#utility.yul\":1243:1246   */\n      dup3\n        /* \"#utility.yul\":1236:1255   */\n      mstore\n        /* \"#utility.yul\":1288:1292   */\n      0x20\n        /* \"#utility.yul\":1283:1286   */\n      dup3\n        /* \"#utility.yul\":1279:1293   */\n      add\n        /* \"#utility.yul\":1264:1293   */\n      swap1\n      pop\n        /* \"#utility.yul\":1130:1299   */\n      swap3\n      swap2\n      pop\n      pop\n      jump\t// out\n        /* \"#utility.yul\":1305:1551   */\n    tag_200:\n        /* \"#utility.yul\":1386:1387   */\n      0x00\n        /* \"#utility.yul\":1396:1509   */\n    tag_273:\n        /* \"#utility.yul\":1410:1416   */\n      dup4\n        /* \"#utility.yul\":1407:1408   */\n      dup2\n        /* \"#utility.yul\":1404:1417   */\n      lt\n        /* \"#utility.yul\":1396:1509   */\n      iszero\n      tag_275\n      jumpi\n        /* \"#utility.yul\":1495:1496   */\n      dup1\n        /* \"#utility.yul\":1490:1493   */\n      dup3\n        /* \"#utility.yul\":1486:1497   */\n      add\n        /* \"#utility.yul\":1480:1498   */\n      mload\n        /* \"#utility.yul\":1476:1477   */\n      dup2\n        /* \"#utility.yul\":1471:1474   */\n      dup5\n        /* \"#utility.yul\":1467:1478   */\n      add\n        /* \"#utility.yul\":1460:1499   */\n      mstore\n        /* \"#utility.yul\":1432:1434   */\n      0x20\n        /* \"#utility.yul\":1429:1430   */\n      dup2\n        /* \"#utility.yul\":1425:1435   */\n      add\n        /* \"#utility.yul\":1420:1435   */\n      swap1\n      pop\n        /* \"#utility.yul\":1396:1509   */\n      jump(tag_273)\n    tag_275:\n        /* \"#utility.yul\":1543:1544   */\n      0x00\n        /* \"#utility.yul\":1534:1540   */\n      dup5\n        /* \"#utility.yul\":1529:1532   */\n      dup5\n        /* \"#utility.yul\":1525:1541   */\n      add\n        /* \"#utility.yul\":1518:1545   */\n      mstore\n        /* \"#utility.yul\":1367:1551   */\n      pop\n        /* \"#utility.yul\":1305:1551   */\n      pop\n      pop\n      pop\n      jump\t// out\n        /* \"#utility.yul\":1557:1659   */\n    tag_201:\n        /* \"#utility.yul\":1598:1604   */\n      0x00\n        /* \"#utility.yul\":1649:1651   */\n      0x1f\n        /* \"#utility.yul\":1645:1652   */\n      not\n        /* \"#utility.yul\":1640:1642   */\n      0x1f\n        /* \"#utility.yul\":1633:1638   */\n      dup4\n        /* \"#utility.yul\":1629:1643   */\n      add\n        /* \"#utility.yul\":1625:1653   */\n      and\n        /* \"#utility.yul\":1615:1653   */\n      swap1\n      pop\n        /* \"#utility.yul\":1557:1659   */\n      swap2\n      swap1\n      pop\n      jump\t// out\n        /* \"#utility.yul\":1665:2042   */\n    tag_202:\n        /* \"#utility.yul\":1753:1756   */\n      0x00\n        /* \"#utility.yul\":1781:1820   */\n      tag_278\n        /* \"#utility.yul\":1814:1819   */\n      dup3\n        /* \"#utility.yul\":1781:1820   */\n      tag_198\n      jump\t// in\n    tag_278:\n        /* \"#utility.yul\":1836:1907   */\n      tag_279\n        /* \"#utility.yul\":1900:1906   */\n      dup2\n        /* \"#utility.yul\":1895:1898   */\n      dup6\n        /* \"#utility.yul\":1836:1907   */\n      tag_199\n      jump\t// in\n    tag_279:\n        /* \"#utility.yul\":1829:1907   */\n      swap4\n      pop\n        /* \"#utility.yul\":1916:1981   */\n      tag_280\n        /* \"#utility.yul\":1974:1980   */\n      dup2\n        /* \"#utility.yul\":1969:1972   */\n      dup6\n        /* \"#utility.yul\":1962:1966   */\n      0x20\n        /* \"#utility.yul\":1955:1960   */\n      dup7\n        /* \"#utility.yul\":1951:1967   */\n      add\n        /* \"#utility.yul\":1916:1981   */\n      tag_200\n      jump\t// in\n    tag_280:\n        /* \"#utility.yul\":2006:2035   */\n      tag_281\n        /* \"#utility.yul\":2028:2034   */\n      dup2\n        /* \"#utility.yul\":2006:2035   */\n      tag_201\n      jump\t// in\n    tag_281:\n        /* \"#utility.yul\":2001:2004   */\n      dup5\n        /* \"#utility.yul\":1997:2036   */\n      add\n        /* \"#utility.yul\":1990:2036   */\n      swap2\n      pop\n        /* \"#utility.yul\":1757:2042   */\n      pop\n        /* \"#utility.yul\":1665:2042   */\n      swap3\n      swap2\n      pop\n      pop\n      jump\t// out\n        /* \"#utility.yul\":2048:2166   */\n    tag_203:\n        /* \"#utility.yul\":2135:2159   */\n      tag_283\n        /* \"#utility.yul\":2153:2158   */\n      dup2\n        /* \"#utility.yul\":2135:2159   */\n      tag_195\n      jump\t// in\n    tag_283:\n        /* \"#utility.yul\":2130:2133   */\n      dup3\n        /* \"#utility.yul\":2123:2160   */\n      mstore\n        /* \"#utility.yul\":2048:2166   */\n      pop\n      pop\n      jump\t// out\n        /* \"#utility.yul\":2172:2705   */\n    tag_21:\n        /* \"#utility.yul\":2341:2345   */\n      0x00\n        /* \"#utility.yul\":2379:2381   */\n      0x60\n        /* \"#utility.yul\":2368:2377   */\n      dup3\n        /* \"#utility.yul\":2364:2382   */\n      add\n        /* \"#utility.yul\":2356:2382   */\n      swap1\n      pop\n        /* \"#utility.yul\":2428:2437   */\n      dup2\n        /* \"#utility.yul\":2422:2426   */\n      dup2\n        /* \"#utility.yul\":2418:2438   */\n      sub\n        /* \"#utility.yul\":2414:2415   */\n      0x00\n        /* \"#utility.yul\":2403:2412   */\n      dup4\n        /* \"#utility.yul\":2399:2416   */\n      add\n        /* \"#utility.yul\":2392:2439   */\n      mstore\n        /* \"#utility.yul\":2456:2534   */\n      tag_285\n        /* \"#utility.yul\":2529:2533   */\n      dup2\n        /* \"#utility.yul\":2520:2526   */\n      dup7\n        /* \"#utility.yul\":2456:2534   */\n      tag_202\n      jump\t// in\n    tag_285:\n        /* \"#utility.yul\":2448:2534   */\n      swap1\n      pop\n        /* \"#utility.yul\":2544:2616   */\n      tag_286\n        /* \"#utility.yul\":2612:2614   */\n      0x20\n        /* \"#utility.yul\":2601:2610   */\n      dup4\n        /* \"#utility.yul\":2597:2615   */\n      add\n        /* \"#utility.yul\":2588:2594   */\n      dup6\n        /* \"#utility.yul\":2544:2616   */\n      tag_203\n      jump\t// in\n    tag_286:\n        /* \"#utility.yul\":2626:2698   */\n      tag_287\n        /* \"#utility.yul\":2694:2696   */\n      0x40\n        /* \"#utility.yul\":2683:2692   */\n      dup4\n        /* \"#utility.yul\":2679:2697   */\n      add\n        /* \"#utility.yul\":2670:2676   */\n      dup5\n        /* \"#utility.yul\":2626:2698   */\n      tag_203\n      jump\t// in\n    tag_287:\n        /* \"#utility.yul\":2172:2705   */\n      swap5\n      swap4\n      pop\n      pop\n      pop\n      pop\n      jump\t// out\n        /* \"#utility.yul\":2711:3024   */\n    tag_26:\n        /* \"#utility.yul\":2824:2828   */\n      0x00\n        /* \"#utility.yul\":2862:2864   */\n      0x20\n        /* \"#utility.yul\":2851:2860   */\n      dup3\n        /* \"#utility.yul\":2847:2865   */\n      add\n        /* \"#utility.yul\":2839:2865   */\n      swap1\n      pop\n        /* \"#utility.yul\":2911:2920   */\n      dup2\n        /* \"#utility.yul\":2905:2909   */\n      dup2\n        /* \"#utility.yul\":2901:2921   */\n      sub\n        /* \"#utility.yul\":2897:2898   */\n      0x00\n        /* \"#utility.yul\":2886:2895   */\n      dup4\n        /* \"#utility.yul\":2882:2899   */\n      add\n        /* \"#utility.yul\":2875:2922   */\n      mstore\n        /* \"#utility.yul\":2939:3017   */\n      tag_289\n        /* \"#utility.yul\":3012:3016   */\n      dup2\n        /* \"#utility.yul\":3003:3009   */\n      dup5\n        /* \"#utility.yul\":2939:3017   */\n      tag_202\n      jump\t// in\n    tag_289:\n        /* \"#utility.yul\":2931:3017   */\n      swap1\n      pop\n        /* \"#utility.yul\":2711:3024   */\n      swap3\n      swap2\n      pop\n      pop\n      jump\t// out\n        /* \"#utility.yul\":3030:3252   */\n    tag_31:\n        /* \"#utility.yul\":3123:3127   */\n      0x00\n        /* \"#utility.yul\":3161:3163   */\n      0x20\n        /* \"#utility.yul\":3150:3159   */\n      dup3\n        /* \"#utility.yul\":3146:3164   */\n      add\n        /* \"#utility.yul\":3138:3164   */\n      swap1\n      pop\n        /* \"#utility.yul\":3174:3245   */\n      tag_291\n        /* \"#utility.yul\":3242:3243   */\n      0x00\n        /* \"#utility.yul\":3231:3240   */\n      dup4\n        /* \"#utility.yul\":3227:3244   */\n      add\n        /* \"#utility.yul\":3218:3224   */\n      dup5\n        /* \"#utility.yul\":3174:3245   */\n      tag_203\n      jump\t// in\n    tag_291:\n        /* \"#utility.yul\":3030:3252   */\n      swap3\n      swap2\n      pop\n      pop\n      jump\t// out\n        /* \"#utility.yul\":3258:3384   */\n    tag_204:\n        /* \"#utility.yul\":3295:3302   */\n      0x00\n        /* \"#utility.yul\":3335:3377   */\n      0xffffffffffffffffffffffffffffffffffffffff\n        /* \"#utility.yul\":3328:3333   */\n      dup3\n        /* \"#utility.yul\":3324:3378   */\n      and\n        /* \"#utility.yul\":3313:3378   */\n      swap1\n      pop\n        /* \"#utility.yul\":3258:3384   */\n      swap2\n      swap1\n      pop\n      jump\t// out\n        /* \"#utility.yul\":3390:3486   */\n    tag_205:\n        /* \"#utility.yul\":3427:3434   */\n      0x00\n        /* \"#utility.yul\":3456:3480   */\n      tag_294\n        /* \"#utility.yul\":3474:3479   */\n      dup3\n        /* \"#utility.yul\":3456:3480   */\n      tag_204\n      jump\t// in\n    tag_294:\n        /* \"#utility.yul\":3445:3480   */\n      swap1\n      pop\n        /* \"#utility.yul\":3390:3486   */\n      swap2\n      swap1\n      pop\n      jump\t// out\n        /* \"#utility.yul\":3492:3610   */\n    tag_206:\n        /* \"#utility.yul\":3579:3603   */\n      tag_296\n        /* \"#utility.yul\":3597:3602   */\n      dup2\n        /* \"#utility.yul\":3579:3603   */\n      tag_205\n      jump\t// in\n    tag_296:\n        /* \"#utility.yul\":3574:3577   */\n      dup3\n        /* \"#utility.yul\":3567:3604   */\n      mstore\n        /* \"#utility.yul\":3492:3610   */\n      pop\n      pop\n      jump\t// out\n        /* \"#utility.yul\":3616:3838   */\n    tag_55:\n        /* \"#utility.yul\":3709:3713   */\n      0x00\n        /* \"#utility.yul\":3747:3749   */\n      0x20\n        /* \"#utility.yul\":3736:3745   */\n      dup3\n        /* \"#utility.yul\":3732:3750   */\n      add\n        /* \"#utility.yul\":3724:3750   */\n      swap1\n      pop\n        /* \"#utility.yul\":3760:3831   */\n      tag_298\n        /* \"#utility.yul\":3828:3829   */\n      0x00\n        /* \"#utility.yul\":3817:3826   */\n      dup4\n        /* \"#utility.yul\":3813:3830   */\n      add\n        /* \"#utility.yul\":3804:3810   */\n      dup5\n        /* \"#utility.yul\":3760:3831   */\n      tag_206\n      jump\t// in\n    tag_298:\n        /* \"#utility.yul\":3616:3838   */\n      swap3\n      swap2\n      pop\n      pop\n      jump\t// out\n        /* \"#utility.yul\":3844:3961   */\n    tag_207:\n        /* \"#utility.yul\":3953:3954   */\n      0x00\n        /* \"#utility.yul\":3950:3951   */\n      dup1\n        /* \"#utility.yul\":3943:3955   */\n      revert\n        /* \"#utility.yul\":3967:4084   */\n    tag_208:\n        /* \"#utility.yul\":4076:4077   */\n      0x00\n        /* \"#utility.yul\":4073:4074   */\n      dup1\n        /* \"#utility.yul\":4066:4078   */\n      revert\n        /* \"#utility.yul\":4090:4270   */\n    tag_209:\n        /* \"#utility.yul\":4138:4215   */\n      0x4e487b7100000000000000000000000000000000000000000000000000000000\n        /* \"#utility.yul\":4135:4136   */\n      0x00\n        /* \"#utility.yul\":4128:4216   */\n      mstore\n        /* \"#utility.yul\":4235:4239   */\n      0x41\n        /* \"#utility.yul\":4232:4233   */\n      0x04\n        /* \"#utility.yul\":4225:4240   */\n      mstore\n        /* \"#utility.yul\":4259:4263   */\n      0x24\n        /* \"#utility.yul\":4256:4257   */\n      0x00\n        /* \"#utility.yul\":4249:4264   */\n      revert\n        /* \"#utility.yul\":4276:4557   */\n    tag_210:\n        /* \"#utility.yul\":4359:4386   */\n      tag_303\n        /* \"#utility.yul\":4381:4385   */\n      dup3\n        /* \"#utility.yul\":4359:4386   */\n      tag_201\n      jump\t// in\n    tag_303:\n        /* \"#utility.yul\":4351:4357   */\n      dup2\n        /* \"#utility.yul\":4347:4387   */\n      add\n        /* \"#utility.yul\":4489:4495   */\n      dup2\n        /* \"#utility.yul\":4477:4487   */\n      dup2\n        /* \"#utility.yul\":4474:4496   */\n      lt\n        /* \"#utility.yul\":4453:4471   */\n      0xffffffffffffffff\n        /* \"#utility.yul\":4441:4451   */\n      dup3\n        /* \"#utility.yul\":4438:4472   */\n      gt\n        /* \"#utility.yul\":4435:4497   */\n      or\n        /* \"#utility.yul\":4432:4520   */\n      iszero\n      tag_304\n      jumpi\n        /* \"#utility.yul\":4500:4518   */\n      tag_305\n      tag_209\n      jump\t// in\n    tag_305:\n        /* \"#utility.yul\":4432:4520   */\n    tag_304:\n        /* \"#utility.yul\":4540:4550   */\n      dup1\n        /* \"#utility.yul\":4536:4538   */\n      0x40\n        /* \"#utility.yul\":4529:4551   */\n      mstore\n        /* \"#utility.yul\":4319:4557   */\n      pop\n        /* \"#utility.yul\":4276:4557   */\n      pop\n      pop\n      jump\t// out\n        /* \"#utility.yul\":4563:4692   */\n    tag_211:\n        /* \"#utility.yul\":4597:4603   */\n      0x00\n        /* \"#utility.yul\":4624:4644   */\n      tag_307\n      tag_192\n      jump\t// in\n    tag_307:\n        /* \"#utility.yul\":4614:4644   */\n      swap1\n      pop\n        /* \"#utility.yul\":4653:4686   */\n      tag_308\n        /* \"#utility.yul\":4681:4685   */\n      dup3\n        /* \"#utility.yul\":4673:4679   */\n      dup3\n        /* \"#utility.yul\":4653:4686   */\n      tag_210\n      jump\t// in\n    tag_308:\n        /* \"#utility.yul\":4563:4692   */\n      swap2\n      swap1\n      pop\n      jump\t// out\n        /* \"#utility.yul\":4698:5006   */\n    tag_212:\n        /* \"#utility.yul\":4760:4764   */\n      0x00\n        /* \"#utility.yul\":4850:4868   */\n      0xffffffffffffffff\n        /* \"#utility.yul\":4842:4848   */\n      dup3\n        /* \"#utility.yul\":4839:4869   */\n      gt\n        /* \"#utility.yul\":4836:4892   */\n      iszero\n      tag_310\n      jumpi\n        /* \"#utility.yul\":4872:4890   */\n      tag_311\n      tag_209\n      jump\t// in\n    tag_311:\n        /* \"#utility.yul\":4836:4892   */\n    tag_310:\n        /* \"#utility.yul\":4910:4939   */\n      tag_312\n        /* \"#utility.yul\":4932:4938   */\n      dup3\n        /* \"#utility.yul\":4910:4939   */\n      tag_201\n      jump\t// in\n    tag_312:\n        /* \"#utility.yul\":4902:4939   */\n      swap1\n      pop\n        /* \"#utility.yul\":4994:4998   */\n      0x20\n        /* \"#utility.yul\":4988:4992   */\n      dup2\n        /* \"#utility.yul\":4984:4999   */\n      add\n        /* \"#utility.yul\":4976:4999   */\n      swap1\n      pop\n        /* \"#utility.yul\":4698:5006   */\n      swap2\n      swap1\n      pop\n      jump\t// out\n        /* \"#utility.yul\":5012:5158   */\n    tag_213:\n        /* \"#utility.yul\":5109:5115   */\n      dup3\n        /* \"#utility.yul\":5104:5107   */\n      dup2\n        /* \"#utility.yul\":5099:5102   */\n      dup4\n        /* \"#utility.yul\":5086:5116   */\n      calldatacopy\n        /* \"#utility.yul\":5150:5151   */\n      0x00\n        /* \"#utility.yul\":5141:5147   */\n      dup4\n        /* \"#utility.yul\":5136:5139   */\n      dup4\n        /* \"#utility.yul\":5132:5148   */\n      add\n        /* \"#utility.yul\":5125:5152   */\n      mstore\n        /* \"#utility.yul\":5012:5158   */\n      pop\n      pop\n      pop\n      jump\t// out\n        /* \"#utility.yul\":5164:5589   */\n    tag_214:\n        /* \"#utility.yul\":5242:5247   */\n      0x00\n        /* \"#utility.yul\":5267:5333   */\n      tag_315\n        /* \"#utility.yul\":5283:5332   */\n      tag_316\n        /* \"#utility.yul\":5325:5331   */\n      dup5\n        /* \"#utility.yul\":5283:5332   */\n      tag_212\n      jump\t// in\n    tag_316:\n        /* \"#utility.yul\":5267:5333   */\n      tag_211\n      jump\t// in\n    tag_315:\n        /* \"#utility.yul\":5258:5333   */\n      swap1\n      pop\n        /* \"#utility.yul\":5356:5362   */\n      dup3\n        /* \"#utility.yul\":5349:5354   */\n      dup2\n        /* \"#utility.yul\":5342:5363   */\n      mstore\n        /* \"#utility.yul\":5394:5398   */\n      0x20\n        /* \"#utility.yul\":5387:5392   */\n      dup2\n        /* \"#utility.yul\":5383:5399   */\n      add\n        /* \"#utility.yul\":5432:5435   */\n      dup5\n        /* \"#utility.yul\":5423:5429   */\n      dup5\n        /* \"#utility.yul\":5418:5421   */\n      dup5\n        /* \"#utility.yul\":5414:5430   */\n      add\n        /* \"#utility.yul\":5411:5436   */\n      gt\n        /* \"#utility.yul\":5408:5520   */\n      iszero\n      tag_317\n      jumpi\n        /* \"#utility.yul\":5439:5518   */\n      tag_318\n      tag_208\n      jump\t// in\n    tag_318:\n        /* \"#utility.yul\":5408:5520   */\n    tag_317:\n        /* \"#utility.yul\":5529:5583   */\n      tag_319\n        /* \"#utility.yul\":5576:5582   */\n      dup5\n        /* \"#utility.yul\":5571:5574   */\n      dup3\n        /* \"#utility.yul\":5566:5569   */\n      dup6\n        /* \"#utility.yul\":5529:5583   */\n      tag_213\n      jump\t// in\n    tag_319:\n        /* \"#utility.yul\":5248:5589   */\n      pop\n        /* \"#utility.yul\":5164:5589   */\n      swap4\n      swap3\n      pop\n      pop\n      pop\n      jump\t// out\n        /* \"#utility.yul\":5609:5949   */\n    tag_215:\n        /* \"#utility.yul\":5665:5670   */\n      0x00\n        /* \"#utility.yul\":5714:5717   */\n      dup3\n        /* \"#utility.yul\":5707:5711   */\n      0x1f\n        /* \"#utility.yul\":5699:5705   */\n      dup4\n        /* \"#utility.yul\":5695:5712   */\n      add\n        /* \"#utility.yul\":5691:5718   */\n      slt\n        /* \"#utility.yul\":5681:5803   */\n      tag_321\n      jumpi\n        /* \"#utility.yul\":5722:5801   */\n      tag_322\n      tag_207\n      jump\t// in\n    tag_322:\n        /* \"#utility.yul\":5681:5803   */\n    tag_321:\n        /* \"#utility.yul\":5839:5845   */\n      dup2\n        /* \"#utility.yul\":5826:5846   */\n      calldataload\n        /* \"#utility.yul\":5864:5943   */\n      tag_323\n        /* \"#utility.yul\":5939:5942   */\n      dup5\n        /* \"#utility.yul\":5931:5937   */\n      dup3\n        /* \"#utility.yul\":5924:5928   */\n      0x20\n        /* \"#utility.yul\":5916:5922   */\n      dup7\n        /* \"#utility.yul\":5912:5929   */\n      add\n        /* \"#utility.yul\":5864:5943   */\n      tag_214\n      jump\t// in\n    tag_323:\n        /* \"#utility.yul\":5855:5943   */\n      swap2\n      pop\n        /* \"#utility.yul\":5671:5949   */\n      pop\n        /* \"#utility.yul\":5609:5949   */\n      swap3\n      swap2\n      pop\n      pop\n      jump\t// out\n        /* \"#utility.yul\":5955:6609   */\n    tag_59:\n        /* \"#utility.yul\":6033:6039   */\n      0x00\n        /* \"#utility.yul\":6041:6047   */\n      dup1\n        /* \"#utility.yul\":6090:6092   */\n      0x40\n        /* \"#utility.yul\":6078:6087   */\n      dup4\n        /* \"#utility.yul\":6069:6076   */\n      dup6\n        /* \"#utility.yul\":6065:6088   */\n      sub\n        /* \"#utility.yul\":6061:6093   */\n      slt\n        /* \"#utility.yul\":6058:6177   */\n      iszero\n      tag_325\n      jumpi\n        /* \"#utility.yul\":6096:6175   */\n      tag_326\n      tag_193\n      jump\t// in\n    tag_326:\n        /* \"#utility.yul\":6058:6177   */\n    tag_325:\n        /* \"#utility.yul\":6244:6245   */\n      0x00\n        /* \"#utility.yul\":6233:6242   */\n      dup4\n        /* \"#utility.yul\":6229:6246   */\n      add\n        /* \"#utility.yul\":6216:6247   */\n      calldataload\n        /* \"#utility.yul\":6274:6292   */\n      0xffffffffffffffff\n        /* \"#utility.yul\":6266:6272   */\n      dup2\n        /* \"#utility.yul\":6263:6293   */\n      gt\n        /* \"#utility.yul\":6260:6377   */\n      iszero\n      tag_327\n      jumpi\n        /* \"#utility.yul\":6296:6375   */\n      tag_328\n      tag_194\n      jump\t// in\n    tag_328:\n        /* \"#utility.yul\":6260:6377   */\n    tag_327:\n        /* \"#utility.yul\":6401:6464   */\n      tag_329\n        /* \"#utility.yul\":6456:6463   */\n      dup6\n        /* \"#utility.yul\":6447:6453   */\n      dup3\n        /* \"#utility.yul\":6436:6445   */\n      dup7\n        /* \"#utility.yul\":6432:6454   */\n      add\n        /* \"#utility.yul\":6401:6464   */\n      tag_215\n      jump\t// in\n    tag_329:\n        /* \"#utility.yul\":6391:6464   */\n      swap3\n      pop\n        /* \"#utility.yul\":6187:6474   */\n      pop\n        /* \"#utility.yul\":6513:6515   */\n      0x20\n        /* \"#utility.yul\":6539:6592   */\n      tag_330\n        /* \"#utility.yul\":6584:6591   */\n      dup6\n        /* \"#utility.yul\":6575:6581   */\n      dup3\n        /* \"#utility.yul\":6564:6573   */\n      dup7\n        /* \"#utility.yul\":6560:6582   */\n      add\n        /* \"#utility.yul\":6539:6592   */\n      tag_197\n      jump\t// in\n    tag_330:\n        /* \"#utility.yul\":6529:6592   */\n      swap2\n      pop\n        /* \"#utility.yul\":6484:6602   */\n      pop\n        /* \"#utility.yul\":5955:6609   */\n      swap3\n      pop\n      swap3\n      swap1\n      pop\n      jump\t// out\n        /* \"#utility.yul\":6615:6795   */\n    tag_91:\n        /* \"#utility.yul\":6663:6740   */\n      0x4e487b7100000000000000000000000000000000000000000000000000000000\n        /* \"#utility.yul\":6660:6661   */\n      0x00\n        /* \"#utility.yul\":6653:6741   */\n      mstore\n        /* \"#utility.yul\":6760:6764   */\n      0x21\n        /* \"#utility.yul\":6757:6758   */\n      0x04\n        /* \"#utility.yul\":6750:6765   */\n      mstore\n        /* \"#utility.yul\":6784:6788   */\n      0x24\n        /* \"#utility.yul\":6781:6782   */\n      0x00\n        /* \"#utility.yul\":6774:6789   */\n      revert\n        /* \"#utility.yul\":6801:6922   */\n    tag_216:\n        /* \"#utility.yul\":6890:6891   */\n      0x03\n        /* \"#utility.yul\":6883:6888   */\n      dup2\n        /* \"#utility.yul\":6880:6892   */\n      lt\n        /* \"#utility.yul\":6870:6916   */\n      tag_333\n      jumpi\n        /* \"#utility.yul\":6896:6914   */\n      tag_334\n      tag_91\n      jump\t// in\n    tag_334:\n        /* \"#utility.yul\":6870:6916   */\n    tag_333:\n        /* \"#utility.yul\":6801:6922   */\n      pop\n      jump\t// out\n        /* \"#utility.yul\":6928:7071   */\n    tag_217:\n        /* \"#utility.yul\":6981:6988   */\n      0x00\n        /* \"#utility.yul\":7010:7015   */\n      dup2\n        /* \"#utility.yul\":6999:7015   */\n      swap1\n      pop\n        /* \"#utility.yul\":7016:7065   */\n      tag_336\n        /* \"#utility.yul\":7059:7064   */\n      dup3\n        /* \"#utility.yul\":7016:7065   */\n      tag_216\n      jump\t// in\n    tag_336:\n        /* \"#utility.yul\":6928:7071   */\n      swap2\n      swap1\n      pop\n      jump\t// out\n        /* \"#utility.yul\":7077:7220   */\n    tag_218:\n        /* \"#utility.yul\":7141:7150   */\n      0x00\n        /* \"#utility.yul\":7174:7214   */\n      tag_338\n        /* \"#utility.yul\":7208:7213   */\n      dup3\n        /* \"#utility.yul\":7174:7214   */\n      tag_217\n      jump\t// in\n    tag_338:\n        /* \"#utility.yul\":7161:7214   */\n      swap1\n      pop\n        /* \"#utility.yul\":7077:7220   */\n      swap2\n      swap1\n      pop\n      jump\t// out\n        /* \"#utility.yul\":7226:7385   */\n    tag_219:\n        /* \"#utility.yul\":7327:7378   */\n      tag_340\n        /* \"#utility.yul\":7372:7377   */\n      dup2\n        /* \"#utility.yul\":7327:7378   */\n      tag_218\n      jump\t// in\n    tag_340:\n        /* \"#utility.yul\":7322:7325   */\n      dup3\n        /* \"#utility.yul\":7315:7379   */\n      mstore\n        /* \"#utility.yul\":7226:7385   */\n      pop\n      pop\n      jump\t// out\n        /* \"#utility.yul\":7391:7641   */\n    tag_65:\n        /* \"#utility.yul\":7498:7502   */\n      0x00\n        /* \"#utility.yul\":7536:7538   */\n      0x20\n        /* \"#utility.yul\":7525:7534   */\n      dup3\n        /* \"#utility.yul\":7521:7539   */\n      add\n        /* \"#utility.yul\":7513:7539   */\n      swap1\n      pop\n        /* \"#utility.yul\":7549:7634   */\n      tag_342\n        /* \"#utility.yul\":7631:7632   */\n      0x00\n        /* \"#utility.yul\":7620:7629   */\n      dup4\n        /* \"#utility.yul\":7616:7633   */\n      add\n        /* \"#utility.yul\":7607:7613   */\n      dup5\n        /* \"#utility.yul\":7549:7634   */\n      tag_219\n      jump\t// in\n    tag_342:\n        /* \"#utility.yul\":7391:7641   */\n      swap3\n      swap2\n      pop\n      pop\n      jump\t// out\n        /* \"#utility.yul\":7647:7827   */\n    tag_220:\n        /* \"#utility.yul\":7695:7772   */\n      0x4e487b7100000000000000000000000000000000000000000000000000000000\n        /* \"#utility.yul\":7692:7693   */\n      0x00\n        /* \"#utility.yul\":7685:7773   */\n      mstore\n        /* \"#utility.yul\":7792:7796   */\n      0x22\n        /* \"#utility.yul\":7789:7790   */\n      0x04\n        /* \"#utility.yul\":7782:7797   */\n      mstore\n        /* \"#utility.yul\":7816:7820   */\n      0x24\n        /* \"#utility.yul\":7813:7814   */\n      0x00\n        /* \"#utility.yul\":7806:7821   */\n      revert\n        /* \"#utility.yul\":7833:8153   */\n    tag_72:\n        /* \"#utility.yul\":7877:7883   */\n      0x00\n        /* \"#utility.yul\":7914:7915   */\n      0x02\n        /* \"#utility.yul\":7908:7912   */\n      dup3\n        /* \"#utility.yul\":7904:7916   */\n      div\n        /* \"#utility.yul\":7894:7916   */\n      swap1\n      pop\n        /* \"#utility.yul\":7961:7962   */\n      0x01\n        /* \"#utility.yul\":7955:7959   */\n      dup3\n        /* \"#utility.yul\":7951:7963   */\n      and\n        /* \"#utility.yul\":7982:8000   */\n      dup1\n        /* \"#utility.yul\":7972:8053   */\n      tag_345\n      jumpi\n        /* \"#utility.yul\":8038:8042   */\n      0x7f\n        /* \"#utility.yul\":8030:8036   */\n      dup3\n        /* \"#utility.yul\":8026:8043   */\n      and\n        /* \"#utility.yul\":8016:8043   */\n      swap2\n      pop\n        /* \"#utility.yul\":7972:8053   */\n    tag_345:\n        /* \"#utility.yul\":8100:8102   */\n      0x20\n        /* \"#utility.yul\":8092:8098   */\n      dup3\n        /* \"#utility.yul\":8089:8103   */\n      lt\n        /* \"#utility.yul\":8069:8087   */\n      dup2\n        /* \"#utility.yul\":8066:8104   */\n      sub\n        /* \"#utility.yul\":8063:8147   */\n      tag_346\n      jumpi\n        /* \"#utility.yul\":8119:8137   */\n      tag_347\n      tag_220\n      jump\t// in\n    tag_347:\n        /* \"#utility.yul\":8063:8147   */\n    tag_346:\n        /* \"#utility.yul\":7884:8153   */\n      pop\n        /* \"#utility.yul\":7833:8153   */\n      swap2\n      swap1\n      pop\n      jump\t// out\n        /* \"#utility.yul\":8159:8322   */\n    tag_221:\n        /* \"#utility.yul\":8299:8314   */\n      0x4e6f7420746865206f776e657200000000000000000000000000000000000000\n        /* \"#utility.yul\":8295:8296   */\n      0x00\n        /* \"#utility.yul\":8287:8293   */\n      dup3\n        /* \"#utility.yul\":8283:8297   */\n      add\n        /* \"#utility.yul\":8276:8315   */\n      mstore\n        /* \"#utility.yul\":8159:8322   */\n      pop\n      jump\t// out\n        /* \"#utility.yul\":8328:8694   */\n    tag_222:\n        /* \"#utility.yul\":8470:8473   */\n      0x00\n        /* \"#utility.yul\":8491:8558   */\n      tag_350\n        /* \"#utility.yul\":8555:8557   */\n      0x0d\n        /* \"#utility.yul\":8550:8553   */\n      dup4\n        /* \"#utility.yul\":8491:8558   */\n      tag_199\n      jump\t// in\n    tag_350:\n        /* \"#utility.yul\":8484:8558   */\n      swap2\n      pop\n        /* \"#utility.yul\":8567:8660   */\n      tag_351\n        /* \"#utility.yul\":8656:8659   */\n      dup3\n        /* \"#utility.yul\":8567:8660   */\n      tag_221\n      jump\t// in\n    tag_351:\n        /* \"#utility.yul\":8685:8687   */\n      0x20\n        /* \"#utility.yul\":8680:8683   */\n      dup3\n        /* \"#utility.yul\":8676:8688   */\n      add\n        /* \"#utility.yul\":8669:8688   */\n      swap1\n      pop\n        /* \"#utility.yul\":8328:8694   */\n      swap2\n      swap1\n      pop\n      jump\t// out\n        /* \"#utility.yul\":8700:9119   */\n    tag_85:\n        /* \"#utility.yul\":8866:8870   */\n      0x00\n        /* \"#utility.yul\":8904:8906   */\n      0x20\n        /* \"#utility.yul\":8893:8902   */\n      dup3\n        /* \"#utility.yul\":8889:8907   */\n      add\n        /* \"#utility.yul\":8881:8907   */\n      swap1\n      pop\n        /* \"#utility.yul\":8953:8962   */\n      dup2\n        /* \"#utility.yul\":8947:8951   */\n      dup2\n        /* \"#utility.yul\":8943:8963   */\n      sub\n        /* \"#utility.yul\":8939:8940   */\n      0x00\n        /* \"#utility.yul\":8928:8937   */\n      dup4\n        /* \"#utility.yul\":8924:8941   */\n      add\n        /* \"#utility.yul\":8917:8964   */\n      mstore\n        /* \"#utility.yul\":8981:9112   */\n      tag_353\n        /* \"#utility.yul\":9107:9111   */\n      dup2\n        /* \"#utility.yul\":8981:9112   */\n      tag_222\n      jump\t// in\n    tag_353:\n        /* \"#utility.yul\":8973:9112   */\n      swap1\n      pop\n        /* \"#utility.yul\":8700:9119   */\n      swap2\n      swap1\n      pop\n      jump\t// out\n        /* \"#utility.yul\":9125:9302   */\n    tag_223:\n        /* \"#utility.yul\":9265:9294   */\n      0x43616d706169676e206e6f74207375636365737366756c207965740000000000\n        /* \"#utility.yul\":9261:9262   */\n      0x00\n        /* \"#utility.yul\":9253:9259   */\n      dup3\n        /* \"#utility.yul\":9249:9263   */\n      add\n        /* \"#utility.yul\":9242:9295   */\n      mstore\n        /* \"#utility.yul\":9125:9302   */\n      pop\n      jump\t// out\n        /* \"#utility.yul\":9308:9674   */\n    tag_224:\n        /* \"#utility.yul\":9450:9453   */\n      0x00\n        /* \"#utility.yul\":9471:9538   */\n      tag_356\n        /* \"#utility.yul\":9535:9537   */\n      0x1b\n        /* \"#utility.yul\":9530:9533   */\n      dup4\n        /* \"#utility.yul\":9471:9538   */\n      tag_199\n      jump\t// in\n    tag_356:\n        /* \"#utility.yul\":9464:9538   */\n      swap2\n      pop\n        /* \"#utility.yul\":9547:9640   */\n      tag_357\n        /* \"#utility.yul\":9636:9639   */\n      dup3\n        /* \"#utility.yul\":9547:9640   */\n      tag_223\n      jump\t// in\n    tag_357:\n        /* \"#utility.yul\":9665:9667   */\n      0x20\n        /* \"#utility.yul\":9660:9663   */\n      dup3\n        /* \"#utility.yul\":9656:9668   */\n      add\n        /* \"#utility.yul\":9649:9668   */\n      swap1\n      pop\n        /* \"#utility.yul\":9308:9674   */\n      swap2\n      swap1\n      pop\n      jump\t// out\n        /* \"#utility.yul\":9680:10099   */\n    tag_96:\n        /* \"#utility.yul\":9846:9850   */\n      0x00\n        /* \"#utility.yul\":9884:9886   */\n      0x20\n        /* \"#utility.yul\":9873:9882   */\n      dup3\n        /* \"#utility.yul\":9869:9887   */\n      add\n        /* \"#utility.yul\":9861:9887   */\n      swap1\n      pop\n        /* \"#utility.yul\":9933:9942   */\n      dup2\n        /* \"#utility.yul\":9927:9931   */\n      dup2\n        /* \"#utility.yul\":9923:9943   */\n      sub\n        /* \"#utility.yul\":9919:9920   */\n      0x00\n        /* \"#utility.yul\":9908:9917   */\n      dup4\n        /* \"#utility.yul\":9904:9921   */\n      add\n        /* \"#utility.yul\":9897:9944   */\n      mstore\n        /* \"#utility.yul\":9961:10092   */\n      tag_359\n        /* \"#utility.yul\":10087:10091   */\n      dup2\n        /* \"#utility.yul\":9961:10092   */\n      tag_224\n      jump\t// in\n    tag_359:\n        /* \"#utility.yul\":9953:10092   */\n      swap1\n      pop\n        /* \"#utility.yul\":9680:10099   */\n      swap2\n      swap1\n      pop\n      jump\t// out\n        /* \"#utility.yul\":10105:10277   */\n    tag_225:\n        /* \"#utility.yul\":10245:10269   */\n      0x4e6f2062616c616e636520746f20776974686472617700000000000000000000\n        /* \"#utility.yul\":10241:10242   */\n      0x00\n        /* \"#utility.yul\":10233:10239   */\n      dup3\n        /* \"#utility.yul\":10229:10243   */\n      add\n        /* \"#utility.yul\":10222:10270   */\n      mstore\n        /* \"#utility.yul\":10105:10277   */\n      pop\n      jump\t// out\n        /* \"#utility.yul\":10283:10649   */\n    tag_226:\n        /* \"#utility.yul\":10425:10428   */\n      0x00\n        /* \"#utility.yul\":10446:10513   */\n      tag_362\n        /* \"#utility.yul\":10510:10512   */\n      0x16\n        /* \"#utility.yul\":10505:10508   */\n      dup4\n        /* \"#utility.yul\":10446:10513   */\n      tag_199\n      jump\t// in\n    tag_362:\n        /* \"#utility.yul\":10439:10513   */\n      swap2\n      pop\n        /* \"#utility.yul\":10522:10615   */\n      tag_363\n        /* \"#utility.yul\":10611:10614   */\n      dup3\n        /* \"#utility.yul\":10522:10615   */\n      tag_225\n      jump\t// in\n    tag_363:\n        /* \"#utility.yul\":10640:10642   */\n      0x20\n        /* \"#utility.yul\":10635:10638   */\n      dup3\n        /* \"#utility.yul\":10631:10643   */\n      add\n        /* \"#utility.yul\":10624:10643   */\n      swap1\n      pop\n        /* \"#utility.yul\":10283:10649   */\n      swap2\n      swap1\n      pop\n      jump\t// out\n        /* \"#utility.yul\":10655:11074   */\n    tag_99:\n        /* \"#utility.yul\":10821:10825   */\n      0x00\n        /* \"#utility.yul\":10859:10861   */\n      0x20\n        /* \"#utility.yul\":10848:10857   */\n      dup3\n        /* \"#utility.yul\":10844:10862   */\n      add\n        /* \"#utility.yul\":10836:10862   */\n      swap1\n      pop\n        /* \"#utility.yul\":10908:10917   */\n      dup2\n        /* \"#utility.yul\":10902:10906   */\n      dup2\n        /* \"#utility.yul\":10898:10918   */\n      sub\n        /* \"#utility.yul\":10894:10895   */\n      0x00\n        /* \"#utility.yul\":10883:10892   */\n      dup4\n        /* \"#utility.yul\":10879:10896   */\n      add\n        /* \"#utility.yul\":10872:10919   */\n      mstore\n        /* \"#utility.yul\":10936:11067   */\n      tag_365\n        /* \"#utility.yul\":11062:11066   */\n      dup2\n        /* \"#utility.yul\":10936:11067   */\n      tag_226\n      jump\t// in\n    tag_365:\n        /* \"#utility.yul\":10928:11067   */\n      swap1\n      pop\n        /* \"#utility.yul\":10655:11074   */\n      swap2\n      swap1\n      pop\n      jump\t// out\n        /* \"#utility.yul\":11080:11249   */\n    tag_227:\n        /* \"#utility.yul\":11220:11241   */\n      0x5469657220646f6573206e6f7420657869737400000000000000000000000000\n        /* \"#utility.yul\":11216:11217   */\n      0x00\n        /* \"#utility.yul\":11208:11214   */\n      dup3\n        /* \"#utility.yul\":11204:11218   */\n      add\n        /* \"#utility.yul\":11197:11242   */\n      mstore\n        /* \"#utility.yul\":11080:11249   */\n      pop\n      jump\t// out\n        /* \"#utility.yul\":11255:11621   */\n    tag_228:\n        /* \"#utility.yul\":11397:11400   */\n      0x00\n        /* \"#utility.yul\":11418:11485   */\n      tag_368\n        /* \"#utility.yul\":11482:11484   */\n      0x13\n        /* \"#utility.yul\":11477:11480   */\n      dup4\n        /* \"#utility.yul\":11418:11485   */\n      tag_199\n      jump\t// in\n    tag_368:\n        /* \"#utility.yul\":11411:11485   */\n      swap2\n      pop\n        /* \"#utility.yul\":11494:11587   */\n      tag_369\n        /* \"#utility.yul\":11583:11586   */\n      dup3\n        /* \"#utility.yul\":11494:11587   */\n      tag_227\n      jump\t// in\n    tag_369:\n        /* \"#utility.yul\":11612:11614   */\n      0x20\n        /* \"#utility.yul\":11607:11610   */\n      dup3\n        /* \"#utility.yul\":11603:11615   */\n      add\n        /* \"#utility.yul\":11596:11615   */\n      swap1\n      pop\n        /* \"#utility.yul\":11255:11621   */\n      swap2\n      swap1\n      pop\n      jump\t// out\n        /* \"#utility.yul\":11627:12046   */\n    tag_114:\n        /* \"#utility.yul\":11793:11797   */\n      0x00\n        /* \"#utility.yul\":11831:11833   */\n      0x20\n        /* \"#utility.yul\":11820:11829   */\n      dup3\n        /* \"#utility.yul\":11816:11834   */\n      add\n        /* \"#utility.yul\":11808:11834   */\n      swap1\n      pop\n        /* \"#utility.yul\":11880:11889   */\n      dup2\n        /* \"#utility.yul\":11874:11878   */\n      dup2\n        /* \"#utility.yul\":11870:11890   */\n      sub\n        /* \"#utility.yul\":11866:11867   */\n      0x00\n        /* \"#utility.yul\":11855:11864   */\n      dup4\n        /* \"#utility.yul\":11851:11868   */\n      add\n        /* \"#utility.yul\":11844:11891   */\n      mstore\n        /* \"#utility.yul\":11908:12039   */\n      tag_371\n        /* \"#utility.yul\":12034:12038   */\n      dup2\n        /* \"#utility.yul\":11908:12039   */\n      tag_228\n      jump\t// in\n    tag_371:\n        /* \"#utility.yul\":11900:12039   */\n      swap1\n      pop\n        /* \"#utility.yul\":11627:12046   */\n      swap2\n      swap1\n      pop\n      jump\t// out\n        /* \"#utility.yul\":12052:12232   */\n    tag_229:\n        /* \"#utility.yul\":12100:12177   */\n      0x4e487b7100000000000000000000000000000000000000000000000000000000\n        /* \"#utility.yul\":12097:12098   */\n      0x00\n        /* \"#utility.yul\":12090:12178   */\n      mstore\n        /* \"#utility.yul\":12197:12201   */\n      0x11\n        /* \"#utility.yul\":12194:12195   */\n      0x04\n        /* \"#utility.yul\":12187:12202   */\n      mstore\n        /* \"#utility.yul\":12221:12225   */\n      0x24\n        /* \"#utility.yul\":12218:12219   */\n      0x00\n        /* \"#utility.yul\":12211:12226   */\n      revert\n        /* \"#utility.yul\":12238:12432   */\n    tag_116:\n        /* \"#utility.yul\":12278:12282   */\n      0x00\n        /* \"#utility.yul\":12298:12318   */\n      tag_374\n        /* \"#utility.yul\":12316:12317   */\n      dup3\n        /* \"#utility.yul\":12298:12318   */\n      tag_195\n      jump\t// in\n    tag_374:\n        /* \"#utility.yul\":12293:12318   */\n      swap2\n      pop\n        /* \"#utility.yul\":12332:12352   */\n      tag_375\n        /* \"#utility.yul\":12350:12351   */\n      dup4\n        /* \"#utility.yul\":12332:12352   */\n      tag_195\n      jump\t// in\n    tag_375:\n        /* \"#utility.yul\":12327:12352   */\n      swap3\n      pop\n        /* \"#utility.yul\":12376:12377   */\n      dup3\n        /* \"#utility.yul\":12373:12374   */\n      dup3\n        /* \"#utility.yul\":12369:12378   */\n      sub\n        /* \"#utility.yul\":12361:12378   */\n      swap1\n      pop\n        /* \"#utility.yul\":12400:12401   */\n      dup2\n        /* \"#utility.yul\":12394:12398   */\n      dup2\n        /* \"#utility.yul\":12391:12402   */\n      gt\n        /* \"#utility.yul\":12388:12425   */\n      iszero\n      tag_376\n      jumpi\n        /* \"#utility.yul\":12405:12423   */\n      tag_377\n      tag_229\n      jump\t// in\n    tag_377:\n        /* \"#utility.yul\":12388:12425   */\n    tag_376:\n        /* \"#utility.yul\":12238:12432   */\n      swap3\n      swap2\n      pop\n      pop\n      jump\t// out\n        /* \"#utility.yul\":12438:12618   */\n    tag_119:\n        /* \"#utility.yul\":12486:12563   */\n      0x4e487b7100000000000000000000000000000000000000000000000000000000\n        /* \"#utility.yul\":12483:12484   */\n      0x00\n        /* \"#utility.yul\":12476:12564   */\n      mstore\n        /* \"#utility.yul\":12583:12587   */\n      0x32\n        /* \"#utility.yul\":12580:12581   */\n      0x04\n        /* \"#utility.yul\":12573:12588   */\n      mstore\n        /* \"#utility.yul\":12607:12611   */\n      0x24\n        /* \"#utility.yul\":12604:12605   */\n      0x00\n        /* \"#utility.yul\":12597:12612   */\n      revert\n        /* \"#utility.yul\":12624:12773   */\n    tag_230:\n        /* \"#utility.yul\":12673:12679   */\n      0x00\n        /* \"#utility.yul\":12707:12712   */\n      dup2\n        /* \"#utility.yul\":12701:12713   */\n      sload\n        /* \"#utility.yul\":12691:12713   */\n      swap1\n      pop\n        /* \"#utility.yul\":12733:12766   */\n      tag_380\n        /* \"#utility.yul\":12759:12765   */\n      dup2\n        /* \"#utility.yul\":12733:12766   */\n      tag_72\n      jump\t// in\n    tag_380:\n        /* \"#utility.yul\":12723:12766   */\n      swap1\n      pop\n        /* \"#utility.yul\":12624:12773   */\n      swap2\n      swap1\n      pop\n      jump\t// out\n        /* \"#utility.yul\":12779:12920   */\n    tag_231:\n        /* \"#utility.yul\":12828:12832   */\n      0x00\n        /* \"#utility.yul\":12851:12854   */\n      dup2\n        /* \"#utility.yul\":12843:12854   */\n      swap1\n      pop\n        /* \"#utility.yul\":12874:12877   */\n      dup2\n        /* \"#utility.yul\":12871:12872   */\n      0x00\n        /* \"#utility.yul\":12864:12878   */\n      mstore\n        /* \"#utility.yul\":12908:12912   */\n      0x20\n        /* \"#utility.yul\":12905:12906   */\n      0x00\n        /* \"#utility.yul\":12895:12913   */\n      keccak256\n        /* \"#utility.yul\":12887:12913   */\n      swap1\n      pop\n        /* \"#utility.yul\":12779:12920   */\n      swap2\n      swap1\n      pop\n      jump\t// out\n        /* \"#utility.yul\":12926:13019   */\n    tag_232:\n        /* \"#utility.yul\":12963:12969   */\n      0x00\n        /* \"#utility.yul\":13010:13012   */\n      0x20\n        /* \"#utility.yul\":13005:13007   */\n      0x1f\n        /* \"#utility.yul\":12998:13003   */\n      dup4\n        /* \"#utility.yul\":12994:13008   */\n      add\n        /* \"#utility.yul\":12990:13013   */\n      div\n        /* \"#utility.yul\":12980:13013   */\n      swap1\n      pop\n        /* \"#utility.yul\":12926:13019   */\n      swap2\n      swap1\n      pop\n      jump\t// out\n        /* \"#utility.yul\":13025:13132   */\n    tag_233:\n        /* \"#utility.yul\":13069:13077   */\n      0x00\n        /* \"#utility.yul\":13119:13124   */\n      dup3\n        /* \"#utility.yul\":13113:13117   */\n      dup3\n        /* \"#utility.yul\":13109:13125   */\n      shl\n        /* \"#utility.yul\":13088:13125   */\n      swap1\n      pop\n        /* \"#utility.yul\":13025:13132   */\n      swap3\n      swap2\n      pop\n      pop\n      jump\t// out\n        /* \"#utility.yul\":13138:13531   */\n    tag_234:\n        /* \"#utility.yul\":13207:13213   */\n      0x00\n        /* \"#utility.yul\":13257:13258   */\n      0x08\n        /* \"#utility.yul\":13245:13255   */\n      dup4\n        /* \"#utility.yul\":13241:13259   */\n      mul\n        /* \"#utility.yul\":13280:13377   */\n      tag_385\n        /* \"#utility.yul\":13310:13376   */\n      0xffffffffffffffffffffffffffffffffffffffffffffffffffffffffffffffff\n        /* \"#utility.yul\":13299:13308   */\n      dup3\n        /* \"#utility.yul\":13280:13377   */\n      tag_233\n      jump\t// in\n    tag_385:\n        /* \"#utility.yul\":13398:13437   */\n      tag_386\n        /* \"#utility.yul\":13428:13436   */\n      dup7\n        /* \"#utility.yul\":13417:13426   */\n      dup4\n        /* \"#utility.yul\":13398:13437   */\n      tag_233\n      jump\t// in\n    tag_386:\n        /* \"#utility.yul\":13386:13437   */\n      swap6\n      pop\n        /* \"#utility.yul\":13470:13474   */\n      dup1\n        /* \"#utility.yul\":13466:13475   */\n      not\n        /* \"#utility.yul\":13459:13464   */\n      dup5\n        /* \"#utility.yul\":13455:13476   */\n      and\n        /* \"#utility.yul\":13446:13476   */\n      swap4\n      pop\n        /* \"#utility.yul\":13519:13523   */\n      dup1\n        /* \"#utility.yul\":13509:13517   */\n      dup7\n        /* \"#utility.yul\":13505:13524   */\n      and\n        /* \"#utility.yul\":13498:13503   */\n      dup5\n        /* \"#utility.yul\":13495:13525   */\n      or\n        /* \"#utility.yul\":13485:13525   */\n      swap3\n      pop\n        /* \"#utility.yul\":13214:13531   */\n      pop\n      pop\n        /* \"#utility.yul\":13138:13531   */\n      swap4\n      swap3\n      pop\n      pop\n      pop\n      jump\t// out\n        /* \"#utility.yul\":13537:13597   */\n    tag_235:\n        /* \"#utility.yul\":13565:13568   */\n      0x00\n        /* \"#utility.yul\":13586:13591   */\n      dup2\n        /* \"#utility.yul\":13579:13591   */\n      swap1\n      pop\n        /* \"#utility.yul\":13537:13597   */\n      swap2\n      swap1\n      pop\n      jump\t// out\n        /* \"#utility.yul\":13603:13745   */\n    tag_236:\n        /* \"#utility.yul\":13653:13662   */\n      0x00\n        /* \"#utility.yul\":13686:13739   */\n      tag_389\n        /* \"#utility.yul\":13704:13738   */\n      tag_390\n        /* \"#utility.yul\":13713:13737   */\n      tag_391\n        /* \"#utility.yul\":13731:13736   */\n      dup5\n        /* \"#utility.yul\":13713:13737   */\n      tag_195\n      jump\t// in\n    tag_391:\n        /* \"#utility.yul\":13704:13738   */\n      tag_235\n      jump\t// in\n    tag_390:\n        /* \"#utility.yul\":13686:13739   */\n      tag_195\n      jump\t// in\n    tag_389:\n        /* \"#utility.yul\":13673:13739   */\n      swap1\n      pop\n        /* \"#utility.yul\":13603:13745   */\n      swap2\n      swap1\n      pop\n      jump\t// out\n        /* \"#utility.yul\":13751:13826   */\n    tag_237:\n        /* \"#utility.yul\":13794:13797   */\n      0x00\n        /* \"#utility.yul\":13815:13820   */\n      dup2\n        /* \"#utility.yul\":13808:13820   */\n      swap1\n      pop\n        /* \"#utility.yul\":13751:13826   */\n      swap2\n      swap1\n      pop\n      jump\t// out\n        /* \"#utility.yul\":13832:14101   */\n    tag_238:\n        /* \"#utility.yul\":13942:13981   */\n      tag_394\n        /* \"#utility.yul\":13973:13980   */\n      dup4\n        /* \"#utility.yul\":13942:13981   */\n      tag_236\n      jump\t// in\n    tag_394:\n        /* \"#utility.yul\":14003:14094   */\n      tag_395\n        /* \"#utility.yul\":14052:14093   */\n      tag_396\n        /* \"#utility.yul\":14076:14092   */\n      dup3\n        /* \"#utility.yul\":14052:14093   */\n      tag_237\n      jump\t// in\n    tag_396:\n        /* \"#utility.yul\":14044:14050   */\n      dup5\n        /* \"#utility.yul\":14037:14041   */\n      dup5\n        /* \"#utility.yul\":14031:14042   */\n      sload\n        /* \"#utility.yul\":14003:14094   */\n      tag_234\n      jump\t// in\n    tag_395:\n        /* \"#utility.yul\":13997:14001   */\n      dup3\n        /* \"#utility.yul\":13990:14095   */\n      sstore\n        /* \"#utility.yul\":13908:14101   */\n      pop\n        /* \"#utility.yul\":13832:14101   */\n      pop\n      pop\n      pop\n      jump\t// out\n        /* \"#utility.yul\":14107:14180   */\n    tag_239:\n        /* \"#utility.yul\":14152:14155   */\n      0x00\n        /* \"#utility.yul\":14107:14180   */\n      swap1\n      jump\t// out\n        /* \"#utility.yul\":14186:14375   */\n    tag_240:\n        /* \"#utility.yul\":14263:14295   */\n      tag_399\n      tag_239\n      jump\t// in\n    tag_399:\n        /* \"#utility.yul\":14304:14369   */\n      tag_400\n        /* \"#utility.yul\":14362:14368   */\n      dup2\n        /* \"#utility.yul\":14354:14360   */\n      dup5\n        /* \"#utility.yul\":14348:14352   */\n      dup5\n        /* \"#utility.yul\":14304:14369   */\n      tag_238\n      jump\t// in\n    tag_400:\n        /* \"#utility.yul\":14239:14375   */\n      pop\n        /* \"#utility.yul\":14186:14375   */\n      pop\n      pop\n      jump\t// out\n        /* \"#utility.yul\":14381:14567   */\n    tag_241:\n        /* \"#utility.yul\":14441:14561   */\n    tag_402:\n        /* \"#utility.yul\":14458:14461   */\n      dup2\n        /* \"#utility.yul\":14451:14456   */\n      dup2\n        /* \"#utility.yul\":14448:14462   */\n      lt\n        /* \"#utility.yul\":14441:14561   */\n      iszero\n      tag_404\n      jumpi\n        /* \"#utility.yul\":14512:14551   */\n      tag_405\n        /* \"#utility.yul\":14549:14550   */\n      0x00\n        /* \"#utility.yul\":14542:14547   */\n      dup3\n        /* \"#utility.yul\":14512:14551   */\n      tag_240\n      jump\t// in\n    tag_405:\n        /* \"#utility.yul\":14485:14486   */\n      0x01\n        /* \"#utility.yul\":14478:14483   */\n      dup2\n        /* \"#utility.yul\":14474:14487   */\n      add\n        /* \"#utility.yul\":14465:14487   */\n      swap1\n      pop\n        /* \"#utility.yul\":14441:14561   */\n      jump(tag_402)\n    tag_404:\n        /* \"#utility.yul\":14381:14567   */\n      pop\n      pop\n      jump\t// out\n        /* \"#utility.yul\":14573:15116   */\n    tag_242:\n        /* \"#utility.yul\":14674:14676   */\n      0x1f\n        /* \"#utility.yul\":14669:14672   */\n      dup3\n        /* \"#utility.yul\":14666:14677   */\n      gt\n        /* \"#utility.yul\":14663:15109   */\n      iszero\n      tag_407\n      jumpi\n        /* \"#utility.yul\":14708:14746   */\n      tag_408\n        /* \"#utility.yul\":14740:14745   */\n      dup2\n        /* \"#utility.yul\":14708:14746   */\n      tag_231\n      jump\t// in\n    tag_408:\n        /* \"#utility.yul\":14792:14821   */\n      tag_409\n        /* \"#utility.yul\":14810:14820   */\n      dup5\n        /* \"#utility.yul\":14792:14821   */\n      tag_232\n      jump\t// in\n    tag_409:\n        /* \"#utility.yul\":14782:14790   */\n      dup2\n        /* \"#utility.yul\":14778:14822   */\n      add\n        /* \"#utility.yul\":14975:14977   */\n      0x20\n        /* \"#utility.yul\":14963:14973   */\n      dup6\n        /* \"#utility.yul\":14960:14978   */\n      lt\n        /* \"#utility.yul\":14957:15006   */\n      iszero\n      tag_410\n      jumpi\n        /* \"#utility.yul\":14996:15004   */\n      dup2\n        /* \"#utility.yul\":14981:15004   */\n      swap1\n      pop\n        /* \"#utility.yul\":14957:15006   */\n    tag_410:\n        /* \"#utility.yul\":15019:15099   */\n      tag_411\n        /* \"#utility.yul\":15075:15097   */\n      tag_412\n        /* \"#utility.yul\":15093:15096   */\n      dup6\n        /* \"#utility.yul\":15075:15097   */\n      tag_232\n      jump\t// in\n    tag_412:\n        /* \"#utility.yul\":15065:15073   */\n      dup4\n        /* \"#utility.yul\":15061:15098   */\n      add\n        /* \"#utility.yul\":15048:15059   */\n      dup3\n        /* \"#utility.yul\":15019:15099   */\n      tag_241\n      jump\t// in\n    tag_411:\n        /* \"#utility.yul\":14678:15109   */\n      pop\n      pop\n        /* \"#utility.yul\":14663:15109   */\n    tag_407:\n        /* \"#utility.yul\":14573:15116   */\n      pop\n      pop\n      pop\n      jump\t// out\n        /* \"#utility.yul\":15122:15239   */\n    tag_243:\n        /* \"#utility.yul\":15176:15184   */\n      0x00\n        /* \"#utility.yul\":15226:15231   */\n      dup3\n        /* \"#utility.yul\":15220:15224   */\n      dup3\n        /* \"#utility.yul\":15216:15232   */\n      shr\n        /* \"#utility.yul\":15195:15232   */\n      swap1\n      pop\n        /* \"#utility.yul\":15122:15239   */\n      swap3\n      swap2\n      pop\n      pop\n      jump\t// out\n        /* \"#utility.yul\":15245:15414   */\n    tag_244:\n        /* \"#utility.yul\":15289:15295   */\n      0x00\n        /* \"#utility.yul\":15322:15373   */\n      tag_415\n        /* \"#utility.yul\":15370:15371   */\n      0x00\n        /* \"#utility.yul\":15366:15372   */\n      not\n        /* \"#utility.yul\":15358:15363   */\n      dup5\n        /* \"#utility.yul\":15355:15356   */\n      0x08\n        /* \"#utility.yul\":15351:15364   */\n      mul\n        /* \"#utility.yul\":15322:15373   */\n      tag_243\n      jump\t// in\n    tag_415:\n        /* \"#utility.yul\":15318:15374   */\n      not\n        /* \"#utility.yul\":15403:15407   */\n      dup1\n        /* \"#utility.yul\":15397:15401   */\n      dup4\n        /* \"#utility.yul\":15393:15408   */\n      and\n        /* \"#utility.yul\":15383:15408   */\n      swap2\n      pop\n        /* \"#utility.yul\":15296:15414   */\n      pop\n        /* \"#utility.yul\":15245:15414   */\n      swap3\n      swap2\n      pop\n      pop\n      jump\t// out\n        /* \"#utility.yul\":15419:15714   */\n    tag_245:\n        /* \"#utility.yul\":15495:15499   */\n      0x00\n        /* \"#utility.yul\":15641:15670   */\n      tag_417\n        /* \"#utility.yul\":15666:15669   */\n      dup4\n        /* \"#utility.yul\":15660:15664   */\n      dup4\n        /* \"#utility.yul\":15641:15670   */\n      tag_244\n      jump\t// in\n    tag_417:\n        /* \"#utility.yul\":15633:15670   */\n      swap2\n      pop\n        /* \"#utility.yul\":15703:15706   */\n      dup3\n        /* \"#utility.yul\":15700:15701   */\n      0x02\n        /* \"#utility.yul\":15696:15707   */\n      mul\n        /* \"#utility.yul\":15690:15694   */\n      dup3\n        /* \"#utility.yul\":15687:15708   */\n      or\n        /* \"#utility.yul\":15679:15708   */\n      swap1\n      pop\n        /* \"#utility.yul\":15419:15714   */\n      swap3\n      swap2\n      pop\n      pop\n      jump\t// out\n        /* \"#utility.yul\":15719:17170   */\n    tag_125:\n        /* \"#utility.yul\":15830:15833   */\n      dup2\n        /* \"#utility.yul\":15824:15828   */\n      dup2\n        /* \"#utility.yul\":15821:15834   */\n      sub\n        /* \"#utility.yul\":15818:15844   */\n      tag_419\n      jumpi\n        /* \"#utility.yul\":15837:15842   */\n      pop\n      pop\n      jump(tag_418)\n        /* \"#utility.yul\":15818:15844   */\n    tag_419:\n        /* \"#utility.yul\":15868:15902   */\n      tag_420\n        /* \"#utility.yul\":15898:15901   */\n      dup3\n        /* \"#utility.yul\":15868:15902   */\n      tag_230\n      jump\t// in\n    tag_420:\n        /* \"#utility.yul\":15967:15985   */\n      0xffffffffffffffff\n        /* \"#utility.yul\":15959:15965   */\n      dup2\n        /* \"#utility.yul\":15956:15986   */\n      gt\n        /* \"#utility.yul\":15953:16009   */\n      iszero\n      tag_421\n      jumpi\n        /* \"#utility.yul\":15989:16007   */\n      tag_422\n      tag_209\n      jump\t// in\n    tag_422:\n        /* \"#utility.yul\":15953:16009   */\n    tag_421:\n        /* \"#utility.yul\":16033:16071   */\n      tag_423\n        /* \"#utility.yul\":16065:16069   */\n      dup3\n        /* \"#utility.yul\":16059:16070   */\n      sload\n        /* \"#utility.yul\":16033:16071   */\n      tag_72\n      jump\t// in\n    tag_423:\n        /* \"#utility.yul\":16118:16185   */\n      tag_424\n        /* \"#utility.yul\":16178:16184   */\n      dup3\n        /* \"#utility.yul\":16170:16176   */\n      dup3\n        /* \"#utility.yul\":16164:16168   */\n      dup6\n        /* \"#utility.yul\":16118:16185   */\n      tag_242\n      jump\t// in\n    tag_424:\n        /* \"#utility.yul\":16212:16213   */\n      0x00\n        /* \"#utility.yul\":16241:16243   */\n      0x1f\n        /* \"#utility.yul\":16233:16239   */\n      dup4\n        /* \"#utility.yul\":16230:16244   */\n      gt\n        /* \"#utility.yul\":16258:16259   */\n      0x01\n        /* \"#utility.yul\":16253:16925   */\n      dup2\n      eq\n      tag_426\n      jumpi\n        /* \"#utility.yul\":16969:16970   */\n      0x00\n        /* \"#utility.yul\":16986:16992   */\n      dup5\n        /* \"#utility.yul\":16983:17060   */\n      iszero\n      tag_427\n      jumpi\n        /* \"#utility.yul\":17035:17044   */\n      dup3\n        /* \"#utility.yul\":17030:17033   */\n      dup8\n        /* \"#utility.yul\":17026:17045   */\n      add\n        /* \"#utility.yul\":17020:17046   */\n      sload\n        /* \"#utility.yul\":17011:17046   */\n      swap1\n      pop\n        /* \"#utility.yul\":16983:17060   */\n    tag_427:\n        /* \"#utility.yul\":17086:17153   */\n      tag_428\n        /* \"#utility.yul\":17146:17152   */\n      dup6\n        /* \"#utility.yul\":17139:17144   */\n      dup3\n        /* \"#utility.yul\":17086:17153   */\n      tag_245\n      jump\t// in\n    tag_428:\n        /* \"#utility.yul\":17080:17084   */\n      dup7\n        /* \"#utility.yul\":17073:17154   */\n      sstore\n        /* \"#utility.yul\":16942:17164   */\n      pop\n        /* \"#utility.yul\":16223:17164   */\n      jump(tag_425)\n        /* \"#utility.yul\":16253:16925   */\n    tag_426:\n        /* \"#utility.yul\":16305:16309   */\n      0x1f\n        /* \"#utility.yul\":16301:16310   */\n      not\n        /* \"#utility.yul\":16293:16299   */\n      dup5\n        /* \"#utility.yul\":16289:16311   */\n      and\n        /* \"#utility.yul\":16331:16367   */\n      tag_429\n        /* \"#utility.yul\":16363:16366   */\n      dup8\n        /* \"#utility.yul\":16331:16367   */\n      tag_231\n      jump\t// in\n    tag_429:\n        /* \"#utility.yul\":16324:16367   */\n      swap7\n      pop\n        /* \"#utility.yul\":16394:16431   */\n      tag_430\n        /* \"#utility.yul\":16426:16430   */\n      dup7\n        /* \"#utility.yul\":16394:16431   */\n      tag_231\n      jump\t// in\n    tag_430:\n        /* \"#utility.yul\":16453:16454   */\n      0x00\n        /* \"#utility.yul\":16467:16674   */\n    tag_431:\n        /* \"#utility.yul\":16481:16488   */\n      dup3\n        /* \"#utility.yul\":16478:16479   */\n      dup2\n        /* \"#utility.yul\":16475:16489   */\n      lt\n        /* \"#utility.yul\":16467:16674   */\n      iszero\n      tag_433\n      jumpi\n        /* \"#utility.yul\":16560:16569   */\n      dup5\n        /* \"#utility.yul\":16555:16558   */\n      dup10\n        /* \"#utility.yul\":16551:16570   */\n      add\n        /* \"#utility.yul\":16545:16571   */\n      sload\n        /* \"#utility.yul\":16537:16543   */\n      dup3\n        /* \"#utility.yul\":16530:16572   */\n      sstore\n        /* \"#utility.yul\":16611:16612   */\n      0x01\n        /* \"#utility.yul\":16603:16609   */\n      dup3\n        /* \"#utility.yul\":16599:16613   */\n      add\n        /* \"#utility.yul\":16589:16613   */\n      swap2\n      pop\n        /* \"#utility.yul\":16658:16659   */\n      0x01\n        /* \"#utility.yul\":16647:16656   */\n      dup6\n        /* \"#utility.yul\":16643:16660   */\n      add\n        /* \"#utility.yul\":16630:16660   */\n      swap5\n      pop\n        /* \"#utility.yul\":16504:16508   */\n      0x20\n        /* \"#utility.yul\":16501:16502   */\n      dup2\n        /* \"#utility.yul\":16497:16509   */\n      add\n        /* \"#utility.yul\":16492:16509   */\n      swap1\n      pop\n        /* \"#utility.yul\":16467:16674   */\n      jump(tag_431)\n    tag_433:\n        /* \"#utility.yul\":16702:16708   */\n      dup7\n        /* \"#utility.yul\":16693:16700   */\n      dup4\n        /* \"#utility.yul\":16690:16709   */\n      lt\n        /* \"#utility.yul\":16687:16866   */\n      iszero\n      tag_434\n      jumpi\n        /* \"#utility.yul\":16760:16769   */\n      dup5\n        /* \"#utility.yul\":16755:16758   */\n      dup10\n        /* \"#utility.yul\":16751:16770   */\n      add\n        /* \"#utility.yul\":16745:16771   */\n      sload\n        /* \"#utility.yul\":16803:16851   */\n      tag_435\n        /* \"#utility.yul\":16845:16849   */\n      0x1f\n        /* \"#utility.yul\":16837:16843   */\n      dup10\n        /* \"#utility.yul\":16833:16850   */\n      and\n        /* \"#utility.yul\":16822:16831   */\n      dup3\n        /* \"#utility.yul\":16803:16851   */\n      tag_244\n      jump\t// in\n    tag_435:\n        /* \"#utility.yul\":16795:16801   */\n      dup4\n        /* \"#utility.yul\":16788:16852   */\n      sstore\n        /* \"#utility.yul\":16710:16866   */\n      pop\n        /* \"#utility.yul\":16687:16866   */\n    tag_434:\n        /* \"#utility.yul\":16912:16913   */\n      0x01\n        /* \"#utility.yul\":16908:16909   */\n      0x02\n        /* \"#utility.yul\":16900:16906   */\n      dup9\n        /* \"#utility.yul\":16896:16910   */\n      mul\n        /* \"#utility.yul\":16892:16914   */\n      add\n        /* \"#utility.yul\":16886:16890   */\n      dup9\n        /* \"#utility.yul\":16879:16915   */\n      sstore\n        /* \"#utility.yul\":16260:16925   */\n      pop\n      pop\n      pop\n        /* \"#utility.yul\":16223:17164   */\n    tag_425:\n      pop\n        /* \"#utility.yul\":15808:17170   */\n      pop\n      pop\n      pop\n        /* \"#utility.yul\":15719:17170   */\n      pop\n      pop\n    tag_418:\n      jump\t// out\n        /* \"#utility.yul\":17176:17356   */\n    tag_128:\n        /* \"#utility.yul\":17224:17301   */\n      0x4e487b7100000000000000000000000000000000000000000000000000000000\n        /* \"#utility.yul\":17221:17222   */\n      0x00\n        /* \"#utility.yul\":17214:17302   */\n      mstore\n        /* \"#utility.yul\":17321:17325   */\n      0x31\n        /* \"#utility.yul\":17318:17319   */\n      0x04\n        /* \"#utility.yul\":17311:17326   */\n      mstore\n        /* \"#utility.yul\":17345:17349   */\n      0x24\n        /* \"#utility.yul\":17342:17343   */\n      0x00\n        /* \"#utility.yul\":17335:17350   */\n      revert\n        /* \"#utility.yul\":17362:17542   */\n    tag_246:\n        /* \"#utility.yul\":17502:17534   */\n      0x416d6f756e74206d7573742062652067726561746572207468616e20302e0000\n        /* \"#utility.yul\":17498:17499   */\n      0x00\n        /* \"#utility.yul\":17490:17496   */\n      dup3\n        /* \"#utility.yul\":17486:17500   */\n      add\n        /* \"#utility.yul\":17479:17535   */\n      mstore\n        /* \"#utility.yul\":17362:17542   */\n      pop\n      jump\t// out\n        /* \"#utility.yul\":17548:17914   */\n    tag_247:\n        /* \"#utility.yul\":17690:17693   */\n      0x00\n        /* \"#utility.yul\":17711:17778   */\n      tag_439\n        /* \"#utility.yul\":17775:17777   */\n      0x1e\n        /* \"#utility.yul\":17770:17773   */\n      dup4\n        /* \"#utility.yul\":17711:17778   */\n      tag_199\n      jump\t// in\n    tag_439:\n        /* \"#utility.yul\":17704:17778   */\n      swap2\n      pop\n        /* \"#utility.yul\":17787:17880   */\n      tag_440\n        /* \"#utility.yul\":17876:17879   */\n      dup3\n        /* \"#utility.yul\":17787:17880   */\n      tag_246\n      jump\t// in\n    tag_440:\n        /* \"#utility.yul\":17905:17907   */\n      0x20\n        /* \"#utility.yul\":17900:17903   */\n      dup3\n        /* \"#utility.yul\":17896:17908   */\n      add\n        /* \"#utility.yul\":17889:17908   */\n      swap1\n      pop\n        /* \"#utility.yul\":17548:17914   */\n      swap2\n      swap1\n      pop\n      jump\t// out\n        /* \"#utility.yul\":17920:18339   */\n    tag_138:\n        /* \"#utility.yul\":18086:18090   */\n      0x00\n        /* \"#utility.yul\":18124:18126   */\n      0x20\n        /* \"#utility.yul\":18113:18122   */\n      dup3\n        /* \"#utility.yul\":18109:18127   */\n      add\n        /* \"#utility.yul\":18101:18127   */\n      swap1\n      pop\n        /* \"#utility.yul\":18173:18182   */\n      dup2\n        /* \"#utility.yul\":18167:18171   */\n      dup2\n        /* \"#utility.yul\":18163:18183   */\n      sub\n        /* \"#utility.yul\":18159:18160   */\n      0x00\n        /* \"#utility.yul\":18148:18157   */\n      dup4\n        /* \"#utility.yul\":18144:18161   */\n      add\n        /* \"#utility.yul\":18137:18184   */\n      mstore\n        /* \"#utility.yul\":18201:18332   */\n      tag_442\n        /* \"#utility.yul\":18327:18331   */\n      dup2\n        /* \"#utility.yul\":18201:18332   */\n      tag_247\n      jump\t// in\n    tag_442:\n        /* \"#utility.yul\":18193:18332   */\n      swap1\n      pop\n        /* \"#utility.yul\":17920:18339   */\n      swap2\n      swap1\n      pop\n      jump\t// out\n        /* \"#utility.yul\":18345:18512   */\n    tag_248:\n        /* \"#utility.yul\":18485:18504   */\n      0x4e616d652069732072657175697265642e000000000000000000000000000000\n        /* \"#utility.yul\":18481:18482   */\n      0x00\n        /* \"#utility.yul\":18473:18479   */\n      dup3\n        /* \"#utility.yul\":18469:18483   */\n      add\n        /* \"#utility.yul\":18462:18505   */\n      mstore\n        /* \"#utility.yul\":18345:18512   */\n      pop\n      jump\t// out\n        /* \"#utility.yul\":18518:18884   */\n    tag_249:\n        /* \"#utility.yul\":18660:18663   */\n      0x00\n        /* \"#utility.yul\":18681:18748   */\n      tag_445\n        /* \"#utility.yul\":18745:18747   */\n      0x11\n        /* \"#utility.yul\":18740:18743   */\n      dup4\n        /* \"#utility.yul\":18681:18748   */\n      tag_199\n      jump\t// in\n    tag_445:\n        /* \"#utility.yul\":18674:18748   */\n      swap2\n      pop\n        /* \"#utility.yul\":18757:18850   */\n      tag_446\n        /* \"#utility.yul\":18846:18849   */\n      dup3\n        /* \"#utility.yul\":18757:18850   */\n      tag_248\n      jump\t// in\n    tag_446:\n        /* \"#utility.yul\":18875:18877   */\n      0x20\n        /* \"#utility.yul\":18870:18873   */\n      dup3\n        /* \"#utility.yul\":18866:18878   */\n      add\n        /* \"#utility.yul\":18859:18878   */\n      swap1\n      pop\n        /* \"#utility.yul\":18518:18884   */\n      swap2\n      swap1\n      pop\n      jump\t// out\n        /* \"#utility.yul\":18890:19309   */\n    tag_141:\n        /* \"#utility.yul\":19056:19060   */\n      0x00\n        /* \"#utility.yul\":19094:19096   */\n      0x20\n        /* \"#utility.yul\":19083:19092   */\n      dup3\n        /* \"#utility.yul\":19079:19097   */\n      add\n        /* \"#utility.yul\":19071:19097   */\n      swap1\n      pop\n        /* \"#utility.yul\":19143:19152   */\n      dup2\n        /* \"#utility.yul\":19137:19141   */\n      dup2\n        /* \"#utility.yul\":19133:19153   */\n      sub\n        /* \"#utility.yul\":19129:19130   */\n      0x00\n        /* \"#utility.yul\":19118:19127   */\n      dup4\n        /* \"#utility.yul\":19114:19131   */\n      add\n        /* \"#utility.yul\":19107:19154   */\n      mstore\n        /* \"#utility.yul\":19171:19302   */\n      tag_448\n        /* \"#utility.yul\":19297:19301   */\n      dup2\n        /* \"#utility.yul\":19171:19302   */\n      tag_249\n      jump\t// in\n    tag_448:\n        /* \"#utility.yul\":19163:19302   */\n      swap1\n      pop\n        /* \"#utility.yul\":18890:19309   */\n      swap2\n      swap1\n      pop\n      jump\t// out\n        /* \"#utility.yul\":19315:20710   */\n    tag_144:\n        /* \"#utility.yul\":19432:19469   */\n      tag_450\n        /* \"#utility.yul\":19465:19468   */\n      dup3\n        /* \"#utility.yul\":19432:19469   */\n      tag_198\n      jump\t// in\n    tag_450:\n        /* \"#utility.yul\":19534:19552   */\n      0xffffffffffffffff\n        /* \"#utility.yul\":19526:19532   */\n      dup2\n        /* \"#utility.yul\":19523:19553   */\n      gt\n        /* \"#utility.yul\":19520:19576   */\n      iszero\n      tag_451\n      jumpi\n        /* \"#utility.yul\":19556:19574   */\n      tag_452\n      tag_209\n      jump\t// in\n    tag_452:\n        /* \"#utility.yul\":19520:19576   */\n    tag_451:\n        /* \"#utility.yul\":19600:19638   */\n      tag_453\n        /* \"#utility.yul\":19632:19636   */\n      dup3\n        /* \"#utility.yul\":19626:19637   */\n      sload\n        /* \"#utility.yul\":19600:19638   */\n      tag_72\n      jump\t// in\n    tag_453:\n        /* \"#utility.yul\":19685:19752   */\n      tag_454\n        /* \"#utility.yul\":19745:19751   */\n      dup3\n        /* \"#utility.yul\":19737:19743   */\n      dup3\n        /* \"#utility.yul\":19731:19735   */\n      dup6\n        /* \"#utility.yul\":19685:19752   */\n      tag_242\n      jump\t// in\n    tag_454:\n        /* \"#utility.yul\":19779:19780   */\n      0x00\n        /* \"#utility.yul\":19803:19807   */\n      0x20\n        /* \"#utility.yul\":19790:19807   */\n      swap1\n      pop\n        /* \"#utility.yul\":19835:19837   */\n      0x1f\n        /* \"#utility.yul\":19827:19833   */\n      dup4\n        /* \"#utility.yul\":19824:19838   */\n      gt\n        /* \"#utility.yul\":19852:19853   */\n      0x01\n        /* \"#utility.yul\":19847:20465   */\n      dup2\n      eq\n      tag_456\n      jumpi\n        /* \"#utility.yul\":20509:20510   */\n      0x00\n        /* \"#utility.yul\":20526:20532   */\n      dup5\n        /* \"#utility.yul\":20523:20600   */\n      iszero\n      tag_457\n      jumpi\n        /* \"#utility.yul\":20575:20584   */\n      dup3\n        /* \"#utility.yul\":20570:20573   */\n      dup8\n        /* \"#utility.yul\":20566:20585   */\n      add\n        /* \"#utility.yul\":20560:20586   */\n      mload\n        /* \"#utility.yul\":20551:20586   */\n      swap1\n      pop\n        /* \"#utility.yul\":20523:20600   */\n    tag_457:\n        /* \"#utility.yul\":20626:20693   */\n      tag_458\n        /* \"#utility.yul\":20686:20692   */\n      dup6\n        /* \"#utility.yul\":20679:20684   */\n      dup3\n        /* \"#utility.yul\":20626:20693   */\n      tag_245\n      jump\t// in\n    tag_458:\n        /* \"#utility.yul\":20620:20624   */\n      dup7\n        /* \"#utility.yul\":20613:20694   */\n      sstore\n        /* \"#utility.yul\":20482:20704   */\n      pop\n        /* \"#utility.yul\":19817:20704   */\n      jump(tag_455)\n        /* \"#utility.yul\":19847:20465   */\n    tag_456:\n        /* \"#utility.yul\":19899:19903   */\n      0x1f\n        /* \"#utility.yul\":19895:19904   */\n      not\n        /* \"#utility.yul\":19887:19893   */\n      dup5\n        /* \"#utility.yul\":19883:19905   */\n      and\n        /* \"#utility.yul\":19933:19970   */\n      tag_459\n        /* \"#utility.yul\":19965:19969   */\n      dup7\n        /* \"#utility.yul\":19933:19970   */\n      tag_231\n      jump\t// in\n    tag_459:\n        /* \"#utility.yul\":19992:19993   */\n      0x00\n        /* \"#utility.yul\":20006:20214   */\n    tag_460:\n        /* \"#utility.yul\":20020:20027   */\n      dup3\n        /* \"#utility.yul\":20017:20018   */\n      dup2\n        /* \"#utility.yul\":20014:20028   */\n      lt\n        /* \"#utility.yul\":20006:20214   */\n      iszero\n      tag_462\n      jumpi\n        /* \"#utility.yul\":20099:20108   */\n      dup5\n        /* \"#utility.yul\":20094:20097   */\n      dup10\n        /* \"#utility.yul\":20090:20109   */\n      add\n        /* \"#utility.yul\":20084:20110   */\n      mload\n        /* \"#utility.yul\":20076:20082   */\n      dup3\n        /* \"#utility.yul\":20069:20111   */\n      sstore\n        /* \"#utility.yul\":20150:20151   */\n      0x01\n        /* \"#utility.yul\":20142:20148   */\n      dup3\n        /* \"#utility.yul\":20138:20152   */\n      add\n        /* \"#utility.yul\":20128:20152   */\n      swap2\n      pop\n        /* \"#utility.yul\":20197:20199   */\n      0x20\n        /* \"#utility.yul\":20186:20195   */\n      dup6\n        /* \"#utility.yul\":20182:20200   */\n      add\n        /* \"#utility.yul\":20169:20200   */\n      swap5\n      pop\n        /* \"#utility.yul\":20043:20047   */\n      0x20\n        /* \"#utility.yul\":20040:20041   */\n      dup2\n        /* \"#utility.yul\":20036:20048   */\n      add\n        /* \"#utility.yul\":20031:20048   */\n      swap1\n      pop\n        /* \"#utility.yul\":20006:20214   */\n      jump(tag_460)\n    tag_462:\n        /* \"#utility.yul\":20242:20248   */\n      dup7\n        /* \"#utility.yul\":20233:20240   */\n      dup4\n        /* \"#utility.yul\":20230:20249   */\n      lt\n        /* \"#utility.yul\":20227:20406   */\n      iszero\n      tag_463\n      jumpi\n        /* \"#utility.yul\":20300:20309   */\n      dup5\n        /* \"#utility.yul\":20295:20298   */\n      dup10\n        /* \"#utility.yul\":20291:20310   */\n      add\n        /* \"#utility.yul\":20285:20311   */\n      mload\n        /* \"#utility.yul\":20343:20391   */\n      tag_464\n        /* \"#utility.yul\":20385:20389   */\n      0x1f\n        /* \"#utility.yul\":20377:20383   */\n      dup10\n        /* \"#utility.yul\":20373:20390   */\n      and\n        /* \"#utility.yul\":20362:20371   */\n      dup3\n        /* \"#utility.yul\":20343:20391   */\n      tag_244\n      jump\t// in\n    tag_464:\n        /* \"#utility.yul\":20335:20341   */\n      dup4\n        /* \"#utility.yul\":20328:20392   */\n      sstore\n        /* \"#utility.yul\":20250:20406   */\n      pop\n        /* \"#utility.yul\":20227:20406   */\n    tag_463:\n        /* \"#utility.yul\":20452:20453   */\n      0x01\n        /* \"#utility.yul\":20448:20449   */\n      0x02\n        /* \"#utility.yul\":20440:20446   */\n      dup9\n        /* \"#utility.yul\":20436:20450   */\n      mul\n        /* \"#utility.yul\":20432:20454   */\n      add\n        /* \"#utility.yul\":20426:20430   */\n      dup9\n        /* \"#utility.yul\":20419:20455   */\n      sstore\n        /* \"#utility.yul\":19854:20465   */\n      pop\n      pop\n      pop\n        /* \"#utility.yul\":19817:20704   */\n    tag_455:\n      pop\n        /* \"#utility.yul\":19407:20710   */\n      pop\n      pop\n      pop\n        /* \"#utility.yul\":19315:20710   */\n      pop\n      pop\n      jump\t// out\n        /* \"#utility.yul\":20716:20888   */\n    tag_250:\n        /* \"#utility.yul\":20856:20880   */\n      0x43616d706169676e206973206e6f742061637469766500000000000000000000\n        /* \"#utility.yul\":20852:20853   */\n      0x00\n        /* \"#utility.yul\":20844:20850   */\n      dup3\n        /* \"#utility.yul\":20840:20854   */\n      add\n        /* \"#utility.yul\":20833:20881   */\n      mstore\n        /* \"#utility.yul\":20716:20888   */\n      pop\n      jump\t// out\n        /* \"#utility.yul\":20894:21260   */\n    tag_251:\n        /* \"#utility.yul\":21036:21039   */\n      0x00\n        /* \"#utility.yul\":21057:21124   */\n      tag_467\n        /* \"#utility.yul\":21121:21123   */\n      0x16\n        /* \"#utility.yul\":21116:21119   */\n      dup4\n        /* \"#utility.yul\":21057:21124   */\n      tag_199\n      jump\t// in\n    tag_467:\n        /* \"#utility.yul\":21050:21124   */\n      swap2\n      pop\n        /* \"#utility.yul\":21133:21226   */\n      tag_468\n        /* \"#utility.yul\":21222:21225   */\n      dup3\n        /* \"#utility.yul\":21133:21226   */\n      tag_250\n      jump\t// in\n    tag_468:\n        /* \"#utility.yul\":21251:21253   */\n      0x20\n        /* \"#utility.yul\":21246:21249   */\n      dup3\n        /* \"#utility.yul\":21242:21254   */\n      add\n        /* \"#utility.yul\":21235:21254   */\n      swap1\n      pop\n        /* \"#utility.yul\":20894:21260   */\n      swap2\n      swap1\n      pop\n      jump\t// out\n        /* \"#utility.yul\":21266:21685   */\n    tag_152:\n        /* \"#utility.yul\":21432:21436   */\n      0x00\n        /* \"#utility.yul\":21470:21472   */\n      0x20\n        /* \"#utility.yul\":21459:21468   */\n      dup3\n        /* \"#utility.yul\":21455:21473   */\n      add\n        /* \"#utility.yul\":21447:21473   */\n      swap1\n      pop\n        /* \"#utility.yul\":21519:21528   */\n      dup2\n        /* \"#utility.yul\":21513:21517   */\n      dup2\n        /* \"#utility.yul\":21509:21529   */\n      sub\n        /* \"#utility.yul\":21505:21506   */\n      0x00\n        /* \"#utility.yul\":21494:21503   */\n      dup4\n        /* \"#utility.yul\":21490:21507   */\n      add\n        /* \"#utility.yul\":21483:21530   */\n      mstore\n        /* \"#utility.yul\":21547:21678   */\n      tag_470\n        /* \"#utility.yul\":21673:21677   */\n      dup2\n        /* \"#utility.yul\":21547:21678   */\n      tag_251\n      jump\t// in\n    tag_470:\n        /* \"#utility.yul\":21539:21678   */\n      swap1\n      pop\n        /* \"#utility.yul\":21266:21685   */\n      swap2\n      swap1\n      pop\n      jump\t// out\n        /* \"#utility.yul\":21691:21854   */\n    tag_252:\n        /* \"#utility.yul\":21831:21846   */\n      0x496e76616c696420746965722e00000000000000000000000000000000000000\n        /* \"#utility.yul\":21827:21828   */\n      0x00\n        /* \"#utility.yul\":21819:21825   */\n      dup3\n        /* \"#utility.yul\":21815:21829   */\n      add\n        /* \"#utility.yul\":21808:21847   */\n      mstore\n        /* \"#utility.yul\":21691:21854   */\n      pop\n      jump\t// out\n        /* \"#utility.yul\":21860:22226   */\n    tag_253:\n        /* \"#utility.yul\":22002:22005   */\n      0x00\n        /* \"#utility.yul\":22023:22090   */\n      tag_473\n        /* \"#utility.yul\":22087:22089   */\n      0x0d\n        /* \"#utility.yul\":22082:22085   */\n      dup4\n        /* \"#utility.yul\":22023:22090   */\n      tag_199\n      jump\t// in\n    tag_473:\n        /* \"#utility.yul\":22016:22090   */\n      swap2\n      pop\n        /* \"#utility.yul\":22099:22192   */\n      tag_474\n        /* \"#utility.yul\":22188:22191   */\n      dup3\n        /* \"#utility.yul\":22099:22192   */\n      tag_252\n      jump\t// in\n    tag_474:\n        /* \"#utility.yul\":22217:22219   */\n      0x20\n        /* \"#utility.yul\":22212:22215   */\n      dup3\n        /* \"#utility.yul\":22208:22220   */\n      add\n        /* \"#utility.yul\":22201:22220   */\n      swap1\n      pop\n        /* \"#utility.yul\":21860:22226   */\n      swap2\n      swap1\n      pop\n      jump\t// out\n        /* \"#utility.yul\":22232:22651   */\n    tag_156:\n        /* \"#utility.yul\":22398:22402   */\n      0x00\n        /* \"#utility.yul\":22436:22438   */\n      0x20\n        /* \"#utility.yul\":22425:22434   */\n      dup3\n        /* \"#utility.yul\":22421:22439   */\n      add\n        /* \"#utility.yul\":22413:22439   */\n      swap1\n      pop\n        /* \"#utility.yul\":22485:22494   */\n      dup2\n        /* \"#utility.yul\":22479:22483   */\n      dup2\n        /* \"#utility.yul\":22475:22495   */\n      sub\n        /* \"#utility.yul\":22471:22472   */\n      0x00\n        /* \"#utility.yul\":22460:22469   */\n      dup4\n        /* \"#utility.yul\":22456:22473   */\n      add\n        /* \"#utility.yul\":22449:22496   */\n      mstore\n        /* \"#utility.yul\":22513:22644   */\n      tag_476\n        /* \"#utility.yul\":22639:22643   */\n      dup2\n        /* \"#utility.yul\":22513:22644   */\n      tag_253\n      jump\t// in\n    tag_476:\n        /* \"#utility.yul\":22505:22644   */\n      swap1\n      pop\n        /* \"#utility.yul\":22232:22651   */\n      swap2\n      swap1\n      pop\n      jump\t// out\n        /* \"#utility.yul\":22657:22824   */\n    tag_254:\n        /* \"#utility.yul\":22797:22816   */\n      0x496e636f727265637420616d6f756e742e000000000000000000000000000000\n        /* \"#utility.yul\":22793:22794   */\n      0x00\n        /* \"#utility.yul\":22785:22791   */\n      dup3\n        /* \"#utility.yul\":22781:22795   */\n      add\n        /* \"#utility.yul\":22774:22817   */\n      mstore\n        /* \"#utility.yul\":22657:22824   */\n      pop\n      jump\t// out\n        /* \"#utility.yul\":22830:23196   */\n    tag_255:\n        /* \"#utility.yul\":22972:22975   */\n      0x00\n        /* \"#utility.yul\":22993:23060   */\n      tag_479\n        /* \"#utility.yul\":23057:23059   */\n      0x11\n        /* \"#utility.yul\":23052:23055   */\n      dup4\n        /* \"#utility.yul\":22993:23060   */\n      tag_199\n      jump\t// in\n    tag_479:\n        /* \"#utility.yul\":22986:23060   */\n      swap2\n      pop\n        /* \"#utility.yul\":23069:23162   */\n      tag_480\n        /* \"#utility.yul\":23158:23161   */\n      dup3\n        /* \"#utility.yul\":23069:23162   */\n      tag_254\n      jump\t// in\n    tag_480:\n        /* \"#utility.yul\":23187:23189   */\n      0x20\n        /* \"#utility.yul\":23182:23185   */\n      dup3\n        /* \"#utility.yul\":23178:23190   */\n      add\n        /* \"#utility.yul\":23171:23190   */\n      swap1\n      pop\n        /* \"#utility.yul\":22830:23196   */\n      swap2\n      swap1\n      pop\n      jump\t// out\n        /* \"#utility.yul\":23202:23621   */\n    tag_162:\n        /* \"#utility.yul\":23368:23372   */\n      0x00\n        /* \"#utility.yul\":23406:23408   */\n      0x20\n        /* \"#utility.yul\":23395:23404   */\n      dup3\n        /* \"#utility.yul\":23391:23409   */\n      add\n        /* \"#utility.yul\":23383:23409   */\n      swap1\n      pop\n        /* \"#utility.yul\":23455:23464   */\n      dup2\n        /* \"#utility.yul\":23449:23453   */\n      dup2\n        /* \"#utility.yul\":23445:23465   */\n      sub\n        /* \"#utility.yul\":23441:23442   */\n      0x00\n        /* \"#utility.yul\":23430:23439   */\n      dup4\n        /* \"#utility.yul\":23426:23443   */\n      add\n        /* \"#utility.yul\":23419:23466   */\n      mstore\n        /* \"#utility.yul\":23483:23614   */\n      tag_482\n        /* \"#utility.yul\":23609:23613   */\n      dup2\n        /* \"#utility.yul\":23483:23614   */\n      tag_255\n      jump\t// in\n    tag_482:\n        /* \"#utility.yul\":23475:23614   */\n      swap1\n      pop\n        /* \"#utility.yul\":23202:23621   */\n      swap2\n      swap1\n      pop\n      jump\t// out\n        /* \"#utility.yul\":23627:23860   */\n    tag_167:\n        /* \"#utility.yul\":23666:23669   */\n      0x00\n        /* \"#utility.yul\":23689:23713   */\n      tag_484\n        /* \"#utility.yul\":23707:23712   */\n      dup3\n        /* \"#utility.yul\":23689:23713   */\n      tag_195\n      jump\t// in\n    tag_484:\n        /* \"#utility.yul\":23680:23713   */\n      swap2\n      pop\n        /* \"#utility.yul\":23735:23801   */\n      0xffffffffffffffffffffffffffffffffffffffffffffffffffffffffffffffff\n        /* \"#utility.yul\":23728:23733   */\n      dup3\n        /* \"#utility.yul\":23725:23802   */\n      sub\n        /* \"#utility.yul\":23722:23825   */\n      tag_485\n      jumpi\n        /* \"#utility.yul\":23805:23823   */\n      tag_486\n      tag_229\n      jump\t// in\n    tag_486:\n        /* \"#utility.yul\":23722:23825   */\n    tag_485:\n        /* \"#utility.yul\":23852:23853   */\n      0x01\n        /* \"#utility.yul\":23845:23850   */\n      dup3\n        /* \"#utility.yul\":23841:23854   */\n      add\n        /* \"#utility.yul\":23834:23854   */\n      swap1\n      pop\n        /* \"#utility.yul\":23627:23860   */\n      swap2\n      swap1\n      pop\n      jump\t// out\n\n    auxdata: 0xa2646970667358221220ef1416e7842b72d34dbbd383908c06a70a95318d272c33e8b73ce764c6a0786764736f6c63430008120033\n}\n",
				"bytecode": {
					"linkReferences": {},
					"object": "60806040523480156200001157600080fd5b50604051620020dc380380620020dc8339818101604052810190620000379190620002cd565b8360009081620000489190620005be565b5082600190816200005a9190620005be565b50816002819055506201518081620000739190620006d4565b426200008091906200071f565b60038190555033600460006101000a81548173ffffffffffffffffffffffffffffffffffffffff021916908373ffffffffffffffffffffffffffffffffffffffff1602179055506000600460146101000a81548160ff02191690836002811115620000f057620000ef6200075a565b5b02179055505050505062000789565b6000604051905090565b600080fd5b600080fd5b600080fd5b600080fd5b6000601f19601f8301169050919050565b7f4e487b7100000000000000000000000000000000000000000000000000000000600052604160045260246000fd5b62000168826200011d565b810181811067ffffffffffffffff821117156200018a57620001896200012e565b5b80604052505050565b60006200019f620000ff565b9050620001ad82826200015d565b919050565b600067ffffffffffffffff821115620001d057620001cf6200012e565b5b620001db826200011d565b9050602081019050919050565b60005b8381101562000208578082015181840152602081019050620001eb565b60008484015250505050565b60006200022b6200022584620001b2565b62000193565b9050828152602081018484840111156200024a576200024962000118565b5b62000257848285620001e8565b509392505050565b600082601f83011262000277576200027662000113565b5b81516200028984826020860162000214565b91505092915050565b6000819050919050565b620002a78162000292565b8114620002b357600080fd5b50565b600081519050620002c7816200029c565b92915050565b60008060008060808587031215620002ea57620002e962000109565b5b600085015167ffffffffffffffff8111156200030b576200030a6200010e565b5b62000319878288016200025f565b945050602085015167ffffffffffffffff8111156200033d576200033c6200010e565b5b6200034b878288016200025f565b93505060406200035e87828801620002b6565b92505060606200037187828801620002b6565b91505092959194509250565b600081519050919050565b7f4e487b7100000000000000000000000000000000000000000000000000000000600052602260045260246000fd5b60006002820490506001821680620003d057607f821691505b602082108103620003e657620003e562000388565b5b50919050565b60008190508160005260206000209050919050565b60006020601f8301049050919050565b600082821b905092915050565b600060088302620004507fffffffffffffffffffffffffffffffffffffffffffffffffffffffffffffffff8262000411565b6200045c868362000411565b95508019841693508086168417925050509392505050565b6000819050919050565b60006200049f62000499620004938462000292565b62000474565b62000292565b9050919050565b6000819050919050565b620004bb836200047e565b620004d3620004ca82620004a6565b8484546200041e565b825550505050565b600090565b620004ea620004db565b620004f7818484620004b0565b505050565b5b818110156200051f5762000513600082620004e0565b600181019050620004fd565b5050565b601f8211156200056e576200053881620003ec565b620005438462000401565b8101602085101562000553578190505b6200056b620005628562000401565b830182620004fc565b50505b505050565b600082821c905092915050565b6000620005936000198460080262000573565b1980831691505092915050565b6000620005ae838362000580565b9150826002028217905092915050565b620005c9826200037d565b67ffffffffffffffff811115620005e557620005e46200012e565b5b620005f18254620003b7565b620005fe82828562000523565b600060209050601f83116001811462000636576000841562000621578287015190505b6200062d8582620005a0565b8655506200069d565b601f1984166200064686620003ec565b60005b82811015620006705784890151825560018201915060208501945060208101905062000649565b868310156200069057848901516200068c601f89168262000580565b8355505b6001600288020188555050505b505050505050565b7f4e487b7100000000000000000000000000000000000000000000000000000000600052601160045260246000fd5b6000620006e18262000292565b9150620006ee8362000292565b9250828202620006fe8162000292565b91508282048414831517620007185762000717620006a5565b5b5092915050565b60006200072c8262000292565b9150620007398362000292565b9250828201905080821115620007545762000753620006a5565b5b92915050565b7f4e487b7100000000000000000000000000000000000000000000000000000000600052602160045260246000fd5b61194380620007996000396000f3fe6080604052600436106100a75760003560e01c80637284e416116100645780637284e416146101ae5780637497211b146101d95780638da5cb5b146102025780638ece7b911461022d578063c19d93fb14610256578063ca1d209d14610281576100a7565b8063039af9eb146100ac57806306fdde03146100eb57806329dcb0cf146101165780633ccfd60b1461014157806340193883146101585780636f9fb98a14610183575b600080fd5b3480156100b857600080fd5b506100d360048036038101906100ce9190610c96565b61029d565b6040516100e293929190610d62565b60405180910390f35b3480156100f757600080fd5b5061010061035f565b60405161010d9190610da0565b60405180910390f35b34801561012257600080fd5b5061012b6103ed565b6040516101389190610dc2565b60405180910390f35b34801561014d57600080fd5b506101566103f3565b005b34801561016457600080fd5b5061016d6105b5565b60405161017a9190610dc2565b60405180910390f35b34801561018f57600080fd5b506101986105bb565b6040516101a59190610dc2565b60405180910390f35b3480156101ba57600080fd5b506101c36105c3565b6040516101d09190610da0565b60405180910390f35b3480156101e557600080fd5b5061020060048036038101906101fb9190610c96565b610651565b005b34801561020e57600080fd5b506102176107f7565b6040516102249190610e1e565b60405180910390f35b34801561023957600080fd5b50610254600480360381019061024f9190610f6e565b61081d565b005b34801561026257600080fd5b5061026b6109ab565b6040516102789190611041565b60405180910390f35b61029b60048036038101906102969190610c96565b6109be565b005b600581815481106102ad57600080fd5b90600052602060002090600302016000915090508060000180546102d09061108b565b80601f01602080910402602001604051908101604052809291908181526020018280546102fc9061108b565b80156103495780601f1061031e57610100808354040283529160200191610349565b820191906000526020600020905b81548152906001019060200180831161032c57829003601f168201915b5050505050908060010154908060020154905083565b6000805461036c9061108b565b80601f01602080910402602001604051908101604052809291908181526020018280546103989061108b565b80156103e55780601f106103ba576101008083540402835291602001916103e5565b820191906000526020600020905b8154815290600101906020018083116103c857829003601f168201915b505050505081565b60035481565b600460009054906101000a900473ffffffffffffffffffffffffffffffffffffffff1673ffffffffffffffffffffffffffffffffffffffff163373ffffffffffffffffffffffffffffffffffffffff1614610483576040517f08c379a000000000000000000000000000000000000000000000000000000000815260040161047a90611108565b60405180910390fd5b61048b610b28565b6001600281111561049f5761049e610fca565b5b600460149054906101000a900460ff1660028111156104c1576104c0610fca565b5b14610501576040517f08c379a00000000000000000000000000000000000000000000000000000000081526004016104f890611174565b60405180910390fd5b600047905060008111610549576040517f08c379a0000000000000000000000000000000000000000000000000000000008152600401610540906111e0565b60405180910390fd5b600460009054906101000a900473ffffffffffffffffffffffffffffffffffffffff1673ffffffffffffffffffffffffffffffffffffffff166108fc829081150290604051600060405180830381858888f193505050501580156105b1573d6000803e3d6000fd5b5050565b60025481565b600047905090565b600180546105d09061108b565b80601f01602080910402602001604051908101604052809291908181526020018280546105fc9061108b565b80156106495780601f1061061e57610100808354040283529160200191610649565b820191906000526020600020905b81548152906001019060200180831161062c57829003601f168201915b505050505081565b600460009054906101000a900473ffffffffffffffffffffffffffffffffffffffff1673ffffffffffffffffffffffffffffffffffffffff163373ffffffffffffffffffffffffffffffffffffffff16146106e1576040517f08c379a00000000000000000000000000000000000000000000000000000000081526004016106d890611108565b60405180910390fd5b6005805490508110610728576040517f08c379a000000000000000000000000000000000000000000000000000000000815260040161071f9061124c565b60405180910390fd5b6005600160058054905061073c919061129b565b8154811061074d5761074c6112cf565b5b90600052602060002090600302016005828154811061076f5761076e6112cf565b5b90600052602060002090600302016000820181600001908161079191906114c0565b50600182015481600101556002820154816002015590505060058054806107bb576107ba6115a8565b5b6001900381819060005260206000209060030201600080820160006107e09190610bef565b600182016000905560028201600090555050905550565b600460009054906101000a900473ffffffffffffffffffffffffffffffffffffffff1681565b600460009054906101000a900473ffffffffffffffffffffffffffffffffffffffff1673ffffffffffffffffffffffffffffffffffffffff163373ffffffffffffffffffffffffffffffffffffffff16146108ad576040517f08c379a00000000000000000000000000000000000000000000000000000000081526004016108a490611108565b60405180910390fd5b600081116108f0576040517f08c379a00000000000000000000000000000000000000000000000000000000081526004016108e790611623565b60405180910390fd5b6000825111610934576040517f08c379a000000000000000000000000000000000000000000000000000000000815260040161092b9061168f565b60405180910390fd5b6005604051806060016040528084815260200183815260200160008152509080600181540180825580915050600190039060005260206000209060030201600090919091909150600082015181600001908161099091906116af565b50602082015181600101556040820151816002015550505050565b600460149054906101000a900460ff1681565b600060028111156109d2576109d1610fca565b5b600460149054906101000a900460ff1660028111156109f4576109f3610fca565b5b14610a34576040517f08c379a0000000000000000000000000000000000000000000000000000000008152600401610a2b906117cd565b60405180910390fd5b6005805490508110610a7b576040517f08c379a0000000000000000000000000000000000000000000000000000000008152600401610a7290611839565b60405180910390fd5b60058181548110610a8f57610a8e6112cf565b5b9060005260206000209060030201600101543414610ae2576040517f08c379a0000000000000000000000000000000000000000000000000000000008152600401610ad9906118a5565b60405180910390fd5b60058181548110610af657610af56112cf565b5b90600052602060002090600302016002016000815480929190610b18906118c5565b9190505550610b25610b28565b50565b60006002811115610b3c57610b3b610fca565b5b600460149054906101000a900460ff166002811115610b5e57610b5d610fca565b5b03610bed576003544210610bae57600254471015610b7d576002610b80565b60015b600460146101000a81548160ff02191690836002811115610ba457610ba3610fca565b5b0217905550610bec565b600254471015610bbf576000610bc2565b60015b600460146101000a81548160ff02191690836002811115610be657610be5610fca565b5b02179055505b5b565b508054610bfb9061108b565b6000825580601f10610c0d5750610c2c565b601f016020900490600052602060002090810190610c2b9190610c2f565b5b50565b5b80821115610c48576000816000905550600101610c30565b5090565b6000604051905090565b600080fd5b600080fd5b6000819050919050565b610c7381610c60565b8114610c7e57600080fd5b50565b600081359050610c9081610c6a565b92915050565b600060208284031215610cac57610cab610c56565b5b6000610cba84828501610c81565b91505092915050565b600081519050919050565b600082825260208201905092915050565b60005b83811015610cfd578082015181840152602081019050610ce2565b60008484015250505050565b6000601f19601f8301169050919050565b6000610d2582610cc3565b610d2f8185610cce565b9350610d3f818560208601610cdf565b610d4881610d09565b840191505092915050565b610d5c81610c60565b82525050565b60006060820190508181036000830152610d7c8186610d1a565b9050610d8b6020830185610d53565b610d986040830184610d53565b949350505050565b60006020820190508181036000830152610dba8184610d1a565b905092915050565b6000602082019050610dd76000830184610d53565b92915050565b600073ffffffffffffffffffffffffffffffffffffffff82169050919050565b6000610e0882610ddd565b9050919050565b610e1881610dfd565b82525050565b6000602082019050610e336000830184610e0f565b92915050565b600080fd5b600080fd5b7f4e487b7100000000000000000000000000000000000000000000000000000000600052604160045260246000fd5b610e7b82610d09565b810181811067ffffffffffffffff82111715610e9a57610e99610e43565b5b80604052505050565b6000610ead610c4c565b9050610eb98282610e72565b919050565b600067ffffffffffffffff821115610ed957610ed8610e43565b5b610ee282610d09565b9050602081019050919050565b82818337600083830152505050565b6000610f11610f0c84610ebe565b610ea3565b905082815260208101848484011115610f2d57610f2c610e3e565b5b610f38848285610eef565b509392505050565b600082601f830112610f5557610f54610e39565b5b8135610f65848260208601610efe565b91505092915050565b60008060408385031215610f8557610f84610c56565b5b600083013567ffffffffffffffff811115610fa357610fa2610c5b565b5b610faf85828601610f40565b9250506020610fc085828601610c81565b9150509250929050565b7f4e487b7100000000000000000000000000000000000000000000000000000000600052602160045260246000fd5b6003811061100a57611009610fca565b5b50565b600081905061101b82610ff9565b919050565b600061102b8261100d565b9050919050565b61103b81611020565b82525050565b60006020820190506110566000830184611032565b92915050565b7f4e487b7100000000000000000000000000000000000000000000000000000000600052602260045260246000fd5b600060028204905060018216806110a357607f821691505b6020821081036110b6576110b561105c565b5b50919050565b7f4e6f7420746865206f776e657200000000000000000000000000000000000000600082015250565b60006110f2600d83610cce565b91506110fd826110bc565b602082019050919050565b60006020820190508181036000830152611121816110e5565b9050919050565b7f43616d706169676e206e6f74207375636365737366756c207965740000000000600082015250565b600061115e601b83610cce565b915061116982611128565b602082019050919050565b6000602082019050818103600083015261118d81611151565b9050919050565b7f4e6f2062616c616e636520746f20776974686472617700000000000000000000600082015250565b60006111ca601683610cce565b91506111d582611194565b602082019050919050565b600060208201905081810360008301526111f9816111bd565b9050919050565b7f5469657220646f6573206e6f7420657869737400000000000000000000000000600082015250565b6000611236601383610cce565b915061124182611200565b602082019050919050565b6000602082019050818103600083015261126581611229565b9050919050565b7f4e487b7100000000000000000000000000000000000000000000000000000000600052601160045260246000fd5b60006112a682610c60565b91506112b183610c60565b92508282039050818111156112c9576112c861126c565b5b92915050565b7f4e487b7100000000000000000000000000000000000000000000000000000000600052603260045260246000fd5b60008154905061130d8161108b565b9050919050565b60008190508160005260206000209050919050565b60006020601f8301049050919050565b600082821b905092915050565b6000600883026113767fffffffffffffffffffffffffffffffffffffffffffffffffffffffffffffffff82611339565b6113808683611339565b95508019841693508086168417925050509392505050565b6000819050919050565b60006113bd6113b86113b384610c60565b611398565b610c60565b9050919050565b6000819050919050565b6113d7836113a2565b6113eb6113e3826113c4565b848454611346565b825550505050565b600090565b6114006113f3565b61140b8184846113ce565b505050565b5b8181101561142f576114246000826113f8565b600181019050611411565b5050565b601f8211156114745761144581611314565b61144e84611329565b8101602085101561145d578190505b61147161146985611329565b830182611410565b50505b505050565b600082821c905092915050565b600061149760001984600802611479565b1980831691505092915050565b60006114b08383611486565b9150826002028217905092915050565b8181036114ce5750506115a6565b6114d7826112fe565b67ffffffffffffffff8111156114f0576114ef610e43565b5b6114fa825461108b565b611505828285611433565b6000601f8311600181146115345760008415611522578287015490505b61152c85826114a4565b86555061159f565b601f19841661154287611314565b965061154d86611314565b60005b8281101561157557848901548255600182019150600185019450602081019050611550565b86831015611592578489015461158e601f891682611486565b8355505b6001600288020188555050505b5050505050505b565b7f4e487b7100000000000000000000000000000000000000000000000000000000600052603160045260246000fd5b7f416d6f756e74206d7573742062652067726561746572207468616e20302e0000600082015250565b600061160d601e83610cce565b9150611618826115d7565b602082019050919050565b6000602082019050818103600083015261163c81611600565b9050919050565b7f4e616d652069732072657175697265642e000000000000000000000000000000600082015250565b6000611679601183610cce565b915061168482611643565b602082019050919050565b600060208201905081810360008301526116a88161166c565b9050919050565b6116b882610cc3565b67ffffffffffffffff8111156116d1576116d0610e43565b5b6116db825461108b565b6116e6828285611433565b600060209050601f8311600181146117195760008415611707578287015190505b61171185826114a4565b865550611779565b601f19841661172786611314565b60005b8281101561174f5784890151825560018201915060208501945060208101905061172a565b8683101561176c5784890151611768601f891682611486565b8355505b6001600288020188555050505b505050505050565b7f43616d706169676e206973206e6f742061637469766500000000000000000000600082015250565b60006117b7601683610cce565b91506117c282611781565b602082019050919050565b600060208201905081810360008301526117e6816117aa565b9050919050565b7f496e76616c696420746965722e00000000000000000000000000000000000000600082015250565b6000611823600d83610cce565b915061182e826117ed565b602082019050919050565b6000602082019050818103600083015261185281611816565b9050919050565b7f496e636f727265637420616d6f756e742e000000000000000000000000000000600082015250565b600061188f601183610cce565b915061189a82611859565b602082019050919050565b600060208201905081810360008301526118be81611882565b9050919050565b60006118d082610c60565b91507fffffffffffffffffffffffffffffffffffffffffffffffffffffffffffffffff82036119025761190161126c565b5b60018201905091905056fea2646970667358221220ef1416e7842b72d34dbbd383908c06a70a95318d272c33e8b73ce764c6a0786764736f6c63430008120033",
					"opcodes": "PUSH1 0x80 PUSH1 0x40 MSTORE CALLVALUE DUP1 ISZERO PUSH3 0x11 JUMPI PUSH1 0x0 DUP1 REVERT JUMPDEST POP PUSH1 0x40 MLOAD PUSH3 0x20DC CODESIZE SUB DUP1 PUSH3 0x20DC DUP4 CODECOPY DUP2 DUP2 ADD PUSH1 0x40 MSTORE DUP2 ADD SWAP1 PUSH3 0x37 SWAP2 SWAP1 PUSH3 0x2CD JUMP JUMPDEST DUP4 PUSH1 0x0 SWAP1 DUP2 PUSH3 0x48 SWAP2 SWAP1 PUSH3 0x5BE JUMP JUMPDEST POP DUP3 PUSH1 0x1 SWAP1 DUP2 PUSH3 0x5A SWAP2 SWAP1 PUSH3 0x5BE JUMP JUMPDEST POP DUP2 PUSH1 0x2 DUP2 SWAP1 SSTORE POP PUSH3 0x15180 DUP2 PUSH3 0x73 SWAP2 SWAP1 PUSH3 0x6D4 JUMP JUMPDEST TIMESTAMP PUSH3 0x80 SWAP2 SWAP1 PUSH3 0x71F JUMP JUMPDEST PUSH1 0x3 DUP2 SWAP1 SSTORE POP CALLER PUSH1 0x4 PUSH1 0x0 PUSH2 0x100 EXP DUP2 SLOAD DUP2 PUSH20 0xFFFFFFFFFFFFFFFFFFFFFFFFFFFFFFFFFFFFFFFF MUL NOT AND SWAP1 DUP4 PUSH20 0xFFFFFFFFFFFFFFFFFFFFFFFFFFFFFFFFFFFFFFFF AND MUL OR SWAP1 SSTORE POP PUSH1 0x0 PUSH1 0x4 PUSH1 0x14 PUSH2 0x100 EXP DUP2 SLOAD DUP2 PUSH1 0xFF MUL NOT AND SWAP1 DUP4 PUSH1 0x2 DUP2 GT ISZERO PUSH3 0xF0 JUMPI PUSH3 0xEF PUSH3 0x75A JUMP JUMPDEST JUMPDEST MUL OR SWAP1 SSTORE POP POP POP POP POP PUSH3 0x789 JUMP JUMPDEST PUSH1 0x0 PUSH1 0x40 MLOAD SWAP1 POP SWAP1 JUMP JUMPDEST PUSH1 0x0 DUP1 REVERT JUMPDEST PUSH1 0x0 DUP1 REVERT JUMPDEST PUSH1 0x0 DUP1 REVERT JUMPDEST PUSH1 0x0 DUP1 REVERT JUMPDEST PUSH1 0x0 PUSH1 0x1F NOT PUSH1 0x1F DUP4 ADD AND SWAP1 POP SWAP2 SWAP1 POP JUMP JUMPDEST PUSH32 0x4E487B7100000000000000000000000000000000000000000000000000000000 PUSH1 0x0 MSTORE PUSH1 0x41 PUSH1 0x4 MSTORE PUSH1 0x24 PUSH1 0x0 REVERT JUMPDEST PUSH3 0x168 DUP3 PUSH3 0x11D JUMP JUMPDEST DUP2 ADD DUP2 DUP2 LT PUSH8 0xFFFFFFFFFFFFFFFF DUP3 GT OR ISZERO PUSH3 0x18A JUMPI PUSH3 0x189 PUSH3 0x12E JUMP JUMPDEST JUMPDEST DUP1 PUSH1 0x40 MSTORE POP POP POP JUMP JUMPDEST PUSH1 0x0 PUSH3 0x19F PUSH3 0xFF JUMP JUMPDEST SWAP1 POP PUSH3 0x1AD DUP3 DUP3 PUSH3 0x15D JUMP JUMPDEST SWAP2 SWAP1 POP JUMP JUMPDEST PUSH1 0x0 PUSH8 0xFFFFFFFFFFFFFFFF DUP3 GT ISZERO PUSH3 0x1D0 JUMPI PUSH3 0x1CF PUSH3 0x12E JUMP JUMPDEST JUMPDEST PUSH3 0x1DB DUP3 PUSH3 0x11D JUMP JUMPDEST SWAP1 POP PUSH1 0x20 DUP2 ADD SWAP1 POP SWAP2 SWAP1 POP JUMP JUMPDEST PUSH1 0x0 JUMPDEST DUP4 DUP2 LT ISZERO PUSH3 0x208 JUMPI DUP1 DUP3 ADD MLOAD DUP2 DUP5 ADD MSTORE PUSH1 0x20 DUP2 ADD SWAP1 POP PUSH3 0x1EB JUMP JUMPDEST PUSH1 0x0 DUP5 DUP5 ADD MSTORE POP POP POP POP JUMP JUMPDEST PUSH1 0x0 PUSH3 0x22B PUSH3 0x225 DUP5 PUSH3 0x1B2 JUMP JUMPDEST PUSH3 0x193 JUMP JUMPDEST SWAP1 POP DUP3 DUP2 MSTORE PUSH1 0x20 DUP2 ADD DUP5 DUP5 DUP5 ADD GT ISZERO PUSH3 0x24A JUMPI PUSH3 0x249 PUSH3 0x118 JUMP JUMPDEST JUMPDEST PUSH3 0x257 DUP5 DUP3 DUP6 PUSH3 0x1E8 JUMP JUMPDEST POP SWAP4 SWAP3 POP POP POP JUMP JUMPDEST PUSH1 0x0 DUP3 PUSH1 0x1F DUP4 ADD SLT PUSH3 0x277 JUMPI PUSH3 0x276 PUSH3 0x113 JUMP JUMPDEST JUMPDEST DUP2 MLOAD PUSH3 0x289 DUP5 DUP3 PUSH1 0x20 DUP7 ADD PUSH3 0x214 JUMP JUMPDEST SWAP2 POP POP SWAP3 SWAP2 POP POP JUMP JUMPDEST PUSH1 0x0 DUP2 SWAP1 POP SWAP2 SWAP1 POP JUMP JUMPDEST PUSH3 0x2A7 DUP2 PUSH3 0x292 JUMP JUMPDEST DUP2 EQ PUSH3 0x2B3 JUMPI PUSH1 0x0 DUP1 REVERT JUMPDEST POP JUMP JUMPDEST PUSH1 0x0 DUP2 MLOAD SWAP1 POP PUSH3 0x2C7 DUP2 PUSH3 0x29C JUMP JUMPDEST SWAP3 SWAP2 POP POP JUMP JUMPDEST PUSH1 0x0 DUP1 PUSH1 0x0 DUP1 PUSH1 0x80 DUP6 DUP8 SUB SLT ISZERO PUSH3 0x2EA JUMPI PUSH3 0x2E9 PUSH3 0x109 JUMP JUMPDEST JUMPDEST PUSH1 0x0 DUP6 ADD MLOAD PUSH8 0xFFFFFFFFFFFFFFFF DUP2 GT ISZERO PUSH3 0x30B JUMPI PUSH3 0x30A PUSH3 0x10E JUMP JUMPDEST JUMPDEST PUSH3 0x319 DUP8 DUP3 DUP9 ADD PUSH3 0x25F JUMP JUMPDEST SWAP5 POP POP PUSH1 0x20 DUP6 ADD MLOAD PUSH8 0xFFFFFFFFFFFFFFFF DUP2 GT ISZERO PUSH3 0x33D JUMPI PUSH3 0x33C PUSH3 0x10E JUMP JUMPDEST JUMPDEST PUSH3 0x34B DUP8 DUP3 DUP9 ADD PUSH3 0x25F JUMP JUMPDEST SWAP4 POP POP PUSH1 0x40 PUSH3 0x35E DUP8 DUP3 DUP9 ADD PUSH3 0x2B6 JUMP JUMPDEST SWAP3 POP POP PUSH1 0x60 PUSH3 0x371 DUP8 DUP3 DUP9 ADD PUSH3 0x2B6 JUMP JUMPDEST SWAP2 POP POP SWAP3 SWAP6 SWAP2 SWAP5 POP SWAP3 POP JUMP JUMPDEST PUSH1 0x0 DUP2 MLOAD SWAP1 POP SWAP2 SWAP1 POP JUMP JUMPDEST PUSH32 0x4E487B7100000000000000000000000000000000000000000000000000000000 PUSH1 0x0 MSTORE PUSH1 0x22 PUSH1 0x4 MSTORE PUSH1 0x24 PUSH1 0x0 REVERT JUMPDEST PUSH1 0x0 PUSH1 0x2 DUP3 DIV SWAP1 POP PUSH1 0x1 DUP3 AND DUP1 PUSH3 0x3D0 JUMPI PUSH1 0x7F DUP3 AND SWAP2 POP JUMPDEST PUSH1 0x20 DUP3 LT DUP2 SUB PUSH3 0x3E6 JUMPI PUSH3 0x3E5 PUSH3 0x388 JUMP JUMPDEST JUMPDEST POP SWAP2 SWAP1 POP JUMP JUMPDEST PUSH1 0x0 DUP2 SWAP1 POP DUP2 PUSH1 0x0 MSTORE PUSH1 0x20 PUSH1 0x0 KECCAK256 SWAP1 POP SWAP2 SWAP1 POP JUMP JUMPDEST PUSH1 0x0 PUSH1 0x20 PUSH1 0x1F DUP4 ADD DIV SWAP1 POP SWAP2 SWAP1 POP JUMP JUMPDEST PUSH1 0x0 DUP3 DUP3 SHL SWAP1 POP SWAP3 SWAP2 POP POP JUMP JUMPDEST PUSH1 0x0 PUSH1 0x8 DUP4 MUL PUSH3 0x450 PUSH32 0xFFFFFFFFFFFFFFFFFFFFFFFFFFFFFFFFFFFFFFFFFFFFFFFFFFFFFFFFFFFFFFFF DUP3 PUSH3 0x411 JUMP JUMPDEST PUSH3 0x45C DUP7 DUP4 PUSH3 0x411 JUMP JUMPDEST SWAP6 POP DUP1 NOT DUP5 AND SWAP4 POP DUP1 DUP7 AND DUP5 OR SWAP3 POP POP POP SWAP4 SWAP3 POP POP POP JUMP JUMPDEST PUSH1 0x0 DUP2 SWAP1 POP SWAP2 SWAP1 POP JUMP JUMPDEST PUSH1 0x0 PUSH3 0x49F PUSH3 0x499 PUSH3 0x493 DUP5 PUSH3 0x292 JUMP JUMPDEST PUSH3 0x474 JUMP JUMPDEST PUSH3 0x292 JUMP JUMPDEST SWAP1 POP SWAP2 SWAP1 POP JUMP JUMPDEST PUSH1 0x0 DUP2 SWAP1 POP SWAP2 SWAP1 POP JUMP JUMPDEST PUSH3 0x4BB DUP4 PUSH3 0x47E JUMP JUMPDEST PUSH3 0x4D3 PUSH3 0x4CA DUP3 PUSH3 0x4A6 JUMP JUMPDEST DUP5 DUP5 SLOAD PUSH3 0x41E JUMP JUMPDEST DUP3 SSTORE POP POP POP POP JUMP JUMPDEST PUSH1 0x0 SWAP1 JUMP JUMPDEST PUSH3 0x4EA PUSH3 0x4DB JUMP JUMPDEST PUSH3 0x4F7 DUP2 DUP5 DUP5 PUSH3 0x4B0 JUMP JUMPDEST POP POP POP JUMP JUMPDEST JUMPDEST DUP2 DUP2 LT ISZERO PUSH3 0x51F JUMPI PUSH3 0x513 PUSH1 0x0 DUP3 PUSH3 0x4E0 JUMP JUMPDEST PUSH1 0x1 DUP2 ADD SWAP1 POP PUSH3 0x4FD JUMP JUMPDEST POP POP JUMP JUMPDEST PUSH1 0x1F DUP3 GT ISZERO PUSH3 0x56E JUMPI PUSH3 0x538 DUP2 PUSH3 0x3EC JUMP JUMPDEST PUSH3 0x543 DUP5 PUSH3 0x401 JUMP JUMPDEST DUP2 ADD PUSH1 0x20 DUP6 LT ISZERO PUSH3 0x553 JUMPI DUP2 SWAP1 POP JUMPDEST PUSH3 0x56B PUSH3 0x562 DUP6 PUSH3 0x401 JUMP JUMPDEST DUP4 ADD DUP3 PUSH3 0x4FC JUMP JUMPDEST POP POP JUMPDEST POP POP POP JUMP JUMPDEST PUSH1 0x0 DUP3 DUP3 SHR SWAP1 POP SWAP3 SWAP2 POP POP JUMP JUMPDEST PUSH1 0x0 PUSH3 0x593 PUSH1 0x0 NOT DUP5 PUSH1 0x8 MUL PUSH3 0x573 JUMP JUMPDEST NOT DUP1 DUP4 AND SWAP2 POP POP SWAP3 SWAP2 POP POP JUMP JUMPDEST PUSH1 0x0 PUSH3 0x5AE DUP4 DUP4 PUSH3 0x580 JUMP JUMPDEST SWAP2 POP DUP3 PUSH1 0x2 MUL DUP3 OR SWAP1 POP SWAP3 SWAP2 POP POP JUMP JUMPDEST PUSH3 0x5C9 DUP3 PUSH3 0x37D JUMP JUMPDEST PUSH8 0xFFFFFFFFFFFFFFFF DUP2 GT ISZERO PUSH3 0x5E5 JUMPI PUSH3 0x5E4 PUSH3 0x12E JUMP JUMPDEST JUMPDEST PUSH3 0x5F1 DUP3 SLOAD PUSH3 0x3B7 JUMP JUMPDEST PUSH3 0x5FE DUP3 DUP3 DUP6 PUSH3 0x523 JUMP JUMPDEST PUSH1 0x0 PUSH1 0x20 SWAP1 POP PUSH1 0x1F DUP4 GT PUSH1 0x1 DUP2 EQ PUSH3 0x636 JUMPI PUSH1 0x0 DUP5 ISZERO PUSH3 0x621 JUMPI DUP3 DUP8 ADD MLOAD SWAP1 POP JUMPDEST PUSH3 0x62D DUP6 DUP3 PUSH3 0x5A0 JUMP JUMPDEST DUP7 SSTORE POP PUSH3 0x69D JUMP JUMPDEST PUSH1 0x1F NOT DUP5 AND PUSH3 0x646 DUP7 PUSH3 0x3EC JUMP JUMPDEST PUSH1 0x0 JUMPDEST DUP3 DUP2 LT ISZERO PUSH3 0x670 JUMPI DUP5 DUP10 ADD MLOAD DUP3 SSTORE PUSH1 0x1 DUP3 ADD SWAP2 POP PUSH1 0x20 DUP6 ADD SWAP5 POP PUSH1 0x20 DUP2 ADD SWAP1 POP PUSH3 0x649 JUMP JUMPDEST DUP7 DUP4 LT ISZERO PUSH3 0x690 JUMPI DUP5 DUP10 ADD MLOAD PUSH3 0x68C PUSH1 0x1F DUP10 AND DUP3 PUSH3 0x580 JUMP JUMPDEST DUP4 SSTORE POP JUMPDEST PUSH1 0x1 PUSH1 0x2 DUP9 MUL ADD DUP9 SSTORE POP POP POP JUMPDEST POP POP POP POP POP POP JUMP JUMPDEST PUSH32 0x4E487B7100000000000000000000000000000000000000000000000000000000 PUSH1 0x0 MSTORE PUSH1 0x11 PUSH1 0x4 MSTORE PUSH1 0x24 PUSH1 0x0 REVERT JUMPDEST PUSH1 0x0 PUSH3 0x6E1 DUP3 PUSH3 0x292 JUMP JUMPDEST SWAP2 POP PUSH3 0x6EE DUP4 PUSH3 0x292 JUMP JUMPDEST SWAP3 POP DUP3 DUP3 MUL PUSH3 0x6FE DUP2 PUSH3 0x292 JUMP JUMPDEST SWAP2 POP DUP3 DUP3 DIV DUP5 EQ DUP4 ISZERO OR PUSH3 0x718 JUMPI PUSH3 0x717 PUSH3 0x6A5 JUMP JUMPDEST JUMPDEST POP SWAP3 SWAP2 POP POP JUMP JUMPDEST PUSH1 0x0 PUSH3 0x72C DUP3 PUSH3 0x292 JUMP JUMPDEST SWAP2 POP PUSH3 0x739 DUP4 PUSH3 0x292 JUMP JUMPDEST SWAP3 POP DUP3 DUP3 ADD SWAP1 POP DUP1 DUP3 GT ISZERO PUSH3 0x754 JUMPI PUSH3 0x753 PUSH3 0x6A5 JUMP JUMPDEST JUMPDEST SWAP3 SWAP2 POP POP JUMP JUMPDEST PUSH32 0x4E487B7100000000000000000000000000000000000000000000000000000000 PUSH1 0x0 MSTORE PUSH1 0x21 PUSH1 0x4 MSTORE PUSH1 0x24 PUSH1 0x0 REVERT JUMPDEST PUSH2 0x1943 DUP1 PUSH3 0x799 PUSH1 0x0 CODECOPY PUSH1 0x0 RETURN INVALID PUSH1 0x80 PUSH1 0x40 MSTORE PUSH1 0x4 CALLDATASIZE LT PUSH2 0xA7 JUMPI PUSH1 0x0 CALLDATALOAD PUSH1 0xE0 SHR DUP1 PUSH4 0x7284E416 GT PUSH2 0x64 JUMPI DUP1 PUSH4 0x7284E416 EQ PUSH2 0x1AE JUMPI DUP1 PUSH4 0x7497211B EQ PUSH2 0x1D9 JUMPI DUP1 PUSH4 0x8DA5CB5B EQ PUSH2 0x202 JUMPI DUP1 PUSH4 0x8ECE7B91 EQ PUSH2 0x22D JUMPI DUP1 PUSH4 0xC19D93FB EQ PUSH2 0x256 JUMPI DUP1 PUSH4 0xCA1D209D EQ PUSH2 0x281 JUMPI PUSH2 0xA7 JUMP JUMPDEST DUP1 PUSH4 0x39AF9EB EQ PUSH2 0xAC JUMPI DUP1 PUSH4 0x6FDDE03 EQ PUSH2 0xEB JUMPI DUP1 PUSH4 0x29DCB0CF EQ PUSH2 0x116 JUMPI DUP1 PUSH4 0x3CCFD60B EQ PUSH2 0x141 JUMPI DUP1 PUSH4 0x40193883 EQ PUSH2 0x158 JUMPI DUP1 PUSH4 0x6F9FB98A EQ PUSH2 0x183 JUMPI JUMPDEST PUSH1 0x0 DUP1 REVERT JUMPDEST CALLVALUE DUP1 ISZERO PUSH2 0xB8 JUMPI PUSH1 0x0 DUP1 REVERT JUMPDEST POP PUSH2 0xD3 PUSH1 0x4 DUP1 CALLDATASIZE SUB DUP2 ADD SWAP1 PUSH2 0xCE SWAP2 SWAP1 PUSH2 0xC96 JUMP JUMPDEST PUSH2 0x29D JUMP JUMPDEST PUSH1 0x40 MLOAD PUSH2 0xE2 SWAP4 SWAP3 SWAP2 SWAP1 PUSH2 0xD62 JUMP JUMPDEST PUSH1 0x40 MLOAD DUP1 SWAP2 SUB SWAP1 RETURN JUMPDEST CALLVALUE DUP1 ISZERO PUSH2 0xF7 JUMPI PUSH1 0x0 DUP1 REVERT JUMPDEST POP PUSH2 0x100 PUSH2 0x35F JUMP JUMPDEST PUSH1 0x40 MLOAD PUSH2 0x10D SWAP2 SWAP1 PUSH2 0xDA0 JUMP JUMPDEST PUSH1 0x40 MLOAD DUP1 SWAP2 SUB SWAP1 RETURN JUMPDEST CALLVALUE DUP1 ISZERO PUSH2 0x122 JUMPI PUSH1 0x0 DUP1 REVERT JUMPDEST POP PUSH2 0x12B PUSH2 0x3ED JUMP JUMPDEST PUSH1 0x40 MLOAD PUSH2 0x138 SWAP2 SWAP1 PUSH2 0xDC2 JUMP JUMPDEST PUSH1 0x40 MLOAD DUP1 SWAP2 SUB SWAP1 RETURN JUMPDEST CALLVALUE DUP1 ISZERO PUSH2 0x14D JUMPI PUSH1 0x0 DUP1 REVERT JUMPDEST POP PUSH2 0x156 PUSH2 0x3F3 JUMP JUMPDEST STOP JUMPDEST CALLVALUE DUP1 ISZERO PUSH2 0x164 JUMPI PUSH1 0x0 DUP1 REVERT JUMPDEST POP PUSH2 0x16D PUSH2 0x5B5 JUMP JUMPDEST PUSH1 0x40 MLOAD PUSH2 0x17A SWAP2 SWAP1 PUSH2 0xDC2 JUMP JUMPDEST PUSH1 0x40 MLOAD DUP1 SWAP2 SUB SWAP1 RETURN JUMPDEST CALLVALUE DUP1 ISZERO PUSH2 0x18F JUMPI PUSH1 0x0 DUP1 REVERT JUMPDEST POP PUSH2 0x198 PUSH2 0x5BB JUMP JUMPDEST PUSH1 0x40 MLOAD PUSH2 0x1A5 SWAP2 SWAP1 PUSH2 0xDC2 JUMP JUMPDEST PUSH1 0x40 MLOAD DUP1 SWAP2 SUB SWAP1 RETURN JUMPDEST CALLVALUE DUP1 ISZERO PUSH2 0x1BA JUMPI PUSH1 0x0 DUP1 REVERT JUMPDEST POP PUSH2 0x1C3 PUSH2 0x5C3 JUMP JUMPDEST PUSH1 0x40 MLOAD PUSH2 0x1D0 SWAP2 SWAP1 PUSH2 0xDA0 JUMP JUMPDEST PUSH1 0x40 MLOAD DUP1 SWAP2 SUB SWAP1 RETURN JUMPDEST CALLVALUE DUP1 ISZERO PUSH2 0x1E5 JUMPI PUSH1 0x0 DUP1 REVERT JUMPDEST POP PUSH2 0x200 PUSH1 0x4 DUP1 CALLDATASIZE SUB DUP2 ADD SWAP1 PUSH2 0x1FB SWAP2 SWAP1 PUSH2 0xC96 JUMP JUMPDEST PUSH2 0x651 JUMP JUMPDEST STOP JUMPDEST CALLVALUE DUP1 ISZERO PUSH2 0x20E JUMPI PUSH1 0x0 DUP1 REVERT JUMPDEST POP PUSH2 0x217 PUSH2 0x7F7 JUMP JUMPDEST PUSH1 0x40 MLOAD PUSH2 0x224 SWAP2 SWAP1 PUSH2 0xE1E JUMP JUMPDEST PUSH1 0x40 MLOAD DUP1 SWAP2 SUB SWAP1 RETURN JUMPDEST CALLVALUE DUP1 ISZERO PUSH2 0x239 JUMPI PUSH1 0x0 DUP1 REVERT JUMPDEST POP PUSH2 0x254 PUSH1 0x4 DUP1 CALLDATASIZE SUB DUP2 ADD SWAP1 PUSH2 0x24F SWAP2 SWAP1 PUSH2 0xF6E JUMP JUMPDEST PUSH2 0x81D JUMP JUMPDEST STOP JUMPDEST CALLVALUE DUP1 ISZERO PUSH2 0x262 JUMPI PUSH1 0x0 DUP1 REVERT JUMPDEST POP PUSH2 0x26B PUSH2 0x9AB JUMP JUMPDEST PUSH1 0x40 MLOAD PUSH2 0x278 SWAP2 SWAP1 PUSH2 0x1041 JUMP JUMPDEST PUSH1 0x40 MLOAD DUP1 SWAP2 SUB SWAP1 RETURN JUMPDEST PUSH2 0x29B PUSH1 0x4 DUP1 CALLDATASIZE SUB DUP2 ADD SWAP1 PUSH2 0x296 SWAP2 SWAP1 PUSH2 0xC96 JUMP JUMPDEST PUSH2 0x9BE JUMP JUMPDEST STOP JUMPDEST PUSH1 0x5 DUP2 DUP2 SLOAD DUP2 LT PUSH2 0x2AD JUMPI PUSH1 0x0 DUP1 REVERT JUMPDEST SWAP1 PUSH1 0x0 MSTORE PUSH1 0x20 PUSH1 0x0 KECCAK256 SWAP1 PUSH1 0x3 MUL ADD PUSH1 0x0 SWAP2 POP SWAP1 POP DUP1 PUSH1 0x0 ADD DUP1 SLOAD PUSH2 0x2D0 SWAP1 PUSH2 0x108B JUMP JUMPDEST DUP1 PUSH1 0x1F ADD PUSH1 0x20 DUP1 SWAP2 DIV MUL PUSH1 0x20 ADD PUSH1 0x40 MLOAD SWAP1 DUP2 ADD PUSH1 0x40 MSTORE DUP1 SWAP3 SWAP2 SWAP1 DUP2 DUP2 MSTORE PUSH1 0x20 ADD DUP3 DUP1 SLOAD PUSH2 0x2FC SWAP1 PUSH2 0x108B JUMP JUMPDEST DUP1 ISZERO PUSH2 0x349 JUMPI DUP1 PUSH1 0x1F LT PUSH2 0x31E JUMPI PUSH2 0x100 DUP1 DUP4 SLOAD DIV MUL DUP4 MSTORE SWAP2 PUSH1 0x20 ADD SWAP2 PUSH2 0x349 JUMP JUMPDEST DUP3 ADD SWAP2 SWAP1 PUSH1 0x0 MSTORE PUSH1 0x20 PUSH1 0x0 KECCAK256 SWAP1 JUMPDEST DUP2 SLOAD DUP2 MSTORE SWAP1 PUSH1 0x1 ADD SWAP1 PUSH1 0x20 ADD DUP1 DUP4 GT PUSH2 0x32C JUMPI DUP3 SWAP1 SUB PUSH1 0x1F AND DUP3 ADD SWAP2 JUMPDEST POP POP POP POP POP SWAP1 DUP1 PUSH1 0x1 ADD SLOAD SWAP1 DUP1 PUSH1 0x2 ADD SLOAD SWAP1 POP DUP4 JUMP JUMPDEST PUSH1 0x0 DUP1 SLOAD PUSH2 0x36C SWAP1 PUSH2 0x108B JUMP JUMPDEST DUP1 PUSH1 0x1F ADD PUSH1 0x20 DUP1 SWAP2 DIV MUL PUSH1 0x20 ADD PUSH1 0x40 MLOAD SWAP1 DUP2 ADD PUSH1 0x40 MSTORE DUP1 SWAP3 SWAP2 SWAP1 DUP2 DUP2 MSTORE PUSH1 0x20 ADD DUP3 DUP1 SLOAD PUSH2 0x398 SWAP1 PUSH2 0x108B JUMP JUMPDEST DUP1 ISZERO PUSH2 0x3E5 JUMPI DUP1 PUSH1 0x1F LT PUSH2 0x3BA JUMPI PUSH2 0x100 DUP1 DUP4 SLOAD DIV MUL DUP4 MSTORE SWAP2 PUSH1 0x20 ADD SWAP2 PUSH2 0x3E5 JUMP JUMPDEST DUP3 ADD SWAP2 SWAP1 PUSH1 0x0 MSTORE PUSH1 0x20 PUSH1 0x0 KECCAK256 SWAP1 JUMPDEST DUP2 SLOAD DUP2 MSTORE SWAP1 PUSH1 0x1 ADD SWAP1 PUSH1 0x20 ADD DUP1 DUP4 GT PUSH2 0x3C8 JUMPI DUP3 SWAP1 SUB PUSH1 0x1F AND DUP3 ADD SWAP2 JUMPDEST POP POP POP POP POP DUP2 JUMP JUMPDEST PUSH1 0x3 SLOAD DUP2 JUMP JUMPDEST PUSH1 0x4 PUSH1 0x0 SWAP1 SLOAD SWAP1 PUSH2 0x100 EXP SWAP1 DIV PUSH20 0xFFFFFFFFFFFFFFFFFFFFFFFFFFFFFFFFFFFFFFFF AND PUSH20 0xFFFFFFFFFFFFFFFFFFFFFFFFFFFFFFFFFFFFFFFF AND CALLER PUSH20 0xFFFFFFFFFFFFFFFFFFFFFFFFFFFFFFFFFFFFFFFF AND EQ PUSH2 0x483 JUMPI PUSH1 0x40 MLOAD PUSH32 0x8C379A000000000000000000000000000000000000000000000000000000000 DUP2 MSTORE PUSH1 0x4 ADD PUSH2 0x47A SWAP1 PUSH2 0x1108 JUMP JUMPDEST PUSH1 0x40 MLOAD DUP1 SWAP2 SUB SWAP1 REVERT JUMPDEST PUSH2 0x48B PUSH2 0xB28 JUMP JUMPDEST PUSH1 0x1 PUSH1 0x2 DUP2 GT ISZERO PUSH2 0x49F JUMPI PUSH2 0x49E PUSH2 0xFCA JUMP JUMPDEST JUMPDEST PUSH1 0x4 PUSH1 0x14 SWAP1 SLOAD SWAP1 PUSH2 0x100 EXP SWAP1 DIV PUSH1 0xFF AND PUSH1 0x2 DUP2 GT ISZERO PUSH2 0x4C1 JUMPI PUSH2 0x4C0 PUSH2 0xFCA JUMP JUMPDEST JUMPDEST EQ PUSH2 0x501 JUMPI PUSH1 0x40 MLOAD PUSH32 0x8C379A000000000000000000000000000000000000000000000000000000000 DUP2 MSTORE PUSH1 0x4 ADD PUSH2 0x4F8 SWAP1 PUSH2 0x1174 JUMP JUMPDEST PUSH1 0x40 MLOAD DUP1 SWAP2 SUB SWAP1 REVERT JUMPDEST PUSH1 0x0 SELFBALANCE SWAP1 POP PUSH1 0x0 DUP2 GT PUSH2 0x549 JUMPI PUSH1 0x40 MLOAD PUSH32 0x8C379A000000000000000000000000000000000000000000000000000000000 DUP2 MSTORE PUSH1 0x4 ADD PUSH2 0x540 SWAP1 PUSH2 0x11E0 JUMP JUMPDEST PUSH1 0x40 MLOAD DUP1 SWAP2 SUB SWAP1 REVERT JUMPDEST PUSH1 0x4 PUSH1 0x0 SWAP1 SLOAD SWAP1 PUSH2 0x100 EXP SWAP1 DIV PUSH20 0xFFFFFFFFFFFFFFFFFFFFFFFFFFFFFFFFFFFFFFFF AND PUSH20 0xFFFFFFFFFFFFFFFFFFFFFFFFFFFFFFFFFFFFFFFF AND PUSH2 0x8FC DUP3 SWAP1 DUP2 ISZERO MUL SWAP1 PUSH1 0x40 MLOAD PUSH1 0x0 PUSH1 0x40 MLOAD DUP1 DUP4 SUB DUP2 DUP6 DUP9 DUP9 CALL SWAP4 POP POP POP POP ISZERO DUP1 ISZERO PUSH2 0x5B1 JUMPI RETURNDATASIZE PUSH1 0x0 DUP1 RETURNDATACOPY RETURNDATASIZE PUSH1 0x0 REVERT JUMPDEST POP POP JUMP JUMPDEST PUSH1 0x2 SLOAD DUP2 JUMP JUMPDEST PUSH1 0x0 SELFBALANCE SWAP1 POP SWAP1 JUMP JUMPDEST PUSH1 0x1 DUP1 SLOAD PUSH2 0x5D0 SWAP1 PUSH2 0x108B JUMP JUMPDEST DUP1 PUSH1 0x1F ADD PUSH1 0x20 DUP1 SWAP2 DIV MUL PUSH1 0x20 ADD PUSH1 0x40 MLOAD SWAP1 DUP2 ADD PUSH1 0x40 MSTORE DUP1 SWAP3 SWAP2 SWAP1 DUP2 DUP2 MSTORE PUSH1 0x20 ADD DUP3 DUP1 SLOAD PUSH2 0x5FC SWAP1 PUSH2 0x108B JUMP JUMPDEST DUP1 ISZERO PUSH2 0x649 JUMPI DUP1 PUSH1 0x1F LT PUSH2 0x61E JUMPI PUSH2 0x100 DUP1 DUP4 SLOAD DIV MUL DUP4 MSTORE SWAP2 PUSH1 0x20 ADD SWAP2 PUSH2 0x649 JUMP JUMPDEST DUP3 ADD SWAP2 SWAP1 PUSH1 0x0 MSTORE PUSH1 0x20 PUSH1 0x0 KECCAK256 SWAP1 JUMPDEST DUP2 SLOAD DUP2 MSTORE SWAP1 PUSH1 0x1 ADD SWAP1 PUSH1 0x20 ADD DUP1 DUP4 GT PUSH2 0x62C JUMPI DUP3 SWAP1 SUB PUSH1 0x1F AND DUP3 ADD SWAP2 JUMPDEST POP POP POP POP POP DUP2 JUMP JUMPDEST PUSH1 0x4 PUSH1 0x0 SWAP1 SLOAD SWAP1 PUSH2 0x100 EXP SWAP1 DIV PUSH20 0xFFFFFFFFFFFFFFFFFFFFFFFFFFFFFFFFFFFFFFFF AND PUSH20 0xFFFFFFFFFFFFFFFFFFFFFFFFFFFFFFFFFFFFFFFF AND CALLER PUSH20 0xFFFFFFFFFFFFFFFFFFFFFFFFFFFFFFFFFFFFFFFF AND EQ PUSH2 0x6E1 JUMPI PUSH1 0x40 MLOAD PUSH32 0x8C379A000000000000000000000000000000000000000000000000000000000 DUP2 MSTORE PUSH1 0x4 ADD PUSH2 0x6D8 SWAP1 PUSH2 0x1108 JUMP JUMPDEST PUSH1 0x40 MLOAD DUP1 SWAP2 SUB SWAP1 REVERT JUMPDEST PUSH1 0x5 DUP1 SLOAD SWAP1 POP DUP2 LT PUSH2 0x728 JUMPI PUSH1 0x40 MLOAD PUSH32 0x8C379A000000000000000000000000000000000000000000000000000000000 DUP2 MSTORE PUSH1 0x4 ADD PUSH2 0x71F SWAP1 PUSH2 0x124C JUMP JUMPDEST PUSH1 0x40 MLOAD DUP1 SWAP2 SUB SWAP1 REVERT JUMPDEST PUSH1 0x5 PUSH1 0x1 PUSH1 0x5 DUP1 SLOAD SWAP1 POP PUSH2 0x73C SWAP2 SWAP1 PUSH2 0x129B JUMP JUMPDEST DUP2 SLOAD DUP2 LT PUSH2 0x74D JUMPI PUSH2 0x74C PUSH2 0x12CF JUMP JUMPDEST JUMPDEST SWAP1 PUSH1 0x0 MSTORE PUSH1 0x20 PUSH1 0x0 KECCAK256 SWAP1 PUSH1 0x3 MUL ADD PUSH1 0x5 DUP3 DUP2 SLOAD DUP2 LT PUSH2 0x76F JUMPI PUSH2 0x76E PUSH2 0x12CF JUMP JUMPDEST JUMPDEST SWAP1 PUSH1 0x0 MSTORE PUSH1 0x20 PUSH1 0x0 KECCAK256 SWAP1 PUSH1 0x3 MUL ADD PUSH1 0x0 DUP3 ADD DUP2 PUSH1 0x0 ADD SWAP1 DUP2 PUSH2 0x791 SWAP2 SWAP1 PUSH2 0x14C0 JUMP JUMPDEST POP PUSH1 0x1 DUP3 ADD SLOAD DUP2 PUSH1 0x1 ADD SSTORE PUSH1 0x2 DUP3 ADD SLOAD DUP2 PUSH1 0x2 ADD SSTORE SWAP1 POP POP PUSH1 0x5 DUP1 SLOAD DUP1 PUSH2 0x7BB JUMPI PUSH2 0x7BA PUSH2 0x15A8 JUMP JUMPDEST JUMPDEST PUSH1 0x1 SWAP1 SUB DUP2 DUP2 SWAP1 PUSH1 0x0 MSTORE PUSH1 0x20 PUSH1 0x0 KECCAK256 SWAP1 PUSH1 0x3 MUL ADD PUSH1 0x0 DUP1 DUP3 ADD PUSH1 0x0 PUSH2 0x7E0 SWAP2 SWAP1 PUSH2 0xBEF JUMP JUMPDEST PUSH1 0x1 DUP3 ADD PUSH1 0x0 SWAP1 SSTORE PUSH1 0x2 DUP3 ADD PUSH1 0x0 SWAP1 SSTORE POP POP SWAP1 SSTORE POP JUMP JUMPDEST PUSH1 0x4 PUSH1 0x0 SWAP1 SLOAD SWAP1 PUSH2 0x100 EXP SWAP1 DIV PUSH20 0xFFFFFFFFFFFFFFFFFFFFFFFFFFFFFFFFFFFFFFFF AND DUP2 JUMP JUMPDEST PUSH1 0x4 PUSH1 0x0 SWAP1 SLOAD SWAP1 PUSH2 0x100 EXP SWAP1 DIV PUSH20 0xFFFFFFFFFFFFFFFFFFFFFFFFFFFFFFFFFFFFFFFF AND PUSH20 0xFFFFFFFFFFFFFFFFFFFFFFFFFFFFFFFFFFFFFFFF AND CALLER PUSH20 0xFFFFFFFFFFFFFFFFFFFFFFFFFFFFFFFFFFFFFFFF AND EQ PUSH2 0x8AD JUMPI PUSH1 0x40 MLOAD PUSH32 0x8C379A000000000000000000000000000000000000000000000000000000000 DUP2 MSTORE PUSH1 0x4 ADD PUSH2 0x8A4 SWAP1 PUSH2 0x1108 JUMP JUMPDEST PUSH1 0x40 MLOAD DUP1 SWAP2 SUB SWAP1 REVERT JUMPDEST PUSH1 0x0 DUP2 GT PUSH2 0x8F0 JUMPI PUSH1 0x40 MLOAD PUSH32 0x8C379A000000000000000000000000000000000000000000000000000000000 DUP2 MSTORE PUSH1 0x4 ADD PUSH2 0x8E7 SWAP1 PUSH2 0x1623 JUMP JUMPDEST PUSH1 0x40 MLOAD DUP1 SWAP2 SUB SWAP1 REVERT JUMPDEST PUSH1 0x0 DUP3 MLOAD GT PUSH2 0x934 JUMPI PUSH1 0x40 MLOAD PUSH32 0x8C379A000000000000000000000000000000000000000000000000000000000 DUP2 MSTORE PUSH1 0x4 ADD PUSH2 0x92B SWAP1 PUSH2 0x168F JUMP JUMPDEST PUSH1 0x40 MLOAD DUP1 SWAP2 SUB SWAP1 REVERT JUMPDEST PUSH1 0x5 PUSH1 0x40 MLOAD DUP1 PUSH1 0x60 ADD PUSH1 0x40 MSTORE DUP1 DUP5 DUP2 MSTORE PUSH1 0x20 ADD DUP4 DUP2 MSTORE PUSH1 0x20 ADD PUSH1 0x0 DUP2 MSTORE POP SWAP1 DUP1 PUSH1 0x1 DUP2 SLOAD ADD DUP1 DUP3 SSTORE DUP1 SWAP2 POP POP PUSH1 0x1 SWAP1 SUB SWAP1 PUSH1 0x0 MSTORE PUSH1 0x20 PUSH1 0x0 KECCAK256 SWAP1 PUSH1 0x3 MUL ADD PUSH1 0x0 SWAP1 SWAP2 SWAP1 SWAP2 SWAP1 SWAP2 POP PUSH1 0x0 DUP3 ADD MLOAD DUP2 PUSH1 0x0 ADD SWAP1 DUP2 PUSH2 0x990 SWAP2 SWAP1 PUSH2 0x16AF JUMP JUMPDEST POP PUSH1 0x20 DUP3 ADD MLOAD DUP2 PUSH1 0x1 ADD SSTORE PUSH1 0x40 DUP3 ADD MLOAD DUP2 PUSH1 0x2 ADD SSTORE POP POP POP POP JUMP JUMPDEST PUSH1 0x4 PUSH1 0x14 SWAP1 SLOAD SWAP1 PUSH2 0x100 EXP SWAP1 DIV PUSH1 0xFF AND DUP2 JUMP JUMPDEST PUSH1 0x0 PUSH1 0x2 DUP2 GT ISZERO PUSH2 0x9D2 JUMPI PUSH2 0x9D1 PUSH2 0xFCA JUMP JUMPDEST JUMPDEST PUSH1 0x4 PUSH1 0x14 SWAP1 SLOAD SWAP1 PUSH2 0x100 EXP SWAP1 DIV PUSH1 0xFF AND PUSH1 0x2 DUP2 GT ISZERO PUSH2 0x9F4 JUMPI PUSH2 0x9F3 PUSH2 0xFCA JUMP JUMPDEST JUMPDEST EQ PUSH2 0xA34 JUMPI PUSH1 0x40 MLOAD PUSH32 0x8C379A000000000000000000000000000000000000000000000000000000000 DUP2 MSTORE PUSH1 0x4 ADD PUSH2 0xA2B SWAP1 PUSH2 0x17CD JUMP JUMPDEST PUSH1 0x40 MLOAD DUP1 SWAP2 SUB SWAP1 REVERT JUMPDEST PUSH1 0x5 DUP1 SLOAD SWAP1 POP DUP2 LT PUSH2 0xA7B JUMPI PUSH1 0x40 MLOAD PUSH32 0x8C379A000000000000000000000000000000000000000000000000000000000 DUP2 MSTORE PUSH1 0x4 ADD PUSH2 0xA72 SWAP1 PUSH2 0x1839 JUMP JUMPDEST PUSH1 0x40 MLOAD DUP1 SWAP2 SUB SWAP1 REVERT JUMPDEST PUSH1 0x5 DUP2 DUP2 SLOAD DUP2 LT PUSH2 0xA8F JUMPI PUSH2 0xA8E PUSH2 0x12CF JUMP JUMPDEST JUMPDEST SWAP1 PUSH1 0x0 MSTORE PUSH1 0x20 PUSH1 0x0 KECCAK256 SWAP1 PUSH1 0x3 MUL ADD PUSH1 0x1 ADD SLOAD CALLVALUE EQ PUSH2 0xAE2 JUMPI PUSH1 0x40 MLOAD PUSH32 0x8C379A000000000000000000000000000000000000000000000000000000000 DUP2 MSTORE PUSH1 0x4 ADD PUSH2 0xAD9 SWAP1 PUSH2 0x18A5 JUMP JUMPDEST PUSH1 0x40 MLOAD DUP1 SWAP2 SUB SWAP1 REVERT JUMPDEST PUSH1 0x5 DUP2 DUP2 SLOAD DUP2 LT PUSH2 0xAF6 JUMPI PUSH2 0xAF5 PUSH2 0x12CF JUMP JUMPDEST JUMPDEST SWAP1 PUSH1 0x0 MSTORE PUSH1 0x20 PUSH1 0x0 KECCAK256 SWAP1 PUSH1 0x3 MUL ADD PUSH1 0x2 ADD PUSH1 0x0 DUP2 SLOAD DUP1 SWAP3 SWAP2 SWAP1 PUSH2 0xB18 SWAP1 PUSH2 0x18C5 JUMP JUMPDEST SWAP2 SWAP1 POP SSTORE POP PUSH2 0xB25 PUSH2 0xB28 JUMP JUMPDEST POP JUMP JUMPDEST PUSH1 0x0 PUSH1 0x2 DUP2 GT ISZERO PUSH2 0xB3C JUMPI PUSH2 0xB3B PUSH2 0xFCA JUMP JUMPDEST JUMPDEST PUSH1 0x4 PUSH1 0x14 SWAP1 SLOAD SWAP1 PUSH2 0x100 EXP SWAP1 DIV PUSH1 0xFF AND PUSH1 0x2 DUP2 GT ISZERO PUSH2 0xB5E JUMPI PUSH2 0xB5D PUSH2 0xFCA JUMP JUMPDEST JUMPDEST SUB PUSH2 0xBED JUMPI PUSH1 0x3 SLOAD TIMESTAMP LT PUSH2 0xBAE JUMPI PUSH1 0x2 SLOAD SELFBALANCE LT ISZERO PUSH2 0xB7D JUMPI PUSH1 0x2 PUSH2 0xB80 JUMP JUMPDEST PUSH1 0x1 JUMPDEST PUSH1 0x4 PUSH1 0x14 PUSH2 0x100 EXP DUP2 SLOAD DUP2 PUSH1 0xFF MUL NOT AND SWAP1 DUP4 PUSH1 0x2 DUP2 GT ISZERO PUSH2 0xBA4 JUMPI PUSH2 0xBA3 PUSH2 0xFCA JUMP JUMPDEST JUMPDEST MUL OR SWAP1 SSTORE POP PUSH2 0xBEC JUMP JUMPDEST PUSH1 0x2 SLOAD SELFBALANCE LT ISZERO PUSH2 0xBBF JUMPI PUSH1 0x0 PUSH2 0xBC2 JUMP JUMPDEST PUSH1 0x1 JUMPDEST PUSH1 0x4 PUSH1 0x14 PUSH2 0x100 EXP DUP2 SLOAD DUP2 PUSH1 0xFF MUL NOT AND SWAP1 DUP4 PUSH1 0x2 DUP2 GT ISZERO PUSH2 0xBE6 JUMPI PUSH2 0xBE5 PUSH2 0xFCA JUMP JUMPDEST JUMPDEST MUL OR SWAP1 SSTORE POP JUMPDEST JUMPDEST JUMP JUMPDEST POP DUP1 SLOAD PUSH2 0xBFB SWAP1 PUSH2 0x108B JUMP JUMPDEST PUSH1 0x0 DUP3 SSTORE DUP1 PUSH1 0x1F LT PUSH2 0xC0D JUMPI POP PUSH2 0xC2C JUMP JUMPDEST PUSH1 0x1F ADD PUSH1 0x20 SWAP1 DIV SWAP1 PUSH1 0x0 MSTORE PUSH1 0x20 PUSH1 0x0 KECCAK256 SWAP1 DUP2 ADD SWAP1 PUSH2 0xC2B SWAP2 SWAP1 PUSH2 0xC2F JUMP JUMPDEST JUMPDEST POP JUMP JUMPDEST JUMPDEST DUP1 DUP3 GT ISZERO PUSH2 0xC48 JUMPI PUSH1 0x0 DUP2 PUSH1 0x0 SWAP1 SSTORE POP PUSH1 0x1 ADD PUSH2 0xC30 JUMP JUMPDEST POP SWAP1 JUMP JUMPDEST PUSH1 0x0 PUSH1 0x40 MLOAD SWAP1 POP SWAP1 JUMP JUMPDEST PUSH1 0x0 DUP1 REVERT JUMPDEST PUSH1 0x0 DUP1 REVERT JUMPDEST PUSH1 0x0 DUP2 SWAP1 POP SWAP2 SWAP1 POP JUMP JUMPDEST PUSH2 0xC73 DUP2 PUSH2 0xC60 JUMP JUMPDEST DUP2 EQ PUSH2 0xC7E JUMPI PUSH1 0x0 DUP1 REVERT JUMPDEST POP JUMP JUMPDEST PUSH1 0x0 DUP2 CALLDATALOAD SWAP1 POP PUSH2 0xC90 DUP2 PUSH2 0xC6A JUMP JUMPDEST SWAP3 SWAP2 POP POP JUMP JUMPDEST PUSH1 0x0 PUSH1 0x20 DUP3 DUP5 SUB SLT ISZERO PUSH2 0xCAC JUMPI PUSH2 0xCAB PUSH2 0xC56 JUMP JUMPDEST JUMPDEST PUSH1 0x0 PUSH2 0xCBA DUP5 DUP3 DUP6 ADD PUSH2 0xC81 JUMP JUMPDEST SWAP2 POP POP SWAP3 SWAP2 POP POP JUMP JUMPDEST PUSH1 0x0 DUP2 MLOAD SWAP1 POP SWAP2 SWAP1 POP JUMP JUMPDEST PUSH1 0x0 DUP3 DUP3 MSTORE PUSH1 0x20 DUP3 ADD SWAP1 POP SWAP3 SWAP2 POP POP JUMP JUMPDEST PUSH1 0x0 JUMPDEST DUP4 DUP2 LT ISZERO PUSH2 0xCFD JUMPI DUP1 DUP3 ADD MLOAD DUP2 DUP5 ADD MSTORE PUSH1 0x20 DUP2 ADD SWAP1 POP PUSH2 0xCE2 JUMP JUMPDEST PUSH1 0x0 DUP5 DUP5 ADD MSTORE POP POP POP POP JUMP JUMPDEST PUSH1 0x0 PUSH1 0x1F NOT PUSH1 0x1F DUP4 ADD AND SWAP1 POP SWAP2 SWAP1 POP JUMP JUMPDEST PUSH1 0x0 PUSH2 0xD25 DUP3 PUSH2 0xCC3 JUMP JUMPDEST PUSH2 0xD2F DUP2 DUP6 PUSH2 0xCCE JUMP JUMPDEST SWAP4 POP PUSH2 0xD3F DUP2 DUP6 PUSH1 0x20 DUP7 ADD PUSH2 0xCDF JUMP JUMPDEST PUSH2 0xD48 DUP2 PUSH2 0xD09 JUMP JUMPDEST DUP5 ADD SWAP2 POP POP SWAP3 SWAP2 POP POP JUMP JUMPDEST PUSH2 0xD5C DUP2 PUSH2 0xC60 JUMP JUMPDEST DUP3 MSTORE POP POP JUMP JUMPDEST PUSH1 0x0 PUSH1 0x60 DUP3 ADD SWAP1 POP DUP2 DUP2 SUB PUSH1 0x0 DUP4 ADD MSTORE PUSH2 0xD7C DUP2 DUP7 PUSH2 0xD1A JUMP JUMPDEST SWAP1 POP PUSH2 0xD8B PUSH1 0x20 DUP4 ADD DUP6 PUSH2 0xD53 JUMP JUMPDEST PUSH2 0xD98 PUSH1 0x40 DUP4 ADD DUP5 PUSH2 0xD53 JUMP JUMPDEST SWAP5 SWAP4 POP POP POP POP JUMP JUMPDEST PUSH1 0x0 PUSH1 0x20 DUP3 ADD SWAP1 POP DUP2 DUP2 SUB PUSH1 0x0 DUP4 ADD MSTORE PUSH2 0xDBA DUP2 DUP5 PUSH2 0xD1A JUMP JUMPDEST SWAP1 POP SWAP3 SWAP2 POP POP JUMP JUMPDEST PUSH1 0x0 PUSH1 0x20 DUP3 ADD SWAP1 POP PUSH2 0xDD7 PUSH1 0x0 DUP4 ADD DUP5 PUSH2 0xD53 JUMP JUMPDEST SWAP3 SWAP2 POP POP JUMP JUMPDEST PUSH1 0x0 PUSH20 0xFFFFFFFFFFFFFFFFFFFFFFFFFFFFFFFFFFFFFFFF DUP3 AND SWAP1 POP SWAP2 SWAP1 POP JUMP JUMPDEST PUSH1 0x0 PUSH2 0xE08 DUP3 PUSH2 0xDDD JUMP JUMPDEST SWAP1 POP SWAP2 SWAP1 POP JUMP JUMPDEST PUSH2 0xE18 DUP2 PUSH2 0xDFD JUMP JUMPDEST DUP3 MSTORE POP POP JUMP JUMPDEST PUSH1 0x0 PUSH1 0x20 DUP3 ADD SWAP1 POP PUSH2 0xE33 PUSH1 0x0 DUP4 ADD DUP5 PUSH2 0xE0F JUMP JUMPDEST SWAP3 SWAP2 POP POP JUMP JUMPDEST PUSH1 0x0 DUP1 REVERT JUMPDEST PUSH1 0x0 DUP1 REVERT JUMPDEST PUSH32 0x4E487B7100000000000000000000000000000000000000000000000000000000 PUSH1 0x0 MSTORE PUSH1 0x41 PUSH1 0x4 MSTORE PUSH1 0x24 PUSH1 0x0 REVERT JUMPDEST PUSH2 0xE7B DUP3 PUSH2 0xD09 JUMP JUMPDEST DUP2 ADD DUP2 DUP2 LT PUSH8 0xFFFFFFFFFFFFFFFF DUP3 GT OR ISZERO PUSH2 0xE9A JUMPI PUSH2 0xE99 PUSH2 0xE43 JUMP JUMPDEST JUMPDEST DUP1 PUSH1 0x40 MSTORE POP POP POP JUMP JUMPDEST PUSH1 0x0 PUSH2 0xEAD PUSH2 0xC4C JUMP JUMPDEST SWAP1 POP PUSH2 0xEB9 DUP3 DUP3 PUSH2 0xE72 JUMP JUMPDEST SWAP2 SWAP1 POP JUMP JUMPDEST PUSH1 0x0 PUSH8 0xFFFFFFFFFFFFFFFF DUP3 GT ISZERO PUSH2 0xED9 JUMPI PUSH2 0xED8 PUSH2 0xE43 JUMP JUMPDEST JUMPDEST PUSH2 0xEE2 DUP3 PUSH2 0xD09 JUMP JUMPDEST SWAP1 POP PUSH1 0x20 DUP2 ADD SWAP1 POP SWAP2 SWAP1 POP JUMP JUMPDEST DUP3 DUP2 DUP4 CALLDATACOPY PUSH1 0x0 DUP4 DUP4 ADD MSTORE POP POP POP JUMP JUMPDEST PUSH1 0x0 PUSH2 0xF11 PUSH2 0xF0C DUP5 PUSH2 0xEBE JUMP JUMPDEST PUSH2 0xEA3 JUMP JUMPDEST SWAP1 POP DUP3 DUP2 MSTORE PUSH1 0x20 DUP2 ADD DUP5 DUP5 DUP5 ADD GT ISZERO PUSH2 0xF2D JUMPI PUSH2 0xF2C PUSH2 0xE3E JUMP JUMPDEST JUMPDEST PUSH2 0xF38 DUP5 DUP3 DUP6 PUSH2 0xEEF JUMP JUMPDEST POP SWAP4 SWAP3 POP POP POP JUMP JUMPDEST PUSH1 0x0 DUP3 PUSH1 0x1F DUP4 ADD SLT PUSH2 0xF55 JUMPI PUSH2 0xF54 PUSH2 0xE39 JUMP JUMPDEST JUMPDEST DUP2 CALLDATALOAD PUSH2 0xF65 DUP5 DUP3 PUSH1 0x20 DUP7 ADD PUSH2 0xEFE JUMP JUMPDEST SWAP2 POP POP SWAP3 SWAP2 POP POP JUMP JUMPDEST PUSH1 0x0 DUP1 PUSH1 0x40 DUP4 DUP6 SUB SLT ISZERO PUSH2 0xF85 JUMPI PUSH2 0xF84 PUSH2 0xC56 JUMP JUMPDEST JUMPDEST PUSH1 0x0 DUP4 ADD CALLDATALOAD PUSH8 0xFFFFFFFFFFFFFFFF DUP2 GT ISZERO PUSH2 0xFA3 JUMPI PUSH2 0xFA2 PUSH2 0xC5B JUMP JUMPDEST JUMPDEST PUSH2 0xFAF DUP6 DUP3 DUP7 ADD PUSH2 0xF40 JUMP JUMPDEST SWAP3 POP POP PUSH1 0x20 PUSH2 0xFC0 DUP6 DUP3 DUP7 ADD PUSH2 0xC81 JUMP JUMPDEST SWAP2 POP POP SWAP3 POP SWAP3 SWAP1 POP JUMP JUMPDEST PUSH32 0x4E487B7100000000000000000000000000000000000000000000000000000000 PUSH1 0x0 MSTORE PUSH1 0x21 PUSH1 0x4 MSTORE PUSH1 0x24 PUSH1 0x0 REVERT JUMPDEST PUSH1 0x3 DUP2 LT PUSH2 0x100A JUMPI PUSH2 0x1009 PUSH2 0xFCA JUMP JUMPDEST JUMPDEST POP JUMP JUMPDEST PUSH1 0x0 DUP2 SWAP1 POP PUSH2 0x101B DUP3 PUSH2 0xFF9 JUMP JUMPDEST SWAP2 SWAP1 POP JUMP JUMPDEST PUSH1 0x0 PUSH2 0x102B DUP3 PUSH2 0x100D JUMP JUMPDEST SWAP1 POP SWAP2 SWAP1 POP JUMP JUMPDEST PUSH2 0x103B DUP2 PUSH2 0x1020 JUMP JUMPDEST DUP3 MSTORE POP POP JUMP JUMPDEST PUSH1 0x0 PUSH1 0x20 DUP3 ADD SWAP1 POP PUSH2 0x1056 PUSH1 0x0 DUP4 ADD DUP5 PUSH2 0x1032 JUMP JUMPDEST SWAP3 SWAP2 POP POP JUMP JUMPDEST PUSH32 0x4E487B7100000000000000000000000000000000000000000000000000000000 PUSH1 0x0 MSTORE PUSH1 0x22 PUSH1 0x4 MSTORE PUSH1 0x24 PUSH1 0x0 REVERT JUMPDEST PUSH1 0x0 PUSH1 0x2 DUP3 DIV SWAP1 POP PUSH1 0x1 DUP3 AND DUP1 PUSH2 0x10A3 JUMPI PUSH1 0x7F DUP3 AND SWAP2 POP JUMPDEST PUSH1 0x20 DUP3 LT DUP2 SUB PUSH2 0x10B6 JUMPI PUSH2 0x10B5 PUSH2 0x105C JUMP JUMPDEST JUMPDEST POP SWAP2 SWAP1 POP JUMP JUMPDEST PUSH32 0x4E6F7420746865206F776E657200000000000000000000000000000000000000 PUSH1 0x0 DUP3 ADD MSTORE POP JUMP JUMPDEST PUSH1 0x0 PUSH2 0x10F2 PUSH1 0xD DUP4 PUSH2 0xCCE JUMP JUMPDEST SWAP2 POP PUSH2 0x10FD DUP3 PUSH2 0x10BC JUMP JUMPDEST PUSH1 0x20 DUP3 ADD SWAP1 POP SWAP2 SWAP1 POP JUMP JUMPDEST PUSH1 0x0 PUSH1 0x20 DUP3 ADD SWAP1 POP DUP2 DUP2 SUB PUSH1 0x0 DUP4 ADD MSTORE PUSH2 0x1121 DUP2 PUSH2 0x10E5 JUMP JUMPDEST SWAP1 POP SWAP2 SWAP1 POP JUMP JUMPDEST PUSH32 0x43616D706169676E206E6F74207375636365737366756C207965740000000000 PUSH1 0x0 DUP3 ADD MSTORE POP JUMP JUMPDEST PUSH1 0x0 PUSH2 0x115E PUSH1 0x1B DUP4 PUSH2 0xCCE JUMP JUMPDEST SWAP2 POP PUSH2 0x1169 DUP3 PUSH2 0x1128 JUMP JUMPDEST PUSH1 0x20 DUP3 ADD SWAP1 POP SWAP2 SWAP1 POP JUMP JUMPDEST PUSH1 0x0 PUSH1 0x20 DUP3 ADD SWAP1 POP DUP2 DUP2 SUB PUSH1 0x0 DUP4 ADD MSTORE PUSH2 0x118D DUP2 PUSH2 0x1151 JUMP JUMPDEST SWAP1 POP SWAP2 SWAP1 POP JUMP JUMPDEST PUSH32 0x4E6F2062616C616E636520746F20776974686472617700000000000000000000 PUSH1 0x0 DUP3 ADD MSTORE POP JUMP JUMPDEST PUSH1 0x0 PUSH2 0x11CA PUSH1 0x16 DUP4 PUSH2 0xCCE JUMP JUMPDEST SWAP2 POP PUSH2 0x11D5 DUP3 PUSH2 0x1194 JUMP JUMPDEST PUSH1 0x20 DUP3 ADD SWAP1 POP SWAP2 SWAP1 POP JUMP JUMPDEST PUSH1 0x0 PUSH1 0x20 DUP3 ADD SWAP1 POP DUP2 DUP2 SUB PUSH1 0x0 DUP4 ADD MSTORE PUSH2 0x11F9 DUP2 PUSH2 0x11BD JUMP JUMPDEST SWAP1 POP SWAP2 SWAP1 POP JUMP JUMPDEST PUSH32 0x5469657220646F6573206E6F7420657869737400000000000000000000000000 PUSH1 0x0 DUP3 ADD MSTORE POP JUMP JUMPDEST PUSH1 0x0 PUSH2 0x1236 PUSH1 0x13 DUP4 PUSH2 0xCCE JUMP JUMPDEST SWAP2 POP PUSH2 0x1241 DUP3 PUSH2 0x1200 JUMP JUMPDEST PUSH1 0x20 DUP3 ADD SWAP1 POP SWAP2 SWAP1 POP JUMP JUMPDEST PUSH1 0x0 PUSH1 0x20 DUP3 ADD SWAP1 POP DUP2 DUP2 SUB PUSH1 0x0 DUP4 ADD MSTORE PUSH2 0x1265 DUP2 PUSH2 0x1229 JUMP JUMPDEST SWAP1 POP SWAP2 SWAP1 POP JUMP JUMPDEST PUSH32 0x4E487B7100000000000000000000000000000000000000000000000000000000 PUSH1 0x0 MSTORE PUSH1 0x11 PUSH1 0x4 MSTORE PUSH1 0x24 PUSH1 0x0 REVERT JUMPDEST PUSH1 0x0 PUSH2 0x12A6 DUP3 PUSH2 0xC60 JUMP JUMPDEST SWAP2 POP PUSH2 0x12B1 DUP4 PUSH2 0xC60 JUMP JUMPDEST SWAP3 POP DUP3 DUP3 SUB SWAP1 POP DUP2 DUP2 GT ISZERO PUSH2 0x12C9 JUMPI PUSH2 0x12C8 PUSH2 0x126C JUMP JUMPDEST JUMPDEST SWAP3 SWAP2 POP POP JUMP JUMPDEST PUSH32 0x4E487B7100000000000000000000000000000000000000000000000000000000 PUSH1 0x0 MSTORE PUSH1 0x32 PUSH1 0x4 MSTORE PUSH1 0x24 PUSH1 0x0 REVERT JUMPDEST PUSH1 0x0 DUP2 SLOAD SWAP1 POP PUSH2 0x130D DUP2 PUSH2 0x108B JUMP JUMPDEST SWAP1 POP SWAP2 SWAP1 POP JUMP JUMPDEST PUSH1 0x0 DUP2 SWAP1 POP DUP2 PUSH1 0x0 MSTORE PUSH1 0x20 PUSH1 0x0 KECCAK256 SWAP1 POP SWAP2 SWAP1 POP JUMP JUMPDEST PUSH1 0x0 PUSH1 0x20 PUSH1 0x1F DUP4 ADD DIV SWAP1 POP SWAP2 SWAP1 POP JUMP JUMPDEST PUSH1 0x0 DUP3 DUP3 SHL SWAP1 POP SWAP3 SWAP2 POP POP JUMP JUMPDEST PUSH1 0x0 PUSH1 0x8 DUP4 MUL PUSH2 0x1376 PUSH32 0xFFFFFFFFFFFFFFFFFFFFFFFFFFFFFFFFFFFFFFFFFFFFFFFFFFFFFFFFFFFFFFFF DUP3 PUSH2 0x1339 JUMP JUMPDEST PUSH2 0x1380 DUP7 DUP4 PUSH2 0x1339 JUMP JUMPDEST SWAP6 POP DUP1 NOT DUP5 AND SWAP4 POP DUP1 DUP7 AND DUP5 OR SWAP3 POP POP POP SWAP4 SWAP3 POP POP POP JUMP JUMPDEST PUSH1 0x0 DUP2 SWAP1 POP SWAP2 SWAP1 POP JUMP JUMPDEST PUSH1 0x0 PUSH2 0x13BD PUSH2 0x13B8 PUSH2 0x13B3 DUP5 PUSH2 0xC60 JUMP JUMPDEST PUSH2 0x1398 JUMP JUMPDEST PUSH2 0xC60 JUMP JUMPDEST SWAP1 POP SWAP2 SWAP1 POP JUMP JUMPDEST PUSH1 0x0 DUP2 SWAP1 POP SWAP2 SWAP1 POP JUMP JUMPDEST PUSH2 0x13D7 DUP4 PUSH2 0x13A2 JUMP JUMPDEST PUSH2 0x13EB PUSH2 0x13E3 DUP3 PUSH2 0x13C4 JUMP JUMPDEST DUP5 DUP5 SLOAD PUSH2 0x1346 JUMP JUMPDEST DUP3 SSTORE POP POP POP POP JUMP JUMPDEST PUSH1 0x0 SWAP1 JUMP JUMPDEST PUSH2 0x1400 PUSH2 0x13F3 JUMP JUMPDEST PUSH2 0x140B DUP2 DUP5 DUP5 PUSH2 0x13CE JUMP JUMPDEST POP POP POP JUMP JUMPDEST JUMPDEST DUP2 DUP2 LT ISZERO PUSH2 0x142F JUMPI PUSH2 0x1424 PUSH1 0x0 DUP3 PUSH2 0x13F8 JUMP JUMPDEST PUSH1 0x1 DUP2 ADD SWAP1 POP PUSH2 0x1411 JUMP JUMPDEST POP POP JUMP JUMPDEST PUSH1 0x1F DUP3 GT ISZERO PUSH2 0x1474 JUMPI PUSH2 0x1445 DUP2 PUSH2 0x1314 JUMP JUMPDEST PUSH2 0x144E DUP5 PUSH2 0x1329 JUMP JUMPDEST DUP2 ADD PUSH1 0x20 DUP6 LT ISZERO PUSH2 0x145D JUMPI DUP2 SWAP1 POP JUMPDEST PUSH2 0x1471 PUSH2 0x1469 DUP6 PUSH2 0x1329 JUMP JUMPDEST DUP4 ADD DUP3 PUSH2 0x1410 JUMP JUMPDEST POP POP JUMPDEST POP POP POP JUMP JUMPDEST PUSH1 0x0 DUP3 DUP3 SHR SWAP1 POP SWAP3 SWAP2 POP POP JUMP JUMPDEST PUSH1 0x0 PUSH2 0x1497 PUSH1 0x0 NOT DUP5 PUSH1 0x8 MUL PUSH2 0x1479 JUMP JUMPDEST NOT DUP1 DUP4 AND SWAP2 POP POP SWAP3 SWAP2 POP POP JUMP JUMPDEST PUSH1 0x0 PUSH2 0x14B0 DUP4 DUP4 PUSH2 0x1486 JUMP JUMPDEST SWAP2 POP DUP3 PUSH1 0x2 MUL DUP3 OR SWAP1 POP SWAP3 SWAP2 POP POP JUMP JUMPDEST DUP2 DUP2 SUB PUSH2 0x14CE JUMPI POP POP PUSH2 0x15A6 JUMP JUMPDEST PUSH2 0x14D7 DUP3 PUSH2 0x12FE JUMP JUMPDEST PUSH8 0xFFFFFFFFFFFFFFFF DUP2 GT ISZERO PUSH2 0x14F0 JUMPI PUSH2 0x14EF PUSH2 0xE43 JUMP JUMPDEST JUMPDEST PUSH2 0x14FA DUP3 SLOAD PUSH2 0x108B JUMP JUMPDEST PUSH2 0x1505 DUP3 DUP3 DUP6 PUSH2 0x1433 JUMP JUMPDEST PUSH1 0x0 PUSH1 0x1F DUP4 GT PUSH1 0x1 DUP2 EQ PUSH2 0x1534 JUMPI PUSH1 0x0 DUP5 ISZERO PUSH2 0x1522 JUMPI DUP3 DUP8 ADD SLOAD SWAP1 POP JUMPDEST PUSH2 0x152C DUP6 DUP3 PUSH2 0x14A4 JUMP JUMPDEST DUP7 SSTORE POP PUSH2 0x159F JUMP JUMPDEST PUSH1 0x1F NOT DUP5 AND PUSH2 0x1542 DUP8 PUSH2 0x1314 JUMP JUMPDEST SWAP7 POP PUSH2 0x154D DUP7 PUSH2 0x1314 JUMP JUMPDEST PUSH1 0x0 JUMPDEST DUP3 DUP2 LT ISZERO PUSH2 0x1575 JUMPI DUP5 DUP10 ADD SLOAD DUP3 SSTORE PUSH1 0x1 DUP3 ADD SWAP2 POP PUSH1 0x1 DUP6 ADD SWAP5 POP PUSH1 0x20 DUP2 ADD SWAP1 POP PUSH2 0x1550 JUMP JUMPDEST DUP7 DUP4 LT ISZERO PUSH2 0x1592 JUMPI DUP5 DUP10 ADD SLOAD PUSH2 0x158E PUSH1 0x1F DUP10 AND DUP3 PUSH2 0x1486 JUMP JUMPDEST DUP4 SSTORE POP JUMPDEST PUSH1 0x1 PUSH1 0x2 DUP9 MUL ADD DUP9 SSTORE POP POP POP JUMPDEST POP POP POP POP POP POP JUMPDEST JUMP JUMPDEST PUSH32 0x4E487B7100000000000000000000000000000000000000000000000000000000 PUSH1 0x0 MSTORE PUSH1 0x31 PUSH1 0x4 MSTORE PUSH1 0x24 PUSH1 0x0 REVERT JUMPDEST PUSH32 0x416D6F756E74206D7573742062652067726561746572207468616E20302E0000 PUSH1 0x0 DUP3 ADD MSTORE POP JUMP JUMPDEST PUSH1 0x0 PUSH2 0x160D PUSH1 0x1E DUP4 PUSH2 0xCCE JUMP JUMPDEST SWAP2 POP PUSH2 0x1618 DUP3 PUSH2 0x15D7 JUMP JUMPDEST PUSH1 0x20 DUP3 ADD SWAP1 POP SWAP2 SWAP1 POP JUMP JUMPDEST PUSH1 0x0 PUSH1 0x20 DUP3 ADD SWAP1 POP DUP2 DUP2 SUB PUSH1 0x0 DUP4 ADD MSTORE PUSH2 0x163C DUP2 PUSH2 0x1600 JUMP JUMPDEST SWAP1 POP SWAP2 SWAP1 POP JUMP JUMPDEST PUSH32 0x4E616D652069732072657175697265642E000000000000000000000000000000 PUSH1 0x0 DUP3 ADD MSTORE POP JUMP JUMPDEST PUSH1 0x0 PUSH2 0x1679 PUSH1 0x11 DUP4 PUSH2 0xCCE JUMP JUMPDEST SWAP2 POP PUSH2 0x1684 DUP3 PUSH2 0x1643 JUMP JUMPDEST PUSH1 0x20 DUP3 ADD SWAP1 POP SWAP2 SWAP1 POP JUMP JUMPDEST PUSH1 0x0 PUSH1 0x20 DUP3 ADD SWAP1 POP DUP2 DUP2 SUB PUSH1 0x0 DUP4 ADD MSTORE PUSH2 0x16A8 DUP2 PUSH2 0x166C JUMP JUMPDEST SWAP1 POP SWAP2 SWAP1 POP JUMP JUMPDEST PUSH2 0x16B8 DUP3 PUSH2 0xCC3 JUMP JUMPDEST PUSH8 0xFFFFFFFFFFFFFFFF DUP2 GT ISZERO PUSH2 0x16D1 JUMPI PUSH2 0x16D0 PUSH2 0xE43 JUMP JUMPDEST JUMPDEST PUSH2 0x16DB DUP3 SLOAD PUSH2 0x108B JUMP JUMPDEST PUSH2 0x16E6 DUP3 DUP3 DUP6 PUSH2 0x1433 JUMP JUMPDEST PUSH1 0x0 PUSH1 0x20 SWAP1 POP PUSH1 0x1F DUP4 GT PUSH1 0x1 DUP2 EQ PUSH2 0x1719 JUMPI PUSH1 0x0 DUP5 ISZERO PUSH2 0x1707 JUMPI DUP3 DUP8 ADD MLOAD SWAP1 POP JUMPDEST PUSH2 0x1711 DUP6 DUP3 PUSH2 0x14A4 JUMP JUMPDEST DUP7 SSTORE POP PUSH2 0x1779 JUMP JUMPDEST PUSH1 0x1F NOT DUP5 AND PUSH2 0x1727 DUP7 PUSH2 0x1314 JUMP JUMPDEST PUSH1 0x0 JUMPDEST DUP3 DUP2 LT ISZERO PUSH2 0x174F JUMPI DUP5 DUP10 ADD MLOAD DUP3 SSTORE PUSH1 0x1 DUP3 ADD SWAP2 POP PUSH1 0x20 DUP6 ADD SWAP5 POP PUSH1 0x20 DUP2 ADD SWAP1 POP PUSH2 0x172A JUMP JUMPDEST DUP7 DUP4 LT ISZERO PUSH2 0x176C JUMPI DUP5 DUP10 ADD MLOAD PUSH2 0x1768 PUSH1 0x1F DUP10 AND DUP3 PUSH2 0x1486 JUMP JUMPDEST DUP4 SSTORE POP JUMPDEST PUSH1 0x1 PUSH1 0x2 DUP9 MUL ADD DUP9 SSTORE POP POP POP JUMPDEST POP POP POP POP POP POP JUMP JUMPDEST PUSH32 0x43616D706169676E206973206E6F742061637469766500000000000000000000 PUSH1 0x0 DUP3 ADD MSTORE POP JUMP JUMPDEST PUSH1 0x0 PUSH2 0x17B7 PUSH1 0x16 DUP4 PUSH2 0xCCE JUMP JUMPDEST SWAP2 POP PUSH2 0x17C2 DUP3 PUSH2 0x1781 JUMP JUMPDEST PUSH1 0x20 DUP3 ADD SWAP1 POP SWAP2 SWAP1 POP JUMP JUMPDEST PUSH1 0x0 PUSH1 0x20 DUP3 ADD SWAP1 POP DUP2 DUP2 SUB PUSH1 0x0 DUP4 ADD MSTORE PUSH2 0x17E6 DUP2 PUSH2 0x17AA JUMP JUMPDEST SWAP1 POP SWAP2 SWAP1 POP JUMP JUMPDEST PUSH32 0x496E76616C696420746965722E00000000000000000000000000000000000000 PUSH1 0x0 DUP3 ADD MSTORE POP JUMP JUMPDEST PUSH1 0x0 PUSH2 0x1823 PUSH1 0xD DUP4 PUSH2 0xCCE JUMP JUMPDEST SWAP2 POP PUSH2 0x182E DUP3 PUSH2 0x17ED JUMP JUMPDEST PUSH1 0x20 DUP3 ADD SWAP1 POP SWAP2 SWAP1 POP JUMP JUMPDEST PUSH1 0x0 PUSH1 0x20 DUP3 ADD SWAP1 POP DUP2 DUP2 SUB PUSH1 0x0 DUP4 ADD MSTORE PUSH2 0x1852 DUP2 PUSH2 0x1816 JUMP JUMPDEST SWAP1 POP SWAP2 SWAP1 POP JUMP JUMPDEST PUSH32 0x496E636F727265637420616D6F756E742E000000000000000000000000000000 PUSH1 0x0 DUP3 ADD MSTORE POP JUMP JUMPDEST PUSH1 0x0 PUSH2 0x188F PUSH1 0x11 DUP4 PUSH2 0xCCE JUMP JUMPDEST SWAP2 POP PUSH2 0x189A DUP3 PUSH2 0x1859 JUMP JUMPDEST PUSH1 0x20 DUP3 ADD SWAP1 POP SWAP2 SWAP1 POP JUMP JUMPDEST PUSH1 0x0 PUSH1 0x20 DUP3 ADD SWAP1 POP DUP2 DUP2 SUB PUSH1 0x0 DUP4 ADD MSTORE PUSH2 0x18BE DUP2 PUSH2 0x1882 JUMP JUMPDEST SWAP1 POP SWAP2 SWAP1 POP JUMP JUMPDEST PUSH1 0x0 PUSH2 0x18D0 DUP3 PUSH2 0xC60 JUMP JUMPDEST SWAP2 POP PUSH32 0xFFFFFFFFFFFFFFFFFFFFFFFFFFFFFFFFFFFFFFFFFFFFFFFFFFFFFFFFFFFFFFFF DUP3 SUB PUSH2 0x1902 JUMPI PUSH2 0x1901 PUSH2 0x126C JUMP JUMPDEST JUMPDEST PUSH1 0x1 DUP3 ADD SWAP1 POP SWAP2 SWAP1 POP JUMP INVALID LOG2 PUSH5 0x6970667358 0x22 SLT KECCAK256 0xEF EQ AND 0xE7 DUP5 0x2B PUSH19 0xD34DBBD383908C06A70A95318D272C33E8B73C 0xE7 PUSH5 0xC6A0786764 PUSH20 0x6F6C634300081200330000000000000000000000 "
				},
				"gasEstimates": {
					"creation": {
						"codeDepositCost": "1293400",
						"executionCost": "infinite",
						"totalCost": "infinite"
					},
					"external": {
						"addTier(string,uint256)": "infinite",
						"deadline()": "2474",
						"description()": "infinite",
						"fund(uint256)": "infinite",
						"getContractBalance()": "450",
						"goal()": "2518",
						"name()": "infinite",
						"owner()": "2558",
						"removeTier(uint256)": "infinite",
						"state()": "2698",
						"tiers(uint256)": "infinite",
						"withdraw()": "infinite"
					},
					"internal": {
						"checkAndUpdateCampaignState()": "30879"
					}
				},
				"methodIdentifiers": {
					"addTier(string,uint256)": "8ece7b91",
					"deadline()": "29dcb0cf",
					"description()": "7284e416",
					"fund(uint256)": "ca1d209d",
					"getContractBalance()": "6f9fb98a",
					"goal()": "40193883",
					"name()": "06fdde03",
					"owner()": "8da5cb5b",
					"removeTier(uint256)": "7497211b",
					"state()": "c19d93fb",
					"tiers(uint256)": "039af9eb",
					"withdraw()": "3ccfd60b"
				}
			},
			"storageLayout": {
				"storage": [
					{
						"astId": 3,
						"contract": "contracts/CrowdFunding.sol:CrowdFunding",
						"label": "name",
						"offset": 0,
						"slot": "0",
						"type": "t_string_storage"
					},
					{
						"astId": 5,
						"contract": "contracts/CrowdFunding.sol:CrowdFunding",
						"label": "description",
						"offset": 0,
						"slot": "1",
						"type": "t_string_storage"
					},
					{
						"astId": 7,
						"contract": "contracts/CrowdFunding.sol:CrowdFunding",
						"label": "goal",
						"offset": 0,
						"slot": "2",
						"type": "t_uint256"
					},
					{
						"astId": 9,
						"contract": "contracts/CrowdFunding.sol:CrowdFunding",
						"label": "deadline",
						"offset": 0,
						"slot": "3",
						"type": "t_uint256"
					},
					{
						"astId": 11,
						"contract": "contracts/CrowdFunding.sol:CrowdFunding",
						"label": "owner",
						"offset": 0,
						"slot": "4",
						"type": "t_address"
					},
					{
						"astId": 18,
						"contract": "contracts/CrowdFunding.sol:CrowdFunding",
						"label": "state",
						"offset": 20,
						"slot": "4",
						"type": "t_enum(CampaignState)15"
					},
					{
						"astId": 29,
						"contract": "contracts/CrowdFunding.sol:CrowdFunding",
						"label": "tiers",
						"offset": 0,
						"slot": "5",
						"type": "t_array(t_struct(Tier)25_storage)dyn_storage"
					}
				],
				"types": {
					"t_address": {
						"encoding": "inplace",
						"label": "address",
						"numberOfBytes": "20"
					},
					"t_array(t_struct(Tier)25_storage)dyn_storage": {
						"base": "t_struct(Tier)25_storage",
						"encoding": "dynamic_array",
						"label": "struct CrowdFunding.Tier[]",
						"numberOfBytes": "32"
					},
					"t_enum(CampaignState)15": {
						"encoding": "inplace",
						"label": "enum CrowdFunding.CampaignState",
						"numberOfBytes": "1"
					},
					"t_string_storage": {
						"encoding": "bytes",
						"label": "string",
						"numberOfBytes": "32"
					},
					"t_struct(Tier)25_storage": {
						"encoding": "inplace",
						"label": "struct CrowdFunding.Tier",
						"members": [
							{
								"astId": 20,
								"contract": "contracts/CrowdFunding.sol:CrowdFunding",
								"label": "name",
								"offset": 0,
								"slot": "0",
								"type": "t_string_storage"
							},
							{
								"astId": 22,
								"contract": "contracts/CrowdFunding.sol:CrowdFunding",
								"label": "amount",
								"offset": 0,
								"slot": "1",
								"type": "t_uint256"
							},
							{
								"astId": 24,
								"contract": "contracts/CrowdFunding.sol:CrowdFunding",
								"label": "backers",
								"offset": 0,
								"slot": "2",
								"type": "t_uint256"
							}
						],
						"numberOfBytes": "96"
					},
					"t_uint256": {
						"encoding": "inplace",
						"label": "uint256",
						"numberOfBytes": "32"
					}
				}
			},
			"userdoc": {
				"kind": "user",
				"methods": {},
				"version": 1
			}
		}
	}
}