{
	"contracts/Todo.sol": {
		"Todo": {
			"abi": [
				{
					"inputs": [
						{
							"internalType": "string",
							"name": "_title",
							"type": "string"
						}
					],
					"name": "createTask",
					"outputs": [],
					"stateMutability": "nonpayable",
					"type": "function"
				},
				{
					"inputs": [
						{
							"internalType": "uint8",
							"name": "_id",
							"type": "uint8"
						}
					],
					"name": "deleteTask",
					"outputs": [],
					"stateMutability": "nonpayable",
					"type": "function"
				},
				{
					"inputs": [],
					"name": "getAllTasks",
					"outputs": [
						{
							"components": [
								{
									"internalType": "uint8",
									"name": "id",
									"type": "uint8"
								},
								{
									"internalType": "string",
									"name": "title",
									"type": "string"
								},
								{
									"internalType": "bool",
									"name": "isCompleted",
									"type": "bool"
								},
								{
									"internalType": "uint256",
									"name": "timeCompleted",
									"type": "uint256"
								}
							],
							"internalType": "struct Todo.Task[]",
							"name": "",
							"type": "tuple[]"
						}
					],
					"stateMutability": "view",
					"type": "function"
				},
				{
					"inputs": [
						{
							"internalType": "uint8",
							"name": "_id",
							"type": "uint8"
						}
					],
					"name": "markTaskCompleted",
					"outputs": [],
					"stateMutability": "nonpayable",
					"type": "function"
				},
				{
					"inputs": [
						{
							"internalType": "uint256",
							"name": "",
							"type": "uint256"
						}
					],
					"name": "tasks",
					"outputs": [
						{
							"internalType": "uint8",
							"name": "id",
							"type": "uint8"
						},
						{
							"internalType": "string",
							"name": "title",
							"type": "string"
						},
						{
							"internalType": "bool",
							"name": "isCompleted",
							"type": "bool"
						},
						{
							"internalType": "uint256",
							"name": "timeCompleted",
							"type": "uint256"
						}
					],
					"stateMutability": "view",
					"type": "function"
				}
			],
			"devdoc": {
				"kind": "dev",
				"methods": {},
				"version": 1
			},
			"evm": {
				"assembly": "    /* \"contracts/Todo.sol\":58:1662  contract Todo{... */\n  mstore(0x40, 0x80)\n  callvalue\n  dup1\n  iszero\n  tag_1\n  jumpi\n  revert(0x00, 0x00)\ntag_1:\n  pop\n  dataSize(sub_0)\n  dup1\n  dataOffset(sub_0)\n  0x00\n  codecopy\n  0x00\n  return\nstop\n\nsub_0: assembly {\n        /* \"contracts/Todo.sol\":58:1662  contract Todo{... */\n      mstore(0x40, 0x80)\n      callvalue\n      dup1\n      iszero\n      tag_1\n      jumpi\n      revert(0x00, 0x00)\n    tag_1:\n      pop\n      jumpi(tag_2, lt(calldatasize, 0x04))\n      shr(0xe0, calldataload(0x00))\n      dup1\n      0x111002aa\n      eq\n      tag_3\n      jumpi\n      dup1\n      0x779900b4\n      eq\n      tag_4\n      jumpi\n      dup1\n      0x8d977672\n      eq\n      tag_5\n      jumpi\n      dup1\n      0xa1d0166b\n      eq\n      tag_6\n      jumpi\n      dup1\n      0xc3d081f5\n      eq\n      tag_7\n      jumpi\n    tag_2:\n      revert(0x00, 0x00)\n        /* \"contracts/Todo.sol\":872:1030  function createTask(string memory _title) external{... */\n    tag_3:\n      tag_8\n      0x04\n      dup1\n      calldatasize\n      sub\n      dup2\n      add\n      swap1\n      tag_9\n      swap2\n      swap1\n      tag_10\n      jump\t// in\n    tag_9:\n      tag_11\n      jump\t// in\n    tag_8:\n      stop\n        /* \"contracts/Todo.sol\":1036:1123  function getAllTasks()external view returns(Task[] memory){... */\n    tag_4:\n      tag_12\n      tag_13\n      jump\t// in\n    tag_12:\n      mload(0x40)\n      tag_14\n      swap2\n      swap1\n      tag_15\n      jump\t// in\n    tag_14:\n      mload(0x40)\n      dup1\n      swap2\n      sub\n      swap1\n      return\n        /* \"contracts/Todo.sol\":827:846  Task[] public tasks */\n    tag_5:\n      tag_16\n      0x04\n      dup1\n      calldatasize\n      sub\n      dup2\n      add\n      swap1\n      tag_17\n      swap2\n      swap1\n      tag_18\n      jump\t// in\n    tag_17:\n      tag_19\n      jump\t// in\n    tag_16:\n      mload(0x40)\n      tag_20\n      swap5\n      swap4\n      swap3\n      swap2\n      swap1\n      tag_21\n      jump\t// in\n    tag_20:\n      mload(0x40)\n      dup1\n      swap2\n      sub\n      swap1\n      return\n        /* \"contracts/Todo.sol\":1129:1394  function markTaskCompleted(uint8 _id) external{... */\n    tag_6:\n      tag_22\n      0x04\n      dup1\n      calldatasize\n      sub\n      dup2\n      add\n      swap1\n      tag_23\n      swap2\n      swap1\n      tag_24\n      jump\t// in\n    tag_23:\n      tag_25\n      jump\t// in\n    tag_22:\n      stop\n        /* \"contracts/Todo.sol\":1400:1659  function deleteTask(uint8 _id) external{... */\n    tag_7:\n      tag_26\n      0x04\n      dup1\n      calldatasize\n      sub\n      dup2\n      add\n      swap1\n      tag_27\n      swap2\n      swap1\n      tag_24\n      jump\t// in\n    tag_27:\n      tag_28\n      jump\t// in\n    tag_26:\n      stop\n        /* \"contracts/Todo.sol\":872:1030  function createTask(string memory _title) external{... */\n    tag_11:\n        /* \"contracts/Todo.sol\":932:940  uint8 id */\n      0x00\n        /* \"contracts/Todo.sol\":943:950  todo_id */\n      0x01\n      0x00\n        /* \"contracts/Todo.sol\":943:952  todo_id++ */\n      dup2\n      dup2\n      swap1\n      sload\n      swap1\n      0x0100\n      exp\n      swap1\n      div\n      0xff\n      and\n      dup1\n      swap3\n      swap2\n      swap1\n      tag_30\n      swap1\n      tag_31\n      jump\t// in\n    tag_30:\n      swap2\n      swap1\n      0x0100\n      exp\n      dup2\n      sload\n      dup2\n      0xff\n      mul\n      not\n      and\n      swap1\n      dup4\n      0xff\n      and\n      mul\n      or\n      swap1\n      sstore\n      pop\n        /* \"contracts/Todo.sol\":932:952  uint8 id = todo_id++ */\n      swap1\n      pop\n        /* \"contracts/Todo.sol\":962:967  tasks */\n      0x00\n        /* \"contracts/Todo.sol\":973:999  Task(id, _title, false, 0) */\n      mload(0x40)\n      dup1\n      0x80\n      add\n      0x40\n      mstore\n      dup1\n        /* \"contracts/Todo.sol\":978:980  id */\n      dup4\n        /* \"contracts/Todo.sol\":973:999  Task(id, _title, false, 0) */\n      0xff\n      and\n      dup2\n      mstore\n      0x20\n      add\n        /* \"contracts/Todo.sol\":982:988  _title */\n      dup5\n        /* \"contracts/Todo.sol\":973:999  Task(id, _title, false, 0) */\n      dup2\n      mstore\n      0x20\n      add\n        /* \"contracts/Todo.sol\":990:995  false */\n      0x00\n        /* \"contracts/Todo.sol\":973:999  Task(id, _title, false, 0) */\n      iszero\n      iszero\n      dup2\n      mstore\n      0x20\n      add\n        /* \"contracts/Todo.sol\":997:998  0 */\n      0x00\n        /* \"contracts/Todo.sol\":973:999  Task(id, _title, false, 0) */\n      dup2\n      mstore\n      pop\n        /* \"contracts/Todo.sol\":962:1000  tasks.push(Task(id, _title, false, 0)) */\n      swap1\n      dup1\n      0x01\n      dup2\n      sload\n      add\n      dup1\n      dup3\n      sstore\n      dup1\n      swap2\n      pop\n      pop\n      0x01\n      swap1\n      sub\n      swap1\n      0x00\n      mstore\n      keccak256(0x00, 0x20)\n      swap1\n      0x04\n      mul\n      add\n      0x00\n      swap1\n      swap2\n      swap1\n      swap2\n      swap1\n      swap2\n      pop\n      0x00\n      dup3\n      add\n      mload\n      dup2\n      0x00\n      add\n      exp(0x0100, 0x00)\n      dup2\n      sload\n      dup2\n      0xff\n      mul\n      not\n      and\n      swap1\n      dup4\n      0xff\n      and\n      mul\n      or\n      swap1\n      sstore\n      pop\n      0x20\n      dup3\n      add\n      mload\n      dup2\n      0x01\n      add\n      swap1\n      dup2\n      tag_33\n      swap2\n      swap1\n      tag_34\n      jump\t// in\n    tag_33:\n      pop\n      0x40\n      dup3\n      add\n      mload\n      dup2\n      0x02\n      add\n      exp(0x0100, 0x00)\n      dup2\n      sload\n      dup2\n      0xff\n      mul\n      not\n      and\n      swap1\n      dup4\n      iszero\n      iszero\n      mul\n      or\n      swap1\n      sstore\n      pop\n      0x60\n      dup3\n      add\n      mload\n      dup2\n      0x03\n      add\n      sstore\n      pop\n      pop\n        /* \"contracts/Todo.sol\":1020:1022  id */\n      dup1\n        /* \"contracts/Todo.sol\":1010:1017  todo_id */\n      0x01\n      0x00\n        /* \"contracts/Todo.sol\":1010:1022  todo_id = id */\n      0x0100\n      exp\n      dup2\n      sload\n      dup2\n      0xff\n      mul\n      not\n      and\n      swap1\n      dup4\n      0xff\n      and\n      mul\n      or\n      swap1\n      sstore\n      pop\n        /* \"contracts/Todo.sol\":922:1030  {... */\n      pop\n        /* \"contracts/Todo.sol\":872:1030  function createTask(string memory _title) external{... */\n      pop\n      jump\t// out\n        /* \"contracts/Todo.sol\":1036:1123  function getAllTasks()external view returns(Task[] memory){... */\n    tag_13:\n        /* \"contracts/Todo.sol\":1080:1093  Task[] memory */\n      0x60\n        /* \"contracts/Todo.sol\":1111:1116  tasks */\n      0x00\n        /* \"contracts/Todo.sol\":1104:1116  return tasks */\n      dup1\n      sload\n      dup1\n      0x20\n      mul\n      0x20\n      add\n      mload(0x40)\n      swap1\n      dup2\n      add\n      0x40\n      mstore\n      dup1\n      swap3\n      swap2\n      swap1\n      dup2\n      dup2\n      mstore\n      0x20\n      add\n      0x00\n      swap1\n    tag_36:\n      dup3\n      dup3\n      lt\n      iszero\n      tag_37\n      jumpi\n      dup4\n      dup3\n      swap1\n      0x00\n      mstore\n      keccak256(0x00, 0x20)\n      swap1\n      0x04\n      mul\n      add\n      mload(0x40)\n      dup1\n      0x80\n      add\n      0x40\n      mstore\n      swap1\n      dup2\n      0x00\n      dup3\n      add\n      0x00\n      swap1\n      sload\n      swap1\n      0x0100\n      exp\n      swap1\n      div\n      0xff\n      and\n      0xff\n      and\n      0xff\n      and\n      dup2\n      mstore\n      0x20\n      add\n      0x01\n      dup3\n      add\n      dup1\n      sload\n      tag_39\n      swap1\n      tag_40\n      jump\t// in\n    tag_39:\n      dup1\n      0x1f\n      add\n      0x20\n      dup1\n      swap2\n      div\n      mul\n      0x20\n      add\n      mload(0x40)\n      swap1\n      dup2\n      add\n      0x40\n      mstore\n      dup1\n      swap3\n      swap2\n      swap1\n      dup2\n      dup2\n      mstore\n      0x20\n      add\n      dup3\n      dup1\n      sload\n      tag_41\n      swap1\n      tag_40\n      jump\t// in\n    tag_41:\n      dup1\n      iszero\n      tag_42\n      jumpi\n      dup1\n      0x1f\n      lt\n      tag_43\n      jumpi\n      0x0100\n      dup1\n      dup4\n      sload\n      div\n      mul\n      dup4\n      mstore\n      swap2\n      0x20\n      add\n      swap2\n      jump(tag_42)\n    tag_43:\n      dup3\n      add\n      swap2\n      swap1\n      0x00\n      mstore\n      keccak256(0x00, 0x20)\n      swap1\n    tag_44:\n      dup2\n      sload\n      dup2\n      mstore\n      swap1\n      0x01\n      add\n      swap1\n      0x20\n      add\n      dup1\n      dup4\n      gt\n      tag_44\n      jumpi\n      dup3\n      swap1\n      sub\n      0x1f\n      and\n      dup3\n      add\n      swap2\n    tag_42:\n      pop\n      pop\n      pop\n      pop\n      pop\n      dup2\n      mstore\n      0x20\n      add\n      0x02\n      dup3\n      add\n      0x00\n      swap1\n      sload\n      swap1\n      0x0100\n      exp\n      swap1\n      div\n      0xff\n      and\n      iszero\n      iszero\n      iszero\n      iszero\n      dup2\n      mstore\n      0x20\n      add\n      0x03\n      dup3\n      add\n      sload\n      dup2\n      mstore\n      pop\n      pop\n      dup2\n      mstore\n      0x20\n      add\n      swap1\n      0x01\n      add\n      swap1\n      jump(tag_36)\n    tag_37:\n      pop\n      pop\n      pop\n      pop\n      swap1\n      pop\n        /* \"contracts/Todo.sol\":1036:1123  function getAllTasks()external view returns(Task[] memory){... */\n      swap1\n      jump\t// out\n        /* \"contracts/Todo.sol\":827:846  Task[] public tasks */\n    tag_19:\n      0x00\n      dup2\n      dup2\n      sload\n      dup2\n      lt\n      tag_45\n      jumpi\n      0x00\n      dup1\n      revert\n    tag_45:\n      swap1\n      0x00\n      mstore\n      keccak256(0x00, 0x20)\n      swap1\n      0x04\n      mul\n      add\n      0x00\n      swap2\n      pop\n      swap1\n      pop\n      dup1\n      0x00\n      add\n      0x00\n      swap1\n      sload\n      swap1\n      0x0100\n      exp\n      swap1\n      div\n      0xff\n      and\n      swap1\n      dup1\n      0x01\n      add\n      dup1\n      sload\n      tag_47\n      swap1\n      tag_40\n      jump\t// in\n    tag_47:\n      dup1\n      0x1f\n      add\n      0x20\n      dup1\n      swap2\n      div\n      mul\n      0x20\n      add\n      mload(0x40)\n      swap1\n      dup2\n      add\n      0x40\n      mstore\n      dup1\n      swap3\n      swap2\n      swap1\n      dup2\n      dup2\n      mstore\n      0x20\n      add\n      dup3\n      dup1\n      sload\n      tag_48\n      swap1\n      tag_40\n      jump\t// in\n    tag_48:\n      dup1\n      iszero\n      tag_49\n      jumpi\n      dup1\n      0x1f\n      lt\n      tag_50\n      jumpi\n      0x0100\n      dup1\n      dup4\n      sload\n      div\n      mul\n      dup4\n      mstore\n      swap2\n      0x20\n      add\n      swap2\n      jump(tag_49)\n    tag_50:\n      dup3\n      add\n      swap2\n      swap1\n      0x00\n      mstore\n      keccak256(0x00, 0x20)\n      swap1\n    tag_51:\n      dup2\n      sload\n      dup2\n      mstore\n      swap1\n      0x01\n      add\n      swap1\n      0x20\n      add\n      dup1\n      dup4\n      gt\n      tag_51\n      jumpi\n      dup3\n      swap1\n      sub\n      0x1f\n      and\n      dup3\n      add\n      swap2\n    tag_49:\n      pop\n      pop\n      pop\n      pop\n      pop\n      swap1\n      dup1\n      0x02\n      add\n      0x00\n      swap1\n      sload\n      swap1\n      0x0100\n      exp\n      swap1\n      div\n      0xff\n      and\n      swap1\n      dup1\n      0x03\n      add\n      sload\n      swap1\n      pop\n      dup5\n      jump\t// out\n        /* \"contracts/Todo.sol\":1129:1394  function markTaskCompleted(uint8 _id) external{... */\n    tag_25:\n        /* \"contracts/Todo.sol\":1189:1196  uint8 i */\n      0x00\n        /* \"contracts/Todo.sol\":1199:1200  0 */\n      0x00\n        /* \"contracts/Todo.sol\":1189:1200  uint8 i = 0 */\n      swap1\n      pop\n        /* \"contracts/Todo.sol\":1185:1388  for(uint8 i = 0; i < tasks.length; i++){... */\n    tag_53:\n        /* \"contracts/Todo.sol\":1206:1211  tasks */\n      0x00\n        /* \"contracts/Todo.sol\":1206:1218  tasks.length */\n      dup1\n      sload\n      swap1\n      pop\n        /* \"contracts/Todo.sol\":1202:1203  i */\n      dup2\n        /* \"contracts/Todo.sol\":1202:1218  i < tasks.length */\n      0xff\n      and\n      lt\n        /* \"contracts/Todo.sol\":1185:1388  for(uint8 i = 0; i < tasks.length; i++){... */\n      iszero\n      tag_54\n      jumpi\n        /* \"contracts/Todo.sol\":1256:1259  _id */\n      dup2\n        /* \"contracts/Todo.sol\":1241:1259  tasks[i].id == _id */\n      0xff\n      and\n        /* \"contracts/Todo.sol\":1241:1246  tasks */\n      0x00\n        /* \"contracts/Todo.sol\":1247:1248  i */\n      dup3\n        /* \"contracts/Todo.sol\":1241:1249  tasks[i] */\n      0xff\n      and\n      dup2\n      sload\n      dup2\n      lt\n      tag_56\n      jumpi\n      tag_57\n      tag_58\n      jump\t// in\n    tag_57:\n    tag_56:\n      swap1\n      0x00\n      mstore\n      keccak256(0x00, 0x20)\n      swap1\n      0x04\n      mul\n      add\n        /* \"contracts/Todo.sol\":1241:1252  tasks[i].id */\n      0x00\n      add\n      0x00\n      swap1\n      sload\n      swap1\n      0x0100\n      exp\n      swap1\n      div\n      0xff\n      and\n        /* \"contracts/Todo.sol\":1241:1259  tasks[i].id == _id */\n      0xff\n      and\n      sub\n        /* \"contracts/Todo.sol\":1238:1378  if(tasks[i].id == _id){... */\n      tag_60\n      jumpi\n        /* \"contracts/Todo.sol\":1301:1305  true */\n      0x01\n        /* \"contracts/Todo.sol\":1278:1283  tasks */\n      0x00\n        /* \"contracts/Todo.sol\":1284:1285  i */\n      dup3\n        /* \"contracts/Todo.sol\":1278:1286  tasks[i] */\n      0xff\n      and\n      dup2\n      sload\n      dup2\n      lt\n      tag_61\n      jumpi\n      tag_62\n      tag_58\n      jump\t// in\n    tag_62:\n    tag_61:\n      swap1\n      0x00\n      mstore\n      keccak256(0x00, 0x20)\n      swap1\n      0x04\n      mul\n      add\n        /* \"contracts/Todo.sol\":1278:1298  tasks[i].isCompleted */\n      0x02\n      add\n      0x00\n        /* \"contracts/Todo.sol\":1278:1305  tasks[i].isCompleted = true */\n      0x0100\n      exp\n      dup2\n      sload\n      dup2\n      0xff\n      mul\n      not\n      and\n      swap1\n      dup4\n      iszero\n      iszero\n      mul\n      or\n      swap1\n      sstore\n      pop\n        /* \"contracts/Todo.sol\":1348:1363  block.timestamp */\n      timestamp\n        /* \"contracts/Todo.sol\":1323:1328  tasks */\n      0x00\n        /* \"contracts/Todo.sol\":1329:1330  i */\n      dup3\n        /* \"contracts/Todo.sol\":1323:1331  tasks[i] */\n      0xff\n      and\n      dup2\n      sload\n      dup2\n      lt\n      tag_64\n      jumpi\n      tag_65\n      tag_58\n      jump\t// in\n    tag_65:\n    tag_64:\n      swap1\n      0x00\n      mstore\n      keccak256(0x00, 0x20)\n      swap1\n      0x04\n      mul\n      add\n        /* \"contracts/Todo.sol\":1323:1345  tasks[i].timeCompleted */\n      0x03\n      add\n        /* \"contracts/Todo.sol\":1323:1363  tasks[i].timeCompleted = block.timestamp */\n      dup2\n      swap1\n      sstore\n      pop\n        /* \"contracts/Todo.sol\":1238:1378  if(tasks[i].id == _id){... */\n    tag_60:\n        /* \"contracts/Todo.sol\":1220:1223  i++ */\n      dup1\n      dup1\n      tag_67\n      swap1\n      tag_31\n      jump\t// in\n    tag_67:\n      swap2\n      pop\n      pop\n        /* \"contracts/Todo.sol\":1185:1388  for(uint8 i = 0; i < tasks.length; i++){... */\n      jump(tag_53)\n    tag_54:\n      pop\n        /* \"contracts/Todo.sol\":1129:1394  function markTaskCompleted(uint8 _id) external{... */\n      pop\n      jump\t// out\n        /* \"contracts/Todo.sol\":1400:1659  function deleteTask(uint8 _id) external{... */\n    tag_28:\n        /* \"contracts/Todo.sol\":1453:1460  uint8 i */\n      0x00\n        /* \"contracts/Todo.sol\":1463:1464  0 */\n      0x00\n        /* \"contracts/Todo.sol\":1453:1464  uint8 i = 0 */\n      swap1\n      pop\n        /* \"contracts/Todo.sol\":1449:1653  for(uint8 i = 0; i < tasks.length; i++){... */\n    tag_69:\n        /* \"contracts/Todo.sol\":1470:1475  tasks */\n      0x00\n        /* \"contracts/Todo.sol\":1470:1482  tasks.length */\n      dup1\n      sload\n      swap1\n      pop\n        /* \"contracts/Todo.sol\":1466:1467  i */\n      dup2\n        /* \"contracts/Todo.sol\":1466:1482  i < tasks.length */\n      0xff\n      and\n      lt\n        /* \"contracts/Todo.sol\":1449:1653  for(uint8 i = 0; i < tasks.length; i++){... */\n      iszero\n      tag_70\n      jumpi\n        /* \"contracts/Todo.sol\":1520:1523  _id */\n      dup2\n        /* \"contracts/Todo.sol\":1505:1523  tasks[i].id == _id */\n      0xff\n      and\n        /* \"contracts/Todo.sol\":1505:1510  tasks */\n      0x00\n        /* \"contracts/Todo.sol\":1511:1512  i */\n      dup3\n        /* \"contracts/Todo.sol\":1505:1513  tasks[i] */\n      0xff\n      and\n      dup2\n      sload\n      dup2\n      lt\n      tag_72\n      jumpi\n      tag_73\n      tag_58\n      jump\t// in\n    tag_73:\n    tag_72:\n      swap1\n      0x00\n      mstore\n      keccak256(0x00, 0x20)\n      swap1\n      0x04\n      mul\n      add\n        /* \"contracts/Todo.sol\":1505:1516  tasks[i].id */\n      0x00\n      add\n      0x00\n      swap1\n      sload\n      swap1\n      0x0100\n      exp\n      swap1\n      div\n      0xff\n      and\n        /* \"contracts/Todo.sol\":1505:1523  tasks[i].id == _id */\n      0xff\n      and\n      sub\n        /* \"contracts/Todo.sol\":1502:1643  if(tasks[i].id == _id){... */\n      tag_75\n      jumpi\n        /* \"contracts/Todo.sol\":1553:1558  tasks */\n      0x00\n        /* \"contracts/Todo.sol\":1574:1575  1 */\n      0x01\n        /* \"contracts/Todo.sol\":1559:1564  tasks */\n      0x00\n        /* \"contracts/Todo.sol\":1559:1571  tasks.length */\n      dup1\n      sload\n      swap1\n      pop\n        /* \"contracts/Todo.sol\":1559:1575  tasks.length - 1 */\n      tag_76\n      swap2\n      swap1\n      tag_77\n      jump\t// in\n    tag_76:\n        /* \"contracts/Todo.sol\":1553:1576  tasks[tasks.length - 1] */\n      dup2\n      sload\n      dup2\n      lt\n      tag_78\n      jumpi\n      tag_79\n      tag_58\n      jump\t// in\n    tag_79:\n    tag_78:\n      swap1\n      0x00\n      mstore\n      keccak256(0x00, 0x20)\n      swap1\n      0x04\n      mul\n      add\n        /* \"contracts/Todo.sol\":1542:1547  tasks */\n      0x00\n        /* \"contracts/Todo.sol\":1548:1549  i */\n      dup3\n        /* \"contracts/Todo.sol\":1542:1550  tasks[i] */\n      0xff\n      and\n      dup2\n      sload\n      dup2\n      lt\n      tag_81\n      jumpi\n      tag_82\n      tag_58\n      jump\t// in\n    tag_82:\n    tag_81:\n      swap1\n      0x00\n      mstore\n      keccak256(0x00, 0x20)\n      swap1\n      0x04\n      mul\n      add\n        /* \"contracts/Todo.sol\":1542:1576  tasks[i] = tasks[tasks.length - 1] */\n      0x00\n      dup3\n      add\n      0x00\n      swap1\n      sload\n      swap1\n      0x0100\n      exp\n      swap1\n      div\n      0xff\n      and\n      dup2\n      0x00\n      add\n      exp(0x0100, 0x00)\n      dup2\n      sload\n      dup2\n      0xff\n      mul\n      not\n      and\n      swap1\n      dup4\n      0xff\n      and\n      mul\n      or\n      swap1\n      sstore\n      pop\n      0x01\n      dup3\n      add\n      dup2\n      0x01\n      add\n      swap1\n      dup2\n      tag_84\n      swap2\n      swap1\n      tag_85\n      jump\t// in\n    tag_84:\n      pop\n      0x02\n      dup3\n      add\n      0x00\n      swap1\n      sload\n      swap1\n      0x0100\n      exp\n      swap1\n      div\n      0xff\n      and\n      dup2\n      0x02\n      add\n      exp(0x0100, 0x00)\n      dup2\n      sload\n      dup2\n      0xff\n      mul\n      not\n      and\n      swap1\n      dup4\n      iszero\n      iszero\n      mul\n      or\n      swap1\n      sstore\n      pop\n      0x03\n      dup3\n      add\n      sload\n      dup2\n      0x03\n      add\n      sstore\n      swap1\n      pop\n      pop\n        /* \"contracts/Todo.sol\":1594:1599  tasks */\n      0x00\n        /* \"contracts/Todo.sol\":1594:1605  tasks.pop() */\n      dup1\n      sload\n      dup1\n      tag_86\n      jumpi\n      tag_87\n      tag_88\n      jump\t// in\n    tag_87:\n    tag_86:\n      0x01\n      swap1\n      sub\n      dup2\n      dup2\n      swap1\n      0x00\n      mstore\n      keccak256(0x00, 0x20)\n      swap1\n      0x04\n      mul\n      add\n      0x00\n      0x00\n      dup3\n      add\n      exp(0x0100, 0x00)\n      dup2\n      sload\n      swap1\n      0xff\n      mul\n      not\n      and\n      swap1\n      sstore\n      0x01\n      dup3\n      add\n      0x00\n      tag_90\n      swap2\n      swap1\n      tag_91\n      jump\t// in\n    tag_90:\n      0x02\n      dup3\n      add\n      exp(0x0100, 0x00)\n      dup2\n      sload\n      swap1\n      0xff\n      mul\n      not\n      and\n      swap1\n      sstore\n      0x03\n      dup3\n      add\n      0x00\n      swap1\n      sstore\n      pop\n      pop\n      swap1\n      sstore\n        /* \"contracts/Todo.sol\":1623:1628  break */\n      jump(tag_70)\n        /* \"contracts/Todo.sol\":1502:1643  if(tasks[i].id == _id){... */\n    tag_75:\n        /* \"contracts/Todo.sol\":1484:1487  i++ */\n      dup1\n      dup1\n      tag_92\n      swap1\n      tag_31\n      jump\t// in\n    tag_92:\n      swap2\n      pop\n      pop\n        /* \"contracts/Todo.sol\":1449:1653  for(uint8 i = 0; i < tasks.length; i++){... */\n      jump(tag_69)\n    tag_70:\n      pop\n        /* \"contracts/Todo.sol\":1400:1659  function deleteTask(uint8 _id) external{... */\n      pop\n      jump\t// out\n    tag_91:\n      pop\n      dup1\n      sload\n      tag_93\n      swap1\n      tag_40\n      jump\t// in\n    tag_93:\n      0x00\n      dup3\n      sstore\n      dup1\n      0x1f\n      lt\n      tag_95\n      jumpi\n      pop\n      jump(tag_94)\n    tag_95:\n      0x1f\n      add\n      0x20\n      swap1\n      div\n      swap1\n      0x00\n      mstore\n      keccak256(0x00, 0x20)\n      swap1\n      dup2\n      add\n      swap1\n      tag_96\n      swap2\n      swap1\n      tag_97\n      jump\t// in\n    tag_96:\n    tag_94:\n      pop\n      jump\t// out\n    tag_97:\n    tag_98:\n      dup1\n      dup3\n      gt\n      iszero\n      tag_99\n      jumpi\n      0x00\n      dup2\n      0x00\n      swap1\n      sstore\n      pop\n      0x01\n      add\n      jump(tag_98)\n    tag_99:\n      pop\n      swap1\n      jump\t// out\n        /* \"#utility.yul\":7:82   */\n    tag_100:\n        /* \"#utility.yul\":40:46   */\n      0x00\n        /* \"#utility.yul\":73:75   */\n      0x40\n        /* \"#utility.yul\":67:76   */\n      mload\n        /* \"#utility.yul\":57:76   */\n      swap1\n      pop\n        /* \"#utility.yul\":7:82   */\n      swap1\n      jump\t// out\n        /* \"#utility.yul\":88:205   */\n    tag_101:\n        /* \"#utility.yul\":197:198   */\n      0x00\n        /* \"#utility.yul\":194:195   */\n      0x00\n        /* \"#utility.yul\":187:199   */\n      revert\n        /* \"#utility.yul\":211:328   */\n    tag_102:\n        /* \"#utility.yul\":320:321   */\n      0x00\n        /* \"#utility.yul\":317:318   */\n      0x00\n        /* \"#utility.yul\":310:322   */\n      revert\n        /* \"#utility.yul\":334:451   */\n    tag_103:\n        /* \"#utility.yul\":443:444   */\n      0x00\n        /* \"#utility.yul\":440:441   */\n      0x00\n        /* \"#utility.yul\":433:445   */\n      revert\n        /* \"#utility.yul\":457:574   */\n    tag_104:\n        /* \"#utility.yul\":566:567   */\n      0x00\n        /* \"#utility.yul\":563:564   */\n      0x00\n        /* \"#utility.yul\":556:568   */\n      revert\n        /* \"#utility.yul\":580:682   */\n    tag_105:\n        /* \"#utility.yul\":621:627   */\n      0x00\n        /* \"#utility.yul\":672:674   */\n      0x1f\n        /* \"#utility.yul\":668:675   */\n      not\n        /* \"#utility.yul\":663:665   */\n      0x1f\n        /* \"#utility.yul\":656:661   */\n      dup4\n        /* \"#utility.yul\":652:666   */\n      add\n        /* \"#utility.yul\":648:676   */\n      and\n        /* \"#utility.yul\":638:676   */\n      swap1\n      pop\n        /* \"#utility.yul\":580:682   */\n      swap2\n      swap1\n      pop\n      jump\t// out\n        /* \"#utility.yul\":688:868   */\n    tag_106:\n        /* \"#utility.yul\":736:813   */\n      0x4e487b7100000000000000000000000000000000000000000000000000000000\n        /* \"#utility.yul\":733:734   */\n      0x00\n        /* \"#utility.yul\":726:814   */\n      mstore\n        /* \"#utility.yul\":833:837   */\n      0x41\n        /* \"#utility.yul\":830:831   */\n      0x04\n        /* \"#utility.yul\":823:838   */\n      mstore\n        /* \"#utility.yul\":857:861   */\n      0x24\n        /* \"#utility.yul\":854:855   */\n      0x00\n        /* \"#utility.yul\":847:862   */\n      revert\n        /* \"#utility.yul\":874:1155   */\n    tag_107:\n        /* \"#utility.yul\":957:984   */\n      tag_166\n        /* \"#utility.yul\":979:983   */\n      dup3\n        /* \"#utility.yul\":957:984   */\n      tag_105\n      jump\t// in\n    tag_166:\n        /* \"#utility.yul\":949:955   */\n      dup2\n        /* \"#utility.yul\":945:985   */\n      add\n        /* \"#utility.yul\":1087:1093   */\n      dup2\n        /* \"#utility.yul\":1075:1085   */\n      dup2\n        /* \"#utility.yul\":1072:1094   */\n      lt\n        /* \"#utility.yul\":1051:1069   */\n      0xffffffffffffffff\n        /* \"#utility.yul\":1039:1049   */\n      dup3\n        /* \"#utility.yul\":1036:1070   */\n      gt\n        /* \"#utility.yul\":1033:1095   */\n      or\n        /* \"#utility.yul\":1030:1118   */\n      iszero\n      tag_167\n      jumpi\n        /* \"#utility.yul\":1098:1116   */\n      tag_168\n      tag_106\n      jump\t// in\n    tag_168:\n        /* \"#utility.yul\":1030:1118   */\n    tag_167:\n        /* \"#utility.yul\":1138:1148   */\n      dup1\n        /* \"#utility.yul\":1134:1136   */\n      0x40\n        /* \"#utility.yul\":1127:1149   */\n      mstore\n        /* \"#utility.yul\":917:1155   */\n      pop\n        /* \"#utility.yul\":874:1155   */\n      pop\n      pop\n      jump\t// out\n        /* \"#utility.yul\":1161:1290   */\n    tag_108:\n        /* \"#utility.yul\":1195:1201   */\n      0x00\n        /* \"#utility.yul\":1222:1242   */\n      tag_170\n      tag_100\n      jump\t// in\n    tag_170:\n        /* \"#utility.yul\":1212:1242   */\n      swap1\n      pop\n        /* \"#utility.yul\":1251:1284   */\n      tag_171\n        /* \"#utility.yul\":1279:1283   */\n      dup3\n        /* \"#utility.yul\":1271:1277   */\n      dup3\n        /* \"#utility.yul\":1251:1284   */\n      tag_107\n      jump\t// in\n    tag_171:\n        /* \"#utility.yul\":1161:1290   */\n      swap2\n      swap1\n      pop\n      jump\t// out\n        /* \"#utility.yul\":1296:1604   */\n    tag_109:\n        /* \"#utility.yul\":1358:1362   */\n      0x00\n        /* \"#utility.yul\":1448:1466   */\n      0xffffffffffffffff\n        /* \"#utility.yul\":1440:1446   */\n      dup3\n        /* \"#utility.yul\":1437:1467   */\n      gt\n        /* \"#utility.yul\":1434:1490   */\n      iszero\n      tag_173\n      jumpi\n        /* \"#utility.yul\":1470:1488   */\n      tag_174\n      tag_106\n      jump\t// in\n    tag_174:\n        /* \"#utility.yul\":1434:1490   */\n    tag_173:\n        /* \"#utility.yul\":1508:1537   */\n      tag_175\n        /* \"#utility.yul\":1530:1536   */\n      dup3\n        /* \"#utility.yul\":1508:1537   */\n      tag_105\n      jump\t// in\n    tag_175:\n        /* \"#utility.yul\":1500:1537   */\n      swap1\n      pop\n        /* \"#utility.yul\":1592:1596   */\n      0x20\n        /* \"#utility.yul\":1586:1590   */\n      dup2\n        /* \"#utility.yul\":1582:1597   */\n      add\n        /* \"#utility.yul\":1574:1597   */\n      swap1\n      pop\n        /* \"#utility.yul\":1296:1604   */\n      swap2\n      swap1\n      pop\n      jump\t// out\n        /* \"#utility.yul\":1610:1758   */\n    tag_110:\n        /* \"#utility.yul\":1708:1714   */\n      dup3\n        /* \"#utility.yul\":1703:1706   */\n      dup2\n        /* \"#utility.yul\":1698:1701   */\n      dup4\n        /* \"#utility.yul\":1685:1715   */\n      calldatacopy\n        /* \"#utility.yul\":1749:1750   */\n      0x00\n        /* \"#utility.yul\":1740:1746   */\n      dup4\n        /* \"#utility.yul\":1735:1738   */\n      dup4\n        /* \"#utility.yul\":1731:1747   */\n      add\n        /* \"#utility.yul\":1724:1751   */\n      mstore\n        /* \"#utility.yul\":1610:1758   */\n      pop\n      pop\n      pop\n      jump\t// out\n        /* \"#utility.yul\":1764:2189   */\n    tag_111:\n        /* \"#utility.yul\":1842:1847   */\n      0x00\n        /* \"#utility.yul\":1867:1933   */\n      tag_178\n        /* \"#utility.yul\":1883:1932   */\n      tag_179\n        /* \"#utility.yul\":1925:1931   */\n      dup5\n        /* \"#utility.yul\":1883:1932   */\n      tag_109\n      jump\t// in\n    tag_179:\n        /* \"#utility.yul\":1867:1933   */\n      tag_108\n      jump\t// in\n    tag_178:\n        /* \"#utility.yul\":1858:1933   */\n      swap1\n      pop\n        /* \"#utility.yul\":1956:1962   */\n      dup3\n        /* \"#utility.yul\":1949:1954   */\n      dup2\n        /* \"#utility.yul\":1942:1963   */\n      mstore\n        /* \"#utility.yul\":1994:1998   */\n      0x20\n        /* \"#utility.yul\":1987:1992   */\n      dup2\n        /* \"#utility.yul\":1983:1999   */\n      add\n        /* \"#utility.yul\":2032:2035   */\n      dup5\n        /* \"#utility.yul\":2023:2029   */\n      dup5\n        /* \"#utility.yul\":2018:2021   */\n      dup5\n        /* \"#utility.yul\":2014:2030   */\n      add\n        /* \"#utility.yul\":2011:2036   */\n      gt\n        /* \"#utility.yul\":2008:2120   */\n      iszero\n      tag_180\n      jumpi\n        /* \"#utility.yul\":2039:2118   */\n      tag_181\n      tag_104\n      jump\t// in\n    tag_181:\n        /* \"#utility.yul\":2008:2120   */\n    tag_180:\n        /* \"#utility.yul\":2129:2183   */\n      tag_182\n        /* \"#utility.yul\":2176:2182   */\n      dup5\n        /* \"#utility.yul\":2171:2174   */\n      dup3\n        /* \"#utility.yul\":2166:2169   */\n      dup6\n        /* \"#utility.yul\":2129:2183   */\n      tag_110\n      jump\t// in\n    tag_182:\n        /* \"#utility.yul\":1848:2189   */\n      pop\n        /* \"#utility.yul\":1764:2189   */\n      swap4\n      swap3\n      pop\n      pop\n      pop\n      jump\t// out\n        /* \"#utility.yul\":2209:2549   */\n    tag_112:\n        /* \"#utility.yul\":2265:2270   */\n      0x00\n        /* \"#utility.yul\":2314:2317   */\n      dup3\n        /* \"#utility.yul\":2307:2311   */\n      0x1f\n        /* \"#utility.yul\":2299:2305   */\n      dup4\n        /* \"#utility.yul\":2295:2312   */\n      add\n        /* \"#utility.yul\":2291:2318   */\n      slt\n        /* \"#utility.yul\":2281:2403   */\n      tag_184\n      jumpi\n        /* \"#utility.yul\":2322:2401   */\n      tag_185\n      tag_103\n      jump\t// in\n    tag_185:\n        /* \"#utility.yul\":2281:2403   */\n    tag_184:\n        /* \"#utility.yul\":2439:2445   */\n      dup2\n        /* \"#utility.yul\":2426:2446   */\n      calldataload\n        /* \"#utility.yul\":2464:2543   */\n      tag_186\n        /* \"#utility.yul\":2539:2542   */\n      dup5\n        /* \"#utility.yul\":2531:2537   */\n      dup3\n        /* \"#utility.yul\":2524:2528   */\n      0x20\n        /* \"#utility.yul\":2516:2522   */\n      dup7\n        /* \"#utility.yul\":2512:2529   */\n      add\n        /* \"#utility.yul\":2464:2543   */\n      tag_111\n      jump\t// in\n    tag_186:\n        /* \"#utility.yul\":2455:2543   */\n      swap2\n      pop\n        /* \"#utility.yul\":2271:2549   */\n      pop\n        /* \"#utility.yul\":2209:2549   */\n      swap3\n      swap2\n      pop\n      pop\n      jump\t// out\n        /* \"#utility.yul\":2555:3064   */\n    tag_10:\n        /* \"#utility.yul\":2624:2630   */\n      0x00\n        /* \"#utility.yul\":2673:2675   */\n      0x20\n        /* \"#utility.yul\":2661:2670   */\n      dup3\n        /* \"#utility.yul\":2652:2659   */\n      dup5\n        /* \"#utility.yul\":2648:2671   */\n      sub\n        /* \"#utility.yul\":2644:2676   */\n      slt\n        /* \"#utility.yul\":2641:2760   */\n      iszero\n      tag_188\n      jumpi\n        /* \"#utility.yul\":2679:2758   */\n      tag_189\n      tag_101\n      jump\t// in\n    tag_189:\n        /* \"#utility.yul\":2641:2760   */\n    tag_188:\n        /* \"#utility.yul\":2827:2828   */\n      0x00\n        /* \"#utility.yul\":2816:2825   */\n      dup3\n        /* \"#utility.yul\":2812:2829   */\n      add\n        /* \"#utility.yul\":2799:2830   */\n      calldataload\n        /* \"#utility.yul\":2857:2875   */\n      0xffffffffffffffff\n        /* \"#utility.yul\":2849:2855   */\n      dup2\n        /* \"#utility.yul\":2846:2876   */\n      gt\n        /* \"#utility.yul\":2843:2960   */\n      iszero\n      tag_190\n      jumpi\n        /* \"#utility.yul\":2879:2958   */\n      tag_191\n      tag_102\n      jump\t// in\n    tag_191:\n        /* \"#utility.yul\":2843:2960   */\n    tag_190:\n        /* \"#utility.yul\":2984:3047   */\n      tag_192\n        /* \"#utility.yul\":3039:3046   */\n      dup5\n        /* \"#utility.yul\":3030:3036   */\n      dup3\n        /* \"#utility.yul\":3019:3028   */\n      dup6\n        /* \"#utility.yul\":3015:3037   */\n      add\n        /* \"#utility.yul\":2984:3047   */\n      tag_112\n      jump\t// in\n    tag_192:\n        /* \"#utility.yul\":2974:3047   */\n      swap2\n      pop\n        /* \"#utility.yul\":2770:3057   */\n      pop\n        /* \"#utility.yul\":2555:3064   */\n      swap3\n      swap2\n      pop\n      pop\n      jump\t// out\n        /* \"#utility.yul\":3070:3204   */\n    tag_113:\n        /* \"#utility.yul\":3157:3163   */\n      0x00\n        /* \"#utility.yul\":3191:3196   */\n      dup2\n        /* \"#utility.yul\":3185:3197   */\n      mload\n        /* \"#utility.yul\":3175:3197   */\n      swap1\n      pop\n        /* \"#utility.yul\":3070:3204   */\n      swap2\n      swap1\n      pop\n      jump\t// out\n        /* \"#utility.yul\":3210:3414   */\n    tag_114:\n        /* \"#utility.yul\":3329:3340   */\n      0x00\n        /* \"#utility.yul\":3363:3369   */\n      dup3\n        /* \"#utility.yul\":3358:3361   */\n      dup3\n        /* \"#utility.yul\":3351:3370   */\n      mstore\n        /* \"#utility.yul\":3403:3407   */\n      0x20\n        /* \"#utility.yul\":3398:3401   */\n      dup3\n        /* \"#utility.yul\":3394:3408   */\n      add\n        /* \"#utility.yul\":3379:3408   */\n      swap1\n      pop\n        /* \"#utility.yul\":3210:3414   */\n      swap3\n      swap2\n      pop\n      pop\n      jump\t// out\n        /* \"#utility.yul\":3420:3572   */\n    tag_115:\n        /* \"#utility.yul\":3507:3511   */\n      0x00\n        /* \"#utility.yul\":3530:3533   */\n      dup2\n        /* \"#utility.yul\":3522:3533   */\n      swap1\n      pop\n        /* \"#utility.yul\":3560:3564   */\n      0x20\n        /* \"#utility.yul\":3555:3558   */\n      dup3\n        /* \"#utility.yul\":3551:3565   */\n      add\n        /* \"#utility.yul\":3543:3565   */\n      swap1\n      pop\n        /* \"#utility.yul\":3420:3572   */\n      swap2\n      swap1\n      pop\n      jump\t// out\n        /* \"#utility.yul\":3578:3664   */\n    tag_116:\n        /* \"#utility.yul\":3613:3620   */\n      0x00\n        /* \"#utility.yul\":3653:3657   */\n      0xff\n        /* \"#utility.yul\":3646:3651   */\n      dup3\n        /* \"#utility.yul\":3642:3658   */\n      and\n        /* \"#utility.yul\":3631:3658   */\n      swap1\n      pop\n        /* \"#utility.yul\":3578:3664   */\n      swap2\n      swap1\n      pop\n      jump\t// out\n        /* \"#utility.yul\":3670:3772   */\n    tag_117:\n        /* \"#utility.yul\":3743:3765   */\n      tag_198\n        /* \"#utility.yul\":3759:3764   */\n      dup2\n        /* \"#utility.yul\":3743:3765   */\n      tag_116\n      jump\t// in\n    tag_198:\n        /* \"#utility.yul\":3738:3741   */\n      dup3\n        /* \"#utility.yul\":3731:3766   */\n      mstore\n        /* \"#utility.yul\":3670:3772   */\n      pop\n      pop\n      jump\t// out\n        /* \"#utility.yul\":3778:3877   */\n    tag_118:\n        /* \"#utility.yul\":3830:3836   */\n      0x00\n        /* \"#utility.yul\":3864:3869   */\n      dup2\n        /* \"#utility.yul\":3858:3870   */\n      mload\n        /* \"#utility.yul\":3848:3870   */\n      swap1\n      pop\n        /* \"#utility.yul\":3778:3877   */\n      swap2\n      swap1\n      pop\n      jump\t// out\n        /* \"#utility.yul\":3883:4042   */\n    tag_119:\n        /* \"#utility.yul\":3957:3968   */\n      0x00\n        /* \"#utility.yul\":3991:3997   */\n      dup3\n        /* \"#utility.yul\":3986:3989   */\n      dup3\n        /* \"#utility.yul\":3979:3998   */\n      mstore\n        /* \"#utility.yul\":4031:4035   */\n      0x20\n        /* \"#utility.yul\":4026:4029   */\n      dup3\n        /* \"#utility.yul\":4022:4036   */\n      add\n        /* \"#utility.yul\":4007:4036   */\n      swap1\n      pop\n        /* \"#utility.yul\":3883:4042   */\n      swap3\n      swap2\n      pop\n      pop\n      jump\t// out\n        /* \"#utility.yul\":4048:4187   */\n    tag_120:\n        /* \"#utility.yul\":4137:4143   */\n      dup3\n        /* \"#utility.yul\":4132:4135   */\n      dup2\n        /* \"#utility.yul\":4127:4130   */\n      dup4\n        /* \"#utility.yul\":4121:4144   */\n      mcopy\n        /* \"#utility.yul\":4178:4179   */\n      0x00\n        /* \"#utility.yul\":4169:4175   */\n      dup4\n        /* \"#utility.yul\":4164:4167   */\n      dup4\n        /* \"#utility.yul\":4160:4176   */\n      add\n        /* \"#utility.yul\":4153:4180   */\n      mstore\n        /* \"#utility.yul\":4048:4187   */\n      pop\n      pop\n      pop\n      jump\t// out\n        /* \"#utility.yul\":4193:4550   */\n    tag_121:\n        /* \"#utility.yul\":4271:4274   */\n      0x00\n        /* \"#utility.yul\":4299:4338   */\n      tag_203\n        /* \"#utility.yul\":4332:4337   */\n      dup3\n        /* \"#utility.yul\":4299:4338   */\n      tag_118\n      jump\t// in\n    tag_203:\n        /* \"#utility.yul\":4354:4415   */\n      tag_204\n        /* \"#utility.yul\":4408:4414   */\n      dup2\n        /* \"#utility.yul\":4403:4406   */\n      dup6\n        /* \"#utility.yul\":4354:4415   */\n      tag_119\n      jump\t// in\n    tag_204:\n        /* \"#utility.yul\":4347:4415   */\n      swap4\n      pop\n        /* \"#utility.yul\":4424:4489   */\n      tag_205\n        /* \"#utility.yul\":4482:4488   */\n      dup2\n        /* \"#utility.yul\":4477:4480   */\n      dup6\n        /* \"#utility.yul\":4470:4474   */\n      0x20\n        /* \"#utility.yul\":4463:4468   */\n      dup7\n        /* \"#utility.yul\":4459:4475   */\n      add\n        /* \"#utility.yul\":4424:4489   */\n      tag_120\n      jump\t// in\n    tag_205:\n        /* \"#utility.yul\":4514:4543   */\n      tag_206\n        /* \"#utility.yul\":4536:4542   */\n      dup2\n        /* \"#utility.yul\":4514:4543   */\n      tag_105\n      jump\t// in\n    tag_206:\n        /* \"#utility.yul\":4509:4512   */\n      dup5\n        /* \"#utility.yul\":4505:4544   */\n      add\n        /* \"#utility.yul\":4498:4544   */\n      swap2\n      pop\n        /* \"#utility.yul\":4275:4550   */\n      pop\n        /* \"#utility.yul\":4193:4550   */\n      swap3\n      swap2\n      pop\n      pop\n      jump\t// out\n        /* \"#utility.yul\":4556:4646   */\n    tag_122:\n        /* \"#utility.yul\":4590:4597   */\n      0x00\n        /* \"#utility.yul\":4633:4638   */\n      dup2\n        /* \"#utility.yul\":4626:4639   */\n      iszero\n        /* \"#utility.yul\":4619:4640   */\n      iszero\n        /* \"#utility.yul\":4608:4640   */\n      swap1\n      pop\n        /* \"#utility.yul\":4556:4646   */\n      swap2\n      swap1\n      pop\n      jump\t// out\n        /* \"#utility.yul\":4652:4751   */\n    tag_123:\n        /* \"#utility.yul\":4723:4744   */\n      tag_209\n        /* \"#utility.yul\":4738:4743   */\n      dup2\n        /* \"#utility.yul\":4723:4744   */\n      tag_122\n      jump\t// in\n    tag_209:\n        /* \"#utility.yul\":4718:4721   */\n      dup3\n        /* \"#utility.yul\":4711:4745   */\n      mstore\n        /* \"#utility.yul\":4652:4751   */\n      pop\n      pop\n      jump\t// out\n        /* \"#utility.yul\":4757:4834   */\n    tag_124:\n        /* \"#utility.yul\":4794:4801   */\n      0x00\n        /* \"#utility.yul\":4823:4828   */\n      dup2\n        /* \"#utility.yul\":4812:4828   */\n      swap1\n      pop\n        /* \"#utility.yul\":4757:4834   */\n      swap2\n      swap1\n      pop\n      jump\t// out\n        /* \"#utility.yul\":4840:4948   */\n    tag_125:\n        /* \"#utility.yul\":4917:4941   */\n      tag_212\n        /* \"#utility.yul\":4935:4940   */\n      dup2\n        /* \"#utility.yul\":4917:4941   */\n      tag_124\n      jump\t// in\n    tag_212:\n        /* \"#utility.yul\":4912:4915   */\n      dup3\n        /* \"#utility.yul\":4905:4942   */\n      mstore\n        /* \"#utility.yul\":4840:4948   */\n      pop\n      pop\n      jump\t// out\n        /* \"#utility.yul\":4998:5937   */\n    tag_126:\n        /* \"#utility.yul\":5097:5100   */\n      0x00\n        /* \"#utility.yul\":5133:5137   */\n      0x80\n        /* \"#utility.yul\":5128:5131   */\n      dup4\n        /* \"#utility.yul\":5124:5138   */\n      add\n        /* \"#utility.yul\":5218:5222   */\n      0x00\n        /* \"#utility.yul\":5211:5216   */\n      dup4\n        /* \"#utility.yul\":5207:5223   */\n      add\n        /* \"#utility.yul\":5201:5224   */\n      mload\n        /* \"#utility.yul\":5237:5296   */\n      tag_214\n        /* \"#utility.yul\":5290:5294   */\n      0x00\n        /* \"#utility.yul\":5285:5288   */\n      dup7\n        /* \"#utility.yul\":5281:5295   */\n      add\n        /* \"#utility.yul\":5267:5279   */\n      dup3\n        /* \"#utility.yul\":5237:5296   */\n      tag_117\n      jump\t// in\n    tag_214:\n        /* \"#utility.yul\":5148:5306   */\n      pop\n        /* \"#utility.yul\":5389:5393   */\n      0x20\n        /* \"#utility.yul\":5382:5387   */\n      dup4\n        /* \"#utility.yul\":5378:5394   */\n      add\n        /* \"#utility.yul\":5372:5395   */\n      mload\n        /* \"#utility.yul\":5442:5445   */\n      dup5\n        /* \"#utility.yul\":5436:5440   */\n      dup3\n        /* \"#utility.yul\":5432:5446   */\n      sub\n        /* \"#utility.yul\":5425:5429   */\n      0x20\n        /* \"#utility.yul\":5420:5423   */\n      dup7\n        /* \"#utility.yul\":5416:5430   */\n      add\n        /* \"#utility.yul\":5409:5447   */\n      mstore\n        /* \"#utility.yul\":5468:5541   */\n      tag_215\n        /* \"#utility.yul\":5536:5540   */\n      dup3\n        /* \"#utility.yul\":5522:5534   */\n      dup3\n        /* \"#utility.yul\":5468:5541   */\n      tag_121\n      jump\t// in\n    tag_215:\n        /* \"#utility.yul\":5460:5541   */\n      swap2\n      pop\n        /* \"#utility.yul\":5316:5552   */\n      pop\n        /* \"#utility.yul\":5641:5645   */\n      0x40\n        /* \"#utility.yul\":5634:5639   */\n      dup4\n        /* \"#utility.yul\":5630:5646   */\n      add\n        /* \"#utility.yul\":5624:5647   */\n      mload\n        /* \"#utility.yul\":5660:5717   */\n      tag_216\n        /* \"#utility.yul\":5711:5715   */\n      0x40\n        /* \"#utility.yul\":5706:5709   */\n      dup7\n        /* \"#utility.yul\":5702:5716   */\n      add\n        /* \"#utility.yul\":5688:5700   */\n      dup3\n        /* \"#utility.yul\":5660:5717   */\n      tag_123\n      jump\t// in\n    tag_216:\n        /* \"#utility.yul\":5562:5727   */\n      pop\n        /* \"#utility.yul\":5818:5822   */\n      0x60\n        /* \"#utility.yul\":5811:5816   */\n      dup4\n        /* \"#utility.yul\":5807:5823   */\n      add\n        /* \"#utility.yul\":5801:5824   */\n      mload\n        /* \"#utility.yul\":5837:5900   */\n      tag_217\n        /* \"#utility.yul\":5894:5898   */\n      0x60\n        /* \"#utility.yul\":5889:5892   */\n      dup7\n        /* \"#utility.yul\":5885:5899   */\n      add\n        /* \"#utility.yul\":5871:5883   */\n      dup3\n        /* \"#utility.yul\":5837:5900   */\n      tag_125\n      jump\t// in\n    tag_217:\n        /* \"#utility.yul\":5737:5910   */\n      pop\n        /* \"#utility.yul\":5927:5931   */\n      dup1\n        /* \"#utility.yul\":5920:5931   */\n      swap2\n      pop\n        /* \"#utility.yul\":5102:5937   */\n      pop\n        /* \"#utility.yul\":4998:5937   */\n      swap3\n      swap2\n      pop\n      pop\n      jump\t// out\n        /* \"#utility.yul\":5943:6179   */\n    tag_127:\n        /* \"#utility.yul\":6052:6062   */\n      0x00\n        /* \"#utility.yul\":6087:6173   */\n      tag_219\n        /* \"#utility.yul\":6169:6172   */\n      dup4\n        /* \"#utility.yul\":6161:6167   */\n      dup4\n        /* \"#utility.yul\":6087:6173   */\n      tag_126\n      jump\t// in\n    tag_219:\n        /* \"#utility.yul\":6073:6173   */\n      swap1\n      pop\n        /* \"#utility.yul\":5943:6179   */\n      swap3\n      swap2\n      pop\n      pop\n      jump\t// out\n        /* \"#utility.yul\":6185:6318   */\n    tag_128:\n        /* \"#utility.yul\":6275:6279   */\n      0x00\n        /* \"#utility.yul\":6307:6311   */\n      0x20\n        /* \"#utility.yul\":6302:6305   */\n      dup3\n        /* \"#utility.yul\":6298:6312   */\n      add\n        /* \"#utility.yul\":6290:6312   */\n      swap1\n      pop\n        /* \"#utility.yul\":6185:6318   */\n      swap2\n      swap1\n      pop\n      jump\t// out\n        /* \"#utility.yul\":6372:7443   */\n    tag_129:\n        /* \"#utility.yul\":6531:6534   */\n      0x00\n        /* \"#utility.yul\":6560:6634   */\n      tag_222\n        /* \"#utility.yul\":6628:6633   */\n      dup3\n        /* \"#utility.yul\":6560:6634   */\n      tag_113\n      jump\t// in\n    tag_222:\n        /* \"#utility.yul\":6650:6756   */\n      tag_223\n        /* \"#utility.yul\":6749:6755   */\n      dup2\n        /* \"#utility.yul\":6744:6747   */\n      dup6\n        /* \"#utility.yul\":6650:6756   */\n      tag_114\n      jump\t// in\n    tag_223:\n        /* \"#utility.yul\":6643:6756   */\n      swap4\n      pop\n        /* \"#utility.yul\":6782:6785   */\n      dup4\n        /* \"#utility.yul\":6827:6831   */\n      0x20\n        /* \"#utility.yul\":6819:6825   */\n      dup3\n        /* \"#utility.yul\":6815:6832   */\n      mul\n        /* \"#utility.yul\":6810:6813   */\n      dup6\n        /* \"#utility.yul\":6806:6833   */\n      add\n        /* \"#utility.yul\":6857:6933   */\n      tag_224\n        /* \"#utility.yul\":6927:6932   */\n      dup6\n        /* \"#utility.yul\":6857:6933   */\n      tag_115\n      jump\t// in\n    tag_224:\n        /* \"#utility.yul\":6956:6963   */\n      dup1\n        /* \"#utility.yul\":6987:6988   */\n      0x00\n        /* \"#utility.yul\":6972:7398   */\n    tag_225:\n        /* \"#utility.yul\":6997:7003   */\n      dup6\n        /* \"#utility.yul\":6994:6995   */\n      dup2\n        /* \"#utility.yul\":6991:7004   */\n      lt\n        /* \"#utility.yul\":6972:7398   */\n      iszero\n      tag_227\n      jumpi\n        /* \"#utility.yul\":7068:7077   */\n      dup5\n        /* \"#utility.yul\":7062:7066   */\n      dup5\n        /* \"#utility.yul\":7058:7078   */\n      sub\n        /* \"#utility.yul\":7053:7056   */\n      dup10\n        /* \"#utility.yul\":7046:7079   */\n      mstore\n        /* \"#utility.yul\":7119:7125   */\n      dup2\n        /* \"#utility.yul\":7113:7126   */\n      mload\n        /* \"#utility.yul\":7147:7251   */\n      tag_228\n        /* \"#utility.yul\":7246:7250   */\n      dup6\n        /* \"#utility.yul\":7231:7244   */\n      dup3\n        /* \"#utility.yul\":7147:7251   */\n      tag_127\n      jump\t// in\n    tag_228:\n        /* \"#utility.yul\":7139:7251   */\n      swap5\n      pop\n        /* \"#utility.yul\":7274:7354   */\n      tag_229\n        /* \"#utility.yul\":7347:7353   */\n      dup4\n        /* \"#utility.yul\":7274:7354   */\n      tag_128\n      jump\t// in\n    tag_229:\n        /* \"#utility.yul\":7264:7354   */\n      swap3\n      pop\n        /* \"#utility.yul\":7383:7387   */\n      0x20\n        /* \"#utility.yul\":7378:7381   */\n      dup11\n        /* \"#utility.yul\":7374:7388   */\n      add\n        /* \"#utility.yul\":7367:7388   */\n      swap10\n      pop\n        /* \"#utility.yul\":7032:7398   */\n      pop\n        /* \"#utility.yul\":7019:7020   */\n      0x01\n        /* \"#utility.yul\":7016:7017   */\n      dup2\n        /* \"#utility.yul\":7012:7021   */\n      add\n        /* \"#utility.yul\":7007:7021   */\n      swap1\n      pop\n        /* \"#utility.yul\":6972:7398   */\n      jump(tag_225)\n    tag_227:\n        /* \"#utility.yul\":6976:6990   */\n      pop\n        /* \"#utility.yul\":7414:7418   */\n      dup3\n        /* \"#utility.yul\":7407:7418   */\n      swap8\n      pop\n        /* \"#utility.yul\":7434:7437   */\n      dup8\n        /* \"#utility.yul\":7427:7437   */\n      swap6\n      pop\n        /* \"#utility.yul\":6536:7443   */\n      pop\n      pop\n      pop\n      pop\n      pop\n        /* \"#utility.yul\":6372:7443   */\n      swap3\n      swap2\n      pop\n      pop\n      jump\t// out\n        /* \"#utility.yul\":7449:7902   */\n    tag_15:\n        /* \"#utility.yul\":7632:7636   */\n      0x00\n        /* \"#utility.yul\":7670:7672   */\n      0x20\n        /* \"#utility.yul\":7659:7668   */\n      dup3\n        /* \"#utility.yul\":7655:7673   */\n      add\n        /* \"#utility.yul\":7647:7673   */\n      swap1\n      pop\n        /* \"#utility.yul\":7719:7728   */\n      dup2\n        /* \"#utility.yul\":7713:7717   */\n      dup2\n        /* \"#utility.yul\":7709:7729   */\n      sub\n        /* \"#utility.yul\":7705:7706   */\n      0x00\n        /* \"#utility.yul\":7694:7703   */\n      dup4\n        /* \"#utility.yul\":7690:7707   */\n      add\n        /* \"#utility.yul\":7683:7730   */\n      mstore\n        /* \"#utility.yul\":7747:7895   */\n      tag_231\n        /* \"#utility.yul\":7890:7894   */\n      dup2\n        /* \"#utility.yul\":7881:7887   */\n      dup5\n        /* \"#utility.yul\":7747:7895   */\n      tag_129\n      jump\t// in\n    tag_231:\n        /* \"#utility.yul\":7739:7895   */\n      swap1\n      pop\n        /* \"#utility.yul\":7449:7902   */\n      swap3\n      swap2\n      pop\n      pop\n      jump\t// out\n        /* \"#utility.yul\":7908:8030   */\n    tag_130:\n        /* \"#utility.yul\":7981:8005   */\n      tag_233\n        /* \"#utility.yul\":7999:8004   */\n      dup2\n        /* \"#utility.yul\":7981:8005   */\n      tag_124\n      jump\t// in\n    tag_233:\n        /* \"#utility.yul\":7974:7979   */\n      dup2\n        /* \"#utility.yul\":7971:8006   */\n      eq\n        /* \"#utility.yul\":7961:8024   */\n      tag_234\n      jumpi\n        /* \"#utility.yul\":8020:8021   */\n      0x00\n        /* \"#utility.yul\":8017:8018   */\n      0x00\n        /* \"#utility.yul\":8010:8022   */\n      revert\n        /* \"#utility.yul\":7961:8024   */\n    tag_234:\n        /* \"#utility.yul\":7908:8030   */\n      pop\n      jump\t// out\n        /* \"#utility.yul\":8036:8175   */\n    tag_131:\n        /* \"#utility.yul\":8082:8087   */\n      0x00\n        /* \"#utility.yul\":8120:8126   */\n      dup2\n        /* \"#utility.yul\":8107:8127   */\n      calldataload\n        /* \"#utility.yul\":8098:8127   */\n      swap1\n      pop\n        /* \"#utility.yul\":8136:8169   */\n      tag_236\n        /* \"#utility.yul\":8163:8168   */\n      dup2\n        /* \"#utility.yul\":8136:8169   */\n      tag_130\n      jump\t// in\n    tag_236:\n        /* \"#utility.yul\":8036:8175   */\n      swap3\n      swap2\n      pop\n      pop\n      jump\t// out\n        /* \"#utility.yul\":8181:8510   */\n    tag_18:\n        /* \"#utility.yul\":8240:8246   */\n      0x00\n        /* \"#utility.yul\":8289:8291   */\n      0x20\n        /* \"#utility.yul\":8277:8286   */\n      dup3\n        /* \"#utility.yul\":8268:8275   */\n      dup5\n        /* \"#utility.yul\":8264:8287   */\n      sub\n        /* \"#utility.yul\":8260:8292   */\n      slt\n        /* \"#utility.yul\":8257:8376   */\n      iszero\n      tag_238\n      jumpi\n        /* \"#utility.yul\":8295:8374   */\n      tag_239\n      tag_101\n      jump\t// in\n    tag_239:\n        /* \"#utility.yul\":8257:8376   */\n    tag_238:\n        /* \"#utility.yul\":8415:8416   */\n      0x00\n        /* \"#utility.yul\":8440:8493   */\n      tag_240\n        /* \"#utility.yul\":8485:8492   */\n      dup5\n        /* \"#utility.yul\":8476:8482   */\n      dup3\n        /* \"#utility.yul\":8465:8474   */\n      dup6\n        /* \"#utility.yul\":8461:8483   */\n      add\n        /* \"#utility.yul\":8440:8493   */\n      tag_131\n      jump\t// in\n    tag_240:\n        /* \"#utility.yul\":8430:8493   */\n      swap2\n      pop\n        /* \"#utility.yul\":8386:8503   */\n      pop\n        /* \"#utility.yul\":8181:8510   */\n      swap3\n      swap2\n      pop\n      pop\n      jump\t// out\n        /* \"#utility.yul\":8516:8628   */\n    tag_132:\n        /* \"#utility.yul\":8599:8621   */\n      tag_242\n        /* \"#utility.yul\":8615:8620   */\n      dup2\n        /* \"#utility.yul\":8599:8621   */\n      tag_116\n      jump\t// in\n    tag_242:\n        /* \"#utility.yul\":8594:8597   */\n      dup3\n        /* \"#utility.yul\":8587:8622   */\n      mstore\n        /* \"#utility.yul\":8516:8628   */\n      pop\n      pop\n      jump\t// out\n        /* \"#utility.yul\":8634:8803   */\n    tag_133:\n        /* \"#utility.yul\":8718:8729   */\n      0x00\n        /* \"#utility.yul\":8752:8758   */\n      dup3\n        /* \"#utility.yul\":8747:8750   */\n      dup3\n        /* \"#utility.yul\":8740:8759   */\n      mstore\n        /* \"#utility.yul\":8792:8796   */\n      0x20\n        /* \"#utility.yul\":8787:8790   */\n      dup3\n        /* \"#utility.yul\":8783:8797   */\n      add\n        /* \"#utility.yul\":8768:8797   */\n      swap1\n      pop\n        /* \"#utility.yul\":8634:8803   */\n      swap3\n      swap2\n      pop\n      pop\n      jump\t// out\n        /* \"#utility.yul\":8809:9186   */\n    tag_134:\n        /* \"#utility.yul\":8897:8900   */\n      0x00\n        /* \"#utility.yul\":8925:8964   */\n      tag_245\n        /* \"#utility.yul\":8958:8963   */\n      dup3\n        /* \"#utility.yul\":8925:8964   */\n      tag_118\n      jump\t// in\n    tag_245:\n        /* \"#utility.yul\":8980:9051   */\n      tag_246\n        /* \"#utility.yul\":9044:9050   */\n      dup2\n        /* \"#utility.yul\":9039:9042   */\n      dup6\n        /* \"#utility.yul\":8980:9051   */\n      tag_133\n      jump\t// in\n    tag_246:\n        /* \"#utility.yul\":8973:9051   */\n      swap4\n      pop\n        /* \"#utility.yul\":9060:9125   */\n      tag_247\n        /* \"#utility.yul\":9118:9124   */\n      dup2\n        /* \"#utility.yul\":9113:9116   */\n      dup6\n        /* \"#utility.yul\":9106:9110   */\n      0x20\n        /* \"#utility.yul\":9099:9104   */\n      dup7\n        /* \"#utility.yul\":9095:9111   */\n      add\n        /* \"#utility.yul\":9060:9125   */\n      tag_120\n      jump\t// in\n    tag_247:\n        /* \"#utility.yul\":9150:9179   */\n      tag_248\n        /* \"#utility.yul\":9172:9178   */\n      dup2\n        /* \"#utility.yul\":9150:9179   */\n      tag_105\n      jump\t// in\n    tag_248:\n        /* \"#utility.yul\":9145:9148   */\n      dup5\n        /* \"#utility.yul\":9141:9180   */\n      add\n        /* \"#utility.yul\":9134:9180   */\n      swap2\n      pop\n        /* \"#utility.yul\":8901:9186   */\n      pop\n        /* \"#utility.yul\":8809:9186   */\n      swap3\n      swap2\n      pop\n      pop\n      jump\t// out\n        /* \"#utility.yul\":9192:9301   */\n    tag_135:\n        /* \"#utility.yul\":9273:9294   */\n      tag_250\n        /* \"#utility.yul\":9288:9293   */\n      dup2\n        /* \"#utility.yul\":9273:9294   */\n      tag_122\n      jump\t// in\n    tag_250:\n        /* \"#utility.yul\":9268:9271   */\n      dup3\n        /* \"#utility.yul\":9261:9295   */\n      mstore\n        /* \"#utility.yul\":9192:9301   */\n      pop\n      pop\n      jump\t// out\n        /* \"#utility.yul\":9307:9425   */\n    tag_136:\n        /* \"#utility.yul\":9394:9418   */\n      tag_252\n        /* \"#utility.yul\":9412:9417   */\n      dup2\n        /* \"#utility.yul\":9394:9418   */\n      tag_124\n      jump\t// in\n    tag_252:\n        /* \"#utility.yul\":9389:9392   */\n      dup3\n        /* \"#utility.yul\":9382:9419   */\n      mstore\n        /* \"#utility.yul\":9307:9425   */\n      pop\n      pop\n      jump\t// out\n        /* \"#utility.yul\":9431:10055   */\n    tag_21:\n        /* \"#utility.yul\":9618:9622   */\n      0x00\n        /* \"#utility.yul\":9656:9659   */\n      0x80\n        /* \"#utility.yul\":9645:9654   */\n      dup3\n        /* \"#utility.yul\":9641:9660   */\n      add\n        /* \"#utility.yul\":9633:9660   */\n      swap1\n      pop\n        /* \"#utility.yul\":9670:9737   */\n      tag_254\n        /* \"#utility.yul\":9734:9735   */\n      0x00\n        /* \"#utility.yul\":9723:9732   */\n      dup4\n        /* \"#utility.yul\":9719:9736   */\n      add\n        /* \"#utility.yul\":9710:9716   */\n      dup8\n        /* \"#utility.yul\":9670:9737   */\n      tag_132\n      jump\t// in\n    tag_254:\n        /* \"#utility.yul\":9784:9793   */\n      dup2\n        /* \"#utility.yul\":9778:9782   */\n      dup2\n        /* \"#utility.yul\":9774:9794   */\n      sub\n        /* \"#utility.yul\":9769:9771   */\n      0x20\n        /* \"#utility.yul\":9758:9767   */\n      dup4\n        /* \"#utility.yul\":9754:9772   */\n      add\n        /* \"#utility.yul\":9747:9795   */\n      mstore\n        /* \"#utility.yul\":9812:9890   */\n      tag_255\n        /* \"#utility.yul\":9885:9889   */\n      dup2\n        /* \"#utility.yul\":9876:9882   */\n      dup7\n        /* \"#utility.yul\":9812:9890   */\n      tag_134\n      jump\t// in\n    tag_255:\n        /* \"#utility.yul\":9804:9890   */\n      swap1\n      pop\n        /* \"#utility.yul\":9900:9966   */\n      tag_256\n        /* \"#utility.yul\":9962:9964   */\n      0x40\n        /* \"#utility.yul\":9951:9960   */\n      dup4\n        /* \"#utility.yul\":9947:9965   */\n      add\n        /* \"#utility.yul\":9938:9944   */\n      dup6\n        /* \"#utility.yul\":9900:9966   */\n      tag_135\n      jump\t// in\n    tag_256:\n        /* \"#utility.yul\":9976:10048   */\n      tag_257\n        /* \"#utility.yul\":10044:10046   */\n      0x60\n        /* \"#utility.yul\":10033:10042   */\n      dup4\n        /* \"#utility.yul\":10029:10047   */\n      add\n        /* \"#utility.yul\":10020:10026   */\n      dup5\n        /* \"#utility.yul\":9976:10048   */\n      tag_136\n      jump\t// in\n    tag_257:\n        /* \"#utility.yul\":9431:10055   */\n      swap6\n      swap5\n      pop\n      pop\n      pop\n      pop\n      pop\n      jump\t// out\n        /* \"#utility.yul\":10061:10179   */\n    tag_137:\n        /* \"#utility.yul\":10132:10154   */\n      tag_259\n        /* \"#utility.yul\":10148:10153   */\n      dup2\n        /* \"#utility.yul\":10132:10154   */\n      tag_116\n      jump\t// in\n    tag_259:\n        /* \"#utility.yul\":10125:10130   */\n      dup2\n        /* \"#utility.yul\":10122:10155   */\n      eq\n        /* \"#utility.yul\":10112:10173   */\n      tag_260\n      jumpi\n        /* \"#utility.yul\":10169:10170   */\n      0x00\n        /* \"#utility.yul\":10166:10167   */\n      0x00\n        /* \"#utility.yul\":10159:10171   */\n      revert\n        /* \"#utility.yul\":10112:10173   */\n    tag_260:\n        /* \"#utility.yul\":10061:10179   */\n      pop\n      jump\t// out\n        /* \"#utility.yul\":10185:10320   */\n    tag_138:\n        /* \"#utility.yul\":10229:10234   */\n      0x00\n        /* \"#utility.yul\":10267:10273   */\n      dup2\n        /* \"#utility.yul\":10254:10274   */\n      calldataload\n        /* \"#utility.yul\":10245:10274   */\n      swap1\n      pop\n        /* \"#utility.yul\":10283:10314   */\n      tag_262\n        /* \"#utility.yul\":10308:10313   */\n      dup2\n        /* \"#utility.yul\":10283:10314   */\n      tag_137\n      jump\t// in\n    tag_262:\n        /* \"#utility.yul\":10185:10320   */\n      swap3\n      swap2\n      pop\n      pop\n      jump\t// out\n        /* \"#utility.yul\":10326:10651   */\n    tag_24:\n        /* \"#utility.yul\":10383:10389   */\n      0x00\n        /* \"#utility.yul\":10432:10434   */\n      0x20\n        /* \"#utility.yul\":10420:10429   */\n      dup3\n        /* \"#utility.yul\":10411:10418   */\n      dup5\n        /* \"#utility.yul\":10407:10430   */\n      sub\n        /* \"#utility.yul\":10403:10435   */\n      slt\n        /* \"#utility.yul\":10400:10519   */\n      iszero\n      tag_264\n      jumpi\n        /* \"#utility.yul\":10438:10517   */\n      tag_265\n      tag_101\n      jump\t// in\n    tag_265:\n        /* \"#utility.yul\":10400:10519   */\n    tag_264:\n        /* \"#utility.yul\":10558:10559   */\n      0x00\n        /* \"#utility.yul\":10583:10634   */\n      tag_266\n        /* \"#utility.yul\":10626:10633   */\n      dup5\n        /* \"#utility.yul\":10617:10623   */\n      dup3\n        /* \"#utility.yul\":10606:10615   */\n      dup6\n        /* \"#utility.yul\":10602:10624   */\n      add\n        /* \"#utility.yul\":10583:10634   */\n      tag_138\n      jump\t// in\n    tag_266:\n        /* \"#utility.yul\":10573:10634   */\n      swap2\n      pop\n        /* \"#utility.yul\":10529:10644   */\n      pop\n        /* \"#utility.yul\":10326:10651   */\n      swap3\n      swap2\n      pop\n      pop\n      jump\t// out\n        /* \"#utility.yul\":10657:10837   */\n    tag_139:\n        /* \"#utility.yul\":10705:10782   */\n      0x4e487b7100000000000000000000000000000000000000000000000000000000\n        /* \"#utility.yul\":10702:10703   */\n      0x00\n        /* \"#utility.yul\":10695:10783   */\n      mstore\n        /* \"#utility.yul\":10802:10806   */\n      0x11\n        /* \"#utility.yul\":10799:10800   */\n      0x04\n        /* \"#utility.yul\":10792:10807   */\n      mstore\n        /* \"#utility.yul\":10826:10830   */\n      0x24\n        /* \"#utility.yul\":10823:10824   */\n      0x00\n        /* \"#utility.yul\":10816:10831   */\n      revert\n        /* \"#utility.yul\":10843:11010   */\n    tag_31:\n        /* \"#utility.yul\":10880:10883   */\n      0x00\n        /* \"#utility.yul\":10903:10925   */\n      tag_269\n        /* \"#utility.yul\":10919:10924   */\n      dup3\n        /* \"#utility.yul\":10903:10925   */\n      tag_116\n      jump\t// in\n    tag_269:\n        /* \"#utility.yul\":10894:10925   */\n      swap2\n      pop\n        /* \"#utility.yul\":10947:10951   */\n      0xff\n        /* \"#utility.yul\":10940:10945   */\n      dup3\n        /* \"#utility.yul\":10937:10952   */\n      sub\n        /* \"#utility.yul\":10934:10975   */\n      tag_270\n      jumpi\n        /* \"#utility.yul\":10955:10973   */\n      tag_271\n      tag_139\n      jump\t// in\n    tag_271:\n        /* \"#utility.yul\":10934:10975   */\n    tag_270:\n        /* \"#utility.yul\":11002:11003   */\n      0x01\n        /* \"#utility.yul\":10995:11000   */\n      dup3\n        /* \"#utility.yul\":10991:11004   */\n      add\n        /* \"#utility.yul\":10984:11004   */\n      swap1\n      pop\n        /* \"#utility.yul\":10843:11010   */\n      swap2\n      swap1\n      pop\n      jump\t// out\n        /* \"#utility.yul\":11016:11196   */\n    tag_140:\n        /* \"#utility.yul\":11064:11141   */\n      0x4e487b7100000000000000000000000000000000000000000000000000000000\n        /* \"#utility.yul\":11061:11062   */\n      0x00\n        /* \"#utility.yul\":11054:11142   */\n      mstore\n        /* \"#utility.yul\":11161:11165   */\n      0x22\n        /* \"#utility.yul\":11158:11159   */\n      0x04\n        /* \"#utility.yul\":11151:11166   */\n      mstore\n        /* \"#utility.yul\":11185:11189   */\n      0x24\n        /* \"#utility.yul\":11182:11183   */\n      0x00\n        /* \"#utility.yul\":11175:11190   */\n      revert\n        /* \"#utility.yul\":11202:11522   */\n    tag_40:\n        /* \"#utility.yul\":11246:11252   */\n      0x00\n        /* \"#utility.yul\":11283:11284   */\n      0x02\n        /* \"#utility.yul\":11277:11281   */\n      dup3\n        /* \"#utility.yul\":11273:11285   */\n      div\n        /* \"#utility.yul\":11263:11285   */\n      swap1\n      pop\n        /* \"#utility.yul\":11330:11331   */\n      0x01\n        /* \"#utility.yul\":11324:11328   */\n      dup3\n        /* \"#utility.yul\":11320:11332   */\n      and\n        /* \"#utility.yul\":11351:11369   */\n      dup1\n        /* \"#utility.yul\":11341:11422   */\n      tag_274\n      jumpi\n        /* \"#utility.yul\":11407:11411   */\n      0x7f\n        /* \"#utility.yul\":11399:11405   */\n      dup3\n        /* \"#utility.yul\":11395:11412   */\n      and\n        /* \"#utility.yul\":11385:11412   */\n      swap2\n      pop\n        /* \"#utility.yul\":11341:11422   */\n    tag_274:\n        /* \"#utility.yul\":11469:11471   */\n      0x20\n        /* \"#utility.yul\":11461:11467   */\n      dup3\n        /* \"#utility.yul\":11458:11472   */\n      lt\n        /* \"#utility.yul\":11438:11456   */\n      dup2\n        /* \"#utility.yul\":11435:11473   */\n      sub\n        /* \"#utility.yul\":11432:11516   */\n      tag_275\n      jumpi\n        /* \"#utility.yul\":11488:11506   */\n      tag_276\n      tag_140\n      jump\t// in\n    tag_276:\n        /* \"#utility.yul\":11432:11516   */\n    tag_275:\n        /* \"#utility.yul\":11253:11522   */\n      pop\n        /* \"#utility.yul\":11202:11522   */\n      swap2\n      swap1\n      pop\n      jump\t// out\n        /* \"#utility.yul\":11528:11669   */\n    tag_141:\n        /* \"#utility.yul\":11577:11581   */\n      0x00\n        /* \"#utility.yul\":11600:11603   */\n      dup2\n        /* \"#utility.yul\":11592:11603   */\n      swap1\n      pop\n        /* \"#utility.yul\":11623:11626   */\n      dup2\n        /* \"#utility.yul\":11620:11621   */\n      0x00\n        /* \"#utility.yul\":11613:11627   */\n      mstore\n        /* \"#utility.yul\":11657:11661   */\n      0x20\n        /* \"#utility.yul\":11654:11655   */\n      0x00\n        /* \"#utility.yul\":11644:11662   */\n      keccak256\n        /* \"#utility.yul\":11636:11662   */\n      swap1\n      pop\n        /* \"#utility.yul\":11528:11669   */\n      swap2\n      swap1\n      pop\n      jump\t// out\n        /* \"#utility.yul\":11675:11768   */\n    tag_142:\n        /* \"#utility.yul\":11712:11718   */\n      0x00\n        /* \"#utility.yul\":11759:11761   */\n      0x20\n        /* \"#utility.yul\":11754:11756   */\n      0x1f\n        /* \"#utility.yul\":11747:11752   */\n      dup4\n        /* \"#utility.yul\":11743:11757   */\n      add\n        /* \"#utility.yul\":11739:11762   */\n      div\n        /* \"#utility.yul\":11729:11762   */\n      swap1\n      pop\n        /* \"#utility.yul\":11675:11768   */\n      swap2\n      swap1\n      pop\n      jump\t// out\n        /* \"#utility.yul\":11774:11881   */\n    tag_143:\n        /* \"#utility.yul\":11818:11826   */\n      0x00\n        /* \"#utility.yul\":11868:11873   */\n      dup3\n        /* \"#utility.yul\":11862:11866   */\n      dup3\n        /* \"#utility.yul\":11858:11874   */\n      shl\n        /* \"#utility.yul\":11837:11874   */\n      swap1\n      pop\n        /* \"#utility.yul\":11774:11881   */\n      swap3\n      swap2\n      pop\n      pop\n      jump\t// out\n        /* \"#utility.yul\":11887:12280   */\n    tag_144:\n        /* \"#utility.yul\":11956:11962   */\n      0x00\n        /* \"#utility.yul\":12006:12007   */\n      0x08\n        /* \"#utility.yul\":11994:12004   */\n      dup4\n        /* \"#utility.yul\":11990:12008   */\n      mul\n        /* \"#utility.yul\":12029:12126   */\n      tag_281\n        /* \"#utility.yul\":12059:12125   */\n      0xffffffffffffffffffffffffffffffffffffffffffffffffffffffffffffffff\n        /* \"#utility.yul\":12048:12057   */\n      dup3\n        /* \"#utility.yul\":12029:12126   */\n      tag_143\n      jump\t// in\n    tag_281:\n        /* \"#utility.yul\":12147:12186   */\n      tag_282\n        /* \"#utility.yul\":12177:12185   */\n      dup7\n        /* \"#utility.yul\":12166:12175   */\n      dup4\n        /* \"#utility.yul\":12147:12186   */\n      tag_143\n      jump\t// in\n    tag_282:\n        /* \"#utility.yul\":12135:12186   */\n      swap6\n      pop\n        /* \"#utility.yul\":12219:12223   */\n      dup1\n        /* \"#utility.yul\":12215:12224   */\n      not\n        /* \"#utility.yul\":12208:12213   */\n      dup5\n        /* \"#utility.yul\":12204:12225   */\n      and\n        /* \"#utility.yul\":12195:12225   */\n      swap4\n      pop\n        /* \"#utility.yul\":12268:12272   */\n      dup1\n        /* \"#utility.yul\":12258:12266   */\n      dup7\n        /* \"#utility.yul\":12254:12273   */\n      and\n        /* \"#utility.yul\":12247:12252   */\n      dup5\n        /* \"#utility.yul\":12244:12274   */\n      or\n        /* \"#utility.yul\":12234:12274   */\n      swap3\n      pop\n        /* \"#utility.yul\":11963:12280   */\n      pop\n      pop\n        /* \"#utility.yul\":11887:12280   */\n      swap4\n      swap3\n      pop\n      pop\n      pop\n      jump\t// out\n        /* \"#utility.yul\":12286:12346   */\n    tag_145:\n        /* \"#utility.yul\":12314:12317   */\n      0x00\n        /* \"#utility.yul\":12335:12340   */\n      dup2\n        /* \"#utility.yul\":12328:12340   */\n      swap1\n      pop\n        /* \"#utility.yul\":12286:12346   */\n      swap2\n      swap1\n      pop\n      jump\t// out\n        /* \"#utility.yul\":12352:12494   */\n    tag_146:\n        /* \"#utility.yul\":12402:12411   */\n      0x00\n        /* \"#utility.yul\":12435:12488   */\n      tag_285\n        /* \"#utility.yul\":12453:12487   */\n      tag_286\n        /* \"#utility.yul\":12462:12486   */\n      tag_287\n        /* \"#utility.yul\":12480:12485   */\n      dup5\n        /* \"#utility.yul\":12462:12486   */\n      tag_124\n      jump\t// in\n    tag_287:\n        /* \"#utility.yul\":12453:12487   */\n      tag_145\n      jump\t// in\n    tag_286:\n        /* \"#utility.yul\":12435:12488   */\n      tag_124\n      jump\t// in\n    tag_285:\n        /* \"#utility.yul\":12422:12488   */\n      swap1\n      pop\n        /* \"#utility.yul\":12352:12494   */\n      swap2\n      swap1\n      pop\n      jump\t// out\n        /* \"#utility.yul\":12500:12575   */\n    tag_147:\n        /* \"#utility.yul\":12543:12546   */\n      0x00\n        /* \"#utility.yul\":12564:12569   */\n      dup2\n        /* \"#utility.yul\":12557:12569   */\n      swap1\n      pop\n        /* \"#utility.yul\":12500:12575   */\n      swap2\n      swap1\n      pop\n      jump\t// out\n        /* \"#utility.yul\":12581:12850   */\n    tag_148:\n        /* \"#utility.yul\":12691:12730   */\n      tag_290\n        /* \"#utility.yul\":12722:12729   */\n      dup4\n        /* \"#utility.yul\":12691:12730   */\n      tag_146\n      jump\t// in\n    tag_290:\n        /* \"#utility.yul\":12752:12843   */\n      tag_291\n        /* \"#utility.yul\":12801:12842   */\n      tag_292\n        /* \"#utility.yul\":12825:12841   */\n      dup3\n        /* \"#utility.yul\":12801:12842   */\n      tag_147\n      jump\t// in\n    tag_292:\n        /* \"#utility.yul\":12793:12799   */\n      dup5\n        /* \"#utility.yul\":12786:12790   */\n      dup5\n        /* \"#utility.yul\":12780:12791   */\n      sload\n        /* \"#utility.yul\":12752:12843   */\n      tag_144\n      jump\t// in\n    tag_291:\n        /* \"#utility.yul\":12746:12750   */\n      dup3\n        /* \"#utility.yul\":12739:12844   */\n      sstore\n        /* \"#utility.yul\":12657:12850   */\n      pop\n        /* \"#utility.yul\":12581:12850   */\n      pop\n      pop\n      pop\n      jump\t// out\n        /* \"#utility.yul\":12856:12929   */\n    tag_149:\n        /* \"#utility.yul\":12901:12904   */\n      0x00\n        /* \"#utility.yul\":12922:12923   */\n      0x00\n        /* \"#utility.yul\":12915:12923   */\n      swap1\n      pop\n        /* \"#utility.yul\":12856:12929   */\n      swap1\n      jump\t// out\n        /* \"#utility.yul\":12935:13124   */\n    tag_150:\n        /* \"#utility.yul\":13012:13044   */\n      tag_295\n      tag_149\n      jump\t// in\n    tag_295:\n        /* \"#utility.yul\":13053:13118   */\n      tag_296\n        /* \"#utility.yul\":13111:13117   */\n      dup2\n        /* \"#utility.yul\":13103:13109   */\n      dup5\n        /* \"#utility.yul\":13097:13101   */\n      dup5\n        /* \"#utility.yul\":13053:13118   */\n      tag_148\n      jump\t// in\n    tag_296:\n        /* \"#utility.yul\":12988:13124   */\n      pop\n        /* \"#utility.yul\":12935:13124   */\n      pop\n      pop\n      jump\t// out\n        /* \"#utility.yul\":13130:13316   */\n    tag_151:\n        /* \"#utility.yul\":13190:13310   */\n    tag_298:\n        /* \"#utility.yul\":13207:13210   */\n      dup2\n        /* \"#utility.yul\":13200:13205   */\n      dup2\n        /* \"#utility.yul\":13197:13211   */\n      lt\n        /* \"#utility.yul\":13190:13310   */\n      iszero\n      tag_300\n      jumpi\n        /* \"#utility.yul\":13261:13300   */\n      tag_301\n        /* \"#utility.yul\":13298:13299   */\n      0x00\n        /* \"#utility.yul\":13291:13296   */\n      dup3\n        /* \"#utility.yul\":13261:13300   */\n      tag_150\n      jump\t// in\n    tag_301:\n        /* \"#utility.yul\":13234:13235   */\n      0x01\n        /* \"#utility.yul\":13227:13232   */\n      dup2\n        /* \"#utility.yul\":13223:13236   */\n      add\n        /* \"#utility.yul\":13214:13236   */\n      swap1\n      pop\n        /* \"#utility.yul\":13190:13310   */\n      jump(tag_298)\n    tag_300:\n        /* \"#utility.yul\":13130:13316   */\n      pop\n      pop\n      jump\t// out\n        /* \"#utility.yul\":13322:13865   */\n    tag_152:\n        /* \"#utility.yul\":13423:13425   */\n      0x1f\n        /* \"#utility.yul\":13418:13421   */\n      dup3\n        /* \"#utility.yul\":13415:13426   */\n      gt\n        /* \"#utility.yul\":13412:13858   */\n      iszero\n      tag_303\n      jumpi\n        /* \"#utility.yul\":13457:13495   */\n      tag_304\n        /* \"#utility.yul\":13489:13494   */\n      dup2\n        /* \"#utility.yul\":13457:13495   */\n      tag_141\n      jump\t// in\n    tag_304:\n        /* \"#utility.yul\":13541:13570   */\n      tag_305\n        /* \"#utility.yul\":13559:13569   */\n      dup5\n        /* \"#utility.yul\":13541:13570   */\n      tag_142\n      jump\t// in\n    tag_305:\n        /* \"#utility.yul\":13531:13539   */\n      dup2\n        /* \"#utility.yul\":13527:13571   */\n      add\n        /* \"#utility.yul\":13724:13726   */\n      0x20\n        /* \"#utility.yul\":13712:13722   */\n      dup6\n        /* \"#utility.yul\":13709:13727   */\n      lt\n        /* \"#utility.yul\":13706:13755   */\n      iszero\n      tag_306\n      jumpi\n        /* \"#utility.yul\":13745:13753   */\n      dup2\n        /* \"#utility.yul\":13730:13753   */\n      swap1\n      pop\n        /* \"#utility.yul\":13706:13755   */\n    tag_306:\n        /* \"#utility.yul\":13768:13848   */\n      tag_307\n        /* \"#utility.yul\":13824:13846   */\n      tag_308\n        /* \"#utility.yul\":13842:13845   */\n      dup6\n        /* \"#utility.yul\":13824:13846   */\n      tag_142\n      jump\t// in\n    tag_308:\n        /* \"#utility.yul\":13814:13822   */\n      dup4\n        /* \"#utility.yul\":13810:13847   */\n      add\n        /* \"#utility.yul\":13797:13808   */\n      dup3\n        /* \"#utility.yul\":13768:13848   */\n      tag_151\n      jump\t// in\n    tag_307:\n        /* \"#utility.yul\":13427:13858   */\n      pop\n      pop\n        /* \"#utility.yul\":13412:13858   */\n    tag_303:\n        /* \"#utility.yul\":13322:13865   */\n      pop\n      pop\n      pop\n      jump\t// out\n        /* \"#utility.yul\":13871:13988   */\n    tag_153:\n        /* \"#utility.yul\":13925:13933   */\n      0x00\n        /* \"#utility.yul\":13975:13980   */\n      dup3\n        /* \"#utility.yul\":13969:13973   */\n      dup3\n        /* \"#utility.yul\":13965:13981   */\n      shr\n        /* \"#utility.yul\":13944:13981   */\n      swap1\n      pop\n        /* \"#utility.yul\":13871:13988   */\n      swap3\n      swap2\n      pop\n      pop\n      jump\t// out\n        /* \"#utility.yul\":13994:14163   */\n    tag_154:\n        /* \"#utility.yul\":14038:14044   */\n      0x00\n        /* \"#utility.yul\":14071:14122   */\n      tag_311\n        /* \"#utility.yul\":14119:14120   */\n      0x00\n        /* \"#utility.yul\":14115:14121   */\n      not\n        /* \"#utility.yul\":14107:14112   */\n      dup5\n        /* \"#utility.yul\":14104:14105   */\n      0x08\n        /* \"#utility.yul\":14100:14113   */\n      mul\n        /* \"#utility.yul\":14071:14122   */\n      tag_153\n      jump\t// in\n    tag_311:\n        /* \"#utility.yul\":14067:14123   */\n      not\n        /* \"#utility.yul\":14152:14156   */\n      dup1\n        /* \"#utility.yul\":14146:14150   */\n      dup4\n        /* \"#utility.yul\":14142:14157   */\n      and\n        /* \"#utility.yul\":14132:14157   */\n      swap2\n      pop\n        /* \"#utility.yul\":14045:14163   */\n      pop\n        /* \"#utility.yul\":13994:14163   */\n      swap3\n      swap2\n      pop\n      pop\n      jump\t// out\n        /* \"#utility.yul\":14168:14463   */\n    tag_155:\n        /* \"#utility.yul\":14244:14248   */\n      0x00\n        /* \"#utility.yul\":14390:14419   */\n      tag_313\n        /* \"#utility.yul\":14415:14418   */\n      dup4\n        /* \"#utility.yul\":14409:14413   */\n      dup4\n        /* \"#utility.yul\":14390:14419   */\n      tag_154\n      jump\t// in\n    tag_313:\n        /* \"#utility.yul\":14382:14419   */\n      swap2\n      pop\n        /* \"#utility.yul\":14452:14455   */\n      dup3\n        /* \"#utility.yul\":14449:14450   */\n      0x02\n        /* \"#utility.yul\":14445:14456   */\n      mul\n        /* \"#utility.yul\":14439:14443   */\n      dup3\n        /* \"#utility.yul\":14436:14457   */\n      or\n        /* \"#utility.yul\":14428:14457   */\n      swap1\n      pop\n        /* \"#utility.yul\":14168:14463   */\n      swap3\n      swap2\n      pop\n      pop\n      jump\t// out\n        /* \"#utility.yul\":14468:15863   */\n    tag_34:\n        /* \"#utility.yul\":14585:14622   */\n      tag_315\n        /* \"#utility.yul\":14618:14621   */\n      dup3\n        /* \"#utility.yul\":14585:14622   */\n      tag_118\n      jump\t// in\n    tag_315:\n        /* \"#utility.yul\":14687:14705   */\n      0xffffffffffffffff\n        /* \"#utility.yul\":14679:14685   */\n      dup2\n        /* \"#utility.yul\":14676:14706   */\n      gt\n        /* \"#utility.yul\":14673:14729   */\n      iszero\n      tag_316\n      jumpi\n        /* \"#utility.yul\":14709:14727   */\n      tag_317\n      tag_106\n      jump\t// in\n    tag_317:\n        /* \"#utility.yul\":14673:14729   */\n    tag_316:\n        /* \"#utility.yul\":14753:14791   */\n      tag_318\n        /* \"#utility.yul\":14785:14789   */\n      dup3\n        /* \"#utility.yul\":14779:14790   */\n      sload\n        /* \"#utility.yul\":14753:14791   */\n      tag_40\n      jump\t// in\n    tag_318:\n        /* \"#utility.yul\":14838:14905   */\n      tag_319\n        /* \"#utility.yul\":14898:14904   */\n      dup3\n        /* \"#utility.yul\":14890:14896   */\n      dup3\n        /* \"#utility.yul\":14884:14888   */\n      dup6\n        /* \"#utility.yul\":14838:14905   */\n      tag_152\n      jump\t// in\n    tag_319:\n        /* \"#utility.yul\":14932:14933   */\n      0x00\n        /* \"#utility.yul\":14956:14960   */\n      0x20\n        /* \"#utility.yul\":14943:14960   */\n      swap1\n      pop\n        /* \"#utility.yul\":14988:14990   */\n      0x1f\n        /* \"#utility.yul\":14980:14986   */\n      dup4\n        /* \"#utility.yul\":14977:14991   */\n      gt\n        /* \"#utility.yul\":15005:15006   */\n      0x01\n        /* \"#utility.yul\":15000:15618   */\n      dup2\n      eq\n      tag_321\n      jumpi\n        /* \"#utility.yul\":15662:15663   */\n      0x00\n        /* \"#utility.yul\":15679:15685   */\n      dup5\n        /* \"#utility.yul\":15676:15753   */\n      iszero\n      tag_322\n      jumpi\n        /* \"#utility.yul\":15728:15737   */\n      dup3\n        /* \"#utility.yul\":15723:15726   */\n      dup8\n        /* \"#utility.yul\":15719:15738   */\n      add\n        /* \"#utility.yul\":15713:15739   */\n      mload\n        /* \"#utility.yul\":15704:15739   */\n      swap1\n      pop\n        /* \"#utility.yul\":15676:15753   */\n    tag_322:\n        /* \"#utility.yul\":15779:15846   */\n      tag_323\n        /* \"#utility.yul\":15839:15845   */\n      dup6\n        /* \"#utility.yul\":15832:15837   */\n      dup3\n        /* \"#utility.yul\":15779:15846   */\n      tag_155\n      jump\t// in\n    tag_323:\n        /* \"#utility.yul\":15773:15777   */\n      dup7\n        /* \"#utility.yul\":15766:15847   */\n      sstore\n        /* \"#utility.yul\":15635:15857   */\n      pop\n        /* \"#utility.yul\":14970:15857   */\n      jump(tag_320)\n        /* \"#utility.yul\":15000:15618   */\n    tag_321:\n        /* \"#utility.yul\":15052:15056   */\n      0x1f\n        /* \"#utility.yul\":15048:15057   */\n      not\n        /* \"#utility.yul\":15040:15046   */\n      dup5\n        /* \"#utility.yul\":15036:15058   */\n      and\n        /* \"#utility.yul\":15086:15123   */\n      tag_324\n        /* \"#utility.yul\":15118:15122   */\n      dup7\n        /* \"#utility.yul\":15086:15123   */\n      tag_141\n      jump\t// in\n    tag_324:\n        /* \"#utility.yul\":15145:15146   */\n      0x00\n        /* \"#utility.yul\":15159:15367   */\n    tag_325:\n        /* \"#utility.yul\":15173:15180   */\n      dup3\n        /* \"#utility.yul\":15170:15171   */\n      dup2\n        /* \"#utility.yul\":15167:15181   */\n      lt\n        /* \"#utility.yul\":15159:15367   */\n      iszero\n      tag_327\n      jumpi\n        /* \"#utility.yul\":15252:15261   */\n      dup5\n        /* \"#utility.yul\":15247:15250   */\n      dup10\n        /* \"#utility.yul\":15243:15262   */\n      add\n        /* \"#utility.yul\":15237:15263   */\n      mload\n        /* \"#utility.yul\":15229:15235   */\n      dup3\n        /* \"#utility.yul\":15222:15264   */\n      sstore\n        /* \"#utility.yul\":15303:15304   */\n      0x01\n        /* \"#utility.yul\":15295:15301   */\n      dup3\n        /* \"#utility.yul\":15291:15305   */\n      add\n        /* \"#utility.yul\":15281:15305   */\n      swap2\n      pop\n        /* \"#utility.yul\":15350:15352   */\n      0x20\n        /* \"#utility.yul\":15339:15348   */\n      dup6\n        /* \"#utility.yul\":15335:15353   */\n      add\n        /* \"#utility.yul\":15322:15353   */\n      swap5\n      pop\n        /* \"#utility.yul\":15196:15200   */\n      0x20\n        /* \"#utility.yul\":15193:15194   */\n      dup2\n        /* \"#utility.yul\":15189:15201   */\n      add\n        /* \"#utility.yul\":15184:15201   */\n      swap1\n      pop\n        /* \"#utility.yul\":15159:15367   */\n      jump(tag_325)\n    tag_327:\n        /* \"#utility.yul\":15395:15401   */\n      dup7\n        /* \"#utility.yul\":15386:15393   */\n      dup4\n        /* \"#utility.yul\":15383:15402   */\n      lt\n        /* \"#utility.yul\":15380:15559   */\n      iszero\n      tag_328\n      jumpi\n        /* \"#utility.yul\":15453:15462   */\n      dup5\n        /* \"#utility.yul\":15448:15451   */\n      dup10\n        /* \"#utility.yul\":15444:15463   */\n      add\n        /* \"#utility.yul\":15438:15464   */\n      mload\n        /* \"#utility.yul\":15496:15544   */\n      tag_329\n        /* \"#utility.yul\":15538:15542   */\n      0x1f\n        /* \"#utility.yul\":15530:15536   */\n      dup10\n        /* \"#utility.yul\":15526:15543   */\n      and\n        /* \"#utility.yul\":15515:15524   */\n      dup3\n        /* \"#utility.yul\":15496:15544   */\n      tag_154\n      jump\t// in\n    tag_329:\n        /* \"#utility.yul\":15488:15494   */\n      dup4\n        /* \"#utility.yul\":15481:15545   */\n      sstore\n        /* \"#utility.yul\":15403:15559   */\n      pop\n        /* \"#utility.yul\":15380:15559   */\n    tag_328:\n        /* \"#utility.yul\":15605:15606   */\n      0x01\n        /* \"#utility.yul\":15601:15602   */\n      0x02\n        /* \"#utility.yul\":15593:15599   */\n      dup9\n        /* \"#utility.yul\":15589:15603   */\n      mul\n        /* \"#utility.yul\":15585:15607   */\n      add\n        /* \"#utility.yul\":15579:15583   */\n      dup9\n        /* \"#utility.yul\":15572:15608   */\n      sstore\n        /* \"#utility.yul\":15007:15618   */\n      pop\n      pop\n      pop\n        /* \"#utility.yul\":14970:15857   */\n    tag_320:\n      pop\n        /* \"#utility.yul\":14560:15863   */\n      pop\n      pop\n      pop\n        /* \"#utility.yul\":14468:15863   */\n      pop\n      pop\n      jump\t// out\n        /* \"#utility.yul\":15869:16049   */\n    tag_58:\n        /* \"#utility.yul\":15917:15994   */\n      0x4e487b7100000000000000000000000000000000000000000000000000000000\n        /* \"#utility.yul\":15914:15915   */\n      0x00\n        /* \"#utility.yul\":15907:15995   */\n      mstore\n        /* \"#utility.yul\":16014:16018   */\n      0x32\n        /* \"#utility.yul\":16011:16012   */\n      0x04\n        /* \"#utility.yul\":16004:16019   */\n      mstore\n        /* \"#utility.yul\":16038:16042   */\n      0x24\n        /* \"#utility.yul\":16035:16036   */\n      0x00\n        /* \"#utility.yul\":16028:16043   */\n      revert\n        /* \"#utility.yul\":16055:16249   */\n    tag_77:\n        /* \"#utility.yul\":16095:16099   */\n      0x00\n        /* \"#utility.yul\":16115:16135   */\n      tag_332\n        /* \"#utility.yul\":16133:16134   */\n      dup3\n        /* \"#utility.yul\":16115:16135   */\n      tag_124\n      jump\t// in\n    tag_332:\n        /* \"#utility.yul\":16110:16135   */\n      swap2\n      pop\n        /* \"#utility.yul\":16149:16169   */\n      tag_333\n        /* \"#utility.yul\":16167:16168   */\n      dup4\n        /* \"#utility.yul\":16149:16169   */\n      tag_124\n      jump\t// in\n    tag_333:\n        /* \"#utility.yul\":16144:16169   */\n      swap3\n      pop\n        /* \"#utility.yul\":16193:16194   */\n      dup3\n        /* \"#utility.yul\":16190:16191   */\n      dup3\n        /* \"#utility.yul\":16186:16195   */\n      sub\n        /* \"#utility.yul\":16178:16195   */\n      swap1\n      pop\n        /* \"#utility.yul\":16217:16218   */\n      dup2\n        /* \"#utility.yul\":16211:16215   */\n      dup2\n        /* \"#utility.yul\":16208:16219   */\n      gt\n        /* \"#utility.yul\":16205:16242   */\n      iszero\n      tag_334\n      jumpi\n        /* \"#utility.yul\":16222:16240   */\n      tag_335\n      tag_139\n      jump\t// in\n    tag_335:\n        /* \"#utility.yul\":16205:16242   */\n    tag_334:\n        /* \"#utility.yul\":16055:16249   */\n      swap3\n      swap2\n      pop\n      pop\n      jump\t// out\n        /* \"#utility.yul\":16255:16404   */\n    tag_156:\n        /* \"#utility.yul\":16304:16310   */\n      0x00\n        /* \"#utility.yul\":16338:16343   */\n      dup2\n        /* \"#utility.yul\":16332:16344   */\n      sload\n        /* \"#utility.yul\":16322:16344   */\n      swap1\n      pop\n        /* \"#utility.yul\":16364:16397   */\n      tag_337\n        /* \"#utility.yul\":16390:16396   */\n      dup2\n        /* \"#utility.yul\":16364:16397   */\n      tag_40\n      jump\t// in\n    tag_337:\n        /* \"#utility.yul\":16354:16397   */\n      swap1\n      pop\n        /* \"#utility.yul\":16255:16404   */\n      swap2\n      swap1\n      pop\n      jump\t// out\n        /* \"#utility.yul\":16410:17861   */\n    tag_85:\n        /* \"#utility.yul\":16521:16524   */\n      dup2\n        /* \"#utility.yul\":16515:16519   */\n      dup2\n        /* \"#utility.yul\":16512:16525   */\n      sub\n        /* \"#utility.yul\":16509:16535   */\n      tag_339\n      jumpi\n        /* \"#utility.yul\":16528:16533   */\n      pop\n      pop\n      jump(tag_338)\n        /* \"#utility.yul\":16509:16535   */\n    tag_339:\n        /* \"#utility.yul\":16559:16593   */\n      tag_340\n        /* \"#utility.yul\":16589:16592   */\n      dup3\n        /* \"#utility.yul\":16559:16593   */\n      tag_156\n      jump\t// in\n    tag_340:\n        /* \"#utility.yul\":16658:16676   */\n      0xffffffffffffffff\n        /* \"#utility.yul\":16650:16656   */\n      dup2\n        /* \"#utility.yul\":16647:16677   */\n      gt\n        /* \"#utility.yul\":16644:16700   */\n      iszero\n      tag_341\n      jumpi\n        /* \"#utility.yul\":16680:16698   */\n      tag_342\n      tag_106\n      jump\t// in\n    tag_342:\n        /* \"#utility.yul\":16644:16700   */\n    tag_341:\n        /* \"#utility.yul\":16724:16762   */\n      tag_343\n        /* \"#utility.yul\":16756:16760   */\n      dup3\n        /* \"#utility.yul\":16750:16761   */\n      sload\n        /* \"#utility.yul\":16724:16762   */\n      tag_40\n      jump\t// in\n    tag_343:\n        /* \"#utility.yul\":16809:16876   */\n      tag_344\n        /* \"#utility.yul\":16869:16875   */\n      dup3\n        /* \"#utility.yul\":16861:16867   */\n      dup3\n        /* \"#utility.yul\":16855:16859   */\n      dup6\n        /* \"#utility.yul\":16809:16876   */\n      tag_152\n      jump\t// in\n    tag_344:\n        /* \"#utility.yul\":16903:16904   */\n      0x00\n        /* \"#utility.yul\":16932:16934   */\n      0x1f\n        /* \"#utility.yul\":16924:16930   */\n      dup4\n        /* \"#utility.yul\":16921:16935   */\n      gt\n        /* \"#utility.yul\":16949:16950   */\n      0x01\n        /* \"#utility.yul\":16944:17616   */\n      dup2\n      eq\n      tag_346\n      jumpi\n        /* \"#utility.yul\":17660:17661   */\n      0x00\n        /* \"#utility.yul\":17677:17683   */\n      dup5\n        /* \"#utility.yul\":17674:17751   */\n      iszero\n      tag_347\n      jumpi\n        /* \"#utility.yul\":17726:17735   */\n      dup3\n        /* \"#utility.yul\":17721:17724   */\n      dup8\n        /* \"#utility.yul\":17717:17736   */\n      add\n        /* \"#utility.yul\":17711:17737   */\n      sload\n        /* \"#utility.yul\":17702:17737   */\n      swap1\n      pop\n        /* \"#utility.yul\":17674:17751   */\n    tag_347:\n        /* \"#utility.yul\":17777:17844   */\n      tag_348\n        /* \"#utility.yul\":17837:17843   */\n      dup6\n        /* \"#utility.yul\":17830:17835   */\n      dup3\n        /* \"#utility.yul\":17777:17844   */\n      tag_155\n      jump\t// in\n    tag_348:\n        /* \"#utility.yul\":17771:17775   */\n      dup7\n        /* \"#utility.yul\":17764:17845   */\n      sstore\n        /* \"#utility.yul\":17633:17855   */\n      pop\n        /* \"#utility.yul\":16914:17855   */\n      jump(tag_345)\n        /* \"#utility.yul\":16944:17616   */\n    tag_346:\n        /* \"#utility.yul\":16996:17000   */\n      0x1f\n        /* \"#utility.yul\":16992:17001   */\n      not\n        /* \"#utility.yul\":16984:16990   */\n      dup5\n        /* \"#utility.yul\":16980:17002   */\n      and\n        /* \"#utility.yul\":17022:17058   */\n      tag_349\n        /* \"#utility.yul\":17054:17057   */\n      dup8\n        /* \"#utility.yul\":17022:17058   */\n      tag_141\n      jump\t// in\n    tag_349:\n        /* \"#utility.yul\":17015:17058   */\n      swap7\n      pop\n        /* \"#utility.yul\":17085:17122   */\n      tag_350\n        /* \"#utility.yul\":17117:17121   */\n      dup7\n        /* \"#utility.yul\":17085:17122   */\n      tag_141\n      jump\t// in\n    tag_350:\n        /* \"#utility.yul\":17144:17145   */\n      0x00\n        /* \"#utility.yul\":17158:17365   */\n    tag_351:\n        /* \"#utility.yul\":17172:17179   */\n      dup3\n        /* \"#utility.yul\":17169:17170   */\n      dup2\n        /* \"#utility.yul\":17166:17180   */\n      lt\n        /* \"#utility.yul\":17158:17365   */\n      iszero\n      tag_353\n      jumpi\n        /* \"#utility.yul\":17251:17260   */\n      dup5\n        /* \"#utility.yul\":17246:17249   */\n      dup10\n        /* \"#utility.yul\":17242:17261   */\n      add\n        /* \"#utility.yul\":17236:17262   */\n      sload\n        /* \"#utility.yul\":17228:17234   */\n      dup3\n        /* \"#utility.yul\":17221:17263   */\n      sstore\n        /* \"#utility.yul\":17302:17303   */\n      0x01\n        /* \"#utility.yul\":17294:17300   */\n      dup3\n        /* \"#utility.yul\":17290:17304   */\n      add\n        /* \"#utility.yul\":17280:17304   */\n      swap2\n      pop\n        /* \"#utility.yul\":17349:17350   */\n      0x01\n        /* \"#utility.yul\":17338:17347   */\n      dup6\n        /* \"#utility.yul\":17334:17351   */\n      add\n        /* \"#utility.yul\":17321:17351   */\n      swap5\n      pop\n        /* \"#utility.yul\":17195:17199   */\n      0x20\n        /* \"#utility.yul\":17192:17193   */\n      dup2\n        /* \"#utility.yul\":17188:17200   */\n      add\n        /* \"#utility.yul\":17183:17200   */\n      swap1\n      pop\n        /* \"#utility.yul\":17158:17365   */\n      jump(tag_351)\n    tag_353:\n        /* \"#utility.yul\":17393:17399   */\n      dup7\n        /* \"#utility.yul\":17384:17391   */\n      dup4\n        /* \"#utility.yul\":17381:17400   */\n      lt\n        /* \"#utility.yul\":17378:17557   */\n      iszero\n      tag_354\n      jumpi\n        /* \"#utility.yul\":17451:17460   */\n      dup5\n        /* \"#utility.yul\":17446:17449   */\n      dup10\n        /* \"#utility.yul\":17442:17461   */\n      add\n        /* \"#utility.yul\":17436:17462   */\n      sload\n        /* \"#utility.yul\":17494:17542   */\n      tag_355\n        /* \"#utility.yul\":17536:17540   */\n      0x1f\n        /* \"#utility.yul\":17528:17534   */\n      dup10\n        /* \"#utility.yul\":17524:17541   */\n      and\n        /* \"#utility.yul\":17513:17522   */\n      dup3\n        /* \"#utility.yul\":17494:17542   */\n      tag_154\n      jump\t// in\n    tag_355:\n        /* \"#utility.yul\":17486:17492   */\n      dup4\n        /* \"#utility.yul\":17479:17543   */\n      sstore\n        /* \"#utility.yul\":17401:17557   */\n      pop\n        /* \"#utility.yul\":17378:17557   */\n    tag_354:\n        /* \"#utility.yul\":17603:17604   */\n      0x01\n        /* \"#utility.yul\":17599:17600   */\n      0x02\n        /* \"#utility.yul\":17591:17597   */\n      dup9\n        /* \"#utility.yul\":17587:17601   */\n      mul\n        /* \"#utility.yul\":17583:17605   */\n      add\n        /* \"#utility.yul\":17577:17581   */\n      dup9\n        /* \"#utility.yul\":17570:17606   */\n      sstore\n        /* \"#utility.yul\":16951:17616   */\n      pop\n      pop\n      pop\n        /* \"#utility.yul\":16914:17855   */\n    tag_345:\n      pop\n        /* \"#utility.yul\":16499:17861   */\n      pop\n      pop\n      pop\n        /* \"#utility.yul\":16410:17861   */\n      pop\n      pop\n    tag_338:\n      jump\t// out\n        /* \"#utility.yul\":17867:18047   */\n    tag_88:\n        /* \"#utility.yul\":17915:17992   */\n      0x4e487b7100000000000000000000000000000000000000000000000000000000\n        /* \"#utility.yul\":17912:17913   */\n      0x00\n        /* \"#utility.yul\":17905:17993   */\n      mstore\n        /* \"#utility.yul\":18012:18016   */\n      0x31\n        /* \"#utility.yul\":18009:18010   */\n      0x04\n        /* \"#utility.yul\":18002:18017   */\n      mstore\n        /* \"#utility.yul\":18036:18040   */\n      0x24\n        /* \"#utility.yul\":18033:18034   */\n      0x00\n        /* \"#utility.yul\":18026:18041   */\n      revert\n\n    auxdata: 0xa26469706673582212200da3411479664856433347c207391b96cbdd2ba0a265daeab1d43e7fe4f4656264736f6c634300081e0033\n}\n",
				"bytecode": {
					"linkReferences": {},
					"object": "6080604052348015600e575f5ffd5b506110868061001c5f395ff3fe608060405234801561000f575f5ffd5b5060043610610055575f3560e01c8063111002aa14610059578063779900b4146100755780638d97767214610093578063a1d0166b146100c6578063c3d081f5146100e2575b5f5ffd5b610073600480360381019061006e9190610810565b6100fe565b005b61007d610201565b60405161008a9190610a1f565b60405180910390f35b6100ad60048036038101906100a89190610a69565b61032b565b6040516100bd9493929190610b09565b60405180910390f35b6100e060048036038101906100db9190610b7d565b610403565b005b6100fc60048036038101906100f79190610b7d565b6104d3565b005b5f60015f81819054906101000a900460ff168092919061011d90610bd5565b91906101000a81548160ff021916908360ff16021790555090505f60405180608001604052808360ff1681526020018481526020015f151581526020015f815250908060018154018082558091505060019003905f5260205f2090600402015f909190919091505f820151815f015f6101000a81548160ff021916908360ff16021790555060208201518160010190816101b79190610dfa565b506040820151816002015f6101000a81548160ff0219169083151502179055506060820151816003015550508060015f6101000a81548160ff021916908360ff1602179055505050565b60605f805480602002602001604051908101604052809291908181526020015f905b82821015610322578382905f5260205f2090600402016040518060800160405290815f82015f9054906101000a900460ff1660ff1660ff16815260200160018201805461026f90610c2a565b80601f016020809104026020016040519081016040528092919081815260200182805461029b90610c2a565b80156102e65780601f106102bd576101008083540402835291602001916102e6565b820191905f5260205f20905b8154815290600101906020018083116102c957829003601f168201915b50505050508152602001600282015f9054906101000a900460ff1615151515815260200160038201548152505081526020019060010190610223565b50505050905090565b5f8181548110610339575f80fd5b905f5260205f2090600402015f91509050805f015f9054906101000a900460ff169080600101805461036a90610c2a565b80601f016020809104026020016040519081016040528092919081815260200182805461039690610c2a565b80156103e15780601f106103b8576101008083540402835291602001916103e1565b820191905f5260205f20905b8154815290600101906020018083116103c457829003601f168201915b505050505090806002015f9054906101000a900460ff16908060030154905084565b5f5f90505b5f805490508160ff1610156104cf578160ff165f8260ff168154811061043157610430610ec9565b5b905f5260205f2090600402015f015f9054906101000a900460ff1660ff16036104bc5760015f8260ff168154811061046c5761046b610ec9565b5b905f5260205f2090600402016002015f6101000a81548160ff021916908315150217905550425f8260ff16815481106104a8576104a7610ec9565b5b905f5260205f209060040201600301819055505b80806104c790610bd5565b915050610408565b5050565b5f5f90505b5f805490508160ff161015610667578160ff165f8260ff168154811061050157610500610ec9565b5b905f5260205f2090600402015f015f9054906101000a900460ff1660ff1603610654575f60015f805490506105369190610ef6565b8154811061054757610546610ec9565b5b905f5260205f2090600402015f8260ff168154811061056957610568610ec9565b5b905f5260205f2090600402015f82015f9054906101000a900460ff16815f015f6101000a81548160ff021916908360ff160217905550600182018160010190816105b39190610f3e565b50600282015f9054906101000a900460ff16816002015f6101000a81548160ff021916908315150217905550600382015481600301559050505f8054806105fd576105fc611023565b5b600190038181905f5260205f2090600402015f5f82015f6101000a81549060ff0219169055600182015f610631919061066b565b600282015f6101000a81549060ff0219169055600382015f905550509055610667565b808061065f90610bd5565b9150506104d8565b5050565b50805461067790610c2a565b5f825580601f1061068857506106a5565b601f0160209004905f5260205f20908101906106a491906106a8565b5b50565b5b808211156106bf575f815f9055506001016106a9565b5090565b5f604051905090565b5f5ffd5b5f5ffd5b5f5ffd5b5f5ffd5b5f601f19601f8301169050919050565b7f4e487b71000000000000000000000000000000000000000000000000000000005f52604160045260245ffd5b610722826106dc565b810181811067ffffffffffffffff82111715610741576107406106ec565b5b80604052505050565b5f6107536106c3565b905061075f8282610719565b919050565b5f67ffffffffffffffff82111561077e5761077d6106ec565b5b610787826106dc565b9050602081019050919050565b828183375f83830152505050565b5f6107b46107af84610764565b61074a565b9050828152602081018484840111156107d0576107cf6106d8565b5b6107db848285610794565b509392505050565b5f82601f8301126107f7576107f66106d4565b5b81356108078482602086016107a2565b91505092915050565b5f60208284031215610825576108246106cc565b5b5f82013567ffffffffffffffff811115610842576108416106d0565b5b61084e848285016107e3565b91505092915050565b5f81519050919050565b5f82825260208201905092915050565b5f819050602082019050919050565b5f60ff82169050919050565b61089581610880565b82525050565b5f81519050919050565b5f82825260208201905092915050565b8281835e5f83830152505050565b5f6108cd8261089b565b6108d781856108a5565b93506108e78185602086016108b5565b6108f0816106dc565b840191505092915050565b5f8115159050919050565b61090f816108fb565b82525050565b5f819050919050565b61092781610915565b82525050565b5f608083015f8301516109425f86018261088c565b506020830151848203602086015261095a82826108c3565b915050604083015161096f6040860182610906565b506060830151610982606086018261091e565b508091505092915050565b5f610998838361092d565b905092915050565b5f602082019050919050565b5f6109b682610857565b6109c08185610861565b9350836020820285016109d285610871565b805f5b85811015610a0d57848403895281516109ee858261098d565b94506109f9836109a0565b925060208a019950506001810190506109d5565b50829750879550505050505092915050565b5f6020820190508181035f830152610a3781846109ac565b905092915050565b610a4881610915565b8114610a52575f5ffd5b50565b5f81359050610a6381610a3f565b92915050565b5f60208284031215610a7e57610a7d6106cc565b5b5f610a8b84828501610a55565b91505092915050565b610a9d81610880565b82525050565b5f82825260208201905092915050565b5f610abd8261089b565b610ac78185610aa3565b9350610ad78185602086016108b5565b610ae0816106dc565b840191505092915050565b610af4816108fb565b82525050565b610b0381610915565b82525050565b5f608082019050610b1c5f830187610a94565b8181036020830152610b2e8186610ab3565b9050610b3d6040830185610aeb565b610b4a6060830184610afa565b95945050505050565b610b5c81610880565b8114610b66575f5ffd5b50565b5f81359050610b7781610b53565b92915050565b5f60208284031215610b9257610b916106cc565b5b5f610b9f84828501610b69565b91505092915050565b7f4e487b71000000000000000000000000000000000000000000000000000000005f52601160045260245ffd5b5f610bdf82610880565b915060ff8203610bf257610bf1610ba8565b5b600182019050919050565b7f4e487b71000000000000000000000000000000000000000000000000000000005f52602260045260245ffd5b5f6002820490506001821680610c4157607f821691505b602082108103610c5457610c53610bfd565b5b50919050565b5f819050815f5260205f209050919050565b5f6020601f8301049050919050565b5f82821b905092915050565b5f60088302610cb67fffffffffffffffffffffffffffffffffffffffffffffffffffffffffffffffff82610c7b565b610cc08683610c7b565b95508019841693508086168417925050509392505050565b5f819050919050565b5f610cfb610cf6610cf184610915565b610cd8565b610915565b9050919050565b5f819050919050565b610d1483610ce1565b610d28610d2082610d02565b848454610c87565b825550505050565b5f5f905090565b610d3f610d30565b610d4a818484610d0b565b505050565b5b81811015610d6d57610d625f82610d37565b600181019050610d50565b5050565b601f821115610db257610d8381610c5a565b610d8c84610c6c565b81016020851015610d9b578190505b610daf610da785610c6c565b830182610d4f565b50505b505050565b5f82821c905092915050565b5f610dd25f1984600802610db7565b1980831691505092915050565b5f610dea8383610dc3565b9150826002028217905092915050565b610e038261089b565b67ffffffffffffffff811115610e1c57610e1b6106ec565b5b610e268254610c2a565b610e31828285610d71565b5f60209050601f831160018114610e62575f8415610e50578287015190505b610e5a8582610ddf565b865550610ec1565b601f198416610e7086610c5a565b5f5b82811015610e9757848901518255600182019150602085019450602081019050610e72565b86831015610eb45784890151610eb0601f891682610dc3565b8355505b6001600288020188555050505b505050505050565b7f4e487b71000000000000000000000000000000000000000000000000000000005f52603260045260245ffd5b5f610f0082610915565b9150610f0b83610915565b9250828203905081811115610f2357610f22610ba8565b5b92915050565b5f81549050610f3781610c2a565b9050919050565b818103610f4c575050611021565b610f5582610f29565b67ffffffffffffffff811115610f6e57610f6d6106ec565b5b610f788254610c2a565b610f83828285610d71565b5f601f831160018114610fb0575f8415610f9e578287015490505b610fa88582610ddf565b86555061101a565b601f198416610fbe87610c5a565b9650610fc986610c5a565b5f5b82811015610ff057848901548255600182019150600185019450602081019050610fcb565b8683101561100d5784890154611009601f891682610dc3565b8355505b6001600288020188555050505b5050505050505b565b7f4e487b71000000000000000000000000000000000000000000000000000000005f52603160045260245ffdfea26469706673582212200da3411479664856433347c207391b96cbdd2ba0a265daeab1d43e7fe4f4656264736f6c634300081e0033",
					"opcodes": "PUSH1 0x80 PUSH1 0x40 MSTORE CALLVALUE DUP1 ISZERO PUSH1 0xE JUMPI PUSH0 PUSH0 REVERT JUMPDEST POP PUSH2 0x1086 DUP1 PUSH2 0x1C PUSH0 CODECOPY PUSH0 RETURN INVALID PUSH1 0x80 PUSH1 0x40 MSTORE CALLVALUE DUP1 ISZERO PUSH2 0xF JUMPI PUSH0 PUSH0 REVERT JUMPDEST POP PUSH1 0x4 CALLDATASIZE LT PUSH2 0x55 JUMPI PUSH0 CALLDATALOAD PUSH1 0xE0 SHR DUP1 PUSH4 0x111002AA EQ PUSH2 0x59 JUMPI DUP1 PUSH4 0x779900B4 EQ PUSH2 0x75 JUMPI DUP1 PUSH4 0x8D977672 EQ PUSH2 0x93 JUMPI DUP1 PUSH4 0xA1D0166B EQ PUSH2 0xC6 JUMPI DUP1 PUSH4 0xC3D081F5 EQ PUSH2 0xE2 JUMPI JUMPDEST PUSH0 PUSH0 REVERT JUMPDEST PUSH2 0x73 PUSH1 0x4 DUP1 CALLDATASIZE SUB DUP2 ADD SWAP1 PUSH2 0x6E SWAP2 SWAP1 PUSH2 0x810 JUMP JUMPDEST PUSH2 0xFE JUMP JUMPDEST STOP JUMPDEST PUSH2 0x7D PUSH2 0x201 JUMP JUMPDEST PUSH1 0x40 MLOAD PUSH2 0x8A SWAP2 SWAP1 PUSH2 0xA1F JUMP JUMPDEST PUSH1 0x40 MLOAD DUP1 SWAP2 SUB SWAP1 RETURN JUMPDEST PUSH2 0xAD PUSH1 0x4 DUP1 CALLDATASIZE SUB DUP2 ADD SWAP1 PUSH2 0xA8 SWAP2 SWAP1 PUSH2 0xA69 JUMP JUMPDEST PUSH2 0x32B JUMP JUMPDEST PUSH1 0x40 MLOAD PUSH2 0xBD SWAP5 SWAP4 SWAP3 SWAP2 SWAP1 PUSH2 0xB09 JUMP JUMPDEST PUSH1 0x40 MLOAD DUP1 SWAP2 SUB SWAP1 RETURN JUMPDEST PUSH2 0xE0 PUSH1 0x4 DUP1 CALLDATASIZE SUB DUP2 ADD SWAP1 PUSH2 0xDB SWAP2 SWAP1 PUSH2 0xB7D JUMP JUMPDEST PUSH2 0x403 JUMP JUMPDEST STOP JUMPDEST PUSH2 0xFC PUSH1 0x4 DUP1 CALLDATASIZE SUB DUP2 ADD SWAP1 PUSH2 0xF7 SWAP2 SWAP1 PUSH2 0xB7D JUMP JUMPDEST PUSH2 0x4D3 JUMP JUMPDEST STOP JUMPDEST PUSH0 PUSH1 0x1 PUSH0 DUP2 DUP2 SWAP1 SLOAD SWAP1 PUSH2 0x100 EXP SWAP1 DIV PUSH1 0xFF AND DUP1 SWAP3 SWAP2 SWAP1 PUSH2 0x11D SWAP1 PUSH2 0xBD5 JUMP JUMPDEST SWAP2 SWAP1 PUSH2 0x100 EXP DUP2 SLOAD DUP2 PUSH1 0xFF MUL NOT AND SWAP1 DUP4 PUSH1 0xFF AND MUL OR SWAP1 SSTORE POP SWAP1 POP PUSH0 PUSH1 0x40 MLOAD DUP1 PUSH1 0x80 ADD PUSH1 0x40 MSTORE DUP1 DUP4 PUSH1 0xFF AND DUP2 MSTORE PUSH1 0x20 ADD DUP5 DUP2 MSTORE PUSH1 0x20 ADD PUSH0 ISZERO ISZERO DUP2 MSTORE PUSH1 0x20 ADD PUSH0 DUP2 MSTORE POP SWAP1 DUP1 PUSH1 0x1 DUP2 SLOAD ADD DUP1 DUP3 SSTORE DUP1 SWAP2 POP POP PUSH1 0x1 SWAP1 SUB SWAP1 PUSH0 MSTORE PUSH1 0x20 PUSH0 KECCAK256 SWAP1 PUSH1 0x4 MUL ADD PUSH0 SWAP1 SWAP2 SWAP1 SWAP2 SWAP1 SWAP2 POP PUSH0 DUP3 ADD MLOAD DUP2 PUSH0 ADD PUSH0 PUSH2 0x100 EXP DUP2 SLOAD DUP2 PUSH1 0xFF MUL NOT AND SWAP1 DUP4 PUSH1 0xFF AND MUL OR SWAP1 SSTORE POP PUSH1 0x20 DUP3 ADD MLOAD DUP2 PUSH1 0x1 ADD SWAP1 DUP2 PUSH2 0x1B7 SWAP2 SWAP1 PUSH2 0xDFA JUMP JUMPDEST POP PUSH1 0x40 DUP3 ADD MLOAD DUP2 PUSH1 0x2 ADD PUSH0 PUSH2 0x100 EXP DUP2 SLOAD DUP2 PUSH1 0xFF MUL NOT AND SWAP1 DUP4 ISZERO ISZERO MUL OR SWAP1 SSTORE POP PUSH1 0x60 DUP3 ADD MLOAD DUP2 PUSH1 0x3 ADD SSTORE POP POP DUP1 PUSH1 0x1 PUSH0 PUSH2 0x100 EXP DUP2 SLOAD DUP2 PUSH1 0xFF MUL NOT AND SWAP1 DUP4 PUSH1 0xFF AND MUL OR SWAP1 SSTORE POP POP POP JUMP JUMPDEST PUSH1 0x60 PUSH0 DUP1 SLOAD DUP1 PUSH1 0x20 MUL PUSH1 0x20 ADD PUSH1 0x40 MLOAD SWAP1 DUP2 ADD PUSH1 0x40 MSTORE DUP1 SWAP3 SWAP2 SWAP1 DUP2 DUP2 MSTORE PUSH1 0x20 ADD PUSH0 SWAP1 JUMPDEST DUP3 DUP3 LT ISZERO PUSH2 0x322 JUMPI DUP4 DUP3 SWAP1 PUSH0 MSTORE PUSH1 0x20 PUSH0 KECCAK256 SWAP1 PUSH1 0x4 MUL ADD PUSH1 0x40 MLOAD DUP1 PUSH1 0x80 ADD PUSH1 0x40 MSTORE SWAP1 DUP2 PUSH0 DUP3 ADD PUSH0 SWAP1 SLOAD SWAP1 PUSH2 0x100 EXP SWAP1 DIV PUSH1 0xFF AND PUSH1 0xFF AND PUSH1 0xFF AND DUP2 MSTORE PUSH1 0x20 ADD PUSH1 0x1 DUP3 ADD DUP1 SLOAD PUSH2 0x26F SWAP1 PUSH2 0xC2A JUMP JUMPDEST DUP1 PUSH1 0x1F ADD PUSH1 0x20 DUP1 SWAP2 DIV MUL PUSH1 0x20 ADD PUSH1 0x40 MLOAD SWAP1 DUP2 ADD PUSH1 0x40 MSTORE DUP1 SWAP3 SWAP2 SWAP1 DUP2 DUP2 MSTORE PUSH1 0x20 ADD DUP3 DUP1 SLOAD PUSH2 0x29B SWAP1 PUSH2 0xC2A JUMP JUMPDEST DUP1 ISZERO PUSH2 0x2E6 JUMPI DUP1 PUSH1 0x1F LT PUSH2 0x2BD JUMPI PUSH2 0x100 DUP1 DUP4 SLOAD DIV MUL DUP4 MSTORE SWAP2 PUSH1 0x20 ADD SWAP2 PUSH2 0x2E6 JUMP JUMPDEST DUP3 ADD SWAP2 SWAP1 PUSH0 MSTORE PUSH1 0x20 PUSH0 KECCAK256 SWAP1 JUMPDEST DUP2 SLOAD DUP2 MSTORE SWAP1 PUSH1 0x1 ADD SWAP1 PUSH1 0x20 ADD DUP1 DUP4 GT PUSH2 0x2C9 JUMPI DUP3 SWAP1 SUB PUSH1 0x1F AND DUP3 ADD SWAP2 JUMPDEST POP POP POP POP POP DUP2 MSTORE PUSH1 0x20 ADD PUSH1 0x2 DUP3 ADD PUSH0 SWAP1 SLOAD SWAP1 PUSH2 0x100 EXP SWAP1 DIV PUSH1 0xFF AND ISZERO ISZERO ISZERO ISZERO DUP2 MSTORE PUSH1 0x20 ADD PUSH1 0x3 DUP3 ADD SLOAD DUP2 MSTORE POP POP DUP2 MSTORE PUSH1 0x20 ADD SWAP1 PUSH1 0x1 ADD SWAP1 PUSH2 0x223 JUMP JUMPDEST POP POP POP POP SWAP1 POP SWAP1 JUMP JUMPDEST PUSH0 DUP2 DUP2 SLOAD DUP2 LT PUSH2 0x339 JUMPI PUSH0 DUP1 REVERT JUMPDEST SWAP1 PUSH0 MSTORE PUSH1 0x20 PUSH0 KECCAK256 SWAP1 PUSH1 0x4 MUL ADD PUSH0 SWAP2 POP SWAP1 POP DUP1 PUSH0 ADD PUSH0 SWAP1 SLOAD SWAP1 PUSH2 0x100 EXP SWAP1 DIV PUSH1 0xFF AND SWAP1 DUP1 PUSH1 0x1 ADD DUP1 SLOAD PUSH2 0x36A SWAP1 PUSH2 0xC2A JUMP JUMPDEST DUP1 PUSH1 0x1F ADD PUSH1 0x20 DUP1 SWAP2 DIV MUL PUSH1 0x20 ADD PUSH1 0x40 MLOAD SWAP1 DUP2 ADD PUSH1 0x40 MSTORE DUP1 SWAP3 SWAP2 SWAP1 DUP2 DUP2 MSTORE PUSH1 0x20 ADD DUP3 DUP1 SLOAD PUSH2 0x396 SWAP1 PUSH2 0xC2A JUMP JUMPDEST DUP1 ISZERO PUSH2 0x3E1 JUMPI DUP1 PUSH1 0x1F LT PUSH2 0x3B8 JUMPI PUSH2 0x100 DUP1 DUP4 SLOAD DIV MUL DUP4 MSTORE SWAP2 PUSH1 0x20 ADD SWAP2 PUSH2 0x3E1 JUMP JUMPDEST DUP3 ADD SWAP2 SWAP1 PUSH0 MSTORE PUSH1 0x20 PUSH0 KECCAK256 SWAP1 JUMPDEST DUP2 SLOAD DUP2 MSTORE SWAP1 PUSH1 0x1 ADD SWAP1 PUSH1 0x20 ADD DUP1 DUP4 GT PUSH2 0x3C4 JUMPI DUP3 SWAP1 SUB PUSH1 0x1F AND DUP3 ADD SWAP2 JUMPDEST POP POP POP POP POP SWAP1 DUP1 PUSH1 0x2 ADD PUSH0 SWAP1 SLOAD SWAP1 PUSH2 0x100 EXP SWAP1 DIV PUSH1 0xFF AND SWAP1 DUP1 PUSH1 0x3 ADD SLOAD SWAP1 POP DUP5 JUMP JUMPDEST PUSH0 PUSH0 SWAP1 POP JUMPDEST PUSH0 DUP1 SLOAD SWAP1 POP DUP2 PUSH1 0xFF AND LT ISZERO PUSH2 0x4CF JUMPI DUP2 PUSH1 0xFF AND PUSH0 DUP3 PUSH1 0xFF AND DUP2 SLOAD DUP2 LT PUSH2 0x431 JUMPI PUSH2 0x430 PUSH2 0xEC9 JUMP JUMPDEST JUMPDEST SWAP1 PUSH0 MSTORE PUSH1 0x20 PUSH0 KECCAK256 SWAP1 PUSH1 0x4 MUL ADD PUSH0 ADD PUSH0 SWAP1 SLOAD SWAP1 PUSH2 0x100 EXP SWAP1 DIV PUSH1 0xFF AND PUSH1 0xFF AND SUB PUSH2 0x4BC JUMPI PUSH1 0x1 PUSH0 DUP3 PUSH1 0xFF AND DUP2 SLOAD DUP2 LT PUSH2 0x46C JUMPI PUSH2 0x46B PUSH2 0xEC9 JUMP JUMPDEST JUMPDEST SWAP1 PUSH0 MSTORE PUSH1 0x20 PUSH0 KECCAK256 SWAP1 PUSH1 0x4 MUL ADD PUSH1 0x2 ADD PUSH0 PUSH2 0x100 EXP DUP2 SLOAD DUP2 PUSH1 0xFF MUL NOT AND SWAP1 DUP4 ISZERO ISZERO MUL OR SWAP1 SSTORE POP TIMESTAMP PUSH0 DUP3 PUSH1 0xFF AND DUP2 SLOAD DUP2 LT PUSH2 0x4A8 JUMPI PUSH2 0x4A7 PUSH2 0xEC9 JUMP JUMPDEST JUMPDEST SWAP1 PUSH0 MSTORE PUSH1 0x20 PUSH0 KECCAK256 SWAP1 PUSH1 0x4 MUL ADD PUSH1 0x3 ADD DUP2 SWAP1 SSTORE POP JUMPDEST DUP1 DUP1 PUSH2 0x4C7 SWAP1 PUSH2 0xBD5 JUMP JUMPDEST SWAP2 POP POP PUSH2 0x408 JUMP JUMPDEST POP POP JUMP JUMPDEST PUSH0 PUSH0 SWAP1 POP JUMPDEST PUSH0 DUP1 SLOAD SWAP1 POP DUP2 PUSH1 0xFF AND LT ISZERO PUSH2 0x667 JUMPI DUP2 PUSH1 0xFF AND PUSH0 DUP3 PUSH1 0xFF AND DUP2 SLOAD DUP2 LT PUSH2 0x501 JUMPI PUSH2 0x500 PUSH2 0xEC9 JUMP JUMPDEST JUMPDEST SWAP1 PUSH0 MSTORE PUSH1 0x20 PUSH0 KECCAK256 SWAP1 PUSH1 0x4 MUL ADD PUSH0 ADD PUSH0 SWAP1 SLOAD SWAP1 PUSH2 0x100 EXP SWAP1 DIV PUSH1 0xFF AND PUSH1 0xFF AND SUB PUSH2 0x654 JUMPI PUSH0 PUSH1 0x1 PUSH0 DUP1 SLOAD SWAP1 POP PUSH2 0x536 SWAP2 SWAP1 PUSH2 0xEF6 JUMP JUMPDEST DUP2 SLOAD DUP2 LT PUSH2 0x547 JUMPI PUSH2 0x546 PUSH2 0xEC9 JUMP JUMPDEST JUMPDEST SWAP1 PUSH0 MSTORE PUSH1 0x20 PUSH0 KECCAK256 SWAP1 PUSH1 0x4 MUL ADD PUSH0 DUP3 PUSH1 0xFF AND DUP2 SLOAD DUP2 LT PUSH2 0x569 JUMPI PUSH2 0x568 PUSH2 0xEC9 JUMP JUMPDEST JUMPDEST SWAP1 PUSH0 MSTORE PUSH1 0x20 PUSH0 KECCAK256 SWAP1 PUSH1 0x4 MUL ADD PUSH0 DUP3 ADD PUSH0 SWAP1 SLOAD SWAP1 PUSH2 0x100 EXP SWAP1 DIV PUSH1 0xFF AND DUP2 PUSH0 ADD PUSH0 PUSH2 0x100 EXP DUP2 SLOAD DUP2 PUSH1 0xFF MUL NOT AND SWAP1 DUP4 PUSH1 0xFF AND MUL OR SWAP1 SSTORE POP PUSH1 0x1 DUP3 ADD DUP2 PUSH1 0x1 ADD SWAP1 DUP2 PUSH2 0x5B3 SWAP2 SWAP1 PUSH2 0xF3E JUMP JUMPDEST POP PUSH1 0x2 DUP3 ADD PUSH0 SWAP1 SLOAD SWAP1 PUSH2 0x100 EXP SWAP1 DIV PUSH1 0xFF AND DUP2 PUSH1 0x2 ADD PUSH0 PUSH2 0x100 EXP DUP2 SLOAD DUP2 PUSH1 0xFF MUL NOT AND SWAP1 DUP4 ISZERO ISZERO MUL OR SWAP1 SSTORE POP PUSH1 0x3 DUP3 ADD SLOAD DUP2 PUSH1 0x3 ADD SSTORE SWAP1 POP POP PUSH0 DUP1 SLOAD DUP1 PUSH2 0x5FD JUMPI PUSH2 0x5FC PUSH2 0x1023 JUMP JUMPDEST JUMPDEST PUSH1 0x1 SWAP1 SUB DUP2 DUP2 SWAP1 PUSH0 MSTORE PUSH1 0x20 PUSH0 KECCAK256 SWAP1 PUSH1 0x4 MUL ADD PUSH0 PUSH0 DUP3 ADD PUSH0 PUSH2 0x100 EXP DUP2 SLOAD SWAP1 PUSH1 0xFF MUL NOT AND SWAP1 SSTORE PUSH1 0x1 DUP3 ADD PUSH0 PUSH2 0x631 SWAP2 SWAP1 PUSH2 0x66B JUMP JUMPDEST PUSH1 0x2 DUP3 ADD PUSH0 PUSH2 0x100 EXP DUP2 SLOAD SWAP1 PUSH1 0xFF MUL NOT AND SWAP1 SSTORE PUSH1 0x3 DUP3 ADD PUSH0 SWAP1 SSTORE POP POP SWAP1 SSTORE PUSH2 0x667 JUMP JUMPDEST DUP1 DUP1 PUSH2 0x65F SWAP1 PUSH2 0xBD5 JUMP JUMPDEST SWAP2 POP POP PUSH2 0x4D8 JUMP JUMPDEST POP POP JUMP JUMPDEST POP DUP1 SLOAD PUSH2 0x677 SWAP1 PUSH2 0xC2A JUMP JUMPDEST PUSH0 DUP3 SSTORE DUP1 PUSH1 0x1F LT PUSH2 0x688 JUMPI POP PUSH2 0x6A5 JUMP JUMPDEST PUSH1 0x1F ADD PUSH1 0x20 SWAP1 DIV SWAP1 PUSH0 MSTORE PUSH1 0x20 PUSH0 KECCAK256 SWAP1 DUP2 ADD SWAP1 PUSH2 0x6A4 SWAP2 SWAP1 PUSH2 0x6A8 JUMP JUMPDEST JUMPDEST POP JUMP JUMPDEST JUMPDEST DUP1 DUP3 GT ISZERO PUSH2 0x6BF JUMPI PUSH0 DUP2 PUSH0 SWAP1 SSTORE POP PUSH1 0x1 ADD PUSH2 0x6A9 JUMP JUMPDEST POP SWAP1 JUMP JUMPDEST PUSH0 PUSH1 0x40 MLOAD SWAP1 POP SWAP1 JUMP JUMPDEST PUSH0 PUSH0 REVERT JUMPDEST PUSH0 PUSH0 REVERT JUMPDEST PUSH0 PUSH0 REVERT JUMPDEST PUSH0 PUSH0 REVERT JUMPDEST PUSH0 PUSH1 0x1F NOT PUSH1 0x1F DUP4 ADD AND SWAP1 POP SWAP2 SWAP1 POP JUMP JUMPDEST PUSH32 0x4E487B7100000000000000000000000000000000000000000000000000000000 PUSH0 MSTORE PUSH1 0x41 PUSH1 0x4 MSTORE PUSH1 0x24 PUSH0 REVERT JUMPDEST PUSH2 0x722 DUP3 PUSH2 0x6DC JUMP JUMPDEST DUP2 ADD DUP2 DUP2 LT PUSH8 0xFFFFFFFFFFFFFFFF DUP3 GT OR ISZERO PUSH2 0x741 JUMPI PUSH2 0x740 PUSH2 0x6EC JUMP JUMPDEST JUMPDEST DUP1 PUSH1 0x40 MSTORE POP POP POP JUMP JUMPDEST PUSH0 PUSH2 0x753 PUSH2 0x6C3 JUMP JUMPDEST SWAP1 POP PUSH2 0x75F DUP3 DUP3 PUSH2 0x719 JUMP JUMPDEST SWAP2 SWAP1 POP JUMP JUMPDEST PUSH0 PUSH8 0xFFFFFFFFFFFFFFFF DUP3 GT ISZERO PUSH2 0x77E JUMPI PUSH2 0x77D PUSH2 0x6EC JUMP JUMPDEST JUMPDEST PUSH2 0x787 DUP3 PUSH2 0x6DC JUMP JUMPDEST SWAP1 POP PUSH1 0x20 DUP2 ADD SWAP1 POP SWAP2 SWAP1 POP JUMP JUMPDEST DUP3 DUP2 DUP4 CALLDATACOPY PUSH0 DUP4 DUP4 ADD MSTORE POP POP POP JUMP JUMPDEST PUSH0 PUSH2 0x7B4 PUSH2 0x7AF DUP5 PUSH2 0x764 JUMP JUMPDEST PUSH2 0x74A JUMP JUMPDEST SWAP1 POP DUP3 DUP2 MSTORE PUSH1 0x20 DUP2 ADD DUP5 DUP5 DUP5 ADD GT ISZERO PUSH2 0x7D0 JUMPI PUSH2 0x7CF PUSH2 0x6D8 JUMP JUMPDEST JUMPDEST PUSH2 0x7DB DUP5 DUP3 DUP6 PUSH2 0x794 JUMP JUMPDEST POP SWAP4 SWAP3 POP POP POP JUMP JUMPDEST PUSH0 DUP3 PUSH1 0x1F DUP4 ADD SLT PUSH2 0x7F7 JUMPI PUSH2 0x7F6 PUSH2 0x6D4 JUMP JUMPDEST JUMPDEST DUP2 CALLDATALOAD PUSH2 0x807 DUP5 DUP3 PUSH1 0x20 DUP7 ADD PUSH2 0x7A2 JUMP JUMPDEST SWAP2 POP POP SWAP3 SWAP2 POP POP JUMP JUMPDEST PUSH0 PUSH1 0x20 DUP3 DUP5 SUB SLT ISZERO PUSH2 0x825 JUMPI PUSH2 0x824 PUSH2 0x6CC JUMP JUMPDEST JUMPDEST PUSH0 DUP3 ADD CALLDATALOAD PUSH8 0xFFFFFFFFFFFFFFFF DUP2 GT ISZERO PUSH2 0x842 JUMPI PUSH2 0x841 PUSH2 0x6D0 JUMP JUMPDEST JUMPDEST PUSH2 0x84E DUP5 DUP3 DUP6 ADD PUSH2 0x7E3 JUMP JUMPDEST SWAP2 POP POP SWAP3 SWAP2 POP POP JUMP JUMPDEST PUSH0 DUP2 MLOAD SWAP1 POP SWAP2 SWAP1 POP JUMP JUMPDEST PUSH0 DUP3 DUP3 MSTORE PUSH1 0x20 DUP3 ADD SWAP1 POP SWAP3 SWAP2 POP POP JUMP JUMPDEST PUSH0 DUP2 SWAP1 POP PUSH1 0x20 DUP3 ADD SWAP1 POP SWAP2 SWAP1 POP JUMP JUMPDEST PUSH0 PUSH1 0xFF DUP3 AND SWAP1 POP SWAP2 SWAP1 POP JUMP JUMPDEST PUSH2 0x895 DUP2 PUSH2 0x880 JUMP JUMPDEST DUP3 MSTORE POP POP JUMP JUMPDEST PUSH0 DUP2 MLOAD SWAP1 POP SWAP2 SWAP1 POP JUMP JUMPDEST PUSH0 DUP3 DUP3 MSTORE PUSH1 0x20 DUP3 ADD SWAP1 POP SWAP3 SWAP2 POP POP JUMP JUMPDEST DUP3 DUP2 DUP4 MCOPY PUSH0 DUP4 DUP4 ADD MSTORE POP POP POP JUMP JUMPDEST PUSH0 PUSH2 0x8CD DUP3 PUSH2 0x89B JUMP JUMPDEST PUSH2 0x8D7 DUP2 DUP6 PUSH2 0x8A5 JUMP JUMPDEST SWAP4 POP PUSH2 0x8E7 DUP2 DUP6 PUSH1 0x20 DUP7 ADD PUSH2 0x8B5 JUMP JUMPDEST PUSH2 0x8F0 DUP2 PUSH2 0x6DC JUMP JUMPDEST DUP5 ADD SWAP2 POP POP SWAP3 SWAP2 POP POP JUMP JUMPDEST PUSH0 DUP2 ISZERO ISZERO SWAP1 POP SWAP2 SWAP1 POP JUMP JUMPDEST PUSH2 0x90F DUP2 PUSH2 0x8FB JUMP JUMPDEST DUP3 MSTORE POP POP JUMP JUMPDEST PUSH0 DUP2 SWAP1 POP SWAP2 SWAP1 POP JUMP JUMPDEST PUSH2 0x927 DUP2 PUSH2 0x915 JUMP JUMPDEST DUP3 MSTORE POP POP JUMP JUMPDEST PUSH0 PUSH1 0x80 DUP4 ADD PUSH0 DUP4 ADD MLOAD PUSH2 0x942 PUSH0 DUP7 ADD DUP3 PUSH2 0x88C JUMP JUMPDEST POP PUSH1 0x20 DUP4 ADD MLOAD DUP5 DUP3 SUB PUSH1 0x20 DUP7 ADD MSTORE PUSH2 0x95A DUP3 DUP3 PUSH2 0x8C3 JUMP JUMPDEST SWAP2 POP POP PUSH1 0x40 DUP4 ADD MLOAD PUSH2 0x96F PUSH1 0x40 DUP7 ADD DUP3 PUSH2 0x906 JUMP JUMPDEST POP PUSH1 0x60 DUP4 ADD MLOAD PUSH2 0x982 PUSH1 0x60 DUP7 ADD DUP3 PUSH2 0x91E JUMP JUMPDEST POP DUP1 SWAP2 POP POP SWAP3 SWAP2 POP POP JUMP JUMPDEST PUSH0 PUSH2 0x998 DUP4 DUP4 PUSH2 0x92D JUMP JUMPDEST SWAP1 POP SWAP3 SWAP2 POP POP JUMP JUMPDEST PUSH0 PUSH1 0x20 DUP3 ADD SWAP1 POP SWAP2 SWAP1 POP JUMP JUMPDEST PUSH0 PUSH2 0x9B6 DUP3 PUSH2 0x857 JUMP JUMPDEST PUSH2 0x9C0 DUP2 DUP6 PUSH2 0x861 JUMP JUMPDEST SWAP4 POP DUP4 PUSH1 0x20 DUP3 MUL DUP6 ADD PUSH2 0x9D2 DUP6 PUSH2 0x871 JUMP JUMPDEST DUP1 PUSH0 JUMPDEST DUP6 DUP2 LT ISZERO PUSH2 0xA0D JUMPI DUP5 DUP5 SUB DUP10 MSTORE DUP2 MLOAD PUSH2 0x9EE DUP6 DUP3 PUSH2 0x98D JUMP JUMPDEST SWAP5 POP PUSH2 0x9F9 DUP4 PUSH2 0x9A0 JUMP JUMPDEST SWAP3 POP PUSH1 0x20 DUP11 ADD SWAP10 POP POP PUSH1 0x1 DUP2 ADD SWAP1 POP PUSH2 0x9D5 JUMP JUMPDEST POP DUP3 SWAP8 POP DUP8 SWAP6 POP POP POP POP POP POP SWAP3 SWAP2 POP POP JUMP JUMPDEST PUSH0 PUSH1 0x20 DUP3 ADD SWAP1 POP DUP2 DUP2 SUB PUSH0 DUP4 ADD MSTORE PUSH2 0xA37 DUP2 DUP5 PUSH2 0x9AC JUMP JUMPDEST SWAP1 POP SWAP3 SWAP2 POP POP JUMP JUMPDEST PUSH2 0xA48 DUP2 PUSH2 0x915 JUMP JUMPDEST DUP2 EQ PUSH2 0xA52 JUMPI PUSH0 PUSH0 REVERT JUMPDEST POP JUMP JUMPDEST PUSH0 DUP2 CALLDATALOAD SWAP1 POP PUSH2 0xA63 DUP2 PUSH2 0xA3F JUMP JUMPDEST SWAP3 SWAP2 POP POP JUMP JUMPDEST PUSH0 PUSH1 0x20 DUP3 DUP5 SUB SLT ISZERO PUSH2 0xA7E JUMPI PUSH2 0xA7D PUSH2 0x6CC JUMP JUMPDEST JUMPDEST PUSH0 PUSH2 0xA8B DUP5 DUP3 DUP6 ADD PUSH2 0xA55 JUMP JUMPDEST SWAP2 POP POP SWAP3 SWAP2 POP POP JUMP JUMPDEST PUSH2 0xA9D DUP2 PUSH2 0x880 JUMP JUMPDEST DUP3 MSTORE POP POP JUMP JUMPDEST PUSH0 DUP3 DUP3 MSTORE PUSH1 0x20 DUP3 ADD SWAP1 POP SWAP3 SWAP2 POP POP JUMP JUMPDEST PUSH0 PUSH2 0xABD DUP3 PUSH2 0x89B JUMP JUMPDEST PUSH2 0xAC7 DUP2 DUP6 PUSH2 0xAA3 JUMP JUMPDEST SWAP4 POP PUSH2 0xAD7 DUP2 DUP6 PUSH1 0x20 DUP7 ADD PUSH2 0x8B5 JUMP JUMPDEST PUSH2 0xAE0 DUP2 PUSH2 0x6DC JUMP JUMPDEST DUP5 ADD SWAP2 POP POP SWAP3 SWAP2 POP POP JUMP JUMPDEST PUSH2 0xAF4 DUP2 PUSH2 0x8FB JUMP JUMPDEST DUP3 MSTORE POP POP JUMP JUMPDEST PUSH2 0xB03 DUP2 PUSH2 0x915 JUMP JUMPDEST DUP3 MSTORE POP POP JUMP JUMPDEST PUSH0 PUSH1 0x80 DUP3 ADD SWAP1 POP PUSH2 0xB1C PUSH0 DUP4 ADD DUP8 PUSH2 0xA94 JUMP JUMPDEST DUP2 DUP2 SUB PUSH1 0x20 DUP4 ADD MSTORE PUSH2 0xB2E DUP2 DUP7 PUSH2 0xAB3 JUMP JUMPDEST SWAP1 POP PUSH2 0xB3D PUSH1 0x40 DUP4 ADD DUP6 PUSH2 0xAEB JUMP JUMPDEST PUSH2 0xB4A PUSH1 0x60 DUP4 ADD DUP5 PUSH2 0xAFA JUMP JUMPDEST SWAP6 SWAP5 POP POP POP POP POP JUMP JUMPDEST PUSH2 0xB5C DUP2 PUSH2 0x880 JUMP JUMPDEST DUP2 EQ PUSH2 0xB66 JUMPI PUSH0 PUSH0 REVERT JUMPDEST POP JUMP JUMPDEST PUSH0 DUP2 CALLDATALOAD SWAP1 POP PUSH2 0xB77 DUP2 PUSH2 0xB53 JUMP JUMPDEST SWAP3 SWAP2 POP POP JUMP JUMPDEST PUSH0 PUSH1 0x20 DUP3 DUP5 SUB SLT ISZERO PUSH2 0xB92 JUMPI PUSH2 0xB91 PUSH2 0x6CC JUMP JUMPDEST JUMPDEST PUSH0 PUSH2 0xB9F DUP5 DUP3 DUP6 ADD PUSH2 0xB69 JUMP JUMPDEST SWAP2 POP POP SWAP3 SWAP2 POP POP JUMP JUMPDEST PUSH32 0x4E487B7100000000000000000000000000000000000000000000000000000000 PUSH0 MSTORE PUSH1 0x11 PUSH1 0x4 MSTORE PUSH1 0x24 PUSH0 REVERT JUMPDEST PUSH0 PUSH2 0xBDF DUP3 PUSH2 0x880 JUMP JUMPDEST SWAP2 POP PUSH1 0xFF DUP3 SUB PUSH2 0xBF2 JUMPI PUSH2 0xBF1 PUSH2 0xBA8 JUMP JUMPDEST JUMPDEST PUSH1 0x1 DUP3 ADD SWAP1 POP SWAP2 SWAP1 POP JUMP JUMPDEST PUSH32 0x4E487B7100000000000000000000000000000000000000000000000000000000 PUSH0 MSTORE PUSH1 0x22 PUSH1 0x4 MSTORE PUSH1 0x24 PUSH0 REVERT JUMPDEST PUSH0 PUSH1 0x2 DUP3 DIV SWAP1 POP PUSH1 0x1 DUP3 AND DUP1 PUSH2 0xC41 JUMPI PUSH1 0x7F DUP3 AND SWAP2 POP JUMPDEST PUSH1 0x20 DUP3 LT DUP2 SUB PUSH2 0xC54 JUMPI PUSH2 0xC53 PUSH2 0xBFD JUMP JUMPDEST JUMPDEST POP SWAP2 SWAP1 POP JUMP JUMPDEST PUSH0 DUP2 SWAP1 POP DUP2 PUSH0 MSTORE PUSH1 0x20 PUSH0 KECCAK256 SWAP1 POP SWAP2 SWAP1 POP JUMP JUMPDEST PUSH0 PUSH1 0x20 PUSH1 0x1F DUP4 ADD DIV SWAP1 POP SWAP2 SWAP1 POP JUMP JUMPDEST PUSH0 DUP3 DUP3 SHL SWAP1 POP SWAP3 SWAP2 POP POP JUMP JUMPDEST PUSH0 PUSH1 0x8 DUP4 MUL PUSH2 0xCB6 PUSH32 0xFFFFFFFFFFFFFFFFFFFFFFFFFFFFFFFFFFFFFFFFFFFFFFFFFFFFFFFFFFFFFFFF DUP3 PUSH2 0xC7B JUMP JUMPDEST PUSH2 0xCC0 DUP7 DUP4 PUSH2 0xC7B JUMP JUMPDEST SWAP6 POP DUP1 NOT DUP5 AND SWAP4 POP DUP1 DUP7 AND DUP5 OR SWAP3 POP POP POP SWAP4 SWAP3 POP POP POP JUMP JUMPDEST PUSH0 DUP2 SWAP1 POP SWAP2 SWAP1 POP JUMP JUMPDEST PUSH0 PUSH2 0xCFB PUSH2 0xCF6 PUSH2 0xCF1 DUP5 PUSH2 0x915 JUMP JUMPDEST PUSH2 0xCD8 JUMP JUMPDEST PUSH2 0x915 JUMP JUMPDEST SWAP1 POP SWAP2 SWAP1 POP JUMP JUMPDEST PUSH0 DUP2 SWAP1 POP SWAP2 SWAP1 POP JUMP JUMPDEST PUSH2 0xD14 DUP4 PUSH2 0xCE1 JUMP JUMPDEST PUSH2 0xD28 PUSH2 0xD20 DUP3 PUSH2 0xD02 JUMP JUMPDEST DUP5 DUP5 SLOAD PUSH2 0xC87 JUMP JUMPDEST DUP3 SSTORE POP POP POP POP JUMP JUMPDEST PUSH0 PUSH0 SWAP1 POP SWAP1 JUMP JUMPDEST PUSH2 0xD3F PUSH2 0xD30 JUMP JUMPDEST PUSH2 0xD4A DUP2 DUP5 DUP5 PUSH2 0xD0B JUMP JUMPDEST POP POP POP JUMP JUMPDEST JUMPDEST DUP2 DUP2 LT ISZERO PUSH2 0xD6D JUMPI PUSH2 0xD62 PUSH0 DUP3 PUSH2 0xD37 JUMP JUMPDEST PUSH1 0x1 DUP2 ADD SWAP1 POP PUSH2 0xD50 JUMP JUMPDEST POP POP JUMP JUMPDEST PUSH1 0x1F DUP3 GT ISZERO PUSH2 0xDB2 JUMPI PUSH2 0xD83 DUP2 PUSH2 0xC5A JUMP JUMPDEST PUSH2 0xD8C DUP5 PUSH2 0xC6C JUMP JUMPDEST DUP2 ADD PUSH1 0x20 DUP6 LT ISZERO PUSH2 0xD9B JUMPI DUP2 SWAP1 POP JUMPDEST PUSH2 0xDAF PUSH2 0xDA7 DUP6 PUSH2 0xC6C JUMP JUMPDEST DUP4 ADD DUP3 PUSH2 0xD4F JUMP JUMPDEST POP POP JUMPDEST POP POP POP JUMP JUMPDEST PUSH0 DUP3 DUP3 SHR SWAP1 POP SWAP3 SWAP2 POP POP JUMP JUMPDEST PUSH0 PUSH2 0xDD2 PUSH0 NOT DUP5 PUSH1 0x8 MUL PUSH2 0xDB7 JUMP JUMPDEST NOT DUP1 DUP4 AND SWAP2 POP POP SWAP3 SWAP2 POP POP JUMP JUMPDEST PUSH0 PUSH2 0xDEA DUP4 DUP4 PUSH2 0xDC3 JUMP JUMPDEST SWAP2 POP DUP3 PUSH1 0x2 MUL DUP3 OR SWAP1 POP SWAP3 SWAP2 POP POP JUMP JUMPDEST PUSH2 0xE03 DUP3 PUSH2 0x89B JUMP JUMPDEST PUSH8 0xFFFFFFFFFFFFFFFF DUP2 GT ISZERO PUSH2 0xE1C JUMPI PUSH2 0xE1B PUSH2 0x6EC JUMP JUMPDEST JUMPDEST PUSH2 0xE26 DUP3 SLOAD PUSH2 0xC2A JUMP JUMPDEST PUSH2 0xE31 DUP3 DUP3 DUP6 PUSH2 0xD71 JUMP JUMPDEST PUSH0 PUSH1 0x20 SWAP1 POP PUSH1 0x1F DUP4 GT PUSH1 0x1 DUP2 EQ PUSH2 0xE62 JUMPI PUSH0 DUP5 ISZERO PUSH2 0xE50 JUMPI DUP3 DUP8 ADD MLOAD SWAP1 POP JUMPDEST PUSH2 0xE5A DUP6 DUP3 PUSH2 0xDDF JUMP JUMPDEST DUP7 SSTORE POP PUSH2 0xEC1 JUMP JUMPDEST PUSH1 0x1F NOT DUP5 AND PUSH2 0xE70 DUP7 PUSH2 0xC5A JUMP JUMPDEST PUSH0 JUMPDEST DUP3 DUP2 LT ISZERO PUSH2 0xE97 JUMPI DUP5 DUP10 ADD MLOAD DUP3 SSTORE PUSH1 0x1 DUP3 ADD SWAP2 POP PUSH1 0x20 DUP6 ADD SWAP5 POP PUSH1 0x20 DUP2 ADD SWAP1 POP PUSH2 0xE72 JUMP JUMPDEST DUP7 DUP4 LT ISZERO PUSH2 0xEB4 JUMPI DUP5 DUP10 ADD MLOAD PUSH2 0xEB0 PUSH1 0x1F DUP10 AND DUP3 PUSH2 0xDC3 JUMP JUMPDEST DUP4 SSTORE POP JUMPDEST PUSH1 0x1 PUSH1 0x2 DUP9 MUL ADD DUP9 SSTORE POP POP POP JUMPDEST POP POP POP POP POP POP JUMP JUMPDEST PUSH32 0x4E487B7100000000000000000000000000000000000000000000000000000000 PUSH0 MSTORE PUSH1 0x32 PUSH1 0x4 MSTORE PUSH1 0x24 PUSH0 REVERT JUMPDEST PUSH0 PUSH2 0xF00 DUP3 PUSH2 0x915 JUMP JUMPDEST SWAP2 POP PUSH2 0xF0B DUP4 PUSH2 0x915 JUMP JUMPDEST SWAP3 POP DUP3 DUP3 SUB SWAP1 POP DUP2 DUP2 GT ISZERO PUSH2 0xF23 JUMPI PUSH2 0xF22 PUSH2 0xBA8 JUMP JUMPDEST JUMPDEST SWAP3 SWAP2 POP POP JUMP JUMPDEST PUSH0 DUP2 SLOAD SWAP1 POP PUSH2 0xF37 DUP2 PUSH2 0xC2A JUMP JUMPDEST SWAP1 POP SWAP2 SWAP1 POP JUMP JUMPDEST DUP2 DUP2 SUB PUSH2 0xF4C JUMPI POP POP PUSH2 0x1021 JUMP JUMPDEST PUSH2 0xF55 DUP3 PUSH2 0xF29 JUMP JUMPDEST PUSH8 0xFFFFFFFFFFFFFFFF DUP2 GT ISZERO PUSH2 0xF6E JUMPI PUSH2 0xF6D PUSH2 0x6EC JUMP JUMPDEST JUMPDEST PUSH2 0xF78 DUP3 SLOAD PUSH2 0xC2A JUMP JUMPDEST PUSH2 0xF83 DUP3 DUP3 DUP6 PUSH2 0xD71 JUMP JUMPDEST PUSH0 PUSH1 0x1F DUP4 GT PUSH1 0x1 DUP2 EQ PUSH2 0xFB0 JUMPI PUSH0 DUP5 ISZERO PUSH2 0xF9E JUMPI DUP3 DUP8 ADD SLOAD SWAP1 POP JUMPDEST PUSH2 0xFA8 DUP6 DUP3 PUSH2 0xDDF JUMP JUMPDEST DUP7 SSTORE POP PUSH2 0x101A JUMP JUMPDEST PUSH1 0x1F NOT DUP5 AND PUSH2 0xFBE DUP8 PUSH2 0xC5A JUMP JUMPDEST SWAP7 POP PUSH2 0xFC9 DUP7 PUSH2 0xC5A JUMP JUMPDEST PUSH0 JUMPDEST DUP3 DUP2 LT ISZERO PUSH2 0xFF0 JUMPI DUP5 DUP10 ADD SLOAD DUP3 SSTORE PUSH1 0x1 DUP3 ADD SWAP2 POP PUSH1 0x1 DUP6 ADD SWAP5 POP PUSH1 0x20 DUP2 ADD SWAP1 POP PUSH2 0xFCB JUMP JUMPDEST DUP7 DUP4 LT ISZERO PUSH2 0x100D JUMPI DUP5 DUP10 ADD SLOAD PUSH2 0x1009 PUSH1 0x1F DUP10 AND DUP3 PUSH2 0xDC3 JUMP JUMPDEST DUP4 SSTORE POP JUMPDEST PUSH1 0x1 PUSH1 0x2 DUP9 MUL ADD DUP9 SSTORE POP POP POP JUMPDEST POP POP POP POP POP POP JUMPDEST JUMP JUMPDEST PUSH32 0x4E487B7100000000000000000000000000000000000000000000000000000000 PUSH0 MSTORE PUSH1 0x31 PUSH1 0x4 MSTORE PUSH1 0x24 PUSH0 REVERT INVALID LOG2 PUSH5 0x6970667358 0x22 SLT KECCAK256 0xD LOG3 COINBASE EQ PUSH26 0x664856433347C207391B96CBDD2BA0A265DAEAB1D43E7FE4F465 PUSH3 0x64736F PUSH13 0x634300081E0033000000000000 "
				},
				"gasEstimates": {
					"creation": {
						"codeDepositCost": "846000",
						"executionCost": "881",
						"totalCost": "846881"
					},
					"external": {
						"createTask(string)": "infinite",
						"deleteTask(uint8)": "infinite",
						"getAllTasks()": "infinite",
						"markTaskCompleted(uint8)": "infinite",
						"tasks(uint256)": "infinite"
					}
				},
				"methodIdentifiers": {
					"createTask(string)": "111002aa",
					"deleteTask(uint8)": "c3d081f5",
					"getAllTasks()": "779900b4",
					"markTaskCompleted(uint8)": "a1d0166b",
					"tasks(uint256)": "8d977672"
				}
			},
			"storageLayout": {
				"storage": [
					{
						"astId": 14,
						"contract": "contracts/Todo.sol:Todo",
						"label": "tasks",
						"offset": 0,
						"slot": "0",
						"type": "t_array(t_struct(Task)10_storage)dyn_storage"
					},
					{
						"astId": 16,
						"contract": "contracts/Todo.sol:Todo",
						"label": "todo_id",
						"offset": 0,
						"slot": "1",
						"type": "t_uint8"
					}
				],
				"types": {
					"t_array(t_struct(Task)10_storage)dyn_storage": {
						"base": "t_struct(Task)10_storage",
						"encoding": "dynamic_array",
						"label": "struct Todo.Task[]",
						"numberOfBytes": "32"
					},
					"t_bool": {
						"encoding": "inplace",
						"label": "bool",
						"numberOfBytes": "1"
					},
					"t_string_storage": {
						"encoding": "bytes",
						"label": "string",
						"numberOfBytes": "32"
					},
					"t_struct(Task)10_storage": {
						"encoding": "inplace",
						"label": "struct Todo.Task",
						"members": [
							{
								"astId": 3,
								"contract": "contracts/Todo.sol:Todo",
								"label": "id",
								"offset": 0,
								"slot": "0",
								"type": "t_uint8"
							},
							{
								"astId": 5,
								"contract": "contracts/Todo.sol:Todo",
								"label": "title",
								"offset": 0,
								"slot": "1",
								"type": "t_string_storage"
							},
							{
								"astId": 7,
								"contract": "contracts/Todo.sol:Todo",
								"label": "isCompleted",
								"offset": 0,
								"slot": "2",
								"type": "t_bool"
							},
							{
								"astId": 9,
								"contract": "contracts/Todo.sol:Todo",
								"label": "timeCompleted",
								"offset": 0,
								"slot": "3",
								"type": "t_uint256"
							}
						],
						"numberOfBytes": "128"
					},
					"t_uint256": {
						"encoding": "inplace",
						"label": "uint256",
						"numberOfBytes": "32"
					},
					"t_uint8": {
						"encoding": "inplace",
						"label": "uint8",
						"numberOfBytes": "1"
					}
				}
			},
			"userdoc": {
				"kind": "user",
				"methods": {},
				"version": 1
			}
		}
	}
}