{
	"data": {
		"bytecode": {
			"linkReferences": {},
			"object": "6080604052348015600e575f5ffd5b506101af8061001c5f395ff3fe608060405234801561000f575f5ffd5b506004361061003f575f3560e01c8063a87d942c14610043578063abd1b73d14610061578063e834cbb31461006b575b5f5ffd5b61004b610075565b60405161005891906100c5565b60405180910390f35b61006961007d565b005b610073610095565b005b5f5f54905090565b5f5f81548092919061008e9061010b565b9190505550565b5f5f8154809291906100a690610152565b9190505550565b5f819050919050565b6100bf816100ad565b82525050565b5f6020820190506100d85f8301846100b6565b92915050565b7f4e487b71000000000000000000000000000000000000000000000000000000005f52601160045260245ffd5b5f610115826100ad565b91507fffffffffffffffffffffffffffffffffffffffffffffffffffffffffffffffff8203610147576101466100de565b5b600182019050919050565b5f61015c826100ad565b91505f820361016e5761016d6100de565b5b60018203905091905056fea26469706673582212206f01445e6c840a9ad8244c13934c2a237ba8d19e3ebe31d4371624ef1fcec87464736f6c634300081e0033",
			"opcodes": "PUSH1 0x80 PUSH1 0x40 MSTORE CALLVALUE DUP1 ISZERO PUSH1 0xE JUMPI PUSH0 PUSH0 REVERT JUMPDEST POP PUSH2 0x1AF DUP1 PUSH2 0x1C PUSH0 CODECOPY PUSH0 RETURN INVALID PUSH1 0x80 PUSH1 0x40 MSTORE CALLVALUE DUP1 ISZERO PUSH2 0xF JUMPI PUSH0 PUSH0 REVERT JUMPDEST POP PUSH1 0x4 CALLDATASIZE LT PUSH2 0x3F JUMPI PUSH0 CALLDATALOAD PUSH1 0xE0 SHR DUP1 PUSH4 0xA87D942C EQ PUSH2 0x43 JUMPI DUP1 PUSH4 0xABD1B73D EQ PUSH2 0x61 JUMPI DUP1 PUSH4 0xE834CBB3 EQ PUSH2 0x6B JUMPI JUMPDEST PUSH0 PUSH0 REVERT JUMPDEST PUSH2 0x4B PUSH2 0x75 JUMP JUMPDEST PUSH1 0x40 MLOAD PUSH2 0x58 SWAP2 SWAP1 PUSH2 0xC5 JUMP JUMPDEST PUSH1 0x40 MLOAD DUP1 SWAP2 SUB SWAP1 RETURN JUMPDEST PUSH2 0x69 PUSH2 0x7D JUMP JUMPDEST STOP JUMPDEST PUSH2 0x73 PUSH2 0x95 JUMP JUMPDEST STOP JUMPDEST PUSH0 PUSH0 SLOAD SWAP1 POP SWAP1 JUMP JUMPDEST PUSH0 PUSH0 DUP2 SLOAD DUP1 SWAP3 SWAP2 SWAP1 PUSH2 0x8E SWAP1 PUSH2 0x10B JUMP JUMPDEST SWAP2 SWAP1 POP SSTORE POP JUMP JUMPDEST PUSH0 PUSH0 DUP2 SLOAD DUP1 SWAP3 SWAP2 SWAP1 PUSH2 0xA6 SWAP1 PUSH2 0x152 JUMP JUMPDEST SWAP2 SWAP1 POP SSTORE POP JUMP JUMPDEST PUSH0 DUP2 SWAP1 POP SWAP2 SWAP1 POP JUMP JUMPDEST PUSH2 0xBF DUP2 PUSH2 0xAD JUMP JUMPDEST DUP3 MSTORE POP POP JUMP JUMPDEST PUSH0 PUSH1 0x20 DUP3 ADD SWAP1 POP PUSH2 0xD8 PUSH0 DUP4 ADD DUP5 PUSH2 0xB6 JUMP JUMPDEST SWAP3 SWAP2 POP POP JUMP JUMPDEST PUSH32 0x4E487B7100000000000000000000000000000000000000000000000000000000 PUSH0 MSTORE PUSH1 0x11 PUSH1 0x4 MSTORE PUSH1 0x24 PUSH0 REVERT JUMPDEST PUSH0 PUSH2 0x115 DUP3 PUSH2 0xAD JUMP JUMPDEST SWAP2 POP PUSH32 0xFFFFFFFFFFFFFFFFFFFFFFFFFFFFFFFFFFFFFFFFFFFFFFFFFFFFFFFFFFFFFFFF DUP3 SUB PUSH2 0x147 JUMPI PUSH2 0x146 PUSH2 0xDE JUMP JUMPDEST JUMPDEST PUSH1 0x1 DUP3 ADD SWAP1 POP SWAP2 SWAP1 POP JUMP JUMPDEST PUSH0 PUSH2 0x15C DUP3 PUSH2 0xAD JUMP JUMPDEST SWAP2 POP PUSH0 DUP3 SUB PUSH2 0x16E JUMPI PUSH2 0x16D PUSH2 0xDE JUMP JUMPDEST JUMPDEST PUSH1 0x1 DUP3 SUB SWAP1 POP SWAP2 SWAP1 POP JUMP INVALID LOG2 PUSH5 0x6970667358 0x22 SLT KECCAK256 PUSH16 0x1445E6C840A9AD8244C13934C2A237B 0xA8 DATALOADN 0x9E3E 0xBE BALANCE 0xD4 CALLDATACOPY AND 0x24 0xEF 0x1F 0xCE 0xC8 PUSH21 0x64736F6C634300081E003300000000000000000000 "
		},
		"gasEstimates": {
			"creation": {
				"codeDepositCost": "86200",
				"executionCost": "133",
				"totalCost": "86333"
			},
			"external": {
				"decreaseCount()": "24517",
				"getCount()": "2409",
				"increaseCount()": "24496"
			}
		},
		"methodIdentifiers": {
			"decreaseCount()": "e834cbb3",
			"getCount()": "a87d942c",
			"increaseCount()": "abd1b73d"
		}
	},
	"abi": [
		{
			"inputs": [],
			"name": "decreaseCount",
			"outputs": [],
			"stateMutability": "nonpayable",
			"type": "function"
		},
		{
			"inputs": [],
			"name": "getCount",
			"outputs": [
				{
					"internalType": "uint256",
					"name": "",
					"type": "uint256"
				}
			],
			"stateMutability": "view",
			"type": "function"
		},
		{
			"inputs": [],
			"name": "increaseCount",
			"outputs": [],
			"stateMutability": "nonpayable",
			"type": "function"
		}
	]
}